:020000040800F2
:1000000048110020CD00000825310008AD26000869
:1000100000000000000000000000000000000000E0
:100020000000000000000000000000008145000802
:100030000000000000000000713300082D46000899
:10004000FD00000800000000D9400008FD00000885
:10005000FD000008FD000008F5100008F71000087A
:1000600000000000FD000008FD000008FD00000881
:10007000FD000008FD000008FD0000080000000071
:10008000CD460008FD000008FD000008AD46000850
:10009000FD000008FD000008FD000008FD0000084C
:1000A000FD000008FD000008FD000008B14900083F
:1000B000FD000008FD0000080348854600F0A2FA94
:1000C00000480047F5600008481100200C4880F304
:1000D00008880C480168090E0B4A914205D10B486B
:1000E0000B4901600B480C4901600C4880470C48E3
:1000F0000047FEE7FEE7FEE7FEE7FEE7FEE700005B
:1001000048110020040000001F00000018100240E9
:10011000010000000000014000000000314600081E
:10012000B900000830B50B4601460020202201240A
:1001300009E00D46D5409D4205D31D469540491B1B
:100140002546954040191546521E002DF1DC30BD64
:1001500070B500242546002801DA01244042002918
:1001600001DA01254942FFF7DDFFAC4200D04042F1
:10017000002C00D0494270BD03460B439B0703D0BF
:1001800009E008C9121F08C0042AFAD203E00B785C
:100190000370401C491C521EF9D27047D2B201E0D4
:1001A0000270401C491EFBD270470022F6E710B5D2
:1001B00013460A4604461946FFF7F0FF204610BDD5
:1001C00030B505462A460B4610781C78521C5B1C3D
:1001D000002801D0A042F7D0002C03D0002802D084
:1001E0006D1CEFE7284630BD10B5002200E0521C20
:1001F000835C8C5CA34201D1002BF8D1D8B2E1B270
:10020000401A10BD03460A780270401C491C002A9F
:10021000F9D118467047F0B51FB40646002082B0E9
:1002200005464024019100901BE0019922460F46AB
:10023000304600F009FA049A059B801A994110D3C0
:1002400010461946224600F0EFF9361A8F41019701
:10025000224601200021009F00F0E6F938184D41A8
:1002600000902046641E0028DFDC019B0098294690
:10027000324607B0F0BD0000F0B5074608465840CA
:1002800087B0C00F049048000E4659004008490846
:10029000BC1A884105D2384631461E4617460B46E1
:1002A00002465800400810434CD0300D03904005E2
:1002B0005900400D490D0590401A0290402872DA0D
:1002C00018030121000B09050843019004980092CE
:1002D000002805D0019952420020884100920190E7
:1002E000029840210A1A0199009800F09DF90546EC
:1002F0000C466B4607CB00F0B8F9C0197141039A60
:100300000E0D0023D71756401A467A40164344D0A4
:10031000049A002A2DD0029A012A039A15DC1205AC
:10032000C01A914101263605001C7141D20F059E6D
:10033000D2070093019202962A46234600F0B5F9AF
:1003400007B0F0BD38463146FAE71605224A0F4697
:10035000B218C01AB74101210905001C4F4100180D
:100360007F41114618187941E20F10436D1964411D
:1003700013E0E2076D0815436408C2071443039AAB
:1003800001261205C01A91413605001C7141CE07A5
:10039000400830434908C01851412A46234600F01E
:1003A00077F9CDE7FFE7049801224000C117121A40
:1003B00000238B4104983146C417381AA141EEE757
:1003C00030B40124E407634030BC55E730B4012465
:1003D000E407614030BC4FE70000E0FFF0B51FB418
:1003E00088B00B990998002448400999C00F49002A
:1003F00049080991C0070B990090490049080B91E1
:1004000009990898A64608431CD00B990A980843F6
:1004100018D0099801244000420D4800410D099868
:1004200024050003000B204309900B980003000BE8
:1004300020430B9050181C4940180022019014468C
:10044000104605E0002001460DB0F0BD032801DA9A
:10045000034600E003239C46C11A0AAE0AE05F008F
:1004600008ADED5B4F00F75B7D430027AA187C4188
:10047000491C5B1E6145F2DD410004AB5A52210468
:10048000120C0A43240C401C0828DFDB0198029060
:100490000099704601910090059B049A079906986F
:1004A00000F003F9D0E700000DFCFFFFF0B50C46AB
:1004B0005C4085B0E40FE40703944C000026640818
:1004C00059009446490802460296224321D06246CA
:1004D0000A431ED06200570D4A000E032303550D38
:1004E000012402462C492405781B1B0B360B4018AF
:1004F00023432643614600901C46501AB44103D35F
:100500000098401C009002E0921800985B4100287F
:1005100003DA0020014605B0F0BD002001210905E5
:100520000746864611E064461D46141BB54106D3B6
:100530006546521BB341744607430C43A646CD079C
:1005400040084908284392185B4105460D43EAD10B
:100550001046184313D06046194650407140084376
:1005600006D06046101AB34106D20122002306E0ED
:1005700000220123DB0702E00122D243531000983E
:1005800074460105381C6141029C039D00196941B4
:1005900000F07EF8BFE70000FD0300004A000903F9
:1005A0000123090B1B0519430A4B10B5520D9A4242
:1005B00002DA0020014610BD064B34339A4203DCB8
:1005C0009A1A00F041F810BD034BD21800F02CF835
:1005D00010BD0000FF030000CDFBFFFF10B5002998
:1005E00004DB0124E40740428C412146002B04DB5C
:1005F0001C460123DB075242A341994200D190429D
:1006000010BD0000064C0125064E05E0E36807CC4E
:100610002B430C3C98471034B442F7D3FFF750FDFE
:100620001C8D00083C8D000810B5202A04DB014613
:10063000203A9140002010BD914020239C1A03468F
:10064000E3401943904010BD10B5202A04DB084652
:10065000203AD040002110BD0B46D340D04020248A
:10066000A21A91400843194610BD10B5202A06DB96
:10067000CB170846203A1041C1170B4306E00B4642
:100680001341D0402024A21A91400843194610BDBE
:1006900010B5002B08DA0024401C614192185B4120
:1006A0001A4301D14008400010BDF0B51FB482B01C
:1006B00005460C0003D0084604F012FC02E004F0EA
:1006C0000FFC20300246009021462846FFF7ACFF81
:1006D000049B059A04460F4618431143084314D05F
:1006E000184610431BD0009840210A1A1846059955
:1006F000FFF7AAFF05460E46009A05990498FFF7F2
:1007000093FF084305D0012004E02046394607B096
:10071000F0BD0020C11705430E432C433743009919
:100720000E986305401A7905E40A00220C43FD0A7D
:100730000A3002D500200146E9E701051019694198
:100740000C9C0D9D00196941FFF7A2FFDFE770B512
:100750008C180578401C6B075B0F01D10378401C97
:100760002A1106D10278401C03E006780E70401C66
:10077000491C5B1EF9D12B0705D40023521E0DD452
:100780000B70491CFAE70378401CCB1A921C03E05B
:100790001D780D70491C5B1C521EF9D5A142D8D39F
:1007A000002070BD10B50B460021846A1C43846292
:1007B00000BF0C4614432146416110BD01607047E3
:1007C00001617047002904D0826801231A438260C6
:1007D00003E0826802231A438260704710B5044622
:1007E0000548844207D10121401502F035FE002161
:1007F000601502F031FE10BD0024014030B5014605
:100800000020002200238C680125ED072C438C601A
:1008100000BF8C68E30FDB07521C0F242403A242A5
:1008200001D0002BF5D18C68E40FE407002C01D136
:10083000086C00E0002030BD0146086C80B27047B3
:1008400030B5024600200023012424060C40002C71
:1008500005D0946801252D06AC43234600E01368BB
:100860001C460C40002C01D0012000E0002030BDCF
:1008700010B50022C268084B1A400C7964030B685B
:1008800023438C682343CC6823430C6923434C697E
:1008900023431A43C26010BD03D2FFFF81680422C4
:1008A0001143816070470021016001718160C16066
:1008B000016141617047000010B500F0EFFB01F0ED
:1008C000FDF804462146012001F0ECFD0D480078BA
:1008D000002801D000F0B8FB00F002F90520C001AB
:1008E00004F09CFF0849012001F0BCFC01F00EF966
:1008F00004462146012001F0D5FD00F0C3F902F0C5
:10090000A9F910BD6D010020FFBF000070B50446BD
:10091000632C02DD0020C04370BD602C04DB632C1F
:1009200002DC01200B498870601EC004050E601EA9
:10093000C606F60EA9000748001D40580121B14027
:100940000843AA000349091D885002F061F80120FC
:10095000E2E70000040900200FB410B586B0044699
:1009600014220CA96846FFF707FC204609A90EC906
:1009700005F066FA002808D12046FFF7C7FFC0B28D
:1009800006B010BC08BC04B018470120F8E71CB53D
:100990000121480402F030FD022000900320694646
:1009A00008710920C00600F0CEFF1CBD10B586B04E
:1009B00000240121480202F03FFD0121480402F019
:1009C0001BFDFFF7E4FF6846FFF76DFF0020009076
:1009D0006946087102900390049005901348FFF750
:1009E000FDFE012189071148FFF7EAFE69460F481D
:1009F000FFF73EFF052202210C48FFF7D3FE0B480C
:100A0000FFF7FCFE01210948FFF7DCFE04E0601C53
:100A100084B2012004F022FF01210448FFF710FFF7
:100A2000002801D1642CF2DB06B010BD0024014087
:100A300010B5FF20A53000F0EDF8C82000F0FEF85A
:100A4000002413E000F0ACF80A49012001F082FA1A
:100A50000A2004F0E3FE00F09BF80749012001F0B2
:100A600079FA0A2004F0DAFE601CC4B20A2CE9DB31
:100A700010BD0000FF7F0000FF3F00001CB50121FA
:100A8000480402F0B9FC0820009001216846017179
:100A90000321417100218171C17169460920C0069D
:100AA00000F051FF1CBD10B508210920C00600F060
:100AB000BEFF10BD10B508210920C00600F0B9FF27
:100AC00010BD10B55F20C00000F0A4F8FF20693011
:100AD00000F0B4F80A22C821012001F0F7FA10BD95
:100AE00010B500F05DF8A02004F098FE00F050F87A
:100AF000642004F093FE00F053F8A02004F08EFE72
:100B000000F046F8642004F089FE00F049F8A020C7
:100B100004F084FE00F03CF8642004F07FFE00F056
:100B20003FF8A02004F07AFE00F032F8642004F0D0
:100B300075FE00200149487010BD00003C010020F6
:100B400010B5FF20A53000F065F8C82000F076F859
:100B500000F026F8482004F061FE00F019F8482063
:100B600004F05CFE00F01CF8482004F057FE00F092
:100B70000FF8482004F052FE00F012F8482004F06C
:100B80004DFE00F005F8482004F048FE10BD0000BE
:100B900010B50021014803F0C9FD10BD004401401B
:100BA00010B50121014803F0C1FD10BD0044014012
:100BB0001CB50121480402F01FFCFF200130009009
:100BC000022168460171032141710021C17169460A
:100BD000044800F0B8FE02220821024800F0FBFEA3
:100BE0001CBD00000004004810B5FFF7E1FFFF2026
:100BF000A53000F00FF8C82000F020F802230022F2
:100C00000249034805F038FA10BD00000D21000824
:100C1000EC0800203EB504460121480402F00CFC1B
:100C200001942F216846018000210181418069469D
:100C3000014803F0FFFD3EBD0044014010B586B001
:100C400004466021684681800121C1800021018124
:100C50000394022101820021818201A9084803F046
:100C600093FD0821064803F0D9FD0121044803F053
:100C70003DFD0121024803F04BFD06B010BD000010
:100C80000044014010B5FFF78BFFA02004F0C6FD23
:100C9000FFF77EFF502004F0C1FDFFF781FFA02089
:100CA00004F0BCFDFFF774FF502004F0B7FDFFF720
:100CB00077FFA02004F0B2FDFFF76AFF502004F098
:100CC000ADFD00200149487010BD00003C0100202E
:100CD00010B50021022001F079F902230022024917
:100CE000024805F0C9F910BDF10C000840080020C9
:100CF00030B589B0054600240121C9020920C0068B
:100D000000F08BFE002845D105F0B4FA002841D14F
:100D10004349088035E04348414A1288815C0220FB
:100D200001F054F90121C9020920C00600F075FE46
:100D300001280BD13A48008840003B49085A401C22
:100D4000374909884900384A505205E000203449A3
:100D500009884900344A50523148008840003249DD
:100D6000085A4B21C900884206D12E482C490988CF
:100D7000405C80210843044329480088401C2849DE
:100D80000880274800880528C5DD0021022001F0E1
:100D90001DF926E00020224908801EE02048008836
:100DA00040002149085A02280CDB1D4800884000F9
:100DB000085A4B21C900884204DA1A4818490988A0
:100DC000405C04430020164909884900164A5052E5
:100DD00013480088401C12490880114800880528E3
:100DE000DCDB002C1AD001216846017384730622D3
:100DF00007A9FFF7C1F903A80FC802F0D7FA05F059
:100E0000DFF8002805D109484078162801D001F004
:100E100012FF214606A004F03DF800BF09B030BD26
:100E2000280000202200002058080020A0000020F8
:100E30004B657956616C75653A2025580D0A00009E
:100E4000FFB589B006460F46002501F007F8089067
:100E50000898002801D10DB0F0BD002421E02846FB
:100E600000F02CFB0546681C002800D1F3E7E8B22F
:100E7000694603F0D1FA6846C078B0420FD10C98A9
:100E8000012803D068468088B84208D101A8023002
:100E90000B99FFF795F9002801D02846DBE7601C85
:100EA000C4B208988442DADB0020D4E7FFB589B0E9
:100EB0001298C007C00F002803D00024254D264EED
:100EC00014E01298C007C00F002803D00024234D5F
:100ED000234E0BE01298C007C00F002803D05F24F8
:100EE000204D214E02E000200DB0F0BDA847C7B252
:100EF000002F01D10020F7E70020089024E02046D1
:100F0000B0470446601C002800D1EDE7E0B2694616
:100F100003F082FA6846C1780998814210D10C9892
:100F2000012804D0684681880A98814208D101A925
:100F300002310B98FFF744F9002801D02046D3E78F
:100F40000898401CC0B208900898B842D7DB00202F
:100F5000CAE700005D1E0008BD140008191E000845
:100F60000D150008B51B00087D130008F0B589B009
:100F70000446632C03DD0020C04309B0F0BD1648D1
:100F80000078002814D001A9204603F045FA6846ED
:100F9000C07903280CD16846817A01A8C079000283
:100FA000081887B2384600F01BF8002800D1E4E7A3
:100FB000601EC004050E601EC606F60EA900074896
:100FC00041580120B0408143AA000448815001F0FB
:100FD0001FFD0120D1E700006D010020080900205D
:100FE0007FB5044615A103C901910090154800780A
:100FF000012801D000F0CEF82004010E684681706F
:10100000C4700020029003900121684600F010FC9B
:101010007D22D200082102A803F012FEC5B2082DDD
:101020000ADB6846007B002803D06846007B052861
:1010300002D1012004B070BD0020FBE7F5040000E0
:10104000000000F56C0100201FB511A103C901913A
:10105000009011480078012801D000F09BF8002092
:10106000029003900121684600F0E2FB7D22D2004D
:10107000082102A803F0E4FDC4B2082C06DB684690
:10108000007B002802D1012004B010BD0020FBE746
:10109000F5050000000000F56C01002010B500F01F
:1010A00047F90F4800F09EF80E4800F09BF80E48F4
:1010B00000F098F80D4800F095F800F0D7F80020FF
:1010C0000B498870002406E00021A2000848001D9A
:1010D0008150601CC4B2042CF6DB01F099FC10BDF9
:1010E00000F0000800F4000800F8000800FC000808
:1010F00004090020704770470149486170470000AB
:101100000004014010B50DA003F0C4FE00201149F9
:101110000872087A00F004FD04462146012001F01F
:10112000C1F90D49012001F09DF8122009494870CC
:101130000A4804F00DFE00F02DF810BD6E6F206916
:1011400064207761732072656769737465640D0A42
:1011500000000000A0000020FFBF000004080020E5
:1011600010B500F0E5F8034800F03CF800F07EF818
:1011700010BD000000E8000810B5044600F0D8F8E3
:10118000342000F029F8204600F02CF800F06EF82A
:1011900010BD00001FB50C480078002812D00BA12C
:1011A00003C9019100900121684600F041FB6422CF
:1011B000082102A803F044FD03F038FD0120054991
:1011C000087000BF1FBD00006D010020F509000080
:1011D000000009F56C0100200149C860704700005B
:1011E0000020024030B5044604250B20000400F026
:1011F000B1F80546042D17D10C48006902210843B7
:101200000A490861084644610069402108430749CA
:1012100008610B20000400F09DF8054603480069B2
:101220000221884301490861284630BD0020024060
:1012300004200D49C968C907C90F002901D0012040
:1012400010E00949C96810221140002901D002208C
:1012500008E00549C96804221140002901D0032093
:1012600000E00420704700000020024003480069AD
:1012700080210843014908617047000000200240B6
:1012800070B504460D4604260B20000400F062F8F9
:101290000646042E11D10A48006901210843084975
:1012A000086125800B20000400F054F8064604482D
:1012B00000694008400002490861304670BD0000E6
:1012C0000020024078B506460C4604250020009018
:1012D0000B20000400F03EF80546042D24D11348ED
:1012E0000069012108431149086134800B20000482
:1012F00000F030F80546042D10D1B01C0090200CF1
:10130000009908800B20000400F024F805460748E7
:101310000069400840000549086105E0034800698C
:101320004008400001490861284678BD002002407D
:101330000548006980210840002804D0034802497C
:101340004860034848607047002002402301674519
:10135000AB89EFCD10B503460424FFF769FF0446BF
:1013600003E0FFF765FF04465B1E012C01D1002B53
:10137000F7D1002B00D10524204610BD30B5024620
:10138000602A01DB632A01DD602101E0501CC1B24B
:1013900014E0481EC004030E481EC406E40E9D005F
:1013A000094840590125A5402840002804D058018B
:1013B0000019401C40B230BD481CC1B26429E8DBB2
:1013C0000020C043F7E700000809002030B50246BE
:1013D000632A01DC602A01DA632101E0501EC1B2F8
:1013E00014E0481EC004030E481EC406E40E9D000F
:1013F000094840590125A5402840002804D058013B
:101400000019401C40B230BD481EC1B26029E8DA64
:101410000020C043F7E700000809002030B502466D
:10142000602A01DB632A01DD602101E0501CC1B2AA
:1014300014E0481EC004030E481EC406E40E9D00BE
:10144000094840590125A5402840002804D15801E9
:101450000019401C40B230BD481CC1B26429E8DB11
:101460000120C043F7E700000809002030B502461C
:10147000632A01DC602A01DA632101E0501EC1B257
:1014800014E0481EC004030E481EC406E40E9D006E
:10149000094840590125A5402840002804D1580199
:1014A0000019401C40B230BD481EC1B26029E8DAC4
:1014B0000120C043F7E700000809002030B50246CC
:1014C000642A01DA012A01DA012101E0501CC1B2CB
:1014D00014E0481EC004030E481EC406E40E9D001E
:1014E000094840590125A5402840002804D058014A
:1014F0000019401C40B230BD481CC1B26429E8DB71
:101500000020C043F7E700000809002030B502467C
:101510005F2A01DC012A01DA012101E0501CC1B27D
:1015200014E0481EC004030E481EC406E40E9D00CD
:10153000094840590125A5402840002804D05801F9
:101540000019401C40B230BD481CC1B26029E8DB24
:101550000020C043F7E700000809002030B502462C
:10156000602A01DA012A01DA5F2101E0501EC1B2CE
:1015700014E0481EC004030E481EC406E40E9D007D
:10158000084840590125A5402840002804D05801AA
:101590000019401C40B230BD481EC1B20029E8D13C
:1015A000481EF8E70809002030B502465F2A01DC32
:1015B000012A01DA012101E0501CC1B214E0481EE9
:1015C000C004030E481EC406E40E9D00094840599D
:1015D0000125A5402840002804D158010019401CCD
:1015E00040B230BD481CC1B26029E8DB0120C043D5
:1015F000F7E700000809002030B50246602A01DA4A
:10160000012A01DA5F2101E0501EC1B214E0481E38
:10161000C004030E481EC406E40E9D00084840594D
:101620000125A5402840002804D158010019401C7C
:1016300040B230BD481EC1B20029E8D1881EF8E78B
:101640000809002010B54021014800F0F0F910BD54
:101650000014004810B54021014800F0EAF910BD1F
:10166000001400481CB50021684681710121C17138
:1016700040200090684601710321417101218805D5
:1016800001F0BAFE6946024800F05DF91CBD000099
:10169000001400481CB50AA103C9019100900A4832
:1016A0000078012801D0FFF775FD03F0BFFA022092
:1016B000054908700021684600F0BAF81CBD00001A
:1016C000F5010000010000F56C01002010B590B09C
:1016D000202102A8FEF769FD00F064FA0446524892
:1016E000007801287ED0082C7CDB042008A9087231
:1016F0000122082102A803F0A3FA4C48007802282E
:101700005ED10120494908706846407A01280FD10E
:10171000012108A881726846C17A0AA8C170062210
:101720000EA96846FEF728FD0AA80FC801F03EFE84
:101730006846407A032872D16846007B01280BD0A6
:101740006846007B042807D06846007B842803D0C5
:101750006846007B072810D1032108A881726846DB
:10176000017B0AA8C17006220EA96846FEF704FD97
:101770000AA80FC801F01AFE51E06846007B002855
:1017800017D1032108A8817200210AA8C1706846F8
:10179000C17A0AA801716846817A0AA841710622B5
:1017A0000EA96846FEF7E8FC0AA80FC801F0FEFD86
:1017B00035E06846007B082831D1FFF76BFF2EE04B
:1017C0001A480078062827D1012018490870684671
:1017D000407A0C2823D16846007B082803D101F009
:1017E00005FC1CE01DE00C2108A881726846017B05
:1017F0000AA8C1706846C17A0AA801716846817A50
:101800000AA8417106220EA96846FEF7B5FC0AA88F
:101810000FC801F0CBFD02E001200449087003F07D
:1018200005FA10B010BD0000000000206C0100207F
:10183000FEB505460E46082229466846FEF79CFC82
:101840000027012404E06846005D4740601CC4B2E4
:10185000062CF8DB6846877103F0E8F93246082168
:10186000684603F023FAFEBD1FB513A103C9019119
:10187000009013480078012801D0FFF78BFC00206E
:101880000290039003F0D2F901216846FFF7D0FFE0
:101890006422082102A803F0D3F984B2082C09DBE2
:1018A0006846407A2D2805D16846007B002801D182
:1018B00004B010BD0120FBE7F52D000100002CF560
:1018C0006C010020F7B50C4615460027002D01D10C
:1018D0000120FEBDFFF72CFD002616E001E0781C7C
:1018E00087B221680098FFF7EDFC042801D00A2F89
:1018F000F5DB0A2F03DBFFF7B9FC0120E9E70098CD
:10190000001D0090241D701C86B2E81CC117890FB1
:1019100009188910B142E1DCFFF7A8FC0020D8E7E4
:101920001CB50121480401F067FD0120C0030090AF
:101930000021684601710121C17169460920C00674
:1019400000F001F81CBDF0B50A4600210023002478
:1019500000BF3DE001258D402B4615681D402C46FB
:101960009C4234D11579012D02D01579022D16D162
:1019700085684F000326BE40B543856055794E000B
:10198000B540866835438560858801268E40B5431D
:101990008580858896798E40B6B235438580056806
:1019A0004F000326BE40B543056015794E00B54093
:1019B000066835430560C5684F000326BE40B54341
:1019C000C560D5794E00B540C6683543C560491C31
:1019D0001029BFD3F0BDF0B5002300244D07EE0E53
:1019E0001546B5402B46CD10AE0005462035AD5905
:1019F0004E07F70E0F26BE40B543CE10B600074681
:101A00002037BD51CD10AE003D46AD591D432C468B
:101A1000CD10AD003E467451F0BD02460020138A41
:101A20000B40002B01D0012000E000207047018511
:101A3000704781617047000070B50446632C02DD79
:101A40000020C04370BD0A212046FEF781FB0649F5
:101A50000D5C0A212046FEF77BFB0348405C29020F
:101A6000084305B22846EDE74C0000200349887A78
:101A70000102024A527B1143084670474C00002085
:101A80000349887A0102024A527C11430846704792
:101A90004C0000200349087C0102024A127C1143D9
:101AA000084670474C0000200349487C0102024A66
:101AB000927C1143084670474C0000200349087B84
:101AC0000102024A527C1143084670474C00002034
:101AD0000349887B0102024AD27B114308467047C2
:101AE0004C0000200349887C0102024AD27B11434A
:101AF000084670474C0000200349C87C0102024A96
:101B0000D27B1143084670474C0000200349C87C33
:101B10000102024A127D1143084670474C00002022
:101B200070B50446632C01DD002070BD0A212046FB
:101B3000FEF70EFB06490D5C0A212046FEF708FB66
:101B40000348405C2902084305462846EDE70000AB
:101B50004C0000200146302905DB392903DC08460A
:101B60003038C2B206E02A2901D10A2202E0232934
:101B700000D10B220120904003239B03984380B2A5
:101B80007047024611880846704700000148006807
:101B900070470000140000200148006870470000F2
:101BA0001800002010B5024800F050F910BD0000E8
:101BB0008401002010B50020602110E04A1E520967
:101BC0009300084AD2584B1EDC06E40E0123A340C2
:101BD0001A40002A01D0421CD0B24A1CD1B264295A
:101BE000ECDB10BD08090020F8B5002000900027AC
:101BF00000BFFEF75FFF012003F010FE1F48FEF755
:101C00004DFE002528E01D48FEF748FE06E000983E
:101C1000401C80B20090012003F020FE04211748F0
:101C2000FEF70EFE002804D17D21C90000988842ED
:101C3000EDDB1248FEF700FE064610210F48FEF7C6
:101C4000BDFD0F49714308460E49FEF781FA04466F
:101C5000381987B2681C85B2032DD4DB93217943F0
:101C600008468D21FEF774FA84B200210348FEF77E
:101C7000A9FDFEF718FF2046F8BD00000024014032
:101C8000E40C0000FE0F0000F1B58AB0002509A8A1
:101C900000F042F86846808C002801D10BB0F0BDFE
:101CA000FFF788FF0446002C00D1F7E7002620E06C
:101CB0005F20FFF763FB0546681C002801D05F2DFD
:101CC00001DC0020EAE7E8B201A902F0A5FB6846C2
:101CD000C07903280BD16846817A01A8C079000237
:101CE000081887B20A98874201D12846D6E7701CA7
:101CF00086B2A642DCDB0020D0E770B505460024A2
:101D0000284600F03DF80446002C03D12846FFF792
:101D1000BBFF0446204670BD7FB5044615A103C92C
:101D20000191009015480078012801D0FFF732FAA0
:101D300002F07CFF00200290039001216846FFF72B
:101D400077FD7D22D200082102A802F079FF85B23A
:101D5000082D0DDB6846007B002809D16846807A93
:101D600001026846C07A08182080002004B070BDC7
:101D70000120FBE7F5090000000009F56C010020D7
:101D8000F1B58AB0002609A8FFF7C6FF6846808C27
:101D9000002801D10BB0F0BD00F03EF80446002C45
:101DA00000D1F7E700251DE03046FFF7AFFB064600
:101DB000701C002800D1EDE7F0B201A902F02CFB65
:101DC0006846C07903280BD16846817A01A8C0799A
:101DD0000002081887B20A98874201D13046D9E735
:101DE000681C85B2A542DFDB0020D3E710B50121D6
:101DF000C9030920C006FFF710FE10BD10B5FF2172
:101E000001310920C006FFF708FE10BD0148008817
:101E10007047000000E8000810B50020012110E024
:101E20004A1E52099300084AD2584B1EDC06E40EA3
:101E30000123A3401A40002A01D0421CD0B24A1C00
:101E4000D1B26029ECDB10BD08090020014688688A
:101E5000002800D170474888C0B2FBE710B50020C9
:101E6000012110E04A1E52099300084AD2584B1E25
:101E7000DC06E40E0123A3401A40002A01D0421CD4
:101E8000D0B24A1CD1B26429ECDB10BD0809002095
:101E900070B505460E46022D01D1094C05E0012D15
:101EA00001D1084C01E0002070BD002E03D00120BC
:101EB000A168884702E00020A16888470120F3E775
:101EC0003C0000202C00002010B5012149030248ED
:101ED000FFF7AFFD10BD00000008004810B501215C
:101EE00049030248FFF7A3FD10BD000000080048A9
:101EF000F8B506460F46022E01D1144C05E0012E1E
:101F000001D1134C01E00020F8BD072519E00120A4
:101F1000A8403840002803D001202168884702E00B
:101F2000002021688847012003F098FC00206168A8
:101F30008847012003F092FC012061688847681EF1
:101F400045B2002DE3DA0120DEE700003C0000206E
:101F50002C00002070B504460D46022C03D1012C44
:101F600001D1002070BD00212046FFF791FFE9B2AA
:101F70002046FFF7BDFF2804010E2046FFF7B8FFFB
:101F800001212046FFF784FF0120EBE770B50446EE
:101F90000D46022C03D1012C01D1002070BD00217F
:101FA0002046FFF775FFE9B22046FFF7A1FF28049E
:101FB000010E2046FFF79CFF00212046FFF798FF07
:101FC00001212046FFF764FF0120E7E770B50546D1
:101FD0000E46022D01D10B4C05E0012D01D10A4C1A
:101FE00001E0002070BD0020A168884700F0B4FA2D
:101FF00031462846FFF77CFF0120A1688847012071
:10200000F0E700003C0000202C0000201CB5044636
:1020100001204003009001216846017103214171B4
:1020200000218171C1710121C80401F0E5F96946FF
:102030002048FFF788FCFFF747FF022020400028D8
:1020400019D00121880401F0D7F90F200003009076
:1020500069461948FFF777FC012149031648FFF745
:10206000E6FC0121C9031448FFF7E1FC0121090343
:102070001148FFF7DCFCE007C00F00280FD001215A
:10208000480401F0B9F9F020009069460920C00623
:10209000FFF759FC20210920C006FFF7C8FC0749BB
:1020A0000120FFF757FF00210220FFF78FFFFFF706
:1020B00015FF1CBD0008004800040048FF3F000059
:1020C00010B5FEF773FCFEF7D9FC10BD70B50446E1
:1020D0000D46164600200C4948700846C6608560CB
:1020E0004460002C04D1407804210843064948701C
:1020F000FFF74CFD40000449086108464078022182
:1021000008430149487070BD3C01002070B5054688
:102110002B480078002851D12948407802210840F6
:1021200000284BD0FFF732FD440025480069A0424B
:1021300044D823484078C007C00F002817D0204853
:10214000C06800191E4908610846407840084000F0
:102150004870FEF71DFD1A48407804210840002809
:102160002CD117484068401E1549486026E01448A5
:10217000406800280CD1124840780421084000280B
:1021800006D10F484078022148400D49487015E0BB
:102190000B48806800190A49086108464078012107
:1021A000084307494870FEF7FBFC054840780821C2
:1021B0000840002802D001200149487070BD00008D
:1021C0003C010020F8B504460D4616461F4615484A
:1021D000844203D101201449087609E0134884425F
:1021E00003D101201049087602E000200E4908764C
:1021F00000200D4948700846C760866045608482AB
:10220000002D04D140780421084307494870FFF7A6
:10221000BDFC05490861084640780221084302498F
:102220004870F8BDFF7F000084000020FFBF000061
:1022300010B5002009494870C820C8608860012096
:10224000486007488882FFF7A1FC044908610846F6
:102250004078022108430149487010BD84000020E5
:10226000FFBF000070B505460C46002025490876E2
:102270002B0002F04CFE0910061D44324444443D3C
:10228000440001201F49487008468482818A012049
:10229000FFF760FE34E000201A4948700846848247
:1022A000C08AC8820846818A0120FFF753FE27E0D2
:1022B0000020144948703220C860886001204860BE
:1022C00008468482FFF762FC0E49086108464078A0
:1022D000022108430B49487012E006200949487062
:1022E000C820C8608860002048600846848207E0F3
:1022F00004484078082108430249487000E000BFC4
:1023000000BF70BD8400002010B50020094948704E
:10231000C820C86088600120486007488882FFF7AD
:1023200035FC044908610846407802210843014908
:10233000487010BD84000020FF7F000010B502230C
:1023400000220249024803F097FE10BD5523000801
:102350007C08002070B505465048007800287DD1E3
:102360004E4840780221084000285ED0FFF70EFC5E
:1023700004464A480169A14257D84078C007C00FB7
:10238000002828D04548C06800194449086108461B
:1023900040784008400048700846007E002804D07D
:1023A0003F490120FFF7D6FD04E03C48C18A0120E7
:1023B000FFF7D0FD3948407804210840002834D187
:1023C00036484068401E3549486008464068002845
:1023D0002BD1087629E03148406800280CD12F48DD
:1023E000407804210840002806D12C48407802217A
:1023F00048402A49487018E0284880680019274951
:10240000086108464078012108432449487008467D
:10241000818A0120FFF79EFD20484078082108406E
:10242000002802D001201D4948701C484078102126
:102430000840002830D0FFF7A9FB04461748006980
:10244000A04229D815484078C007C00F002813D0F3
:102450001248407840084000104900E01CE04870F5
:1024600008464078102148400C4948700846C18A07
:102470000120FFF76FFD0FE0084880680019074949
:10248000086108464078012108430449487008461D
:10249000818A0120FFF75EFD70BD000084000020EE
:1024A000FF3F000070B505460C462B0002F02FFDE3
:1024B0000910061B42304242423B420001201F49A4
:1024C000487008468482818A0220FFF75FFD32E06F
:1024D00000201A494870401E88820846818A0220DE
:1024E000FFF754FD27E00020144948709620C8608B
:1024F0008860C820486008468482FFF747FB0F4980
:10250000086108464078022108430C49487012E0EF
:1025100006200A4948709620C860886000204860FC
:102520000846848207E005484078082108430349AB
:10253000487000E000BF00BF70BD000064000020D4
:1025400010B5322300220249024803F095FD10BD68
:10255000E92500086408002010B5224840780221CF
:102560000840002805D11F48407804210840002871
:102570001DD01C484078C007C00F00280BD0194858
:10258000017D0220FFF7B4FC1648808A0112022068
:10259000FFF7AEFC25E00020002822D1FF21022019
:1025A000FFF7A6FCFF210220FFF7A2FC19E00D486F
:1025B0004078C007C00F00280BD00A48017D0220D8
:1025C000FFF796FC0748808A01120220FFF790FC73
:1025D00007E0FF210220FFF78BFCFF210220FFF71D
:1025E00087FC10BD6400002070B505462D480078BA
:1025F000002856D12B48407802210840002850D0AE
:10260000FFF7C4FA044627480069A04249D8254884
:102610004078C007C00F002819D02248C0680019B0
:1026200020490861084640784008400048701E492B
:102630000220FFF7ABFC1B4840780421084000282B
:102640002FD118484068401E1649486029E01548B7
:10265000406800280CD11348407804210840002825
:1026600006D110484078022148400E49487018E0D1
:102670000C48806800190B49086108464078012120
:102680000843084948700846818A0220FFF77EFC0B
:102690000448407808210840002802D00120014960
:1026A000487070BD64000020FFFF000000BFFEE71F
:1026B00038B5044601236A462146B42000F0D4F818
:1026C000002802D06846007838BD00F0AFF800203E
:1026D000FAE773B504460025012301AA2146B42078
:1026E00000F000F90546002D01D100F09FF82846C2
:1026F0007CBD000010B50446002C04D10121074820
:10270000FFF795F903E001210448FFF792F900F083
:1027100007F801210148FFF78CF910BD00040048BB
:1027200010B50A2003F09AF802210848FFF781F952
:102730000A2003F093F801210448FFF76EF90446DC
:1027400002210248FFF773F9204610BD000400483B
:102750001CB50121880400F04FFE032000900121E8
:102760006846017103214171012181710021C1710C
:1027700069460248FFF7E7F81CBD00000004004866
:1027800070B50024002509E06006040EFFF7C8FFBD
:10279000002801D0601CC4B2681CC5B2082DF3DB50
:1027A000204670BD70B50446002513E0802020400F
:1027B000C611002E04D101210D48FFF738F903E0BE
:1027C00001210B48FFF735F96006040EFFF7A8FF5B
:1027D000681CC5B2082DE9DBFFF7A2FF002803D073
:1027E00000200449087002E001200249087070BD11
:1027F000000400482000002010B501210A48FFF71E
:1028000018F902210848FFF714F90A2003F026F806
:1028100001210548FFF70BF90A2003F01FF80221F8
:102820000148FFF704F910BD0004004810B502216B
:102830000C48FFF7FCF801210A48FFF7F8F80A20D6
:1028400003F00CF802210748FFF7F3F80A2003F021
:1028500005F801210348FFF7ECF80A2002F0FEFF1B
:1028600010BD000000040048FFB581B006461446C4
:102870001F46FFF7C1FF3046FFF794FF1848007866
:10288000002801D105B0F0BD0298FFF78BFF144876
:102890000078002800D1F5E7FFF7AEFF711CC8B241
:1028A000FFF780FF0E480078002800D1EAE70025F6
:1028B00008E0FFF765FF20700020FFF71BFF641C96
:1028C000681CC5B2781EA842F3DCFFF759FF2070E0
:1028D0000120FFF70FFFFFF7A9FF0120D2E700005B
:1028E00020000020FFB581B00E4614461F46FFF7BA
:1028F00083FF0198FFF756FF10480078002801D1A8
:1029000005B0F0BD3046FFF74DFF0C4800780028B9
:1029100000D1F5E700250AE02078FFF743FF0748DC
:102920000078002800D1EBE7641C681CC5B2BD42EA
:10293000F2DBFFF77BFF0120E2E700002000002030
:102940000148024908607047CCCC000000300040CC
:102950000148024908607047AAAA00000030004000
:10296000014948607047000000300040014988601C
:1029700070470000003000400149086070470000C7
:102980000030004010B50748FFF7F6FF0520FFF7BD
:10299000E7FF0548FFF7EAFFFFF7DAFFFFF7D0FF91
:1029A00010BD000055550000E204000010B51422CF
:1029B00013491448FDF7E0FB124800881249884289
:1029C00006D010480069FF2109020840002815D0F0
:1029D000002406E00021A2000A48001D8150601C6E
:1029E000C4B2042CF6DB00200649887000F010F811
:1029F00006480078002801D0FEF726FB10BD000035
:102A000000EC000804090020FFFF00006D01002019
:102A100000B585B014220C496846FDF7ADFB684649
:102A200000880A49884206D0FEF782FC0648FEF775
:102A3000D9FBFEF71BFC012005490880142202483F
:102A4000FEF740FF05B000BD00EC0008FFFF0000EE
:102A50000409002070B50446002C07D1FEF760FF82
:102A6000FFF7C4F9002801D102F060FF03F0FAFA81
:102A700002F0BEFEFEF7B8F80320FFF7C7FAFFF733
:102A80001FFBFEF7EFFDFEF7E5FD03F0A9F9FFF7E9
:102A90008DFF002C01D0012C13D1FFF7A5F851496F
:102AA000884208DCFFF700F8064631460120FFF7B0
:102AB000F9FCFDF7BDFF00210120FFF7D3FBFEF776
:102AC00000F8012C32D1FFF7A1F94749884210D113
:102AD00016204649487046490020FFF7E3FC454967
:102AE0000120FFF737FA00204349487000F0D8FA78
:102AF00041E0FFF7B3F9002807D0FEF7CBFF05460A
:102B000029460120FFF7CEFC08E0FEF7FFFF05464F
:102B100029460120FFF7C6FCFEF712F800F074F911
:102B2000064631460120FFF7BDFC24E0002C1FD1F2
:102B3000FFF794F9002807D0FEF7ACFF05462946B9
:102B40000120FFF7AFFC08E0FEF7E0FF054629464D
:102B50000120FFF7A7FCFDF7F3FF1420234948707D
:102B6000FEF798FF064631460120FFF79BFC02E086
:102B700000201E494870FFF7EBFD03F083FBFFF7D1
:102B8000DFFCFFF7DBFB01F049F900F0C7FEFEF7C1
:102B90009FF801F0CDFE01F08BFE00F069FA00F025
:102BA000E9FB002C10D15D2000F0A8FD002804D026
:102BB00000F076FC11A002F06DF9FFF727F90A4941
:102BC000884201D1FEF7CCFA002C01D0012C08D1AB
:102BD0000E48FEF7D6FF0649884202D00B48FEF7A2
:102BE000CBFA70BD9411000088550000A0000020B1
:102BF000FFFF0000FFBF00008400002069776467CA
:102C00002072657365740D0A0000000000E400087E
:102C10001CB50121480400F0EFFBFF2001300090BB
:102C20000021684601710121C17169460920C00671
:102C3000FEF789FE1CBD10B5FF20A530FDF7EAFFA9
:102C4000C820FDF7FBFF0A2223210120FFF73EFAEF
:102C500010BD000010B500240AE0012002F0FEFDC6
:102C6000601C84B2FF20F530844201DD002010BDDD
:102C700003F000FB0028F0D003F0C2FA00F08AFE57
:102C8000012000F0B3FA012000F0F6FB002000F074
:102C9000F3FB012000F056FD002404E0012002F0C7
:102CA000DDFD601C84B2412000F028FD002801D128
:102CB000642CF3DB01F074F90121080200F0D4FA6E
:102CC000012000F0A7FA72B603F0D4FA002801D070
:102CD00000F0AAFA0048CAE7FFFF000070B500251F
:102CE00006E0681C85B23648854201DD002070BDD3
:102CF00003F0C0FA0028F4D0FFF780F8002825D1AF
:102D00003048FEF73EFF04462F49884200D1002498
:102D1000641C21462DA002F0BDF8062C0BD1012029
:102D20002F49087000F00EF9641CA1B2254802F08A
:102D300081F80120DBE7072C07D2214629A002F009
:102D4000A9F8A1B21F4802F075F80BE01D48FEF784
:102D500018FF1D49884205D027A002F09BF81948AA
:102D6000FEF70AFAFEF76EFC012000F03FFA0120A0
:102D700000F082FB002000F07FFB012000F0E2FC6D
:102D8000002501E0681C85B2412000F0B7FC002856
:102D900003D17D20C0008542F4DB01F001F901215F
:102DA000080200F061FA012000F034FA72B603F074
:102DB00061FA002801D000F037FA034897E70000D5
:102DC0008813000000E40008FFFF000074696D65CF
:102DD000436F756E7431203D2025640D0A0000009C
:102DE000C8000020777269746520256420746F2004
:102DF000666C6173680D0A006C6F636B2072656CA2
:102E0000656173650D0A000010B509480078002857
:102E100001D000F0EBF8002006490870064802F0E7
:102E200097FF032005494870FEF734FE10BD0000EF
:102E30006D010020C500002004080020A000002033
:102E400010B507480078002801D000F0CFF80548F9
:102E500002F07EFF082004494870FEF707FE10BD0F
:102E60006D01002004080020A000002010B50748D4
:102E70000078002801D000F0B9F80D20044948700E
:102E8000FEF730FE0446204610BD00006D01002014
:102E9000A000002010B507480078002801D000F0FD
:102EA000A5F80A2004494870FEF71CFE0446204697
:102EB00010BD00006D010020A000002010B5FFF73C
:102EC0000DF8FEF705FE044621460120FFF7EAFA59
:102ED0000C490120FFF73EF8FDF7D4FE0A49012016
:102EE000FFF738F8FEF7F0FFFEF750FE07494018ED
:102EF00007490860152007494870012006490870F5
:102F000010BD0000FF7F0000FF3F00003075000093
:102F1000BC000020A00000203C01002010B50648A5
:102F20000078002801D0FEF7B5FB044802F010FF3E
:102F300006200349487010BD6D01002004080020E0
:102F4000A000002010B50320FFF784FDFEF71EFE51
:102F50000749401807490860C82211460020FFF7BA
:102F6000B5F8C8231A4600210348FFF72BF910BD16
:102F700088130000B8000020FF7F000010B507494B
:102F80000978042903D10D21054A117002E00A21B4
:102F9000034A1170FEF7A6FD10BD0000A00000203E
:102FA000C400002010B504463420FEF715F9204671
:102FB000FEF718F910BD10B5FEF79EFD0446214638
:102FC0000120FFF76FFAFDF75DFEFFF743FE10BD2E
:102FD00010B5FEF79BFD044621460120FFF762FA7B
:102FE000FDF7AEFDFFF736FE10BD00001CB50AA1CF
:102FF00003C9019100900A480078012801D0FEF72A
:10300000C9F801F013FE0620054908700021684642
:10301000FEF70EFC1CBD0000F50C000000000CF5D6
:103020006C01002010B5032189020448FEF701FD60
:103030000121C9020148FEF7FAFC10BD0004004856
:1030400010B5032189020448FEF7F3FC012189022F
:103050000148FEF7ECFC10BD0004004810B5032148
:1030600089020248FEF7E5FC10BD0000000400489C
:103070001CB50121880400F0BFF9032080020090F4
:103080000121684601710321417100218171694666
:103090000248FEF758FCFFF7E1FF1CBD00040048A2
:1030A00010B5FF20F530FDF7B5FDE620FDF7C6FDB4
:1030B000FDF776FD782002F0B1FBFDF769FD2820D1
:1030C00002F0ACFBFF20A530FDF7A4FD6420FDF766
:1030D000B5FDFDF765FD782002F0A0FBFDF758FD7A
:1030E000182002F09BFBFF206930FDF793FD822042
:1030F000FDF7A4FDFDF754FD782002F08FFBFDF7EE
:1031000047FD502002F08AFBFF20C330FDF782FD0F
:103110008220FDF793FD00200149487010BD00009A
:103120003C0100207047000000218278002A27D04F
:10313000184A03231B02D21803789B109B00D15816
:1031400002789207D30EFF229A400B46934319460A
:1031500042789207120E03789B07DB0E9A401143C8
:103160000C4A03231B02D21803789B109B00D150FA
:103170000278D306DB0E01229A40064B1A6007E064
:103180000278D306DB0E01229A40024B80331A608C
:103190007047000000E100E010B5FF207D30FDF732
:1031A00039FD8220FDF74AFDFDF7FAFC282002F0E8
:1031B00035FBFDF7EDFC502002F030FBFDF7F0FC95
:1031C000282002F02BFBFDF7E3FC502002F026FB49
:1031D000FF20A530FDF71EFDC820FDF72FFD0020C4
:1031E0000149487010BD00003C010020002807D0B4
:1031F00007490968FF2201321143054A116006E0C0
:1032000003490968FF2201329143014A1160704766
:10321000007000400349096882001143014A1160AF
:103220007047000000700040064800680221084313
:103230000449086004480069042108430249086100
:1032400030BF70470070004000ED00E001460020F4
:10325000044A52680A40002A01D0012000E0002000
:103260007047000000700040002905D0054A5268F0
:103270000243044B5A6004E0024A52688243014B05
:103280005A607047007000400FB430B585B014220A
:103290000BA96846FCF770FF2E49087A08A90EC9E9
:1032A000FDF75AFBFFF7FCFEFEF7C2FF2948007A44
:1032B000602813DB2748007A64280FDAFEF77AFCCF
:1032C000042802DBFFF777FE17E00520214948704C
:1032D000097A48B2FEF7A2F804460EE0FEF79CFD1C
:1032E0005F2802DBFFF767FE07E0042019494870FA
:1032F000097A48B2FEF758F90446002016490870CA
:10330000601C002802D1FEF74FF90446601C00281B
:1033100006D010490C72087AFEF702FC05460FE051
:1033200064200C490872FEF7E7FB0546322211467D
:103330000220FEF7CBFEFEF7E7FF08A001F0AAFD92
:1033400029460420FFF7AEF805B030BC08BC04B035
:1033500018470000A0000020C50000207379737496
:10336000656D206572723F3F3F3F0D0A000000000F
:103370007047000010B50020074948728872022388
:1033800000220649064802F077FEFEF7FFFB0549DA
:1033900040180549086010BDA0000020896400089D
:1033A00094080020C4090000B80000200FB410B534
:1033B0000E48006803F060F80D490968884203D19F
:1033C00010BC08BC04B018470849096816225143CC
:1033D000084A8818162202A9FCF7CEFE03480068A6
:1033E00003F04AF80149086000BFE9E7080000203F
:1033F00004000020B0010020002905D0054A5269D0
:103400000243044B5A6104E0024A52698243014B71
:103410005A61704700100240002905D0054AD26960
:103420000243044BDA6104E0024AD2698243014B51
:10343000DA61704700100240002905D0054A926900
:103440000243044B9A6104E0024A92698243014BB1
:103450009A61704700100240002905D0054AD268E1
:103460000243044BDA6004E0024AD2688243014B13
:10347000DA60704700100240002807D00749096A47
:10348000012212041143054A116206E00349096A48
:10349000012212049143014A116270470010024058
:1034A0000348406A01210906084301494862704700
:1034B00000100240FEB504460025002600200290C0
:1034C000019000900027864840680C21084005467E
:1034D000002D06D0042D07D0082D08D00C2D2CD19E
:1034E00028E0804820602BE07E48206028E07C486F
:1034F00040680F2189040840064679484068032146
:10350000C90308400290B00C861C0298002803D121
:103510007548374647430BE07148C06A0007000F03
:10352000401C01906F480199FCF7FCFD7043074671
:10353000276005E06D48206002E06A48206000BF17
:1035400000BF67484068F021084005462D096848DB
:10355000405D009020680099C84060606048406805
:1035600007210902084005462D0A6148405D009088
:1035700061680098C140A1605948006BFF2101318A
:103580000840884202D05B48E0600DE05448406843
:10359000012189030840884203D0A0684008E06008
:1035A00002E0A0688008E0604D48006B40210840C0
:1035B000402802D05048206102E00120C003206171
:1035C0004748006B10210840102802D04548606130
:1035D00001E0206860614248006B8007800F00288E
:1035E00002D1A068A06119E03D48006B8007800F00
:1035F000012802D12068A06110E03948006B8007E3
:10360000800F022802D18003A06107E03448006BDC
:103610008007800F032801D13248A0613048006B39
:10362000032109040840002802D1A068E06120E0DD
:103630002B48006B0321090408400121090488423A
:1036400002D12068E06114E02548006B03210904E1
:10365000084001214904884202D18010E06108E05D
:103660001F48006B032109040840884201D11D480E
:10367000E0611B48006B032189040840002802D147
:10368000A068206220E01648006B032189040840EE
:1036900001218904884202D12068206214E0104888
:1036A000006B0321890408400121C904884202D12A
:1036B0000011206208E00A48006B032189040840D9
:1036C000884201D1074820620548006B80210840EC
:1036D000802802D00548606200E06762FEBD0000FD
:1036E0000010024000127A0000093D00006CDC026C
:1036F0006E010020809FD5001280000010B50246A8
:103700000021002300205111002902D10C4C236814
:103710000BE0012902D10A4C236A06E0022902D1FA
:10372000074C636A01E0064C636BD106C90E0124A5
:103730008C401C40002C01D0012000E0002010BD76
:1037400000100240002806D00649496A01221143B0
:10375000044A516205E00349496A49084900014A9F
:103760005162704700100240002807D00749096ADB
:103770000122D2031143054A116206E00349096A96
:103780000122D2039143014A1162704700100240A6
:103790000249096A0143014A116270470010024060
:1037A00070B588B005469321684601727021417258
:1037B0000021817300240BE0295D02AAA01C115492
:1037C0006946887B295D484069468873601CC4B29D
:1037D000042CF1DB03AA0332072102A800F018F839
:1037E0000821084600F049F807A802AB092202A9FF
:1037F00000900C2000F04CF90646002E04D16846DB
:10380000007F182800D100E00226304608B070BDC5
:10381000F7B5074615460421052000F02EF80021D3
:10382000012000F0DBF880210B2000F09FFA00243B
:1038300005E0395D092000F0D1F8601CC4B20198A0
:103840008442F6DB0321012000F0C8F8FF2400BF0A
:10385000052000F0A7F80646601EC4B2002C03D075
:10386000042030400028F3D0222000F09BF828707C
:10387000212000F097F86870FEBD70B505460C4633
:103880000026284600F08EF806463046A043014642
:10389000284600F0A3F870BDF0B585B004460F4689
:1038A000FF2214216846FCF779FC6946262000F0C7
:1038B000A4F90546002D02D0022005B0F0BD6946EE
:1038C0000E7830024978084306460120800286427D
:1038D00002D10020207008E001204002864202D17F
:1038E0000120207001E0FF202070684600F098F869
:1038F0000546002D01D00220DFE76846FFF750FFA4
:103900000546002D01D00220D7E700F05FF9042220
:1039100069463846FCF730FC0020CEE710B500F0D1
:103920009DF9012001F09AFF00F0A0F9012001F0BB
:1039300095FF00F093F9012001F090FF0F21012085
:1039400000F04CF8012001F089FF3D21112000F02A
:1039500045F81E212D2000F041F800212C2000F018
:103960003DF88D212A2000F039F83E212B2000F06F
:1039700035F84021152000F031F800F04BF8C8234D
:1039800000220249024802F077FB10BD7D3C00088E
:10399000180D002010B500F03DF83021012000F096
:1039A000E5F910BD70B5044640210B48FEF73FF81D
:1039B000062001F053FF60007E2108400446803459
:1039C000204600F001FA00F0E1F9054640210248E6
:1039D000FEF72FF8284670BD0004004870B5044675
:1039E0000D4640210A48FEF722F8062001F036FF76
:1039F00060007E2108400446204600F0E5F9284694
:103A000000F0E2F940210248FEF713F870BD000013
:103A10000004004810B503211420FFF72EFF10BD4D
:103A2000F0B587B00546002708210846FFF725FFB7
:103A300000210D20FFF7D2FF80210E20FFF71DFF90
:103A40009321684601712021417106A801AB022231
:103A500001A900900C2000F01BF80646002E10D1A2
:103A6000002407E001A8005D285501A8005D47403B
:103A7000601CC4B2042CF5DB01A8005DB84200D084
:103A8000022680210E2000F071F9304607B0F0BD0B
:103A9000FFB583B0064602200290002001900090FE
:103AA0000E2E04D1122001901020009005E00C2E63
:103AB00003D177200190302000908022019810439C
:103AC00001460220FFF78AFF80210420FFF7D5FE80
:103AD00000210120FFF782FF80210A2000F046F933
:103AE000002506E00498415D0920FFF777FF681C78
:103AF00085B205988542F5DB31460120FFF76EFF60
:103B00000C2E03D180210D2000F030F97D252D01F0
:103B100000BF0420FFF746FF0446681E85B2002D53
:103B200007D0E007C00F002803D1009820400028EC
:103B3000EFD080210D20FFF7A0FE002D3BD0062006
:103B4000FFF730FF1B210840002832D10290019876
:103B50002040C007C00F002801D0012002900C2E89
:103B600029D10A20FFF71EFF04460C20FFF71AFF99
:103B700047077F0F002F06D0601EC000C019C1B2DA
:103B80000C98017003E0E006010E0C980170002C07
:103B900000D10124122C00DD1224002506E00920AA
:103BA000FFF700FF06994855681C85B2A542F6DB71
:103BB00001E00220029080210C2000F0D7F80021C3
:103BC0000120FFF70BFF029807B0F0BD00B587B0EA
:103BD00050216846017100214171821D022101A816
:103BE000FFF716FE06A801AB042201A900900C20E5
:103BF000FFF74EFF002007B000BD70B588B0054646
:103C00000C4608210846FFF738FE07210D20FFF774
:103C1000E5FE0321142000F0A9F86846057207A804
:103C200002AB012202A900900C20FFF731FF0646EB
:103C3000002E0AD16846007F102806D16846007A17
:103C400020706846407A607000E00226304608B076
:103C500070BD10B500F002F810BD000010B5802155
:103C60000148FDF7E6FE10BD0004004810B58021B4
:103C70000148FDF7DCFE10BD0004004810B58CB013
:103C8000044600200B9037484078C01E030001F026
:103C90003EF90B086464073309640A64640B64002A
:103CA00000BF00BF00BF00BF09A90BA8FFF7F4FDCC
:103CB000002820D1029008A9087202A909A8FCF7DF
:103CC00093FA002816D0032069460873052209A933
:103CD00003A80230FCF750FA062207A96846FCF751
:103CE0004BFA03A80FC8FFF761FB1E2250210120E9
:103CF000FEF7ECF900BF31E01B480078032800D044
:103D00002CE019480078032826D109A90BA8FFF751
:103D1000C3FD002820D1029008A9087202A909A8B1
:103D2000FCF762FA002816D00320694608730522C2
:103D300009A903A80230FCF71FFA062207A9684662
:103D4000FCF71AFA03A80FC8FFF730FB1E22502118
:103D50000120FEF7BBF900BF00E000BF00BF0CB0C0
:103D600010BD0000A0000020B508002070B5054679
:103D70000C4600262846FFF715FE0646304620432F
:103D800001462846FFF72AFE70BD000070B50024EA
:103D9000002513E008210B48FDF749FE6006040EDC
:103DA0000848008A10210840002801D0012004435F
:103DB00008210448FDF73DFE681CC5B2082DE9DB6B
:103DC000204670BD0004004870B5044600251BE085
:103DD00008211148FDF72BFE80202040002804D048
:103DE00020210D48FDF725FE03E020210A48FDF7BC
:103DF0001EFE6006040E08210748FDF71AFE062085
:103E000001F02CFD681CC5B2082DE1DB2021024821
:103E1000FDF70DFE70BD0000000400481CB5012137
:103E20008804FFF7E9FA01216846017168200090D3
:103E3000002168468171C1710321417169461748AB
:103E4000FDF781FD08211548FDF7F1FD20211348FC
:103E5000FDF7EDFD40211148FDF7EBFD012168461E
:103E6000017180200090002168468171C171032199
:103E7000417169460948FDF766FDFFF7F7FE00212D
:103E8000684601711020009068468171C17103215C
:103E9000417169460148FDF756FD1CBD000400480C
:103EA00010B503211420FFF761FF10BD38B502469D
:103EB0000024009400230020CA24174D6C62532470
:103EC0006C62002905D02C46A4681443AC60012024
:103ED0001DE0114CA46894430F4DAC6000BF0E4C24
:103EE000E468150A2C402346009C641C00940125BC
:103EF000AD03009CAC4201D0002BF0D0064CE4682E
:103F0000150A2C40002C01D1002000E00120FF24E4
:103F1000014D6C6238BD00000028004030B50346FA
:103F20000020CA24064D6C6253246C6214060C43B4
:103F30002046034C40346060FF246C6230BD0000BA
:103F400000280040014600BFF020084000110A236D
:103F5000584302460807000F8018C0B27047014658
:103F6000002204E0501CC2B208460A38C1B20A2935
:103F7000F8DA1007000E08437047000010B5002162
:103F8000010980220A4392B2D243044BDB688024A9
:103F900023401A43014BDA6010BD000000280040A6
:103FA00000B589B001204002FFF7F2FB0120FFF7C6
:103FB000DBFB00F0FBF9002006907F200790FF203C
:103FC0002C30089006A800F0EDF800216846C17278
:103FD0000172417281723121017500200490C8077D
:103FE000039002AAC10D012000F008F90F2201215F
:103FF0000802FFF793FF0121080300F0A1F8012157
:104000000802FFF753FF00216846C1710171417139
:10401000817101A9012000F05DF909B000BD000027
:1040200008B50022009200200021124AD2684023E5
:104030001A40002A1BD1421E0E4BDA6000BF0D4A07
:10404000D26840231A401146009A521C00921B026B
:10405000009A9A4201D00029F1D0064AD268402342
:104060001A40002A01D0012002E0002000E00120D7
:1040700008BD0000002800400348C0688021884334
:104080000149C860704700000028004070B5014633
:104090000020002200230F4C246804252C402246D7
:1040A0000C4C403CA4680C408E0C0D46F540ED0BCA
:1040B00015402C432346074C403CE4680D092C4036
:1040C0002246002B04D094B2002C01D0012000E045
:1040D000002070BD4028004010B501208003FFF78C
:1040E000D5FF00280BD00DA000F0D4FE01208003E6
:1040F000FFF744FF01204004FCF7FEFF0CE0012025
:104100000003FFF7C3FF002806D009A000F0C2FE9D
:1041100001200003FFF732FF10BD000077616B65DF
:10412000757050696E20697320776F726B0D0A008D
:10413000616C726D4120697320776F726B0D0A009C
:1041400010B5CA22164B5A6253225A62002911D066
:104150001A46926804240346A3431A43104B9A60FC
:104160000F4A40321268042303401A430C4B403379
:104170001A6010E00A4A926804240346A3439A4353
:10418000074B9A60064A40321268042303409A4360
:10419000034B40331A60FF22014B5A6210BD0000EE
:1041A0000028004030B504460025CA201249486264
:1041B00053204862FFF734FF002800D117E00E4873
:1041C0008068402188430C498860084680682168DF
:1041D000084309498860A068086108460069A18809
:1041E0000904084304490861FFF746FF0125FF2041
:1041F00001494862284630BD00280040F8B5054610
:1042000014460026002D0ED1314880684021084018
:10421000002800D002E00020E07000BFA068002865
:1042200000D11BE01AE02A4880684021084000289D
:1042300004D02078FFF786FE064602E00020E070FA
:1042400000BFA068002804D1207BFFF77BFE064654
:1042500004E0207BFFF776FE064600BF002D12D05B
:1042600020780004617809020843A1780843E178C6
:1042700009040843217B09060843A16808436168D3
:104280000843064619E02078FFF769FE07046078C6
:10429000FFF765FE00020743A078FFF760FE0743C3
:1042A000E07800040743207BFFF759FE0006074330
:1042B000A0680743606807433E46CA200449486235
:1042C000532048620846C661FF204862F8BD0000DE
:1042D00000280040F8B505460C4600260020009056
:1042E000002D0AD12F48806840210840002800D0C6
:1042F00002E00020E07000BF0EE02A488068402104
:104300000840002804D02078FFF71CFE064602E093
:104310000020E07000BF00BF002D0BD0207800040B
:10432000617809020843A1780843E1780904084349
:10433000064610E02078FFF712FE07046078FFF7CA
:104340000EFE00020743A078FFF709FE0743E0785E
:10435000000407433E46CA2012494862532048627F
:10436000FFF75EFE002801D1009016E00E483040B5
:104370000C490860FFF780FE0A4880682021084049
:10438000002808D100F012F8002801D1009004E0C4
:104390000120009001E001200090FF2001494862C7
:1043A0000098F8BD002800407F7F7F0008B50022FC
:1043B000009200200021174A926820231A40002A08
:1043C00001D0012025E0CA22124B5A6253225A62C0
:1043D0001A46D268A0239A430E4BDA6000BF0D4AFA
:1043E000D26820231A401146009A521C00929B0268
:1043F000009A9A4201D00029F1D0064AD2682023BF
:104400001A40002A01D0012000E00020FF22014BC9
:104410005A6208BD0028004070B504460E46002CC4
:1044200001D0642C02DB0020C04370BD5F2C04DC93
:10443000601E40010749451804E0204660384001ED
:1044400005494518202229463046FBF795FE2020D5
:10445000EBE7000000F0000800FC000810B50EA01B
:1044600000F018FD10480068401C0F49086008461D
:104470000068032802D3FEF721FD08E0FEF7C4FC24
:10448000322211460220FDF721FEFDF73DFF0748CD
:1044900001F05EFC10BD0000636F6D7061726520FD
:1044A0006661696C0D0A0000C0000020040800204D
:1044B00010B50446002C06D004A000F0EBFC20460A
:1044C00000F00CF801E0FFF7C9FF10BD636F6D70DD
:1044D000617265206F6B0D0A0000000070B5044624
:1044E0000E4804720146087AFDF71AFB0546294674
:1044F0000120FDF7D7FF0A490120FDF72BFD002021
:1045000008494870FEF7CCFD12200449487006485F
:1045100001F01EFCFCF73EFE70BD0000A000002074
:10452000FFBF0000840000200408002010B5FF2019
:104530007D30FCF76FFB8220FCF780FBFCF730FB43
:10454000782001F06BF9FCF723FB282001F066F9D5
:10455000FCF726FB782001F061F9FCF719FB282015
:1045600001F05CF9FF20A530FCF754FBC820FCF7F4
:1045700065FB00200149487010BD00003C0100208F
:10458000704700000CB500200190009011201D49DB
:1045900008601D4840681C494860084640684860FB
:1045A000084640687F21C903884317494860084688
:1045B00040680521C904084313494860084600685B
:1045C0000121090608431049086000BF0E48006831
:1045D0000121490608400028F8D00B4840688008AF
:1045E000800009494860084640680221084306499E
:1045F000486000BF044840680C2108400828F9D1F1
:104600000CBD0000002002400010024010B504461E
:10461000002C01D0012C04D103488470FEF7F8F976
:1046200000E010BD00BFFCE7040900207047000057
:1046300010B51B4800680121084319490860084665
:1046400040681849084016494860084600681649FD
:10465000084013490860084600680121890488431E
:104660000F490860084640683F21090488430C4907
:1046700048600846C06A00090001C8620846006B2D
:10468000FF2154318843064908630846406B4008BF
:104690004000486300208860FFF774FF10BD0000F1
:1046A000001002400CB8FF08FFFFF6FE10B5012114
:1046B000054800F04CF8002805D00121024800F020
:1046C00023F800F021F910BD0020004010B50121B1
:1046D000054800F03CF8002805D00121024800F010
:1046E00013F800F051F910BD00040040002904D077
:1046F000028880231A43028003E00288014B1A409B
:10470000028070477FFF0000CA43028270470000AA
:10471000002904D0028801231A43028003E00288A2
:10472000014B1A4002807047FEFF0000002907D0AD
:104730004422125A0123DB031A4344231A5205E090
:104740004422125A53045B0C44221352704730B572
:104750000246002000230024158A0D402B4695892F
:104760000D402C46002B03D0002C01D0012000E08E
:10477000002030BD002A03D083890B43838102E0EF
:1047800083898B438381704770B500240022002306
:10479000058C1C4E35400584028C8388048B194D92
:1047A0006F3D2C40B51E2C400D882C43751E2A40B1
:1047B0008D892A434D882A43134DA84208D0134DB2
:1047C000A84205D0124DA84202D0124DA84212D1E3
:1047D0000C4DED1F2A40CD892A430A4DED1E2A407B
:1047E0008D882A43074DFF3D2B400B4D2B400D8AF2
:1047F0002B434D8A2B43838004838D684563028459
:1048000070BD0000FEFF0000002C01400040014090
:104810000044014000480140FFFD00000A4600211D
:10482000018B034B19400B46134319460183704714
:10483000F7FF000000220288154B984206D00123A2
:104840009B07984202D0134B984203D1124B1A4057
:104850004B881A43114B984203D0114B1A400B89D5
:104860001A4302804B68C3620B880385084B984249
:1048700008D00C4B984205D00B4B984202D00B4B02
:10488000984201D18B7A038601238382704700000E
:10489000002C0140000400408FFF00000010004089
:1048A000FFFC00000040014000440140004801407E
:1048B0001FB5C72002902F21684681800021818189
:1048C000C180817301210802FEF7A6FD01A90D48F0
:1048D000FFF7B0FF132168460170022141700121EA
:1048E0008170FEF721FC01210648FFF70DFF012230
:1048F00011460448FFF73EFF01210248FFF708FF79
:104900001FBD00000020004010B507480068401C93
:104910000549086005480068401C044908600248D1
:1049200003F0AAFF10BD0000180000201C000020AA
:104930001FB50120029012496846818000218181C3
:10494000C180817301210220FEF766FD01A90D4897
:10495000FFF770FF102168460170012141708170DE
:10496000FEF7E2FB01210748FFF7CEFE01221146C8
:104970000448FFF7FFFE01210248FFF7C9FE1FBDF3
:104980007FBB00000004004010B508480068401CD0
:1049900006490860FF21F53104480068FBF7C2FBB7
:1049A000002901D1FDF7D4FF10BD00001400002044
:1049B00010B50749074800F025F8002806D005483B
:1049C00000F0E4F8C4B2204604F0B4F810BD0000D2
:1049D0000501050000380140002904D002680123C8
:1049E0001A43026003E002685208520002607047F6
:1049F00002460020D3690B40002B01D0012000E0CB
:104A00000020704770B502460B46002400210025A7
:104A100000201E04350ED9B201268E403146012DEC
:104A200002D11668314006E0022D02D156683140AD
:104A300001E0966831401C0C0126A6403446D66938
:104A40003440002903D0002C01D0012000E00020D8
:104A500070BDF8B50346002400260096002500200E
:104A600018460E04340ECEB200960127009EB740C1
:104A70003D46022C01D1001D02E0032C00D108307C
:104A8000002A03D006682E43066002E00668AE43A3
:104A90000660F8BDF0B58BB004460D460027002037
:104AA0000A900026206840084000206066680321C4
:104AB0000903304688430646A868064366602668B0
:104AC0002D480640E9686868084329690843064399
:104AD0002660A668032109023046884306466869B5
:104AE0000643A6606846FEF7E5FC2448844202D1EE
:104AF00006980A900DE02248844202D107980A9055
:104B000007E02048844202D108980A9001E0029808
:104B10000A9020680121C903084000280CD02968A8
:104B20000A9A5000FBF7FEFA074629680A9A5000D5
:104B3000FBF7F8FA0E4609E029680A98FBF7F2FA43
:104B4000074629680A98FBF7EDFA0E4628684008E0
:104B5000B04200D87F1C20680121C903084000280A
:104B600006D03807460F3846074908403043074605
:104B7000A7810BB0F0BD0000F3E9FFFF0038014052
:104B80000044004000480040F0FF00000146888CCF
:104B9000C005C00D7047CA05D20D028570470000E0
:104BA00010B586B004461E4800681E490968884250
:104BB0000ED1002069460870142100A80230FBF7CE
:104BC000F4FA162269462046FBF7D6FA06B010BD65
:104BD0001348006816225043134A8118162268466B
:104BE000FBF7CAFA00210E480068162250430E4A0D
:104BF00011540B490968162251430B4A8918881C25
:104C00001421FBF7D2FA0648006801F035FC04498C
:104C10000860162269462046FBF7AEFA00BFD5E7CA
:104C20000400002008000020B001002010B572B67A
:104C3000024801F08DF862B610BD0000840100202A
:104C4000F7B584B004460F4600250698039024E08B
:104C5000002002901CE013E072B601A9124801F096
:104C6000A1F8064662B6012E00D10AE06846007936
:104C70002070641C6D1CBD4202D3284607B0F0BDF5
:104C8000EAE700BF012000F0E9FD0298401C029015
:104C90007D21C90002988842DDD30398411E03910B
:104CA0000028D5D12846E9E78401002070B50446E4
:104CB0000D461646094806700BE02178641C08482A
:104CC000FFF769FF00BF40210548FFF791FE00286C
:104CD000F9D028466D1E0028EFD170BD00000020DD
:104CE0000038014070B5FEF7DBF9FDF7A1FA3F4847
:104CF000007802280DD1FDF78FF8002806D0092092
:104D00003A494870FEF73AF9044659E0FEF760F96F
:104D100056E036480078042806D109203349487007
:104D2000FEF72CF904464BE030480078012815D1F5
:104D3000FDF772F85F280EDA00202D490870FCF7A5
:104D400033FC2A490872087AFCF7EAFE044604207C
:104D50002649487034E0FEF72EF931E02348007808
:104D6000032815D1FCF726FF04280EDA002020497D
:104D70000870FCF753FB1D490872087AFCF7D0FE57
:104D800004460520194948701AE0FEF714F917E0A7
:104D900016480078052802D1FBF78EFD10E0134875
:104DA000007806280CD1172010494870FDF756F8F6
:104DB0000546FCF7B5FE044621460120FDF772FBCF
:104DC0000C4800F0C5FF09484078032808D0074880
:104DD0004078172804D021460420FDF763FB03E048
:104DE00021460120FDF75EFB70BD0000A000002001
:104DF000C50000200408002070B504460A2C01DB21
:104E00000F2C00DD70BD084800F0A2FF07480470B9
:104E1000092007494870FCF765FE0546294604202D
:104E2000FDF740FB00BFEDE704080020C4000020B0
:104E3000A000002070B505460E46FCF779FA28461A
:104E4000FCF79FFE0949884202D02846FEF7AAF8DF
:104E500031462846FCF714FA0446FCF707FA042CFE
:104E600001D0002070BD0120FCE70000FFFF000022
:104E700010B5FCF75DFA0548FCF7B4F9044903489E
:104E8000FCF7FEF9FCF7F2F910BD000000E800089D
:104E9000885500000FB410B503A9044B044A0298CA
:104EA00000F0FEF810BC08BC04B018473D5E0008D6
:104EB000800100200FB41CB50A46521E01920090DA
:104EC00007A9064B6A46069800F0EAF8009A002106
:104ED00011701CBC08BC04B018470000D95700086A
:104EE0002021020C01D010211046020A01D01046E8
:104EF0000839020901D01046091F820801D0104666
:104F0000891E420801D0881E7047081A704730B4C5
:104F10007446641E2578641CAB4204D3635D5B0059
:104F2000E31830BC18471D46F8E702E008C8121F16
:104F300008C1002AFAD170477047002001E001C182
:104F4000121F002AFBD17047F0B51FB484B0079838
:104F50000699020D014314D04A484B4910184843A2
:104F600005140F9801280E981CD0281A401C002404
:104F7000464E4749009401910290002814DA4742B6
:104F800027E00F98012443A3012808D000210498AA
:104F90000F9A84600360C260416009B0F0BD0E9852
:104FA000C143F4E74042E2E7074612E0F80707D0C2
:104FB0002246334601990098FBF710FA01910090C0
:104FC0002246334610461946FBF708FA04460E46B9
:104FD0007F10002FEAD10298019B0028009A0799C0
:104FE000069802DAFBF7FAF901E0FBF75FFA0446EC
:104FF0000E460022284BFBF7F1FA03D80020C043ED
:10500000014607E00022254B20463146FBF734F9E4
:10501000FBF7C4FA102409E0002C0ADB0A22002363
:10502000FBF7F9F8059B30321A55641E02460A4315
:10503000F2D11122641C059B121B1C190F9B012B22
:1050400003D0012308430ED10AE0084304D0112005
:105050000E9000200F9084E70E98151A6D1E0BE03D
:105060000E98824202DD00236D1C03E0824201DAC9
:1050700000236D1E002BEED004980F998260C16052
:1050800030C08AE701FCFFFF104D00000000244003
:105090000000F03F300000000000F0430000E03F5F
:1050A000FFB597B00646002518E2252877D10024E1
:1050B0002746FD49049400E00443761C3278012021
:1050C000203A90400842F7D130782A280ED00222A8
:1050D000307801463039092916D804990A235943F2
:1050E000303940181443761C0490F1E7189802C830
:1050F00004911890002904DA012040030443484237
:10510000049002200443761C30782E2814D1042009
:1051100004437078761C2A2809D11898761C80C818
:10512000189009E00A214F43303FC719761C3078A8
:10513000014630390929F5D930786C2810D006DCC1
:105140004C281AD068280ED06A2817D104E0742899
:1051500013D07A2812D110E00120400504430CE05E
:105160000121090501E0032109050C437178814201
:1051700003D1012000052418761C761C307811908C
:1051800066280BD013DC58287DD009DC00287BD0A2
:105190004528F6D04628F4D047281AD1A5E118E0D2
:1051A000632835D0642870D0652812D19DE170281D
:1051B0006CD008DC6728F1D069287BD06E280DD030
:1051C0006F2806D1BAE073282ED0752871D07828C0
:1051D00059D01A9A199990476D1C7EE16002400FD0
:1051E000022809D003280DD00428189801680DD092
:1051F0000D60001D189070E11898EA1701680D60A5
:105200004A60F6E7189801680D80F2E70D70F0E744
:1052100018986A4601781172001D1890002050728B
:1052200002A80090012005E0189802C818900020FC
:105230000091C04361070DD5002101E00199491C8F
:105240000191B94212DA8142F8DB009A515C0029DF
:10525000F4D10BE0002101E00199491C0191814248
:10526000FADB019A0099895C0029F5D1019904982B
:105270001A9B471A21463846199A00F097FA019965
:10528000401945180BE04FE02CE113E04EE0009888
:1052900000990078491C00911A9A19999047019831
:1052A000401E0190401CF2D1214638461A9B199AA3
:1052B00010E137E00A200021009001916002410FC7
:1052C000022907D0189A01CA1892C21794460329D6
:1052D00008D00AE01898C01DC108C90005C9189176
:1052E000944607E000B2C2179446042902D140B2A6
:1052F000C1178C4600226146944506DA0A46002111
:10530000404291418C462D2102E0210504D52B21FC
:105310006A461173012103E0E10701D02021F7E77C
:10532000029155E00A200AE0102008E010200090C9
:105330000021042004430191082703E008200021F4
:10534000019100906002410F022907D0189A01CA0A
:10535000189200229446032908D008E01898C01D2E
:10536000C108C90005C91891944603E080B2042918
:1053700000D1C0B200210291210729D511997029CD
:1053800006D0009A1021019B4A401A4305D00EE036
:1053900040216A461173012108E06146014306D0AD
:1053A00030216A4611731199517302210291009ABA
:1053B0000821019B4A401A430AD16146014301D1A9
:1053C000610705D530216A46117301217F1E0291C4
:1053D0001199582904D035A10E910DA90D910DE018
:1053E00037A1F9E76146019B009AFAF714FF0E9B7B
:1053F0008C469B5C0D9A521E0D92137061460143C0
:10540000F0D10D9805A9081A20300190600703D546
:1054100001200004844300E001270198874201DD58
:10542000381A00E0002001990090411802980918EC
:105430000498401A0490E00306D421461A9B199A56
:10544000049800F0B3F94519002706E003A81A9A5A
:10545000C05D199990476D1C7F1C02988742F5DB4F
:10546000E0030CD521461A9B199A049800F09EF986
:10547000451904E01A9A3020199990476D1C00993B
:10548000481E00900029F5DC08E00D980D99007881
:10549000491C0D911A9A199990476D1C0199481E43
:1054A00001900029F1DC63E1092801003031323339
:1054B0003435363738396162636465660000000050
:1054C000303132333435363738394142434445463A
:1054D0000000000000F05AF94519761C30780028C9
:1054E00000D0E2E528461BB0F0BD600700D40627D7
:1054F0001898C01DC108C90048680A680831C30F60
:10550000DB071891190001D09CA108E0210501D505
:105510009BA104E0E10701D09AA100E09AA1430019
:1055200011985B08109165280CD006DC452809D03D
:1055300046281DD0472841D141E0662818D0672869
:105540003CD13CE00021112F01DB112000E0781C50
:105550000191009008A911A8FFF7F6FC1399059195
:105560000021119A15927F1C12980197009150E02A
:105570000120C00703900120019008A9009711A8FD
:10558000FFF7E2FC139A149905920022119B0092F6
:1055900012981593059A0192002901D0104602E055
:1055A000791C40180190381A01D5019804E0404256
:1055B000401E0090781C0190C01B029043E0012F18
:1055C00000DA01270021112F01DD112000E038460B
:1055D0000191009008A911A8FFF7B6FC1399059155
:1055E000119A0021129815920091019721070CD46D
:1055F0000599B94201DB019900E00191012904DD1F
:10560000159A491E515C302906D0B84201DA011DB5
:1056100005DA0121029115E00199491EEDE7002804
:1056200005DC0099411800910199091A03E0019ADB
:10563000411C914200DD01910099401A401C0290EA
:105640000120C0070390200706D4029901988142E7
:1056500002DB0020C043029000206946C87707AFF4
:10566000012103980337C907884224D002201190F2
:105670002B201290039800280CDA404203902D2032
:10568000129007E00A210398FAF74CFD30317F1E93
:10569000039039701199481E11900029F2DC03988B
:1056A0000028EFD1791E1298087030782021084028
:1056B0004530BF1E387006A8C01BC01D039010984F
:1056C0000078002800D00120019941180298C017E5
:1056D0000918039809180498401A401E0490E00322
:1056E00006D421461A9B199A049800F05FF84519D0
:1056F00010980078002803D01A9A199990476D1CC9
:10570000E00324D521461A9B199A049800F04EF81C
:1057100045191CE00098002807DB0099059888428D
:1057200003DD1598405C199901E0199930201A9A07
:10573000904700986D1C401C00900298401E0290FB
:10574000002804D11A9A2E20199990476D1C0199AE
:10575000481E01900029DDDC05E038781A9A7F1C8C
:10576000199990476D1C0399481E03900029F4DC99
:1057700021461A9B199A0498ACE600002D000000FF
:105780002B0000002000000000000000F8B50446D7
:1057900000251E461746880404D405E0394620201B
:1057A000B0476D1C641EF9D52846F8BDFFB5044608
:1057B000002581B01E46C80301D5302700E0202710
:1057C000880404D505E038460399B0476D1C641E73
:1057D000F9D5284605B0F0BD4A68002A06D00A6807
:1057E000531C0B6010704868401E486070470000F2
:1057F00008200021064A91610421116105490870C1
:1058000009787D22D2005143034A1180704700007D
:1058100000E000E00C0000200E00002001460D4AD0
:1058200012884A43521E0C4B5A6100229A6101228F
:105830001A6100BF084A1069C207D20F002A04D0BB
:10584000012212040240002AF4D00022024B1A6105
:105850009A6170470E00002000E000E001460D4A0A
:1058600012784A43521E0C4B5A6100229A6101225F
:105870001A6100BF084A1069C207D20F002A04D07B
:10588000012212040240002AF4D00022024B1A61C5
:105890009A6170470C00002000E000E010B504465B
:1058A000002C05D0012149030448FCF7C2F804E0AC
:1058B000012149030148FCF7BAF810BD0004004873
:1058C00010B50446002C05D00121C9030448FCF79B
:1058D000B0F804E00121C9030148FCF7A8F810BDA5
:1058E0000004004810B50446002C05D0012109032E
:1058F0000448FCF79CF804E0012109030148FCF787
:1059000098F810BD0004004810B50446002C05D0DE
:10591000012189030448FCF78CF804E00121890384
:105920000148FCF784F810BD0004004890B000F076
:1059300099FBFFF75DFFFBF757F90320FCF766FBC8
:1059400000210120FCF78EFCFCF702FF00F09AFC1E
:10595000FCF7F6FDFCF7F2FCFEF760FAFEF7E8FF55
:10596000FDF7DCFFFBF7B4F9FDF782FB0021042013
:10597000FCF798FDFBF7A5F8FDF704F800240120DB
:105980000F900020E349086051E0FCF7FFF8E2497E
:105990000860E2490120FCF785FDDF480068E04926
:1059A0000968884243D0DB480068401CD949086038
:1059B000D9480068DA49086000F082FB01A8FFF7C7
:1059C000EFF8182201A907A8FAF7D6FB6846007F6E
:1059D00002280CD16846807F232808D1D1490120B4
:1059E000FCF740FC00210846FCF75CFD20E0C948BC
:1059F0000068642804D1CC490120FCF733FC16E090
:105A0000C4480068C82805D1C449C1390120FCF741
:105A100029FC0CE0BF480068FF212D31884206D1E7
:105A200000210120FCF71EFC0020BA490860ACE709
:105A300000BF6EE1FCF7AAF8B749086008460068A5
:105A4000B74909688842F4D0B3480068B44908608F
:105A500000F036FB01A8FFF7A3F8182201A907A858
:105A6000FAF78AFBAB480068401CAA490860224646
:105A700008460168ADA0FFF70DFA6846007F0228CE
:105A80006FD10020A34908606846807F2A38030050
:105A9000FFF73DFA105E6666666666620918273291
:105AA0003D484C51566600200D900F98002801D1BA
:105AB000012000E000200F90012C02D001200F9067
:105AC00001244DE000200D900E98002801D1012006
:105AD00000E000200E90022C02D001200E90022443
