:020000040800F2
:1000000038110020CD000008ED3800089D2C0008B4
:1000100000000000000000000000000000000000E0
:10002000000000000000000000000000A14D0008DA
:100030000000000000000000753B00084D4E000865
:10004000FD00000800000000E5480008FD00000871
:10005000FD000008FD0000081F140008211400081E
:1000600000000000FD000008FD000008FD00000881
:10007000FD000008FD000008FD0000080000000071
:10008000ED4E0008FD000008FD000008CD4E000800
:10009000FD000008FD000008FD000008FD0000084C
:1000A000FD000008FD000008FD000008A95100083F
:1000B000D1510008FD0000080348854600F0A2FA6F
:1000C0000048004759690008381100200C4880F3A7
:1000D00008880C480168090E0B4A914205D10B486B
:1000E0000B4901600B480C4901600C4880470C48E3
:1000F0000047FEE7FEE7FEE7FEE7FEE7FEE700005B
:1001000038110020040000001F00000018100240F9
:10011000010000000000014000000000514E0008F6
:10012000B900000830B50B4601460020202201240A
:1001300009E00D46D5409D4205D31D469540491B1B
:100140002546954040191546521E002DF1DC30BD64
:1001500070B500242546002801DA01244042002918
:1001600001DA01254942FFF7DDFFAC4200D04042F1
:10017000002C00D0494270BD03460B439B0703D0BF
:1001800009E008C9121F08C0042AFAD203E00B785C
:100190000370401C491C521EF9D27047D2B201E0D4
:1001A0000270401C491EFBD270470022F6E710B5D2
:1001B00013460A4604461946FFF7F0FF204610BDD5
:1001C00030B505462A460B4610781C78521C5B1C3D
:1001D000002801D0A042F7D0002C03D0002802D084
:1001E0006D1CEFE7284630BD10B5002200E0521C20
:1001F000835C8C5CA34201D1002BF8D1D8B2E1B270
:10020000401A10BD03460A780270401C491C002A9F
:10021000F9D118467047F0B51FB40646002082B0E9
:1002200005464024019100901BE0019922460F46AB
:10023000304600F009FA049A059B801A994110D3C0
:1002400010461946224600F0EFF9361A8F41019701
:10025000224601200021009F00F0E6F938184D41A8
:1002600000902046641E0028DFDC019B0098294690
:10027000324607B0F0BD0000F0B5074608465840CA
:1002800087B0C00F049048000E4659004008490846
:10029000BC1A884105D2384631461E4617460B46E1
:1002A00002465800400810434CD0300D03904005E2
:1002B0005900400D490D0590401A0290402872DA0D
:1002C00018030121000B09050843019004980092CE
:1002D000002805D0019952420020884100920190E7
:1002E000029840210A1A0199009800F09DF90546EC
:1002F0000C466B4607CB00F0B8F9C0197141039A60
:100300000E0D0023D71756401A467A40164344D0A4
:10031000049A002A2DD0029A012A039A15DC1205AC
:10032000C01A914101263605001C7141D20F059E6D
:10033000D2070093019202962A46234600F0B5F9AF
:1003400007B0F0BD38463146FAE71605224A0F4697
:10035000B218C01AB74101210905001C4F4100180D
:100360007F41114618187941E20F10436D1964411D
:1003700013E0E2076D0815436408C2071443039AAB
:1003800001261205C01A91413605001C7141CE07A5
:10039000400830434908C01851412A46234600F01E
:1003A00077F9CDE7FFE7049801224000C117121A40
:1003B00000238B4104983146C417381AA141EEE757
:1003C00030B40124E407634030BC55E730B4012465
:1003D000E407614030BC4FE70000E0FFF0B51FB418
:1003E00088B00B990998002448400999C00F49002A
:1003F00049080991C0070B990090490049080B91E1
:1004000009990898A64608431CD00B990A980843F6
:1004100018D0099801244000420D4800410D099868
:1004200024050003000B204309900B980003000BE8
:1004300020430B9050181C4940180022019014468C
:10044000104605E0002001460DB0F0BD032801DA9A
:10045000034600E003239C46C11A0AAE0AE05F008F
:1004600008ADED5B4F00F75B7D430027AA187C4188
:10047000491C5B1E6145F2DD410004AB5A52210468
:10048000120C0A43240C401C0828DFDB0198029060
:100490000099704601910090059B049A079906986F
:1004A00000F003F9D0E700000DFCFFFFF0B50C46AB
:1004B0005C4085B0E40FE40703944C000026640818
:1004C00059009446490802460296224321D06246CA
:1004D0000A431ED06200570D4A000E032303550D38
:1004E000012402462C492405781B1B0B360B4018AF
:1004F00023432643614600901C46501AB44103D35F
:100500000098401C009002E0921800985B4100287F
:1005100003DA0020014605B0F0BD002001210905E5
:100520000746864611E064461D46141BB54106D3B6
:100530006546521BB341744607430C43A646CD079C
:1005400040084908284392185B4105460D43EAD10B
:100550001046184313D06046194650407140084376
:1005600006D06046101AB34106D20122002306E0ED
:1005700000220123DB0702E00122D243531000983E
:1005800074460105381C6141029C039D00196941B4
:1005900000F07EF8BFE70000FD0300004A000903F9
:1005A0000123090B1B0519430A4B10B5520D9A4242
:1005B00002DA0020014610BD064B34339A4203DCB8
:1005C0009A1A00F041F810BD034BD21800F02CF835
:1005D00010BD0000FF030000CDFBFFFF10B5002998
:1005E00004DB0124E40740428C412146002B04DB5C
:1005F0001C460123DB075242A341994200D190429D
:1006000010BD0000064C0125064E05E0E36807CC4E
:100610002B430C3C98471034B442F7D3FFF750FDFE
:10062000A0960008C096000810B5202A04DB0146F9
:10063000203A9140002010BD914020239C1A03468F
:10064000E3401943904010BD10B5202A04DB084652
:10065000203AD040002110BD0B46D340D04020248A
:10066000A21A91400843194610BD10B5202A06DB96
:10067000CB170846203A1041C1170B4306E00B4642
:100680001341D0402024A21A91400843194610BDBE
:1006900010B5002B08DA0024401C614192185B4120
:1006A0001A4301D14008400010BDF0B51FB482B01C
:1006B00005460C0003D0084604F0F4FF02E004F005
:1006C000F1FF20300246009021462846FFF7ACFF9C
:1006D000049B059A04460F4618431143084314D05F
:1006E000184610431BD0009840210A1A1846059955
:1006F000FFF7AAFF05460E46009A05990498FFF7F2
:1007000093FF084305D0012004E02046394607B096
:10071000F0BD0020C11705430E432C433743009919
:100720000E986305401A7905E40A00220C43FD0A7D
:100730000A3002D500200146E9E701051019694198
:100740000C9C0D9D00196941FFF7A2FFDFE770B512
:100750008C180578401C6B075B0F01D10378401C97
:100760002A1106D10278401C03E006780E70401C66
:10077000491C5B1EF9D12B0705D40023521E0DD452
:100780000B70491CFAE70378401CCB1A921C03E05B
:100790001D780D70491C5B1C521EF9D5A142D8D39F
:1007A000002070BD10B50B460021846A1C43846292
:1007B00000BF0C4614432146416110BD01607047E3
:1007C00001617047002904D0826801231A438260C6
:1007D00003E0826802231A438260704710B5044622
:1007E0000548844207D10121401503F037FA002162
:1007F000601503F033FA10BD0024014030B5014606
:100800000020002200238C680125ED072C438C601A
:1008100000BF8C68E30FDB07521C0F242403A242A5
:1008200001D0002BF5D18C68E40FE407002C01D136
:10083000086C00E0002030BD0146086C80B27047B3
:1008400030B5024600200023012424060C40002C71
:1008500005D0946801252D06AC43234600E01368BB
:100860001C460C40002C01D0012000E0002030BDCF
:1008700010B50022C268084B1A400C7964030B685B
:1008800023438C682343CC6823430C6923434C697E
:1008900023431A43C26010BD03D2FFFF81680422C4
:1008A0001143816070470021016001718160C16066
:1008B0000161416170470000F0B58BB00024002554
:1008C00000200A900027002625480078002827D01D
:1008D0000AA801F08BFC5F2415E0E8B201A904F03E
:1008E000A1F96846C07903280BD1701C86B268460E
:1008F000817A01A8C0790002081887B2384600F052
:1009000093FC601C44B2642C0ADA284600F0A6FE70
:100910000546401C002803D06846008D8642DCDB7B
:1009200000F0B6FC01F0EAFA09900120099902F002
:10093000B1F800F09FF90520C00105F051FB09490D
:10094000012001F0A1FF01F001FB099001200999AC
:1009500002F0A0F800F076FA02F018FD0BB0F0BD3E
:1009600071010020FFBF000010B500F0E5FC01F0B0
:10097000C5FA04462146012002F08CF80D480078A3
:10098000002801D000F0AEFC00F074F90520C00191
:1009900005F026FB0849012001F076FF01F0D6FAA8
:1009A00004462146012002F075F800F04BFA02F0EF
:1009B000EDFC10BD71010020FFBF0000F0B58BB051
:1009C0000024002500200A900027002625480078F2
:1009D000002827D00AA801F009FC00BF15E0E8B202
:1009E00001A904F01FF96846C07903280BD1701CD7
:1009F00086B26846817A01A8C0790002081887B2D9
:100A0000384600F011FC601C44B25F2C0ADC28461A
:100A100000F0ECFE0546401C002803D06846008D1F
:100A20008642DCDB00F0B4FC01F068FA099001209A
:100A3000099902F02FF800F01DF90520C00105F01A
:100A4000CFFA0949012001F01FFF01F07FFA099058
:100A50000120099902F01EF800F0F4F902F096FC6A
:100A60000BB0F0BD71010020FFBF000070B504465F
:100A7000632C02DD0020C04370BD602C04DB632CBE
:100A800002DC01200B498870601EC004050E601E48
:100A9000C606F60EA9000748001D40580121B140C6
:100AA0000843AA000349091D885002F0A9FA012051
:100AB000E2E70000080900200FB410B586B0044634
:100AC00014220CA96846FFF757FB204609A90EC956
:100AD00005F0C6FD002807D12046FFF7C7FF06B086
:100AE00010BC08BC04B018470020C043F7E71CB591
:100AF0000121480403F082F8022000900320694697
:100B000008710920C00601F03FF91CBD10B586B080
:100B100000240121480203F091F80121480403F068
:100B20006DF8FFF7E4FF6846FFF7BDFE0020009078
:100B30006946087102900390049005901348FFF7EE
:100B40004DFE012189071148FFF73AFE69460F481B
:100B5000FFF78EFE052202210C48FFF723FE0B480B
:100B6000FFF74CFE01210948FFF72CFE04E0601C52
:100B700084B2012005F054FA01210448FFF760FE19
:100B8000002801D1642CF2DB06B010BD0024014026
:100B900010B5FF20A53000F007F9C82000F01AF9C1
:100BA000002413E000F0C6F80A49012001F0B2FC6D
:100BB0000A2005F015FA00F0B5F80749012001F008
:100BC000A9FC0A2005F00CFA601CC4B20A2CE9DB6F
:100BD00010BD0000FF7F0000FF3F00001CB5012199
:100BE000480403F00BF808200090012168460171C9
:100BF0000321417100218171C17169460920C0063C
:100C000001F0C2F81CBD10B508210920C00601F092
:100C10002FF910BD10B508210920C00601F02AF9EE
:100C200010BD10B5FF20A53000F0BEF8C82000F0C0
:100C3000D1F800240BE000F07DF80A2005F0D0F98F
:100C400000F070F80A2005F0CBF9601CC4B20A2C41
:100C5000F1DB10BD10B55F20C00000F0A5F8FF204B
:100C6000693000F0B7F80A22C821012001F008FD20
:100C700010BD000010B500F05DF8A02005F0B0F93F
:100C800000F050F8642005F0ABF900F053F8A02014
:100C900005F0A6F900F046F8642005F0A1F900F08F
:100CA00049F8A02005F09CF900F03CF8642005F01C
:100CB00097F900F03FF8A02005F092F900F032F823
:100CC000642005F08DF900200149487010BD000036
:100CD0003C01002010B5FF20A53000F065F8C820C9
:100CE00000F078F800F026F8782005F079F900F0A7
:100CF00019F8782005F074F900F01CF8782005F058
:100D00006FF900F00FF8782005F06AF900F012F89A
:100D1000782005F065F900F005F8782005F060F915
:100D200010BD000010B50021014804F00FF910BDFE
:100D30000044014010B50121014804F007F910BD3D
:100D4000004401401CB50121480402F057FFFF2078
:100D50000130009002216846017103214171002198
:100D6000C1716946044801F00FF8022208210248C7
:100D700001F052F81CBD00000004004810B5FFF758
:100D8000E1FFFF20A53000F00FF8C82000F022F8A6
:100D9000022300220249034805F0A0FD10BD000017
:100DA000D5260008F00800203EB50446012148047D
:100DB00002F044FF01942F2168460180FF21013198
:100DC0000181002141806946014804F043F93EBD9C
:100DD0000044014010B586B0044660216846818019
:100DE0000121C1800021018103940221018200219F
:100DF000818201A9084804F0D7F80821064804F0C8
:100E00001DF90121044804F081F80121024804F091
:100E10008FF806B010BD00000044014010B5FF205F
:100E2000A530FFF7C1FFC820FFF7D4FFFFF782FF0F
:100E3000012005F0D5F8FFF775FF012005F0D0F887
:100E400010BD000010B5FFF775FFA02005F0C8F831
:100E5000FFF768FF502005F0C3F8FFF76BFFA020F5
:100E600005F0BEF8FFF75EFF502005F0B9F8FFF778
:100E700061FFA02005F0B4F8FFF754FF502005F003
:100E8000AFF800200149487010BD00003C0100206F
:100E90001CB50121480402F0B1FE0120C0020090FF
:100EA000002168460171C17169460920C00600F041
:100EB0006BFF1CBD10B50021022001F067FB02236F
:100EC00000220249024805F009FD10BDD50E0008B8
:100ED0004408002030B589B0054600245248007807
:100EE000012801D109B030BD0121C9020920C00685
:100EF00000F0B4FF002845D105F0A2FD002841D143
:100F00004A49088035E04A48484A1288815C0220F4
:100F100001F03CFB0121C9020920C00600F09EFF40
:100F200001280BD14148008840004249085A401C22
:100F30003E49098849003F4A505205E000203B499C
:100F4000098849003B4A50523848008840003949D6
:100F5000085AFF21F531884206D1354833490988BE
:100F6000405C80210843044330480088401C2F49DE
:100F700008802E4800880528C5DD0021022001F0E8
:100F800005FB31E00020294908801EE02748008841
:100F900040002849085A02280CDB244800884000F9
:100FA000085AFF21F531884204DA21481F4909888F
:100FB000405C044300201D49098849001D4A5052E5
:100FC0001A480088401C19490880184800880528DC
:100FD000DCDB19480078012806D1002417A004F0B2
:100FE0003BFB002014490870002C1AD001216846F0
:100FF00001738473062207A9FFF7BEF803A80FC880
:1010000002F0D6FD05F0ECFB002805D11148407830
:10101000162801D002F06BF921460FA004F01CFB4A
:1010200000BF00BF5EE70000C800002028000020CD
:10103000220000205C08002000000020427574742B
:101040006F6E5F43616E636C655F466C61673D30D8
:101050000D0A0000A00000204B657956616C756593
:101060003A2025580D0A000010B5054800680549CA
:101070000860052109020448FFF797F810BD000039
:101080000800002004000020B4010020FFB589B052
:1010900006460F46002501F0C1F90890089800287F
:1010A00001D10DB0F0BD002421E0284600F076FB10
:1010B0000546681C002800D1F3E7E8B2694603F052
:1010C000B1FD6846C078B0420FD10C98012803D01A
:1010D00068468088B84208D101A802300B99FFF712
:1010E0006FF8002801D02846DBE7601CC4B20898DE
:1010F0008442DADB0020D4E7FFB589B0129880077C
:10110000800F032803D10024244E254F14E01298A9
:10111000C007C00F002803D00024224E224F0BE04E
:10112000022112980840022803D15F241F4E204F4D
:1011300002E000200DB0F0BDB0470546002D00D103
:10114000F8E70020089024E02046B8470446601CD9
:10115000002800D1EEE7E0B2694603F063FD68467F
:10116000C1780998814210D10C98012804D06846B2
:1011700081880A98814208D101A902310B98FFF7B2
:101180001FF8002801D02046D4E70898401CC0B2C0
:1011900008900898A842D7DB0020CBE71D24000860
:1011A0009D170008F1220008ED17000881200008B3
:1011B0005D160008F0B589B00446632C03DD0020FD
:1011C000C04309B0F0BD16480078002814D001A92A
:1011D000204603F027FD6846C07903280CD16846F5
:1011E000817A01A8C0790002081887B2384600F059
:1011F0001BF8002800D1E4E7601EC004050E601E45
:10120000C606F60EA900074841580120B0408143A8
:10121000AA000448815001F0F3FE0120D1E700004C
:10122000710100200C0900207FB5044615A103C9F7
:101230000191009015480078012801D000F018F9BC
:101240002004010E68468170C47000200290039053
:101250000121684600F00CFD7D22D200082102A881
:1012600004F0B8F8C5B2082D0ADB6846007B0028F8
:1012700003D06846007B052802D1012004B070BD70
:101280000020FBE7F5040000000000F570010020DD
:1012900010B500201149887000F0BAF9104800F02C
:1012A00011F900F053F9602413E0601E4009810039
:1012B0000A48001D4058611ECA06D20E0121914005
:1012C0008843611E49098A000449091D8850601C31
:1012D000C4B2642CE9DB01F093FE10BD08090020C4
:1012E00000FC00081FB511A103C90191009011482D
:1012F0000078012801D000F0BBF800200290039094
:101300000121684600F0B4FC7D22D200082102A829
:1013100004F060F8C4B2082C06DB6846007B0028A5
:1013200002D1012004B010BD0020FBE7F50500004C
:10133000000000F57001002010B500F069F90F48B9
:1013400000F0C0F80E4800F0BDF80E4800F0BAF802
:101350000D4800F0B7F800F0F9F800200B4988704C
:10136000002406E00021A2000848001D8150601CF6
:10137000C4B2042CF6DB01F043FE10BD00F00008FF
:1013800000F4000800F8000800FC0008080900202C
:1013900010B500F03DF9124800F094F8114800F043
:1013A00091F8114800F08EF800F0D0F8012411E017
:1013B000601E400981000D484058611ECA06D20EC9
:1013C000012191408843611E49098A0007498850DC
:1013D000601CC4B2602CEBDB01F012FE10BD0000FB
:1013E00000F0000800F4000800F800080C090020D4
:1013F00070B50446204600F0B3FD0546294601209D
:1014000001F048FBFF202D3004F0EAFD204600F0FB
:10141000A7FD05462946002001F03CFB70BD704742
:101420007047000001494861704700000004014016
:1014300010B5002003F062FC10BD000010B500F0F4
:10144000E7F8034800F03EF800F080F810BD000017
:1014500000E8000810B5044600F0DAF8342000F087
:101460002BF8204600F02EF800F070F810BD0000B8
:101470001FB50D480078002814D00CA103C90191B4
:10148000009001F073FF0121684600F0F1FB642237
:10149000082102A803F09EFF03F092FF01200549F6
:1014A000087000BF1FBD000071010020F509000099
:1014B000000009F5700100200149C8607047000074
:1014C0000020024030B5044604250B20000400F043
:1014D000B1F80546042D17D10C48006902210843D4
:1014E0000A490861084644610069402108430749E8
:1014F00008610B20000400F09DF8054603480069D0
:101500000221884301490861284630BD002002407D
:1015100004200D49C968C907C90F002901D001205D
:1015200010E00949C96810221140002901D00220A9
:1015300008E00549C96804221140002901D00320B0
:1015400000E00420704700000020024003480069CA
:1015500080210843014908617047000000200240D3
:1015600070B504460D4604260B20000400F062F816
:101570000646042E11D10A48006901210843084992
:10158000086125800B20000400F054F8064604484A
:1015900000694008400002490861304670BD000003
:1015A0000020024078B506460C4604250020009035
:1015B0000B20000400F03EF80546042D24D113480A
:1015C0000069012108431149086134800B2000049F
:1015D00000F030F80546042D10D1B01C0090200C0E
:1015E000009908800B20000400F024F80546074805
:1015F0000069400840000549086105E003480069AA
:101600004008400001490861284678BD002002409A
:101610000548006980210840002804D00348024999
:101620004860034848607047002002402301674536
:10163000AB89EFCD10B503460424FFF769FF0446DC
:1016400003E0FFF765FF04465B1E012C01D1002B70
:10165000F7D1002B00D10524204610BD30B502463D
:10166000602A01DB632A01DD602101E0501CC1B268
:1016700014E0481EC004030E481EC406E40E9D007C
:10168000094840590125A5402840002804D05801A8
:101690000019401C40B230BD481CC1B26429E8DBCF
:1016A0000020C043F7E700000C09002030B50246D7
:1016B000632A01DC602A01DA632101E0501EC1B215
:1016C00014E0481EC004030E481EC406E40E9D002C
:1016D000094840590125A5402840002804D0580158
:1016E0000019401C40B230BD481EC1B26029E8DA82
:1016F0000020C043F7E700000C09002030B5024687
:10170000602A01DB632A01DD602101E0501CC1B2C7
:1017100014E0481EC004030E481EC406E40E9D00DB
:10172000094840590125A5402840002804D1580106
:101730000019401C40B230BD481CC1B26429E8DB2E
:101740000120C043F7E700000C09002030B5024635
:10175000632A01DC602A01DA632101E0501EC1B274
:1017600014E0481EC004030E481EC406E40E9D008B
:10177000094840590125A5402840002804D15801B6
:101780000019401C40B230BD481EC1B26029E8DAE1
:101790000120C043F7E700000C09002030B50246E5
:1017A000642A01DA012A01DA012101E0501CC1B2E8
:1017B00014E0481EC004030E481EC406E40E9D003B
:1017C000094840590125A5402840002804D0580167
:1017D0000019401C40B230BD481CC1B26429E8DB8E
:1017E0000020C043F7E700000C09002030B5024696
:1017F0005F2A01DC012A01DA012101E0501CC1B29B
:1018000014E0481EC004030E481EC406E40E9D00EA
:10181000094840590125A5402840002804D0580116
:101820000019401C40B230BD481CC1B26029E8DB41
:101830000020C043F7E700000C09002030B5024645
:10184000602A01DA012A01DA5F2101E0501EC1B2EB
:1018500014E0481EC004030E481EC406E40E9D009A
:10186000084840590125A5402840002804D05801C7
:101870000019401C40B230BD481EC1B20029E8D159
:10188000481EF8E70C09002030B502465F2A01DC4B
:10189000012A01DA012101E0501CC1B214E0481E06
:1018A000C004030E481EC406E40E9D0009484059BA
:1018B0000125A5402840002804D158010019401CEA
:1018C00040B230BD481CC1B26029E8DB0120C043F2
:1018D000F7E700000C09002030B50246602A01DA63
:1018E000012A01DA5F2101E0501EC1B214E0481E56
:1018F000C004030E481EC406E40E9D00084840596B
:101900000125A5402840002804D158010019401C99
:1019100040B230BD481EC1B20029E8D1881EF8E7A8
:101920000C0900201CB50021684681710121C1719C
:101930004020009068460171032141710121880512
:1019400002F05CF96946024800F01EFA1CBD000076
:101950000014004810B54021014800F089FA10BD7C
:101960000014004810B54021014800F083FA10BD72
:10197000001400481CB50AA103C9019100900A484F
:101980000078012801D0FFF773FD03F019FD022054
:10199000054908700021684600F06AF91CBD000086
:1019A000F5010000010000F5700100201CB50BA13D
:1019B00003C9019100900B480078012801D0FFF77E
:1019C00057FD03F0FDFC022006490870002168461F
:1019D00000F04EF901F0D2FC1CBD0000F502000041
:1019E000010001F5700100201CB50BA103C9019194
:1019F00000900B480078012801D0FFF739FD03F073
:101A0000DFFC0220064908700021684600F030F92A
:101A100001F0B4FC1CBD0000F5030000010001F55D
:101A20007001002030B591B0202103A8FEF7BDFB66
:101A300000F01EFB054683480078012879D0082D68
:101A400077DB042008A908730122082103A803F00A
:101A5000C1FC7DA003F000FE002406E003A8015DA8
:101A60007BA003F0F9FD601C84B2082CF6DB7A48F9
:101A7000007802287ED101F079FC012076490870B7
:101A80006846407B012810D1012108A8817368466F
:101A9000017C0BA8C17006220FA96846FEF76CFBFB
:101AA0000BA80FC802F084F84AE06846407B022881
:101AB00046D16846007C01280BD06846007C04288B
:101AC00007D06846007C842803D06846007C07283D
:101AD00010D1022108A881736846017C0BA8C1704F
:101AE00006220FA96846FEF747FB0BA80FC802F0B5
:101AF0005FF825E06846007C00281BD1022108A879
:101B0000817300210BA8C1706846C17B0BA80171CD
:101B10006846817B0BA8417106220FA96846FEF733
:101B20002BFB0BA80FC802F043F84CA003F094FD68
:101B300006E085E06846007C082801D1FFF736FF03
:101B40006846407B032879D16846007C01280BD089
:101B50006846007C042807D06846007C842803D0AF
:101B60006846007C072812D1032108A881736846C3
:101B7000017C00E02EE00BA8C17006220FA9684688
:101B8000FEF7FAFA0BA80FC802F012F856E0684602
:101B9000007C002817D1032108A8817300210BA81D
:101BA000C1706846C17B0BA801716846817B0BA898
:101BB000417106220FA96846FEF7DEFA0BA80FC88E
:101BC00001F0F6FF3AE06846007C082836D1FFF7BE
:101BD000EDFE33E02048007806282CD101201E4974
:101BE00008706846407B0C2828D1204800780128DE
:101BF00001D111B030BD6846007C082802D101F047
:101C0000D9FD1BE00C2108A881736846017C0BA854
:101C1000C1706846C17B0BA801716846817B0BA827
:101C2000417106220FA96846FEF7A6FA0BA80FC855
:101C300001F0BEFF02E001200749087003F0C0FB7D
:101C400000BFD6E7020000207265743A2000000051
:101C500025325820000000007001002072656732B4
:101C6000207375636573730D0A000000C8000020BF
:101C7000FEB505460E46082229466846FEF77CFA60
:101C80000027012404E06846005D4740601CC4B2A0
:101C9000062CF8DB6846877103F092FB3246082178
:101CA000684603F0CDFBFEBD1FB513A103C901912A
:101CB000009013480078012801D0FFF7D9FB0020DD
:101CC0000290039003F07CFB01216846FFF7D0FFF0
:101CD0006422082102A803F07DFB84B2082C09DBF2
:101CE0006846407A2D2805D16846007B002801D13E
:101CF00004B010BD0120FBE7F52D000100002CF51C
:101D000070010020F7B50C4615460027002D01D1C3
:101D10000120FEBDFFF77CFC002616E001E0781CE8
:101D200087B221680098FFF73DFC042801D00A2FF4
:101D3000F5DB0A2F03DBFFF709FC0120E9E7009838
:101D4000001D0090241D701C86B2E81CC117890F6D
:101D500009188910B142E1DCFFF7F8FB0020D8E751
:101D60001CB50121C80401F049FF01208003009047
:101D70000021684601710121C1716946014800F0E6
:101D800003F81CBD00080048F0B50A4600210023F6
:101D9000002400BF3DE001258D402B4615681D4005
:101DA0002C469C4234D11579012D02D01579022D93
:101DB00016D185684F000326BE40B543856055792E
:101DC0004E00B540866835438560858801268E4083
:101DD000B5438580858896798E40B6B23543858037
:101DE00005684F000326BE40B543056015794E00D7
:101DF000B540066835430560C5684F000326BE4000
:101E0000B543C560D5794E00B540C6683543C56059
:101E1000491C1029BFD3F0BDF0B5002300244D07A5
:101E2000EE0E1546B5402B46CD10AE0005462035CA
:101E3000AD594E07F70E0F26BE40B543CE10B60083
:101E400007462037BD51CD10AE003D46AD591D436C
:101E50002C46CD10AD003E467451F0BD0246002028
:101E6000138A0B40002B01D0012000E000207047B6
:101E7000018570478161704770B50446632C02DDAF
:101E80000020C04370BD0A212046FEF761F90649D3
:101E90000D5C0A212046FEF75BF90348405C2902ED
:101EA000084305B22846EDE74C0000200349887A34
:101EB0000102024A527B1143084670474C00002041
:101EC0000349887A0102024A527C1143084670474E
:101ED0004C0000200349087C0102024A127C114395
:101EE000084670474C0000200349487C0102024A22
:101EF000927C1143084670474C0000200349087B40
:101F00000102024A527C1143084670474C000020EF
:101F10000349887B0102024AD27B1143084670477D
:101F20004C0000200349887C0102024AD27B114305
:101F3000084670474C0000200349C87B0102024A52
:101F4000127D1143084670474C0000200349C87CAD
:101F50000102024A127D1143084670474C000020DE
:101F600070B50446632C01DD002070BD0A212046B7
:101F7000FEF7EEF806490D5C0A212046FEF7E8F868
:101F80000348405C2902084305462846EDE7000067
:101F90004C00002010B586B004461E4800681E495B
:101FA000096888420ED1002069460870142100A8F3
:101FB0000230FEF7FAF8162269462046FEF7DCF8F2
:101FC00006B010BD1348006816225043134A81180A
:101FD00016226846FEF7D0F800210E480068162247
:101FE00050430E4A11540B490968162251430B4ABB
:101FF0008918881C1421FEF7D8F80648006804F0F8
:1020000021FE04490860162269462046FEF7B4F80E
:1020100000BFD5E70400002008000020B401002024
:102020000146302905DB392903DC08463038C2B2C5
:1020300006E02A2901D10A2202E0232900D10B223D
:102040000120904003239B03984380B270470246CF
:10205000118808467047000001480068704700007A
:10206000140000200148006870470000180000209C
:1020700010B5024800F0CAF910BD00008801002028
:1020800010B50020602110E04A1E52099300084A52
:10209000D2584B1EDC06E40E0123A3401A40002A4E
:1020A00001D0421CD0B24A1CD1B26429ECDB10BD75
:1020B0000C090020F8B500200090002700BFFEF7B3
:1020C000A9FD012003F08CFF2048FEF7E7FB002567
:1020D0002BE01E48FEF7E2FB06E00098401C80B2B1
:1020E0000090012003F09CFF04211848FEF7A8FB94
:1020F000002804D17D21C90000988842EDDB1348F7
:10210000FEF79AFB064610211048FEF757FB1049D0
:10211000714308460F49FEF71BF80446381987B289
:10212000022003F05DFF681C85B2032DD1DB9321F3
:10213000794308468D21FEF70BF884B2002103484D
:10214000FEF740FBFEF75FFD2046F8BD002401408E
:10215000E40C0000FE0F0000F1B58AB0002509A8CC
:1021600000F044F86846808C002801D10BB0F0BD27
:10217000FFF786FF0446002C00D1F7E75F25002615
:1021800020E02846FFF76AFA0546681C002801D0BF
:102190005F2D01DC0020E9E7E8B201A902F042FD71
:1021A0006846C07903280BD16846817A01A8C079B6
:1021B0000002081887B20A98874201D12846D5E75D
:1021C000701C86B2A642DCDB0020CFE770B5054666
:1021D0000024284600F03EF80446002C03D128468F
:1021E000FFF7BAFF0446204670BD00007FB50446E5
:1021F00015A103C90191009015480078012801D06C
:10220000FFF736F903F0DCF800200290039001217B
:102210006846FFF72DFD7D22D200082102A803F0B9
:10222000D9F885B2082D0DDB6846007B002809D15E
:102230006846807A01026846C07A0818208000202B
:1022400004B070BD0120FBE7F5090000000009F5AE
:1022500070010020F1B58AB0002609A8FFF7C6FF7B
:102260006846808C002801D10BB0F0BD00F040F82A
:102270000446002C00D1F7E700251DE03046FFF7AB
:10228000B5FA0646701C002800D1EDE7F0B201A9AE
:1022900002F0C8FC6846C07903280BD16846817AF1
:1022A00001A8C0790002081887B20A98874201D1B4
:1022B0003046D9E7681C85B2A542DFDB0020D3E7B2
:1022C00010B5012189030248FFF7C8FD10BD0000C9
:1022D0000008004810B5FF2101310920C006FFF7B2
:1022E000BDFD10BD014800887047000000E80008EF
:1022F00010B50020012110E04A1E52099300084A3F
:10230000D2584B1EDC06E40E0123A3401A40002ADB
:1023100001D0421CD0B24A1CD1B26029ECDB10BD06
:102320000C09002010B5012001F09AFB012836D1DC
:10233000000302F0B1FA012801D1042433E004F0D3
:1023400077FA012804D1022418A003F085F92AE0C5
:1023500004F076FB00280CD10121C9020920C00637
:10236000FFF77CFD002804D0002414A003F074F9CA
:1023700019E00121C9020920C006FFF76FFD0028FE
:1023800008D104F05DFB002804D101240FA003F064
:1023900063F908E0002411A003F05EF903E00324D0
:1023A00014A003F059F9204610BD000066696E675D
:1023B00065725F77616B6575700D0A00746F756388
:1023C000685F77616B6575700D0A000062757474E3
:1023D0006F6E5F77616B6575700D0A00756E6B6E61
:1023E0006F776E2077616B65757020736F757263A0
:1023F000650D0A0073797374656D5F72657365743A
:102400005F77616B6575700D0A0000000146886892
:10241000002800D170474888C0B2FBE710B5002003
:10242000012110E04A1E52099300084AD2584B1E5F
:10243000DC06E40E0123A3401A40002A01D0421C0E
:10244000D0B24A1CD1B26429ECDB10BD0C090020CB
:1024500070B505460E46022D01D1094C05E0012D4F
:1024600001D1084C01E0002070BD002E03D00120F6
:10247000A168884702E00020A16888470120F3E7AF
:102480003C0000202C00002010B501214903024827
:10249000FFF7F0FC10BD00000008004810B5012156
:1024A00049030248FFF7E4FC10BD000000080048A3
:1024B000F8B506460F46022E01D1144C05E0012E58
:1024C00001D1134C01E00020F8BD072519E00120DF
:1024D000A8403840002803D001202168884702E046
:1024E0000020216888470A2003F09AFD00206168D7
:1024F00088470A2003F094FD012061688847681E20
:1025000045B2002DE3DA0120DEE700003C000020A8
:102510002C00002070B504460D46022C03D1012C7E
:1025200001D1002070BD00212046FFF791FFE9B2E4
:102530002046FFF7BDFF2804010E2046FFF7B8FF35
:1025400001212046FFF784FF0120EBE770B5044628
:102550000D46022C03D1012C01D1002070BD0021B9
:102560002046FFF775FFE9B22046FFF7A1FF2804D8
:10257000010E2046FFF79CFF00212046FFF798FF41
:1025800001212046FFF764FF0120E7E770B505460B
:102590000E46022D01D10B4C05E0012D01D10A4C54
:1025A00001E0002070BD0020A168884700F0CCFA4F
:1025B00031462846FFF77CFF0120A16888470120AB
:1025C000F0E700003C0000202C0000201CB5044671
:1025D0000121684601710321417100218171C1719E
:1025E0000121C80401F00AFB02F046FFFFF74CFF8F
:1025F00002202040002819D00121880401F0FEFAB1
:102600000F200003009069461848FFF7BDFB012129
:1026100049031648FFF72CFC0121C9031348FFF7B3
:1026200027FC012109031148FFF722FCE007C00F36
:1026300000280FD00121480401F0E0FAF0200090BA
:1026400069460920C006FFF79FFB20210920C0062C
:10265000FFF70EFC06490120FFF75CFF0021022076
:10266000FFF794FFFFF71AFF1CBD000000040048AD
:10267000FF3F000010B5FEF749FAFEF7AFFA10BDB4
:1026800070B504460D46164600200C4948700846B1
:10269000C66085604460002C04D140780421084362
:1026A00006494870FFF7D8FC400004490861084615
:1026B0004078022108430149487070BD3C01002068
:1026C000002003494870C860886048607047000077
:1026D0003C01002070B505462B480078002851D1F8
:1026E000294840780221084000284BD0FFF7B4FC6D
:1026F000440025480069A04244D823484078C007D8
:10270000C00F002817D02048C06800191E49086172
:1027100008464078400840004870FEF703FB1A481E
:1027200040780421084000282CD117484068401EFA
:102730001549486026E01448406800280CD112482A
:10274000407804210840002806D10F484078022133
:1027500048400D49487015E00B48806800190A4947
:102760000861084640780121084307494870FEF790
:10277000E1FA0548407808210840002802D00120ED
:102780000149487070BD00003C010020F8B50446C6
:102790000D4616461F461548844203D101201449B0
:1027A000087609E01348844203D1012010490876D5
:1027B00002E000200E49087600200D4948700846C6
:1027C000C760866045608482002D04D14078042172
:1027D000084307494870FFF73FFC05490861084670
:1027E00040780221084302494870F8BDFF7F00008D
:1027F00084000020FFBF000010B500200949487088
:10280000C820C86088600120486007488882FFF7B8
:1028100023FC044908610846407802210843014925
:10282000487010BD84000020FFBF000010B514499F
:10283000002000F029F8322003F0D2FB11490120DA
:1028400000F022F8642003F0CBFB0D49002000F0DB
:102850001BF8642003F0C4FB0A49012000F014F8BF
:10286000642003F0BDFB0649002000F00DF8642051
:1028700003F0B6FB0021012000F006F810BD0000B7
:10288000FF3F0000FF7F000070B505460C460020AA
:10289000254908762B0002F01CFF0910061D443262
:1028A0004444443D440001201F4948700846848246
:1028B000818A0120FFF72EFE34E000201A4948707B
:1028C00008468482C08AC8820846818A0120FFF7B0
:1028D00021FE27E0002014494870C820C8608860A5
:1028E0000220486008468482FFF7B6FB0E49086163
:1028F00008464078022108430B49487012E0062040
:1029000009494870C820C8608860002048600846AF
:10291000848207E00448407808210843024948704F
:1029200000E000BF00BF70BD8400002010B502238E
:1029300000220249024803F0D1FF10BD45290008DA
:102940008008002070B505465048007800287DD1E9
:102950004E4840780221084000285ED0FFF77CFBFB
:1029600004464A480169A14257D84078C007C00FC1
:10297000002828D04548C068001944490861084625
:1029800040784008400048700846007E002804D087
:102990003F490120FFF7BEFD04E03C48C18A012009
:1029A000FFF7B8FD3948407804210840002834D1A9
:1029B00036484068401E354948600846406800284F
:1029C0002BD1087629E03148406800280CD12F48E7
:1029D000407804210840002806D12C484078022184
:1029E00048402A49487018E028488068001927495B
:1029F0000861084640780121084324494870084688
:102A0000818A0120FFF786FD204840780821084090
:102A1000002802D001201D4948701C484078102130
:102A20000840002830D0FFF717FB0446174800691C
:102A3000A04229D815484078C007C00F002813D0FD
:102A40001248407840084000104900E01CE04870FF
:102A500008464078102148400C4948700846C18A11
:102A60000120FFF757FD0FE008488068001907496B
:102A70000861084640780121084304494870084627
:102A8000818A0120FFF746FD70BD00008400002010
:102A9000FF3F000070B505460C462B0002F019FE02
:102AA0000910061B43304343433C430001201F49A8
:102AB000487008468482818A0220FFF747FD33E090
:102AC00000201A494870401E88820846818A0220E8
:102AD000FFF73CFD28E00020144948709620C860AC
:102AE0008860C820486008468482FFF7B5FA0F491D
:102AF000086108464078022108430C49487013E0F9
:102B000006200A494870FF202D30C86088600020E8
:102B100048600846848207E004484078082108435A
:102B20000249487000E000BF00BF70BD6400002093
:102B300010B5322300220249024803F0CFFE10BD37
:102B4000D92B00086808002010B5224840780221DF
:102B50000840002805D11F4840780421084000287B
:102B60001DD01C484078C007C00F00280BD0194862
:102B7000017D0220FFF79CFC1648808A011202208A
:102B8000FFF796FC25E00020002822D1FF2102203B
:102B9000FFF78EFCFF210220FFF78AFC19E00D48A9
:102BA0004078C007C00F00280BD00A48017D0220E2
:102BB000FFF77EFC0748808A01120220FFF778FCAD
:102BC00007E0FF210220FFF773FCFF210220FFF73F
:102BD0006FFC10BD6400002070B505462D480078DC
:102BE000002856D12B48407802210840002850D0B8
:102BF000FFF732FA044627480069A04249D8254821
:102C00004078C007C00F002819D02248C0680019BA
:102C100020490861084640784008400048701E4935
:102C20000220FFF793FC1B4840780421084000284D
:102C30002FD118484068401E1649486029E01548C1
:102C4000406800280CD1134840780421084000282F
:102C500006D110484078022148400E49487018E0DB
:102C60000C48806800190B4908610846407801212A
:102C70000843084948700846818A0220FFF766FC2D
:102C80000448407808210840002802D0012001496A
:102C9000487070BD64000020FFFF000000BFFEE729
:102CA00038B5044601236A462146B42000F0D4F822
:102CB000002802D06846007838BD00F0AFF8002048
:102CC000FAE773B504460025012301AA2146B42082
:102CD00000F000F90546002D01D100F09FF82846CC
:102CE0007CBD000010B50446002C04D1012107482A
:102CF000FFF7BEF803E001210448FFF7BBF800F03E
:102D000007F801210148FFF7B5F810BD000400489D
:102D100010B50A2003F084F902210848FFF7AAF849
:102D20000A2003F07DF901210448FFF797F80446D3
:102D300002210248FFF79CF8204610BD000400481D
:102D40001CB50121880400F059FF032000900121E7
:102D50006846017103214171012181710021C17116
:102D600069460248FFF710F81CBD00000004004847
:102D700070B50024002509E06006040EFFF7C8FFC7
:102D8000002801D0601CC4B2681CC5B2082DF3DB5A
:102D9000204670BD70B50446002513E08020204019
:102DA000C611002E04D101210D48FFF761F803E0A0
:102DB00001210B48FFF75EF86006040EFFF7A8FF3D
:102DC000681CC5B2082DE9DBFFF7A2FF002803D07D
:102DD00000200449087002E001200249087070BD1B
:102DE000000400482000002010B501210A48FFF728
:102DF00041F802210848FFF73DF80A2003F010F9D6
:102E000001210548FFF734F80A2003F009F90221EF
:102E10000148FFF72DF810BD0004004810B502214D
:102E20000C48FFF725F801210A48FFF721F80A208E
:102E300003F0F6F802210748FFF71CF80A2003F018
:102E4000EFF801210348FFF715F80A2003F0E8F82E
:102E500010BD000000040048FFB581B006461446CE
:102E60001F46FFF7C1FF3046FFF794FF1848007870
:102E7000002801D105B0F0BD0298FFF78BFF144880
:102E80000078002800D1F5E7FFF7AEFF711CC8B24B
:102E9000FFF780FF0E480078002800D1EAE7002500
:102EA00008E0FFF765FF20700020FFF71BFF641CA0
:102EB000681CC5B2781EA842F3DCFFF759FF2070EA
:102EC0000120FFF70FFFFFF7A9FF0120D2E7000065
:102ED00020000020FFB581B00E4614461F46FFF7C4
:102EE00083FF0198FFF756FF10480078002801D1B2
:102EF00005B0F0BD3046FFF74DFF0C4800780028C4
:102F000000D1F5E700250AE02078FFF743FF0748E6
:102F10000078002800D1EBE7641C681CC5B2BD42F4
:102F2000F2DBFFF77BFF0120E2E70000200000203A
:102F30000148024908607047CCCC000000300040D6
:102F40000148024908607047AAAA0000003000400A
:102F50000149486070470000003000400149886026
:102F600070470000003000400149086070470000D1
:102F70000030004010B50748FFF7F6FF0520FFF7C7
:102F8000E7FF0548FFF7EAFFFFF7DAFFFFF7D0FF9B
:102F900010BD000055550000E204000010B51422D9
:102FA00013491448FDF7E8F812480088124988428E
:102FB00006D010480069FF2109020840002815D0FA
:102FC000002406E00021A2000A48001D8150601C78
:102FD000C4B2042CF6DB00200649887000F010F81B
:102FE00006480078002801D0FEF77CF910BD0000EB
:102FF00000EC000808090020FFFF0000710100201C
:1030000000B585B014220C496846FDF7B5F868464E
:1030100000880A49884206D0FEF7FAFA0648FEF709
:1030200051FAFEF793FA012005490880142202485C
:10303000FEF768FE05B000BD00EC0008FFFF0000D1
:1030400008090020F8B50446FFF77AFF042C0CD1DC
:103050000025A00201F098FB00F008FA01E0681CCE
:1030600085B286488542FADBF8BD032C0AD1FEF70B
:1030700077FEFFF725F9002804D101208049087068
:1030800003F036F803F020FC02F094FFFDF776FE23
:103090000320FFF79BFAFFF7EDFAFEF743FCFEF77C
:1030A00061FCFFF77BFF03F07FFA00F047F9052C86
:1030B0002FD0FEF7FFFF05467248854210D87249AF
:1030C0000120FFF7E1FBFDF763FDFF202D3002F04B
:1030D00087FF6E490020FFF7D7FB00F057F90FE09C
:1030E0004B20800185420BD8FEF7FEFE074639468D
:1030F0000120FFF7CFFCFDF74BFD0120644908706C
:10310000022C05D000210120FFF7BEFBFDF786FE53
:1031100000BF022C03D0012C01D0002C40D1FFF7BE
:10312000E1F85C49884216D116205B4948705B493A
:103130000020FFF7AFFC5A490120FFF7EBF9002010
:103140005849487000F090FBFEF786FF564940183A
:103150005649086049E0FFF761F9002807D0FEF7FB
:10316000B9FE064631460120FFF794FC08E0FEF761
:10317000EDFE064631460120FFF78CFCFDF7AAFD67
:1031800000F00AFA054629460120FFF783FC022CCD
:103190002BD100210120FFF777FBFDF73FFE24E054
:1031A000032C1FD1FFF73AF9002807D0FEF792FE53
:1031B000064631460120FFF76DFC08E0FEF7C6FE2B
:1031C000064631460120FFF765FCFDF783FD14201C
:1031D00031494870FEF77EFE054629460120FFF77B
:1031E00059FC02E000202C494870FFF7A9FD03F0CC
:1031F0002FFCFFF79DFCFFF799FB012C02D101206A
:103200002B490870FDF756FE01F062FF00F014FB39
:1032100000F0B2FC032C12D15D2000F071FE0028FA
:1032200004D000F03FFD23A002F016FAFFF75AF891
:103230001849884201D1FEF701F9FFF79BFE022CE5
:1032400005D0012C03D0002C01D0032C08D11D483F
:10325000FEF7FDFE1149884202D01A48FEF7FAF83F
:10326000FFF740F80B49884205D1FEF7F5FE0E49FD
:1032700040180E49086000BFF6E600008813000001
:1032800010000020F8110000FF7F0000FF3F000049
:103290000100002088550000A0000020FFFF000072
:1032A000FFBF000084000020B80B0000B800002021
:1032B00000000020697764672072657365740D0AE9
:1032C0000000000000E400081CB50121480400F0E3
:1032D00095FCFF200130009000216846017101211A
:1032E000C17169460920C006FEF74EFD1CBD10B530
:1032F000FF207330FDF758FD6420FDF76BFDFDF7EF
:1033000019FD282002F06CFEFDF70CFD0A2002F0EA
:1033100067FE10BD10B5FF207330FDF745FD64203A
:10332000FDF758FDFDF706FD282002F059FEFDF7D8
:10333000F9FC0A2002F054FE10BD00001CB501216A
:10334000880500F05BFC8020009001216846017137
:103350000321417100218171C17169460248FEF764
:1033600013FD00F003F81CBD0014004810B58021C7
:103370000148FEF77FFD10BD0014004810B5802104
:103380000148FEF775FD10BD0014004810B500247B
:103390000CE0012002F044FE641C7D20C000844249
:1033A00004D92BA002F058F9002010BD03F048FB0F
:1033B0000028EED003F00AFBFEF7CCFA012000F063
:1033C0001FFB012000F05AFC002000F057FC0120F8
:1033D00000F0BAFD002403E0012002F021FE641C8D
:1033E000412000F08DFD002801D1642CF4D301F0C0
:1033F000DDF90121080200F041FB012000F014FB7F
:1034000072B6002403E0012002F00AFE641C0121D0
:10341000C9020920C006FEF721FD002806D103F0ED
:103420000FFB002802D10F488442ECD303F008FBC5
:10343000002809D10121C9020920C006FEF70EFDAE
:10344000002801D00848B0E700F0F8FA0648ACE7D9
:103450006D707231323120697320686F6C640D0AAF
:103460000000000040420F00FFFF000070B5002583
:1034700006E0681C85B23648854201DD002070BD3B
:1034800003F0DEFA0028F4D0FEF724FF002825D14F
:103490003048FEF7DCFD04462F49884200D1002465
:1034A000641C21462DA002F0D7F8062C0BD1012078
:1034B0002F49087000F01EF9641CA1B2254802F0E3
:1034C0009BF80120DBE7072C07D2214629A002F058
:1034D000C3F8A1B21F4802F08FF80BE01D48FEF7B9
:1034E000B6FD1D49884205D027A002F0B5F819485D
:1034F000FDF7B0FFFEF72EFA012000F081FA01205F
:1035000000F0BCFB002000F0B9FB012000F01CFD26
:10351000002501E0681C85B2412000F0F1FC002884
:1035200003D17D20C0008542F4DB01F03FF9012189
:10353000080200F0A3FA012000F076FA72B603F058
:103540007FFA002801D000F079FA034897E70000DD
:103550008813000000E40008FFFF000074696D6537
:10356000436F756E7431203D2025640D0A00000004
:10357000C7000020777269746520256420746F206D
:10358000666C6173680D0A006C6F636B2072656C0A
:10359000656173650D0A000010B5094800780028C0
:1035A00001D000F007F9002006490870064802F033
:1035B000B3FF032005494870FEF78CFC10BD0000E6
:1035C00071010020C500002008080020A000002094
:1035D00010B507480078002801D000F0EBF8054846
:1035E00002F09AFF082004494870FEF75FFC10BD06
:1035F0007101002008080020A000002010B5074835
:103600000078002801D000F0D5F80D20044948705A
:10361000FEF788FC0446204610BD00007101002022
:10362000A000002010B507480078002801D000F065
:10363000C1F80A2004494870FEF774FC044620468D
:1036400010BD000071010020A000002010B5012075
:1036500016490870FEF722FFFEF75AFC0446214681
:103660000120FFF717FA12490120FEF753FFFDF77B
:10367000E9FB10490020FFF70DFA0F490020FFF782
:1036800003F9FEF701FFFEF7E7FC0C4940180C496F
:10369000086015200B49487001200B490870002074
:1036A00002490870FDF7E0FC10BD0000C8000020D2
:1036B000FF7F0000FFFF0000FF3F0000905F010060
:1036C000BC000020A00000203C01002010B50648EE
:1036D0000078002801D0FEF769F9044802F01CFFC9
:1036E00006200349487010BD710100200808002021
:1036F000A000002010B505242046FFF7A3FCFEF72C
:10370000ABFC0949401809490860C822114600204D
:10371000FEF7B6FFC8231A4600210548FFF736F822
:1037200004A001F099FF10BD88130000B80000202C
:10373000FF7F00002E2E2E2E2E2E2E2E2E2E0D0A28
:103740000000000010B507490978042903D10D21B4
:10375000054A117002E00A21034A1170FEF7E2FBEC
:1037600010BD0000A0000020C400002010B50446D9
:103770003420FDF7A1FE2046FDF7A4FE10BD10B5D4
:10378000FEF7DAFB044621460120FFF783F9FDF737
:1037900059FBFFF7FBFD10BD10B5FEF7D7FB044644
:1037A00021460120FFF776F9FDF794FAFFF7EEFDC9
:1037B00010BD00001CB50AA103C9019100900A4880
:1037C0000078012801D0FDF753FE01F0F9FD062035
:1037D0000549087000216846FEF74AFA1CBD000042
:1037E000F50C000000000CF57001002010B503215D
:1037F00089020448FEF73EFB0121C9020148FEF799
:1038000037FB10BD0004004810B5032189020448AD
:10381000FEF730FB012189020148FEF729FB10BDAC
:103820000004004810B5032189020248FEF722FB7C
:1038300010BD0000000400481CB50121880400F000
:10384000DDF9032080020090012168460171032107
:1038500041710021817169460248FEF795FAFFF730
:10386000E1FF1CBD0004004810B5FF20F530FDF756
:103870009BFAE620FDF7AEFAFDF75CFA782002F03D
:10388000AFFBFDF74FFA282002F0AAFBFF20A5307E
:10389000FDF78AFA6420FDF79DFAFDF74BFA7820D0
:1038A00002F09EFBFDF73EFA182002F099FBFF2084
:1038B0006930FDF779FA8220FDF78CFAFDF73AFAC4
:1038C000782002F08DFBFDF72DFA502002F088FBE6
:1038D000FF20C330FDF768FA8220FDF77BFA002055
:1038E0000149487010BD00003C01002070470000F5
:1038F00000218278002A27D0184A03231B02D218FD
:1039000003789B109B00D15802789207D30EFF22B8
:103910009A400B469343194642789207120E037859
:103920009B07DB0E9A4011430C4A03231B02D2185B
:1039300003789B109B00D1500278D306DB0E012246
:103940009A40064B1A6007E00278D306DB0E01228C
:103950009A40024B80331A607047000000E100E09B
:1039600010B5FEF7ADFE5F20C000FDF71DFAFF2089
:103970006930FDF72FFAFDF7DDF90B490120FEF75D
:1039800083FFC82002F02CFBFDF7CCF9064900208C
:10399000FEF77AFFC82002F023FBFEF791FE00211C
:1039A0000120FEF771FF10BDFF7F000010B5FF2062
:1039B0007D30FDF7F9F98220FDF70CFAFDF7BAF931
:1039C000282002F00DFBFDF7ADF9502002F008FBB6
:1039D000FDF7B0F9282002F003FBFDF7A3F9502012
:1039E00002F0FEFAFF20A530FDF7DEF9C820FDF752
:1039F000F1F900200149487010BD00003C01002091
:103A0000002807D007490968FF2201321143054AFF
:103A1000116006E003490968FF2201329143014A1F
:103A2000116070470070004003490968820011432B
:103A3000014A1160704700000070004006480068AD
:103A4000022108430449086004480069042108432E
:103A50000249086130BF70470070004000ED00E08F
:103A600001460020044A52680A40002A01D0012081
:103A700000E000207047000000700040002905D0E1
:103A8000054A52680243044B5A6004E0024A5268F5
:103A90008243014B5A607047007000400FB430B54C
:103AA00085B014220BA96846FCF766FB2A49087A00
:103AB00008A90EC9FDF700F8FFF7D6FEFEF79CFE39
:103AC0002548007A602812DB2348007A64280EDA41
:103AD000FEF7D6FA042802DBFFF751FE15E00520B9
:103AE0001D4948700020FDF709FE04460DE0FEF771
:103AF000FFFB5F2802DBFFF742FE06E004201649C9
:103B000048700020FDF7C0FE0446002013490870ED
:103B1000601C002802D1FDF7B7FE0446601C002897
:103B200006D00D490C72087AFEF71AFA05460AE02B
:103B3000642009490872FEF7FFF90546FFF710FFF8
:103B400007A001F089FD29460420FEF7A3FF05B078
:103B500030BC08BC04B01847A0000020C5000020FD
:103B600073797374656D206572723F3F3F3F0D0A34
:103B7000000000007047000010B50020074948729F
:103B80008872022300220649064802F0A7FEFEF7CB
:103B900063FA054940180549086010BDA0000020DF
:103BA000556C000898080020581B0000B800002041
:103BB0000FB410B50E48006803F044F80D490968C9
:103BC000884203D110BC08BC04B0184708490968F2
:103BD00016225143084A8818162202A9FCF7CCFA8B
:103BE0000348006803F02EF80149086000BFE9E7C8
:103BF0000800002004000020B4010020002905D0A6
:103C0000054A52690243044B5A6104E0024A526970
:103C10008243014B5A61704700100240002905D0D1
:103C2000054AD2690243044BDA6104E0024AD269D0
:103C30008243014BDA61704700100240002905D031
:103C4000054A92690243044B9A6104E0024A926970
:103C50008243014B9A61704700100240002905D051
:103C6000054AD2680243044BDA6004E0024AD26893
:103C70008243014BDA60704700100240002807D0F1
:103C80000749096A012212041143054A116206E03C
:103C90000349096A012212049143014A11627047E3
:103CA000001002400348406A012109060843014907
:103CB0004862704700100240FEB504460025002609
:103CC00000200290019000900027864840680C2157
:103CD00008400546002D06D0042D07D0082D08D039
:103CE0000C2D2CD128E0804820602BE07E482060FD
:103CF00028E07C4840680F2189040840064679483E
:103D000040680321C90308400290B00C861C029849
:103D1000002803D17548374647430BE07148C06A15
:103D20000007000F401C01906F480199FCF7FAF959
:103D300070430746276005E06D48206002E06A484E
:103D4000206000BF00BF67484068F021084005467A
:103D50002D096848405D009020680099C840606067
:103D60006048406807210902084005462D0A61485D
:103D7000405D009061680098C140A1605948006BA7
:103D8000FF2101310840884202D05B48E0600DE02D
:103D900054484068012189030840884203D0A06844
:103DA0004008E06002E0A0688008E0604D48006BD9
:103DB00040210840402802D05048206102E0012004
:103DC000C00320614748006B10210840102802D032
:103DD0004548606101E0206860614248006B8007EF
:103DE000800F002802D1A068A06119E03D48006B57
:103DF0008007800F012802D12068A06110E03948B7
:103E0000006B8007800F022802D18003A06107E0C9
:103E10003448006B8007800F032801D13248A0612D
:103E20003048006B032109040840002802D1A06833
:103E3000E06120E02B48006B0321090408400121C8
:103E40000904884202D12068E06114E02548006B33
:103E500003210904084001214904884202D180104D
:103E6000E06108E01F48006B032109040840884214
:103E700001D11D48E0611B48006B03218904084003
:103E8000002802D1A068206220E01648006B0321C0
:103E90008904084001218904884202D120682062F7
:103EA00014E01048006B0321890408400121C90473
:103EB000884202D10011206208E00A48006B032109
:103EC00089040840884201D1074820620548006BF8
:103ED00080210840802802D00548606200E06762C7
:103EE000FEBD00000010024000127A0000093D00F3
:103EF000006CDC0272010020809FD500128000005F
:103F000010B502460021002300205111002902D1E2
:103F10000C4C23680BE0012902D10A4C236A06E00D
:103F2000022902D1074C636A01E0064C636BD1069B
:103F3000C90E01248C401C40002C01D0012000E05F
:103F4000002010BD00100240002806D00649496A32
:103F500001221143044A516205E00349496A4908B4
:103F60004900014A5162704700100240002807D002
:103F70000749096A0122D2031143054A116206E08A
:103F80000349096A0122D2039143014A1162704731
:103F9000001002400249096A0143014A1162704758
:103FA0000010024070B588B0054693216846017242
:103FB000702141720021817300240BE0295D02AA67
:103FC000A01C11546946887B295D48406946887366
:103FD000601CC4B2042CF1DB03AA0332072102A83F
:103FE00000F018F80821084600F049F807A802ABCD
:103FF000092202A900900C2000F044F90646002E88
:1040000004D16846007F182800D100E0022630461F
:1040100008B070BDF7B5074615460421052000F02D
:104020002EF80021012000F0D3F880210B2000F0B1
:10403000A3FA002405E0395D092000F0C9F8601CEE
:10404000C4B201988442F6DB0321012000F0C0F8DD
:10405000FF2400BF052000F09FF80646601EC4B292
:10406000002C03D0042030400028F3D0222000F0A0
:1040700093F82870212000F08FF86870FEBD70B5AD
:1040800005460C460026284600F086F806463046CF
:10409000A0430146284600F09BF870BDF0B585B0FE
:1040A00004460F46FF2214216846FCF777F869465C
:1040B000262000F09CF90546002D02D0022005B014
:1040C000F0BD69460E783002497808430646012063
:1040D0008002864202D10020207008E001204002C8
:1040E000864202D10120207001E0FF202070684646
:1040F00000F090F80546002D01D00220DFE7684669
:10410000FFF750FF0546002D01D00220D7E700F051
:1041100057F9042269463846FCF72EF80020CEE70E
:1041200010B500F095F9012001F07AFF00F098F940
:10413000012001F075FF00F08BF9012001F070FF04
:104140000F21012000F044F8012001F069FF3D211A
:10415000112000F03DF81E212D2000F039F800213B
:104160002C2000F035F88D212A2000F031F83E2176
:104170002B2000F02DF84021152000F029F800F048
:1041800043F8142300220249024802F0A7FB10BDA5
:10419000714400081C0D002070B5044640210B48F6
:1041A000FDF766FE062001F03BFF60007E2108401F
:1041B00004468034204600F00DFA00F0EDF9054683
:1041C00040210248FDF756FE284670BD0004004815
:1041D00070B504460D4640210A48FDF749FE062009
:1041E00001F01EFF60007E2108400446204600F0DA
:1041F000F1F9284600F0EEF940210248FDF73AFEB9
:1042000070BD00000004004810B503211420FFF722
:1042100036FF10BDF0B587B00546002708210846D7
:10422000FFF72DFF00210D20FFF7D2FF80210E2088
:10423000FFF725FF9321684601712021417106A8EF
:1042400001AB022201A900900C2000F01BF80646E9
:10425000002E10D1002407E001A8005D285501A818
:10426000005D4740601CC4B2042CF5DB01A8005D72
:10427000B84200D0022680210E2000F07DF93046A1
:1042800007B0F0BDFFB583B00646022002900020C3
:10429000019000900E2E04D1122001901020009069
:1042A00005E00C2E03D17720019030200090802271
:1042B0000198104301460220FFF78AFF8021042065
:1042C000FFF7DDFE00210120FFF782FF80210A2099
:1042D00000F052F9002506E00498415D0920FFF73F
:1042E00077FF681C85B205988542F5DB31460120D1
:1042F000FFF76EFF0C2E03D180210D2000F03CF95A
:104300007D252D0100BF0420FFF746FF0446681EEF
:1043100085B2002D07D0E007C00F002803D1009818
:1043200020400028EFD080210D20FFF7A8FE002DAF
:104330003BD00620FFF730FF1B210840002832D178
:10434000029001982040C007C00F002801D0012032
:1043500002900C2E29D10A20FFF71EFF04460C20E4
:10436000FFF71AFF47077F0F002F06D0601EC0001F
:10437000C019C1B20C98017003E0E006010E0C9860
:104380000170002C00D10124122C00DD1224002524
:1043900006E00920FFF700FF06994855681C85B222
:1043A000A542F6DB01E00220029080210C2000F003
:1043B000E3F800210120FFF70BFF029807B0F0BDE2
:1043C00000B587B050216846017100214171821DFE
:1043D000022101A8FFF71EFE06A801AB042201A9D5
:1043E00000900C20FFF74EFF002007B000BD70B515
:1043F00088B005460C4608210846FFF740FE072115
:104400000D20FFF7E5FE0321142000F0B5F8684603
:10441000057207A802AB012202A900900C20FFF749
:1044200031FF0646002E0AD16846007F102806D1CB
:104430006846007A20706846407A607000E0022684
:10444000304608B070BD10B500F002F810BD000095
:1044500010B580210148FDF70DFD10BD0004004896
:1044600010B580210148FDF703FD10BD0004004890
:1044700010B58CB0044600200B9039480078012814
:1044800001D10CB010BD37484078C01E030001F0C8
:1044900020F90B086262073109620A62620B62004E
:1044A00000BF00BF00BF00BF09A90BA8FFF7F6FDC2
:1044B00000281ED1029008A9087202A909A8FBF7DA
:1044C00093FE002814D028A001F0C6F80320694606
:1044D0000873052209A903A80230FBF74DFE062246
:1044E00007A96846FBF748FE03A80FC8FFF760FB63
:1044F00000BF31E01F480078032800D02CE01D48A1
:104500000078032826D109A90BA8FFF7C7FD0028CA
:1045100020D1029008A9087202A909A8FBF764FE3D
:10452000002816D0032069460873052209A903A8AC
:104530000230FBF721FE062207A96846FBF71CFEA6
:1045400003A80FC8FFF734FB1E2250210120FEF7FD
:1045500097F800BF00E000BF00BF00BF91E7000078
:10456000C8000020A00000207363616E206F6B0DF7
:104570000A000000B908002070B505460C46002668
:104580002846FFF709FE06463046204301462846E6
:10459000FFF71EFE70BD000070B50024002513E07B
:1045A00008210B48FDF764FC6006040E0848008AE9
:1045B00010210840002801D00120044308210448AC
:1045C000FDF758FC681CC5B2082DE9DB204670BD1C
:1045D0000004004870B5044600251BE0082111487E
:1045E000FDF746FC80202040002804D020210D4803
:1045F000FDF740FC03E020210A48FDF739FC600686
:10460000040E08210748FDF735FC062001F008FDDF
:10461000681CC5B2082DE1DB20210248FDF728FC0B
:1046200070BD0000000400481CB501218804FFF79C
:10463000E5FA012168460171682000900021684672
:104640008171C1710321417169461748FDF79CFBD7
:1046500008211548FDF70CFC20211348FDF708FC44
:1046600040211148FDF706FC0121684601718020B8
:104670000090002168468171C17103214171694632
:104680000948FDF781FBFFF7EBFE00216846017149
:104690001020009068468171C17103214171694603
:1046A0000148FDF771FB1CBD0004004810B5032153
:1046B0001420FFF761FF10BD38B5024600240094B6
:1046C00000230020CA24174D6C6253246C62002919
:1046D00005D02C46A4681443AC6001201DE0114CA9
:1046E000A46894430F4DAC6000BF0E4CE468150AFB
:1046F0002C402346009C641C00940125AD03009CC3
:10470000AC4201D0002BF0D0064CE468150A2C40D6
:10471000002C01D1002000E00120FF24014D6C623B
:1047200038BD00000028004030B503460020CA24F0
:10473000064D6C6253246C6214060C432046034CF5
:1047400040346060FF246C6230BD000000280040EF
:10475000014600BFF020084000110A2358430246DA
:104760000807000F8018C0B270470146002204E01D
:10477000501CC2B208460A38C1B20A29F8DA10073A
:10478000000E08437047000010B500210109802287
:104790000A4392B2D243044BDB68802423401A437D
:1047A000014BDA6010BD00000028004000B589B060
:1047B00001204002FFF7EEFB0120FFF7D7FB00F0DE
:1047C000FBF9002006907F200790FF202C300890F6
:1047D00006A800F0EDF800216846C172017241722E
:1047E00081723121017500200490C807039002AA4C
:1047F000C10D012000F008F90F2201210802FFF786
:1048000093FF0121080300F0A1F801210802FFF73E
:1048100053FF00216846C17101714171817101A985
:10482000012000F05DF909B000BD000008B50022CC
:10483000009200200021124AD26840231A40002A28
:104840001BD1421E0E4BDA6000BF0D4AD2684023D6
:104850001A401146009A521C00921B02009A9A427A
:1048600001D00029F1D0064AD26840231A40002A1C
:1048700001D0012002E0002000E0012008BD00007E
:10488000002800400348C068802188430149C8606F
:10489000704700000028004070B50146002000224B
:1048A00000230F4C246804252C4022460C4C403C2D
:1048B000A4680C408E0C0D46F540ED0B15402C43C2
:1048C0002346074C403CE4680D092C402246002B4F
:1048D00004D094B2002C01D0012000E0002070BD73
:1048E0004028004010B501208003FFF7D5FF0028C5
:1048F0000BD00DA000F0B0FE01208003FFF744FFB5
:1049000001204004FCF78EFD0CE001200003FFF7BE
:10491000C3FF002806D009A000F09EFE012000037E
:10492000FFF732FF10BD000077616B65757050694D
:104930006E20697320776F726B0D0A00616C726D67
:104940004120697320776F726B0D0A0010B5CA227F
:10495000164B5A6253225A62002911D01A469268A5
:1049600004240346A3431A43104B9A600F4A403273
:104970001268042303401A430C4B40331A6010E0C2
:104980000A4A926804240346A3439A43074B9A6059
:10499000064A40321268042303409A43034B4033D3
:1049A0001A60FF22014B5A6210BD0000002800402F
:1049B00030B504460025CA20124948625320486297
:1049C000FFF734FF002800D117E00E48806840212F
:1049D00088430C4988600846806821680843094973
:1049E0008860A068086108460069A1880904084336
:1049F00004490861FFF746FF0125FF20014948628D
:104A0000284630BD00280040F8B50546144600266B
:104A1000002D0ED13148806840210840002800D088
:104A200002E00020E07000BFA068002800D11BE079
:104A30001AE02A48806840210840002804D02078E5
:104A4000FFF786FE064602E00020E07000BFA06887
:104A5000002804D1207BFFF77BFE064604E0207B84
:104A6000FFF776FE064600BF002D12D02078000426
:104A7000617809020843A1780843E17809040843F2
:104A8000217B09060843A16808436168084306467C
:104A900019E02078FFF769FE07046078FFF765FEEC
:104AA00000020743A078FFF760FE0743E0780004A8
:104AB0000743207BFFF759FE00060743A068074322
:104AC000606807433E46CA20044948625320486252
:104AD0000846C661FF204862F8BD0000002800407B
:104AE000F8B505460C46002600200090002D0AD19E
:104AF0002F48806840210840002800D002E00020B4
:104B0000E07000BF0EE02A4880684021084000287D
:104B100004D02078FFF71CFE064602E00020E0707B
:104B200000BF00BF002D0BD020780004617809027F
:104B30000843A1780843E17809040843064610E0D9
:104B40002078FFF712FE07046078FFF70EFE0002E0
:104B50000743A078FFF709FE0743E0780004074306
:104B60003E46CA201249486253204862FFF75EFE63
:104B7000002801D1009016E00E4830400C49086032
:104B8000FFF780FE0A48806820210840002808D1ED
:104B900000F012F8002801D1009004E001200090FC
:104BA00001E001200090FF20014948620098F8BD13
:104BB000002800407F7F7F0008B50022009200207F
:104BC0000021174A926820231A40002A01D00120B0
:104BD00025E0CA22124B5A6253225A621A46D26800
:104BE000A0239A430E4BDA6000BF0D4AD2682023FF
:104BF0001A401146009A521C00929B02009A9A4257
:104C000001D00029F1D0064AD26820231A40002A98
:104C100001D0012000E00020FF22014B5A6208BDB4
:104C20000028004070B504460E46002C01D0642CCC
:104C300002DB0020C04370BD5F2C04DC601E40011D
:104C40000749451804E020466038400105494518E9
:104C5000202229463046FBF78FFA2020EBE70000A0
:104C600000F0000800FC000810B5044611A000F098
:104C7000F3FC002C01D0032C04D112480068401C26
:104C8000104908600F480068032802D3FEF7DEFCD5
:104C90000BE0FEF765FE012C03D1FF202D3001F063
:104CA0009FF9032C01D0FEF777FC074801F034FC94
:104CB00010BD0000636F6D70617265206661696C84
:104CC0000D0A0000C00000200808002070B505464D
:104CD0000C46002D06D005A000F0BEFC284600F0D2
:104CE0000DF802E02046FFF7BFFF70BD636F6D70E7
:104CF000617265206F6B0D0A0000000070B50446FC
:104D00000E4804720146087AFDF72AF9054629463D
:104D10000120FDF7BFFE0A490120FDF7FBFB002043
:104D200008494870FEF7A0FD122004494870064863
:104D300001F0F2FBFCF79CFB70BD0000A00000201E
:104D4000FFBF0000840000200808002010B5FF20ED
:104D50007D30FCF729F88220FCF73CF8FBF7EAFFEE
:104D6000782001F03DF9FBF7DDFF282001F038F94C
:104D7000FBF7E0FF782001F033F9FBF7D3FF2820A1
:104D800001F02EF9FF20A530FCF70EF8C820FCF743
:104D900021F800200149487010BD00003C010020AE
:104DA000704700000CB500200190009011201D49B3
:104DB00008601D4840681C494860084640684860D3
:104DC000084640687F21C903884317494860084660
:104DD00040680521C9040843134948600846006833
:104DE0000121090608431049086000BF0E48006809
:104DF0000121490608400028F8D00B484068800887
:104E00008000094948600846406802210843064975
:104E1000486000BF044840680C2108400828F9D1C8
:104E20000CBD0000002002400010024010B50446F6
:104E3000002C01D0012C04D103488470FEF7E0F867
:104E400000E010BD00BFFCE708090020704700002B
:104E500010B51B480068012108431949086008463D
:104E600040681849084016494860084600681649D5
:104E700008401349086008460068012189048843F6
:104E80000F490860084640683F21090488430C49DF
:104E900048600846C06A00090001C8620846006B05
:104EA000FF2154318843064908630846406B400897
:104EB0004000486300208860FFF774FF10BD0000C9
:104EC000001002400CB8FF08FFFFF6FE10B50121EC
:104ED000054800F04CF8002805D00121024800F0F8
:104EE00023F800F021F910BD0020004010B5012189
:104EF000054800F03CF8002805D00121024800F0E8
:104F000013F800F03DF910BD00040040002904D062
:104F1000028880231A43028003E00288014B1A4072
:104F2000028070477FFF0000CA4302827047000082
:104F3000002904D0028801231A43028003E002887A
:104F4000014B1A4002807047FEFF0000002907D085
:104F50004422125A0123DB031A4344231A5205E068
:104F60004422125A53045B0C44221352704730B54A
:104F70000246002000230024158A0D402B46958907
:104F80000D402C46002B03D0002C01D0012000E066
:104F9000002030BD002A03D083890B43838102E0C7
:104FA00083898B438381704770B5002400220023DE
:104FB000058C1C4E35400584028C8388048B194D6A
:104FC0006F3D2C40B51E2C400D882C43751E2A4089
:104FD0008D892A434D882A43134DA84208D0134D8A
:104FE000A84205D0124DA84202D0124DA84212D1BB
:104FF0000C4DED1F2A40CD892A430A4DED1E2A4053
:105000008D882A43074DFF3D2B400B4D2B400D8AC9
:105010002B434D8A2B43838004838D684563028430
:1050200070BD0000FEFF0000002C01400040014068
:105030000044014000480140FFFD00000A460021F5
:10504000018B034B19400B461343194601837047EC
:10505000F7FF000000220288154B984206D001237A
:105060009B07984202D0134B984203D1124B1A402F
:105070004B881A43114B984203D0114B1A400B89AD
:105080001A4302804B68C3620B880385084B984221
:1050900008D00C4B984205D00B4B984202D00B4BDA
:1050A000984201D18B7A03860123838270470000E6
:1050B000002C0140000400408FFF00000010004061
:1050C000FFFC000000400140004401400048014056
:1050D0001FB5C72002902F21684681800021818161
:1050E000C180817301210802FEF798FD01A90D48D6
:1050F000FFF7B0FF132168460170022141700121C2
:105100008170FEF7F5FB01210648FFF70DFF012234
:1051100011460448FFF73EFF01210248FFF708FF50
:105120001FBD00000020004010B512480068401C60
:105130001049086010480068401C0F4908600D487D
:1051400003F0EEFF05210C480068FAF7EBFF002999
:1051500004D10A480068401C08490860FF212D312D
:1051600006480068FAF7DEFF002901D1FDF7E8FEE6
:1051700010BD0000180000201C00002014000020BA
:1051800010B508480068401C06490860FF21F53149
:1051900004480068FAF7C6FF002901D1FDF7D0FEE8
:1051A00010BD00001400002010B50749074800F0AA
:1051B00039F8002806D0054800F0F8F8C4B22046B7
:1051C00004F054F910BD000005010500003801404D
:1051D00010B50749074800F025F8002806D0054813
:1051E00000F0E4F8C4B2204604F040F910BD00001D
:1051F0000501050000440040002904D00268012395
:105200001A43026003E002685208520002607047CD
:1052100002460020D3690B40002B01D0012000E0A2
:105220000020704770B502460B460024002100257F
:1052300000201E04350ED9B201268E403146012DC4
:1052400002D11668314006E0022D02D15668314085
:1052500001E0966831401C0C0126A6403446D66910
:105260003440002903D0002C01D0012000E00020B0
:1052700070BDF8B5034600240026009600250020E6
:1052800018460E04340ECEB200960127009EB74099
:105290003D46022C01D1001D02E0032C00D1083054
:1052A000002A03D006682E43066002E00668AE437B
:1052B0000660F8BDF0B58BB004460D46002700200F
:1052C0000A9000262068400840002060666803219C
:1052D0000903304688430646A86806436660266888
:1052E0002D480640E9686868084329690843064371
:1052F0002660A6680321090230468843064668698D
:105300000643A6606846FEF7D7FC2448844202D1D3
:1053100006980A900DE02248844202D107980A902C
:1053200007E02048844202D108980A9001E00298E0
:105330000A9020680121C903084000280CD0296880
:105340000A9A5000FAF7EEFE074629680A9A5000BA
:10535000FAF7E8FE0E4609E029680A98FAF7E2FE35
:10536000074629680A98FAF7DDFE0E4628684008C5
:10537000B04200D87F1C20680121C90308400028E2
:1053800006D03807460F38460749084030430746DD
:10539000A7810BB0F0BD0000F3E9FFFF003801402A
:1053A0000044004000480040F0FF00000146888CA7
:1053B000C005C00D7047CA05D20D028570470000B8
:1053C00010B572B6024801F0A7F862B610BD000031
:1053D00088010020F7B584B004460F4600250698E2
:1053E000039024E0002002901CE013E072B601A9B3
:1053F000124801F0BBF8064662B6012E00D10AE061
:10540000684600792070641C6D1CBD4202D328469A
:1054100007B0F0BDEAE700BF012000F001FE0298EE
:10542000401C02907D21C90002988842DDD3039878
:10543000411E03910028D5D12846E9E788010020C4
:1054400070B504460D461646094806700BE02178F3
:10545000641C0848FFF7AFFF00BF40210548FFF775
:10546000D7FE0028F9D028466D1E0028EFD170BD68
:1054700002000020004400401CB5012040030090C1
:105480000121684601710321417100218171C171BF
:105490000121C804FEF7B2FB69460248FCF774FC20
:1054A0001CBD00000008004870B5FEF7DDF9FDF7EF
:1054B000A3F93F48007802280DD1FCF719FF002816
:1054C00006D009203A494870FEF73CF9044659E0F5
:1054D000FEF762F956E036480078042806D1092024
:1054E00033494870FEF72EF904464BE03048007807
:1054F000012815D1FCF7FCFE5F280EDA00202D49AB
:105500000870FCF7C1F92A490872087AFCF728FDEF
:10551000044604202649487034E0FEF730F931E0B3
:1055200023480078032815D1FCF7AAFD04280EDAD9
:10553000002020490870FCF7E1F81D490872087A3C
:10554000FCF70EFD04460520194948701AE0FEF7E5
:1055500016F917E016480078052802D1FBF704FA7F
:1055600010E01348007806280CD117201049487025
:10557000FCF754FF0546FCF7F3FC044621460120E6
:10558000FDF788FA0C4800F0C7FF09484078032867
:1055900008D007484078172804D021460420FDF79A
:1055A00079FA03E021460120FDF774FA70BD00008E
:1055B000A0000020C50000200808002070B50446A7
:1055C0000A2C01DB0F2C00DD70BD084800F0A4FFA1
:1055D00007480470092007494870FCF7A3FC0546FA
:1055E00029460420FDF756FA00BFEDE70808002021
:1055F000C4000020A000002070B505460E46FCF750
:1056000007F82846FCF723FD0949884202D02846BE
:10561000FEF7ACF831462846FBF7A2FF0446FBF73D
:1056200095FF042C01D0002070BD0120FCE7000094
:10563000FFFF000010B5FBF7EBFF0548FBF742FF4B
:1056400004490348FBF78CFFFBF780FF10BD000007
:1056500000E80008885500000FB410B503A9044BFA
:10566000044A029800F0FEF810BC08BC04B01847C9
:105670003D660008840100200FB41CB50A46521E86
:105680000192009007A9064B6A46069800F0EAF8D6
:10569000009A002111701CBC08BC04B0184700001F
:1056A0009D5F00082021020C01D010211046020A43
:1056B00001D010460839020901D01046091F82089E
:1056C00001D01046891E420801D0881E7047081A72
:1056D000704730B47446641E2578641CAB4204D312
:1056E000635D5B00E31830BC18471D46F8E702E035
:1056F00008C8121F08C1002AFAD17047704700205D
:1057000001E001C1121F002AFBD17047F0B51FB4A0
:1057100084B007980699020D014314D04A484B49BA
:105720001018484305140F9801280E981CD0281A09
:10573000401C0024464E47490094019102900028E5
:1057400014DA474227E00F98012443A3012808D028
:10575000002104980F9A84600360C260416009B020
:10576000F0BD0E98C143F4E74042E2E7074612E07D
:10577000F80707D02246334601990098FAF72EFE23
:10578000019100902246334610461946FAF726FE4C
:1057900004460E467F10002FEAD10298019B002894
:1057A000009A0799069802DAFAF718FE01E0FAF76C
:1057B0007DFE04460E460022284BFAF70FFF03D861
:1057C0000020C043014607E00022254B2046314619
:1057D000FAF752FDFAF7E2FE102409E0002C0ADB8A
:1057E0000A220023FAF717FD059B30321A55641E72
:1057F00002460A43F2D11122641C059B121B1C199C
:105800000F9B012B03D0012308430ED10AE008436C
:1058100004D011200E9000200F9084E70E98151AE6
:105820006D1E0BE00E98824202DD00236D1C03E02A
:10583000824201DA00236D1E002BEED004980F99EE
:105840008260C16030C08AE701FCFFFF104D00009C
:10585000000024400000F03F300000000000F04352
:105860000000E03FFFB597B00646002518E2252866
:1058700077D100242746FD49049400E00443761CB8
:1058800032780120203A90400842F7D130782A2817
:105890000ED00222307801463039092916D80499F1
:1058A0000A235943303940181443761C0490F1E719
:1058B000189802C804911890002904DA01204003C6
:1058C00004434842049002200443761C30782E287A
:1058D00014D1042004437078761C2A2809D1189822
:1058E000761C80C8189009E00A214F43303FC71941
:1058F000761C3078014630390929F5D930786C2882
:1059000010D006DC4C281AD068280ED06A2817D18F
:1059100004E0742813D07A2812D110E00120400549
:1059200004430CE00121090501E0032109050C43B2
:105930007178814203D1012000052418761C761C61
:105940003078119066280BD013DC58287DD009DC04
:1059500000287BD04528F6D04628F4D047281AD115
:10596000A5E118E0632835D0642870D0652812D1ED
:105970009DE170286CD008DC6728F1D069287BD0C5
:105980006E280DD06F2806D1BAE073282ED0752866
:1059900071D0782859D01A9A199990476D1C7EE1D8
:1059A0006002400F022809D003280DD0042818985F
:1059B00001680DD00D60001D189070E11898EA176D
:1059C00001680D604A60F6E7189801680D80F2E7FB
:1059D0000D70F0E718986A4601781172001D189052
:1059E0000020507202A80090012005E0189802C81B
:1059F000189000200091C04361070DD5002101E0FF
:105A00000199491C0191B94212DA8142F8DB009AEE
:105A1000515C0029F4D10BE0002101E00199491CFF
:105A200001918142FADB019A0099895C0029F5D144
:105A3000019904981A9B471A21463846199A00F092
:105A400097FA0199401945180BE04FE02CE113E05B
:105A50004EE0009800990078491C00911A9A199913
:105A600090470198401E0190401CF2D121463846D3
:105A70001A9B199A10E137E00A2000210090019149
:105A80006002410F022907D0189A01CA1892C21762
:105A90009446032908D00AE01898C01DC108C9001F
:105AA00005C91891944607E000B2C217944604292C
:105AB00002D140B2C1178C4600226146944506DAF5
:105AC0000A460021404291418C462D2102E02105E9
:105AD00004D52B216A461173012103E0E10701D0AF
