:020000040800F2
:1000000018110020CD00000819320008ED26000864
:1000100000000000000000000000000000000000E0
:10002000000000000000000000000000254400085F
:1000300000000000000000005D340008D14400080A
:10004000FD00000800000000853F0008FD000008DA
:10005000FD000008FD000008DD100008DF100008AA
:1000600000000000FD000008FD000008FD00000881
:10007000FD000008FD000008FD0000080000000071
:1000800071450008FD000008FD000008514500080A
:10009000FD000008FD000008FD000008FD0000084C
:1000A000FD000008FD000008FD000008854800086C
:1000B000AD480008FD0000080348854600F0A2FA9C
:1000C00000480047E55D0008181100200C4880F347
:1000D00008880C480168090E0B4A914205D10B486B
:1000E0000B4901600B480C4901600C4880470C48E3
:1000F0000047FEE7FEE7FEE7FEE7FEE7FEE700005B
:1001000018110020040000001F0000001810024019
:10011000010000000000014000000000D54400087C
:10012000B900000830B50B4601460020202201240A
:1001300009E00D46D5409D4205D31D469540491B1B
:100140002546954040191546521E002DF1DC30BD64
:1001500070B500242546002801DA01244042002918
:1001600001DA01254942FFF7DDFFAC4200D04042F1
:10017000002C00D0494270BD03460B439B0703D0BF
:1001800009E008C9121F08C0042AFAD203E00B785C
:100190000370401C491C521EF9D27047D2B201E0D4
:1001A0000270401C491EFBD270470022F6E710B5D2
:1001B00013460A4604461946FFF7F0FF204610BDD5
:1001C00030B505462A460B4610781C78521C5B1C3D
:1001D000002801D0A042F7D0002C03D0002802D084
:1001E0006D1CEFE7284630BD10B5002200E0521C20
:1001F000835C8C5CA34201D1002BF8D1D8B2E1B270
:10020000401A10BD03460A780270401C491C002A9F
:10021000F9D118467047F0B51FB40646002082B0E9
:1002200005464024019100901BE0019922460F46AB
:10023000304600F009FA049A059B801A994110D3C0
:1002400010461946224600F0EFF9361A8F41019701
:10025000224601200021009F00F0E6F938184D41A8
:1002600000902046641E0028DFDC019B0098294690
:10027000324607B0F0BD0000F0B5074608465840CA
:1002800087B0C00F049048000E4659004008490846
:10029000BC1A884105D2384631461E4617460B46E1
:1002A00002465800400810434CD0300D03904005E2
:1002B0005900400D490D0590401A0290402872DA0D
:1002C00018030121000B09050843019004980092CE
:1002D000002805D0019952420020884100920190E7
:1002E000029840210A1A0199009800F09DF90546EC
:1002F0000C466B4607CB00F0B8F9C0197141039A60
:100300000E0D0023D71756401A467A40164344D0A4
:10031000049A002A2DD0029A012A039A15DC1205AC
:10032000C01A914101263605001C7141D20F059E6D
:10033000D2070093019202962A46234600F0B5F9AF
:1003400007B0F0BD38463146FAE71605224A0F4697
:10035000B218C01AB74101210905001C4F4100180D
:100360007F41114618187941E20F10436D1964411D
:1003700013E0E2076D0815436408C2071443039AAB
:1003800001261205C01A91413605001C7141CE07A5
:10039000400830434908C01851412A46234600F01E
:1003A00077F9CDE7FFE7049801224000C117121A40
:1003B00000238B4104983146C417381AA141EEE757
:1003C00030B40124E407634030BC55E730B4012465
:1003D000E407614030BC4FE70000E0FFF0B51FB418
:1003E00088B00B990998002448400999C00F49002A
:1003F00049080991C0070B990090490049080B91E1
:1004000009990898A64608431CD00B990A980843F6
:1004100018D0099801244000420D4800410D099868
:1004200024050003000B204309900B980003000BE8
:1004300020430B9050181C4940180022019014468C
:10044000104605E0002001460DB0F0BD032801DA9A
:10045000034600E003239C46C11A0AAE0AE05F008F
:1004600008ADED5B4F00F75B7D430027AA187C4188
:10047000491C5B1E6145F2DD410004AB5A52210468
:10048000120C0A43240C401C0828DFDB0198029060
:100490000099704601910090059B049A079906986F
:1004A00000F003F9D0E700000DFCFFFFF0B50C46AB
:1004B0005C4085B0E40FE40703944C000026640818
:1004C00059009446490802460296224321D06246CA
:1004D0000A431ED06200570D4A000E032303550D38
:1004E000012402462C492405781B1B0B360B4018AF
:1004F00023432643614600901C46501AB44103D35F
:100500000098401C009002E0921800985B4100287F
:1005100003DA0020014605B0F0BD002001210905E5
:100520000746864611E064461D46141BB54106D3B6
:100530006546521BB341744607430C43A646CD079C
:1005400040084908284392185B4105460D43EAD10B
:100550001046184313D06046194650407140084376
:1005600006D06046101AB34106D20122002306E0ED
:1005700000220123DB0702E00122D243531000983E
:1005800074460105381C6141029C039D00196941B4
:1005900000F07EF8BFE70000FD0300004A000903F9
:1005A0000123090B1B0519430A4B10B5520D9A4242
:1005B00002DA0020014610BD064B34339A4203DCB8
:1005C0009A1A00F041F810BD034BD21800F02CF835
:1005D00010BD0000FF030000CDFBFFFF10B5002998
:1005E00004DB0124E40740428C412146002B04DB5C
:1005F0001C460123DB075242A341994200D190429D
:1006000010BD0000064C0125064E05E0E36807CC4E
:100610002B430C3C98471034B442F7D3FFF750FDFE
:10062000388800085888000810B5202A04DB0146E5
:10063000203A9140002010BD914020239C1A03468F
:10064000E3401943904010BD10B5202A04DB084652
:10065000203AD040002110BD0B46D340D04020248A
:10066000A21A91400843194610BD10B5202A06DB96
:10067000CB170846203A1041C1170B4306E00B4642
:100680001341D0402024A21A91400843194610BDBE
:1006900010B5002B08DA0024401C614192185B4120
:1006A0001A4301D14008400010BDF0B51FB482B01C
:1006B00005460C0003D0084604F0A0FA02E004F05E
:1006C0009DFA20300246009021462846FFF7ACFFF5
:1006D000049B059A04460F4618431143084314D05F
:1006E000184610431BD0009840210A1A1846059955
:1006F000FFF7AAFF05460E46009A05990498FFF7F2
:1007000093FF084305D0012004E02046394607B096
:10071000F0BD0020C11705430E432C433743009919
:100720000E986305401A7905E40A00220C43FD0A7D
:100730000A3002D500200146E9E701051019694198
:100740000C9C0D9D00196941FFF7A2FFDFE770B512
:100750008C180578401C6B075B0F01D10378401C97
:100760002A1106D10278401C03E006780E70401C66
:10077000491C5B1EF9D12B0705D40023521E0DD452
:100780000B70491CFAE70378401CCB1A921C03E05B
:100790001D780D70491C5B1C521EF9D5A142D8D39F
:1007A000002070BD10B50B460021846A1C43846292
:1007B00000BF0C4614432146416110BD01617047E2
:1007C000002904D0826801231A43826003E0826812
:1007D00002231A438260704710B5044605488442DC
:1007E00007D10121401502F0ADFE0021601502F095
:1007F000A9FE10BD0024014030B5014600200022B2
:1008000000238C680125ED072C438C6000BF8C68A9
:10081000E30FDB07521C0F242403A24201D0002B5C
:10082000F5D18C68E40FE407002C01D1086C00E0DE
:10083000002030BD30B502460020002301242406EC
:100840000C40002C05D0946801252D06AC432346AE
:1008500000E013681C460C40002C01D0012000E091
:10086000002030BD10B50022C268084B1A400C7938
:1008700064030B6823438C682343CC6823430C69CF
:1008800023434C6923431A43C26010BD03D2FFFFC8
:100890000021016001718160C160016141617047A7
:1008A00010B500F0EFFB01F0CDF804462146012021
:1008B00001F018FE0D480078002801D000F0B8FBC8
:1008C00000F0CEF80520C00104F036FE08490120F2
:1008D00001F0E8FC01F0DEF804462146012001F0B9
:1008E00001FE00F08FF902F0EFF910BD7101002058
:1008F000FFBF000070B50446632C02DD0020C0433A
:1009000070BD602C04DB632C02DC01200B49887075
:10091000601EC004050E601EC606F60EA90007483C
:10092000001D40580121B1400843AA000349091D98
:10093000885002F08DF80120E2E70000E80800206E
:100940000FB410B586B0044614220CA96846FFF710
:1009500013FC204609A90EC905F0E2F8002808D1C9
:100960002046FFF7C7FFC0B206B010BC08BC04B0F9
:1009700018470120F8E71CB50121480402F0B2FD38
:10098000022000900320694608710920C00600F08B
:10099000A9FF1CBD10B586B000240121480202F059
:1009A000C1FD0121480402F09DFDFFF7E4FF684608
:1009B000FFF76EFF002000906946087102900390D7
:1009C000049005901348FFF707FF0121890711489C
:1009D000FFF7F4FE69460F48FFF744FF05220221A6
:1009E0000C48FFF7DFFE0B48FFF706FF012109481F
:1009F000FFF7E6FE04E0601C84B2012004F0BCFDB9
:100A000001210448FFF716FF002801D1642CF2DB16
:100A100006B010BD002401401CB50121480402F0BD
:100A200061FD082000900121684601710321417198
:100A300000218171C17169460920C00600F052FF92
:100A40001CBD10B55F20C00000F0A4F8FF20693085
:100A500000F0B4F80A22C821012001F057FB10BDB4
:100A600010B500F05DF8A02004F066FD00F050F82D
:100A7000642004F061FD00F053F8A02004F05CFD58
:100A800000F046F8642004F057FD00F049F8A0207B
:100A900004F052FD00F03CF8642004F04DFD00F03D
:100AA0003FF8A02004F048FD00F032F8642004F084
:100AB00043FD00200149487010BD000040010020A6
:100AC00010B5FF20A53000F065F8C82000F076F8DA
:100AD00000F026F8482004F02FFD00F019F8482017
:100AE00004F02AFD00F01CF8482004F025FD00F079
:100AF0000FF8482004F020FD00F012F8482004F020
:100B00001BFD00F005F8482004F016FD10BD0000A4
:100B100010B50021014803F05BFD10BD0044014009
:100B200010B50121014803F053FD10BD0044014000
:100B30001CB50121480402F0D5FCFF2001300090D3
:100B4000022168460171032141710021C17169468A
:100B5000044800F0C7FE02220821024800F00AFF04
:100B60001CBD00000004004810B5FFF7E1FFFF20A6
:100B7000A53000F00FF8C82000F020F80223002272
:100B80000249034805F0F0F810BD00004D210008AF
:100B9000D00800203EB504460121480402F0C2FC02
:100BA00001942F216846018000210181418069461E
:100BB000014803F091FD3EBD0044014010B586B0F0
:100BC00004466021684681800121C18000210181A5
:100BD0000394022101820021818201A9084803F0C7
:100BE00025FD0821064803F06BFD0121044803F0B0
:100BF000CFFC0121024803F0DDFC06B010BD00006F
:100C00000044014010B5FFF78BFFA02004F094FCD6
:100C1000FFF77EFF502004F08FFCFFF781FFA0203C
:100C200004F08AFCFFF774FF502004F085FCFFF706
:100C300077FFA02004F080FCFFF76AFF502004F04B
:100C40007BFC00200149487010BD000040010020DD
:100C50001CB50121480402F045FC0120C0020090AF
:100C6000002168460171C17169460920C00600F083
:100C700039FE1CBD10B50021022001F0C7F9022386
:100C800000220249024805F06FF810BD950C0008DB
:100C90002408002030B589B0054600245248007869
:100CA000012801D109B030BD0121C9020920C006C7
:100CB00000F082FE002845D105F004F9002841D15A
:100CC0004A49088035E04A48484A1288815C022037
:100CD00001F09CF90121C9020920C00600F06CFE58
:100CE00001280BD14148008840004249085A401C65
:100CF0003E49098849003F4A505205E000203B49DF
:100D0000098849003B4A5052384800884000394918
:100D1000085AFF21F531884206D135483349098800
:100D2000405C80210843044330480088401C2F4920
:100D300008802E4800880528C5DD0021022001F02A
:100D400065F931E00020294908801EE02748008825
:100D500040002849085A02280CDB2448008840003B
:100D6000085AFF21F531884204DA21481F490988D1
:100D7000405C044300201D49098849001D4A505227
:100D80001A480088401C194908801848008805281E
:100D9000DCDB19480078012806D1002417A003F0F5
:100DA00007FF002014490870002C1AD00121684662
:100DB00001738473062207A9FFF7DEF903A80FC8A1
:100DC00002F06AFB04F06CFF002805D1114840785E
:100DD000162801D001F069FF21460FA003F0E8FEBC
:100DE00000BF00BF5EE70000CC0000202C00002008
:100DF000260000203C08002000000020427574748A
:100E00006F6E5F43616E636C655F466C61673D301A
:100E10000D0A0000A40000204B657956616C7565D1
:100E20003A2025580D0A0000FFB589B006460F4646
:100E3000002501F033F808900898002801D10DB082
:100E4000F0BD002421E0284600F02CFB0546681C7C
:100E5000002800D1F3E7E8B2694603F033FA6846A8
:100E6000C078B0420FD10C98012803D06846808822
:100E7000B84208D101A802300B99FFF7A1F9002868
:100E800001D02846DBE7601CC4B208988442DADB54
:100E90000020D4E7FFB589B01298C007C00F002822
:100EA00003D00024254D264E14E01298C007C00F31
:100EB000002803D00024234D234E0BE01298C007D6
:100EC000C00F002803D05F24204D214E02E00020F7
:100ED0000DB0F0BDA847C7B2002F01D10020F7E741
:100EE0000020089024E02046B0470446601C0028FB
:100EF00000D1EDE7E0B2694603F0E4F96846C17855
:100F00000998814210D10C98012804D06846818844
:100F10000A98814208D101A902310B98FFF750F9D4
:100F2000002801D02046D3E70898401CC0B20890A2
:100F30000898B842D7DB0020CAE700009D1E0008D1
:100F4000A5140008911D0008F5140008C91B00082D
:100F500065130008F0B589B00446632C03DD00205A
:100F6000C04309B0F0BD16480078002814D001A98C
:100F7000204603F0A7F96846C07903280CD16846DB
:100F8000817A01A8C0790002081887B2384600F0BB
:100F90001BF8002800D1E4E7601EC004050E601EA7
:100FA000C606F60EA900074841580120B04081430B
:100FB000AA000448815001F04BFD0120D1E7000058
:100FC00071010020EC0800207FB5044615A103C97B
:100FD0000191009015480078012801D000F0CEF86A
:100FE0002004010E68468170C470002002900390B6
:100FF0000121684600F018FC7D22D200082102A8D9
:1010000003F0ACFCC5B2082D0ADB6846007B002863
:1010100003D06846007B052802D1012004B070BDD2
:101020000020FBE7F5040000000000F5700100203F
:101030001FB511A103C90191009011480078012842
:1010400001D000F09BF80020029003900121684637
:1010500000F0EAFB7D22D200082102A803F07EFC0A
:10106000C4B2082C06DB6846007B002802D10120B0
:1010700004B010BD0020FBE7F5050000000000F5FE
:101080007001002010B500F047F90F4800F09EF8FD
:101090000E4800F09BF80E4800F098F80D4800F05C
:1010A00095F800F0D7F800200B498870002406E07E
:1010B0000021A2000848001D8150601CC4B2042C0D
:1010C000F6DB01F0C5FC10BD00F0000800F40008DC
:1010D00000F8000800FC0008E8080020704770478E
:1010E00001494861704700000004014010B50DA09F
:1010F00003F05EFD002011490872087A00F0D4FC6C
:1011000004462146012001F0EDF90D49012001F0CE
:10111000C9F81220094948700A4804F0A7FC00F0F9
:101120002DF810BD6E6F20696420776173207265A1
:101130006769737465640D0A00000000A400002054
:10114000FFBF0000E807002010B500F0E5F80348F5
:1011500000F03CF800F07EF810BD000000E8000848
:1011600010B5044600F0D8F8342000F029F82046E5
:1011700000F02CF800F06EF810BD00001FB50C4810
:101180000078002812D00BA103C901910090012121
:10119000684600F049FB6422082102A803F0DEFB48
:1011A00003F0D2FB01200549087000BF1FBD0000FD
:1011B00071010020F5090000000009F57001002010
:1011C0000149C860704700000020024030B5044665
:1011D00004250B20000400F0B1F80546042D17D1BA
:1011E0000C480069022108430A4908610846446125
:1011F000006940210843074908610B20000400F002
:101200009DF80546034800690221884301490861A9
:10121000284630BD0020024004200D49C968C90796
:10122000C90F002901D0012010E00949C968102226
:101230001140002901D0022008E00549C9680422B4
:101240001140002901D0032000E004207047000075
:1012500000200240034800698021084301490861D9
:10126000704700000020024070B504460D46042679
:101270000B20000400F062F80646042E11D10A4843
:101280000069012108430849086125800B200004FA
:1012900000F054F80646044800694008400002493E
:1012A0000861304670BD00000020024078B5064657
:1012B0000C460425002000900B20000400F03EF8AE
:1012C0000546042D24D11348006901210843114922
:1012D000086134800B20000400F030F80546042D2E
:1012E00010D1B01C0090200C009908800B20000445
:1012F00000F024F805460748006940084000054909
:10130000086105E0034800694008400001490861A0
:10131000284678BD00200240054800698021084029
:10132000002804D0034802494860034848607047D9
:101330000020024023016745AB89EFCD10B503467D
:101340000424FFF769FF044603E0FFF765FF044646
:101350005B1E012C01D1002BF7D1002B00D10524FD
:10136000204610BD30B50246602A01DB632A01DD4C
:10137000602101E0501CC1B214E0481EC004030EFD
:10138000481EC406E40E9D00094840590125A540A9
:101390002840002804D058010019401C40B230BD3C
:1013A000481CC1B26429E8DB0020C043F7E7000015
:1013B000EC08002030B50246632A01DC602A01DA1D
:1013C000632101E0501EC1B214E0481EC004030EA8
:1013D000481EC406E40E9D00094840590125A54059
:1013E0002840002804D058010019401C40B230BDEC
:1013F000481EC1B26029E8DA0020C043F7E70000C8
:10140000EC08002030B50246602A01DB632A01DDCA
:10141000602101E0501CC1B214E0481EC004030E5C
:10142000481EC406E40E9D00094840590125A54008
:101430002840002804D158010019401C40B230BD9A
:10144000481CC1B26429E8DB0120C043F7E7000073
:10145000EC08002030B50246632A01DC602A01DA7C
:10146000632101E0501EC1B214E0481EC004030E07
:10147000481EC406E40E9D00094840590125A540B8
:101480002840002804D158010019401C40B230BD4A
:10149000481EC1B26029E8DA0120C043F7E7000026
:1014A000EC08002030B50246642A01DA012A01DA8C
:1014B000012101E0501CC1B214E0481EC004030E1B
:1014C000481EC406E40E9D00094840590125A54068
:1014D0002840002804D058010019401C40B230BDFB
:1014E000481CC1B26429E8DB0020C043F7E70000D4
:1014F000EC08002030B502465F2A01DC012A01DA3F
:10150000012101E0501CC1B214E0481EC004030ECA
:10151000481EC406E40E9D00094840590125A54017
:101520002840002804D058010019401C40B230BDAA
:10153000481CC1B26029E8DB0020C043F7E7000087
:10154000EC08002030B50246602A01DA012A01DAEF
:101550005F2101E0501EC1B214E0481EC004030E1A
:10156000481EC406E40E9D00084840590125A540C8
:101570002840002804D058010019401C40B230BD5A
:10158000481EC1B20029E8D1481EF8E7EC08002047
:1015900030B502465F2A01DC012A01DA012101E0AF
:1015A000501CC1B214E0481EC004030E481EC406FD
:1015B000E40E9D00094840590125A5402840002817
:1015C00004D158010019401C40B230BD481CC1B2C2
:1015D0006029E8DB0120C043F7E70000EC080020A9
:1015E00030B50246602A01DA012A01DA5F2101E002
:1015F000501EC1B214E0481EC004030E481EC406AB
:10160000E40E9D00084840590125A54028400028C7
:1016100004D158010019401C40B230BD481EC1B26F
:101620000029E8D1881EF8E7EC0800201CB500214D
:10163000684681710121C1714020009068460171A6
:10164000032141710121880501F04CFF69460248E0
:1016500000F048F91CBD00000014004810B54021FE
:10166000014800F0B3F910BD0014004810B5402146
:10167000014800F0ADF910BD001400481CB50AA1E6
:1016800003C9019100900A480078012801D0FFF7B2
:1016900075FD03F059F902200549087000216846DC
:1016A00000F0C2F81CBD0000F5010000010000F5CB
:1016B0007001002010B590B0202102A8FEF775FD42
:1016C00000F07AFA04465548007801287DD0082CAD
:1016D0007BDB042008A908720122082102A803F07C
:1016E0003DF94F48007802285ED101204C4908702E
:1016F0006846407A01280FD1012108A88172684606
:10170000C17A0AA8C17006220EA96846FEF734FD08
:101710000AA80FC801F0C0FE6846407A032878D1B5
:101720006846007B01280BD06846007B042807D060
:101730006846007B842803D06846007B072810D1C8
:10174000032108A881726846017B0AA8C17006229D
:101750000EA96846FEF710FD0AA80FC801F09CFE0E
:1017600057E06846007B002817D1032108A8817242
:1017700000210AA8C1706846C17A0AA801716846AA
:10178000817A0AA8417106220EA96846FEF7F4FC88
:101790000AA80FC801F080FE3BE06846007B0828DD
:1017A00037D1FFF76BFF34E01D48007806282DD1B4
:1017B00001201B4908706846407A0C2829D1194835
:1017C0000078012802D110B010BD24E06846007BEB
:1017D000082802D101F084FC1BE00C2108A88172CA
:1017E0006846017B0AA8C1706846C17A0AA80171DF
:1017F0006846817A0AA8417106220EA96846FEF75A
:10180000BBFC0AA80FC801F047FE02E00120044912
:10181000087003F099F800BFD5E700000100002030
:1018200070010020CC000020FEB505460E460822BF
:1018300029466846FEF7A0FC0027012404E068461C
:10184000005D4740601CC4B2062CF8DB6846877117
:1018500003F07AF832460821684603F0B5F8FEBD79
:10186000F7B50C4615460027002D01D10120FEBD1D
:10187000FFF752FD002616E001E0781C87B22168D0
:101880000098FFF713FD042801D00A2FF5DB0A2F7B
:1018900003DBFFF7DFFC0120E9E70098001D009063
:1018A000241D701C86B2E81CC117890F0918891005
:1018B000B142E1DCFFF7CEFC0020D8E71CB50121E6
:1018C000C80401F00FFE012080030090002168464B
:1018D00001710121C1716946014800F003F81CBD86
:1018E00000080048F0B50A4600210023002400BF8C
:1018F0003DE001258D402B4615681D402C469C423D
:1019000034D11579012D02D01579022D16D18568B3
:101910004F000326BE40B543856055794E00B54063
:10192000866835438560858801268E40B54385806D
:10193000858896798E40B6B23543858005684F001C
:101940000326BE40B543056015794E00B5400668D4
:1019500035430560C5684F000326BE40B543C560EA
:10196000D5794E00B540C6683543C560491C10297D
:10197000BFD3F0BDF0B5002300244D07EE0E154691
:10198000B5402B46CD10AE0005462035AD594E076B
:10199000F70E0F26BE40B543CE10B60007462037DF
:1019A000BD51CD10AE003D46AD591D432C46CD1066
:1019B000AD003E467451F0BD02460020138A0B4034
:1019C000002B01D0012000E0002070470185704706
:1019D0008161704770B50446632C02DD0020C0436E
:1019E00070BD0A212046FEF7B3FB06490D5C0A21B3
:1019F0002046FEF7ADFB0348405C2902084305B2D0
:101A00002846EDE7500000200349887A0102024A87
:101A1000527B114308467047500000200349887AE2
:101A20000102024A527C11430846704750000020D0
:101A30000349087C0102024A127C114308467047A0
:101A4000500000200349087B0102024A527C1143E6
:101A500008467047500000200349887B0102024A73
:101A6000D27B114308467047500000200349887C10
:101A70000102024AD27B1143084670475000002001
:101A80000349C87C0102024AD27B114308467047D1
:101A9000500000200349C87C0102024A127D114314
:101AA000084670475000002070B50446632C01DDE5
:101AB000002070BD0A212046FEF74AFB06490D5C56
:101AC0000A212046FEF744FB0348405C29020843F4
:101AD00005462846EDE700005000002010B586B00E
:101AE00004461E4800681E49096888420ED100203D
:101AF00069460870142100A80230FEF756FB162232
:101B000069462046FEF738FB06B010BD1348006852
:101B100016225043134A811816226846FEF72CFB02
:101B200000210E480068162250430E4A11540B49FA
:101B30000968162251430B4A8918881C1421FEF7A4
:101B400034FB0648006804F0B7FA0449086016221E
:101B500069462046FEF710FB00BFD5E704000020D1
:101B600008000020A40100200146302905DB3929A6
:101B700003DC08463038C2B206E02A2901D10A2225
:101B800002E0232900D10B220120904003239B0374
:101B9000984380B27047024611880846704700009B
:101BA00001480068704700001400002001480068E8
:101BB000704700001800002010B5024800F066F9D8
:101BC00010BD00007801002010B50020602110E059
:101BD0004A1E52099300084AD2584B1EDC06E40EF6
:101BE0000123A3401A40002A01D0421CD0B24A1C53
:101BF000D1B26429ECDB10BDEC080020F1B58AB04D
:101C0000002509A800F042F86846808C002801D120
:101C10000BB0F0BDFFF7D8FF0446002C00D1F7E76A
:101C2000002620E05F20FFF79DFB0546681C00288A
:101C300001D05F2D01DC0020EAE7E8B201A902F043
:101C400041FB6846C07903280BD16846817A01A818
:101C5000C0790002081887B20A98874201D1284645
:101C6000D6E7701C86B2A642DCDB0020D0E770B558
:101C700005460024284600F03DF80446002C03D118
:101C80002846FFF7BBFF0446204670BD7FB50446DB
:101C900015A103C90191009015480078012801D0D1
:101CA000FFF76CFA02F050FE002002900390012131
:101CB0006846FFF7B9FD7D22D200082102A802F094
:101CC0004DFE85B2082D0DDB6846007B002809D14A
:101CD0006846807A01026846C07A08182080002091
:101CE00004B070BD0120FBE7F5090000000009F514
:101CF00070010020F1B58AB0002609A8FFF7C6FFE1
:101D00006846808C002801D10BB0F0BD00F040F88F
:101D10000446002C00D1F7E700251DE03046FFF710
:101D2000E9FB0646701C002800D1EDE7F0B201A9DE
:101D300002F0C8FA6846C07903280BD16846817A58
:101D400001A8C0790002081887B20A98874201D119
:101D50003046D9E7681C85B2A542DFDB0020D3E717
:101D600010B5012189030248FFF726FE10BD0000CF
:101D70000008004810B5FF2101310920C006FFF717
:101D80001BFE10BD014800887047000000E80008F5
:101D900010B50020012110E04A1E52099300084AA4
:101DA000D2584B1EDC06E40E0123A3401A40002A41
:101DB00001D0421CD0B24A1CD1B26029ECDB10BD6C
:101DC000EC08002010B5FF24012001F0B9FA012829
:101DD00031D1000302F0B0F8012801D104242EE033
:101DE00003F070FF012804D1022416A002F0E0FEE7
:101DF00025E004F067F800280CD10121C902092070
:101E0000C006FFF7D9FD002804D0002411A002F07D
:101E1000CFFE14E00121C9020920C006FFF7CCFD66
:101E200000280CD104F04EF8002808D101240DA0A0
:101E300002F0BEFE03E003240EA002F0B9FE20462D
:101E400010BD000066696E6765725F77616B6575CE
:101E5000700D0A00746F7563685F77616B657570EC
:101E60000D0A0000627574746F6E5F77616B657543
:101E7000700D0A0073797374656D5F7265736574B4
:101E80005F77616B6575700D0A0000000146886818
:101E9000002800D170474888C0B2FBE710B5002089
:101EA000012110E04A1E52099300084AD2584B1EE5
:101EB000DC06E40E0123A3401A40002A01D0421C94
:101EC000D0B24A1CD1B26429ECDB10BDEC08002072
:101ED00070B505460E46022D01D1094C05E0012DD5
:101EE00001D1084C01E0002070BD002E03D001207C
:101EF000A168884702E00020A16888470120F3E735
:101F0000400000203000002010B5012149030248A4
:101F1000FFF75EFD10BD00000008004810B501216C
:101F200049030248FFF752FD10BD000000080048B9
:101F3000F8B506460F46022E01D1144C05E0012EDD
:101F400001D1134C01E00020F8BD072519E0012064
:101F5000A8403840002803D001202168884702E0CB
:101F6000002021688847012003F006FB00206168FB
:101F70008847012003F000FB012061688847681E44
:101F800045B2002DE3DA0120DEE70000400000202A
:101F90003000002070B504460D46022C03D1012C00
:101FA00001D1002070BD00212046FFF791FFE9B26A
:101FB0002046FFF7BDFF2804010E2046FFF7B8FFBB
:101FC00001212046FFF784FF0120EBE770B50446AE
:101FD0000D46022C03D1012C01D1002070BD00213F
:101FE0002046FFF775FFE9B22046FFF7A1FF28045E
:101FF000010E2046FFF79CFF00212046FFF798FFC7
:1020000001212046FFF764FF0120E7E770B5054690
:102010000E46022D01D10B4C05E0012D01D10A4CD9
:1020200001E0002070BD0020A168884700F0B4FAEC
:1020300031462846FFF77CFF0120A1688847012030
:10204000F0E7000040000020300000201CB50446EE
:102050000120400300900121684601710321417174
:1020600000218171C1710121C80401F03BFA694668
:102070002048FFF737FCFFF747FF022020400028E9
:1020800019D00121880401F02DFA0F2000030090DF
:1020900069461948FFF726FC012149031648FFF756
:1020A00095FC0121C9031448FFF790FC01210903A5
:1020B0001148FFF78BFCE007C00F00280FD001216B
:1020C000480401F00FFAF020009069460920C0068C
:1020D000FFF708FC20210920C006FFF777FC07491D
:1020E0000120FFF757FF00210220FFF78FFFFFF7C6
:1020F00015FF1CBD0008004800040048FF3F000019
:1021000010B5FEF747FCFEF787FC10BD70B504461E
:102110000D46164600200C4948700846C66085608A
:102120004460002C04D140780421084306494870DB
:10213000FFF736FD40000449086108464078022157
:1021400008430149487070BD4001002070B5054644
:102150002B480078002851D12948407802210840B6
:1021600000284BD0FFF71CFD440025480069A04221
:1021700044D823484078C007C00F002817D0204813
:10218000C06800191E4908610846407840084000B0
:102190004870FEF7BDFC1A4840780421084000282A
:1021A0002CD117484068401E1549486026E0144865
:1021B000406800280CD112484078042108400028CB
:1021C00006D10F484078022148400D49487015E07B
:1021D0000B48806800190A490861084640780121C7
:1021E000084307494870FEF79BFC054840780821E2
:1021F0000840002802D001200149487070BD00004D
:1022000040010020F8B504460D4616461F46154805
:10221000844203D101201449087609E0134884421E
:1022200003D101201049087602E000200E4908760B
:1022300000200D4948700846C7608660456084826A
:10224000002D04D140780421084307494870FFF766
:10225000A7FC054908610846407802210843024965
:102260004870F8BDFF7F000088000020FFBF00001D
:1022700010B5002009494870C820C8608860012056
:10228000486007488882FFF78BFC044908610846CC
:102290004078022108430149487010BD88000020A1
:1022A000FFBF000070B505460C46002025490876A2
:1022B0002B0002F0BAFC0910061D44324444443D90
:1022C000440001201F49487008468482818A012009
:1022D000FFF760FE34E000201A4948700846848207
:1022E000C08AC8820846818A0120FFF753FE27E092
:1022F0000020144948703220C8608860012048607E
:1023000008468482FFF74CFC0E4908610846407875
:10231000022108430B49487012E006200949487021
:10232000C820C8608860002048600846848207E0B2
:1023300004484078082108430249487000E000BF83
:1023400000BF70BD8800002010B50020094948700A
:10235000C820C86088600120486007488882FFF76D
:102360001FFC0449086108464078022108430149DE
:10237000487010BD88000020FF7F000010B50223C8
:1023800000220249024803F0EFFC10BD952300082B
:102390006008002070B505465048007800287DD1BF
:1023A0004E4840780221084000285ED0FFF7F8FB35
:1023B00004464A480169A14257D84078C007C00F77
:1023C000002828D04548C0680019444908610846DB
:1023D00040784008400048700846007E002804D03D
:1023E0003F490120FFF7D6FD04E03C48C18A0120A7
:1023F000FFF7D0FD3948407804210840002834D147
:1024000036484068401E3549486008464068002804
:102410002BD1087629E03148406800280CD12F489C
:10242000407804210840002806D12C484078022139
:1024300048402A49487018E0284880680019274910
:10244000086108464078012108432449487008463D
:10245000818A0120FFF79EFD20484078082108402E
:10246000002802D001201D4948701C4840781021E6
:102470000840002830D0FFF793FB04461748006956
:10248000A04229D815484078C007C00F002813D0B3
:102490001248407840084000104900E01CE04870B5
:1024A00008464078102148400C4948700846C18AC7
:1024B0000120FFF76FFD0FE0084880680019074909
:1024C00008610846407801210843044948700846DD
:1024D000818A0120FFF75EFD70BD000088000020AA
:1024E000FF3F000070B505460C462B0002F09DFB37
:1024F0000910061B42304242423B420001201F4964
:10250000487008468482818A0220FFF75FFD32E02E
:1025100000201A494870401E88820846818A02209D
:10252000FFF754FD27E00020144948709620C8604A
:102530008860C820486008468482FFF731FB0F4955
:10254000086108464078022108430C49487012E0AF
:1025500006200A4948709620C860886000204860BC
:102560000846848207E0054840780821084303496B
:10257000487000E000BF00BF70BD00006800002090
:1025800010B5322300220249024803F0EDFB10BDD2
:10259000292600084808002010B52248407802216A
:1025A0000840002805D11F48407804210840002831
:1025B0001DD01C484078C007C00F00280BD0194818
:1025C000017D0220FFF7B4FC1648808A0112022028
:1025D000FFF7AEFC25E00020002822D1FF210220D9
:1025E000FFF7A6FCFF210220FFF7A2FC19E00D482F
:1025F0004078C007C00F00280BD00A48017D022098
:10260000FFF796FC0748808A01120220FFF790FC32
:1026100007E0FF210220FFF78BFCFF210220FFF7DC
:1026200087FC10BD6800002070B505462D48007875
:10263000002856D12B48407802210840002850D06D
:10264000FFF7AEFA044627480069A04249D825485A
:102650004078C007C00F002819D02248C068001970
:1026600020490861084640784008400048701E49EB
:102670000220FFF7ABFC1B484078042108400028EB
:102680002FD118484068401E1649486029E0154877
:10269000406800280CD113484078042108400028E5
:1026A00006D110484078022148400E49487018E091
:1026B0000C48806800190B490861084640780121E0
:1026C0000843084948700846818A0220FFF77EFCCB
:1026D0000448407808210840002802D00120014920
:1026E000487070BD68000020FFFF000000BFFEE7DB
:1026F00038B5044601236A462146B42000F0D4F8D8
:10270000002802D06846007838BD00F0AFF80020FD
:10271000FAE773B504460025012301AA2146B42037
:1027200000F000F90546002D01D100F09FF8284681
:102730007CBD000010B50446002C04D101210748DF
:10274000FFF744F903E001210448FFF741F900F0E5
:1027500007F801210148FFF73BF910BD00040048CC
:1027600010B50A2002F008FF02210848FFF730F9EF
:102770000A2002F001FF01210448FFF71DF9044679
:1027800002210248FFF722F9204610BD000400484C
:102790001CB50121880400F0A5FE03200090012152
:1027A0006846017103214171012181710021C171CC
:1027B00069460248FFF796F81CBD00000004004877
:1027C00070B50024002509E06006040EFFF7C8FF7D
:1027D000002801D0601CC4B2681CC5B2082DF3DB10
:1027E000204670BD70B50446002513E080202040CF
:1027F000C611002E04D101210D48FFF7E7F803E0D0
:1028000001210B48FFF7E4F86006040EFFF7A8FF6C
:10281000681CC5B2082DE9DBFFF7A2FF002803D032
:1028200000200449087002E001200249087070BDD0
:10283000000400482400002010B501210A48FFF7D9
:10284000C7F802210848FFF7C3F80A2002F094FEF7
:1028500001210548FFF7BAF80A2002F08DFE022197
:102860000148FFF7B3F810BD0004004810B502217D
:102870000C48FFF7ABF801210A48FFF7A7F80A2038
:1028800002F07AFE02210748FFF7A2F80A2002F0C0
:1028900073FE01210348FFF79BF80A2002F06CFE4B
:1028A00010BD000000040048FFB581B00646144684
:1028B0001F46FFF7C1FF3046FFF794FF1848007826
:1028C000002801D105B0F0BD0298FFF78BFF144836
:1028D0000078002800D1F5E7FFF7AEFF711CC8B201
:1028E000FFF780FF0E480078002800D1EAE70025B6
:1028F00008E0FFF765FF20700020FFF71BFF641C56
:10290000681CC5B2781EA842F3DCFFF759FF20709F
:102910000120FFF70FFFFFF7A9FF0120D2E700001A
:1029200024000020FFB581B00E4614461F46FFF775
:1029300083FF0198FFF756FF10480078002801D167
:1029400005B0F0BD3046FFF74DFF0C480078002879
:1029500000D1F5E700250AE02078FFF743FF07489C
:102960000078002800D1EBE7641C681CC5B2BD42AA
:10297000F2DBFFF77BFF0120E2E7000024000020EC
:102980000148024908607047CCCC0000003000408C
:102990000148024908607047AAAA000000300040C0
:1029A00001494860704700000030004001498860DC
:1029B0007047000000300040014908607047000087
:1029C0000030004010B50748FFF7F6FF0520FFF77D
:1029D000E7FF0548FFF7EAFFFFF7DAFFFFF7D0FF51
:1029E00010BD000055550000E204000010B514228F
:1029F00013491448FDF7C0FB124800881249884269
:102A000006D010480069FF2109020840002815D0AF
:102A1000002406E00021A2000A48001D8150601C2D
:102A2000C4B2042CF6DB00200649887000F010F8D0
:102A300006480078002801D0FEF7FAFA10BD000021
:102A400000EC0008E8080020FFFF000071010020F2
:102A500000B585B014220C496846FDF78DFB684629
:102A600000880A49884206D0FEF756FC0648FEF761
:102A7000ADFBFEF7EFFB0120054908801422024858
:102A8000FEF7EEFE05B000BD00EC0008FFFF000001
:102A9000E808002038B50446FFF77AFF042C0CD173
:102AA0000025A00201F0C0F900F078F901E0681CEF
:102AB00085B268488542FADB38BD032C07D1FEF7A2
:102AC000FDFEFFF74DF9002801D102F0BDFD03F036
:102AD00041F902F01BFDFEF747F80320FFF7B6FAB5
:102AE000FFF70EFBFEF7A2FDFEF7C0FDFFF77EFF2E
:102AF000052C05D000210120FFF7D4FBFDF7A1FF35
:102B0000022C03D0012C01D0002C34D1FFF73AF96C
:102B10005149884210D11620504948705049002030
:102B2000FFF7E0FC4F490120FFF734FA00204E493F
:102B3000487000F02FFB45E0FFF7B0F9002808D0FF
:102B4000FEF776FF0090694609880120FFF7CAFC6E
:102B500009E0FEF79FFF0090694609880120FFF712
:102B6000C1FCFDF7ADFF00F0AFF905462946012095
:102B7000FFF7B8FC26E0032C21D1FFF78FF90028DE
:102B800008D0FEF755FF0090694609880120FFF73D
:102B9000A9FC09E0FEF77EFF009069460988012044
:102BA000FFF7A0FCFDF78CFF14202C494870FEF7BE
:102BB0003FFF054629460120FFF794FC02E0002074
:102BC0002649487001F080F800F0FAFD002C04D18D
:102BD000684600F09DFF03F077FAFFF7D9FD03F098
:102BE00079F9FFF7CDFCFFF7C9FB012C02D10120D9
:102BF0001E490870FEF73EF801F0ACFD00F0B2FA95
:102C000000F02EFC032C12D15D2000F0C9FC00283E
:102C100004D000F0BBFC16A001F0CAFFFFF7B2F829
:102C20000D49884201D1FEF78FFAFFF7CBFE022C47
:102C300005D0012C03D0002C01D0032C08D1104862
:102C4000FEF7A9FF0649884202D00D48FEF788FA30
:102C500000BF31E78813000088550000A400002061
:102C6000FFFF0000FFBF00008800002000000020E0
:102C7000697764672072657365740D0A000000004F
:102C800000E400081CB50121480400F02BFCFF20E3
:102C9000013000900021684601710121C17169462F
:102CA0000920C006FEF71EFE1CBD10B5FF20A53092
:102CB000FDF770FFC820FDF781FF0A2223210120C4
:102CC000FFF724FA10BD000010B5002409E0012030
:102CD00002F052FC641CFF20F530844201D9002030
:102CE00010BD03F0EFF80028F1D003F0B1F8FEF7C3
:102CF000B5FC012000F0F4FA012000F033FC0020C4
:102D000000F030FC012000F06FFC002403E0012003
:102D100002F032FC641C412000F042FC002801D18A
:102D2000642CF4D301F092F818A001F041FF0121C6
:102D3000080200F013FB012000F0E6FA72B600244E
:102D400003E0012002F018FC641C0121C9020920E3
:102D5000C006FEF731FE002806D103F0B3F80028C4
:102D600002D10C488442ECD303F0ACF8002809D11E
:102D70000121C9020920C006FEF71EFE002801D06D
:102D80000548ADE700F0CAFA0348A9E769646C6535
:102D90000D0A000040420F00FFFF000070B5002543
:102DA00006E0681C85B23648854201DD002070BD12
:102DB00003F088F80028F4D0FEF7DCFF002825D1C6
:102DC0003048FEF7E8FE04462F49884200D100242F
:102DD000641C21462DA001F0EBFE062C0BD1012036
:102DE0002F49087000F01CF9641CA1B2254801F0BD
:102DF000AFFE0120DBE7072C07D2214629A001F016
:102E0000D7FEA1B21F4801F0A3FE0BE01D48FEF75C
:102E1000C2FE1D49884205D027A001F0C9FE19480D
:102E2000FEF79EF9FEF71AFC012000F059FA012086
:102E300000F098FB002000F095FB012000F0D4FB8F
:102E4000002501E0681C85B2412000F0A9FB0028A4
:102E500003D17D20C0008542F4DB00F0F7FF0121A3
:102E6000080200F07BFA012000F04EFA72B603F07F
:102E700029F8002801D000F051FA034897E7000034
:102E80008813000000E40008FFFF000074696D650E
:102E9000436F756E7431203D2025640D0A000000DB
:102EA000CB000020777269746520256420746F2040
:102EB000666C6173680D0A006C6F636B2072656CE1
:102EC000656173650D0A000010B509480078002897
:102ED00001D000F005F9002006490870064802F00C
:102EE000C5FD032005494870FEF7A2FD10BD000096
:102EF00071010020C9000020E8070020A400002084
:102F000010B507480078002801D000F0E9F805481E
:102F100002F0ACFD082004494870FEF775FD10BDB5
:102F200071010020E8070020A400002010B5074828
:102F30000078002801D000F0D3F80D200449487033
:102F4000FEF794FD0446204610BD000071010020EC
:102F5000A400002010B507480078002801D000F038
:102F6000BFF80A2004494870FEF780FD0446204659
:102F700010BD000071010020A400002010B5012048
:102F800015490870FEF7CAFFFEF766FD04462146A4
:102F90000120FFF7A7FA11490120FEF7FBFFFDF71B
:102FA0005FFD0F490020FFF79DFA0E490020FFF753
:102FB00079F9FEF7A9FFFEF7F3FD0B4940180B491D
:102FC000086015200A49487001200A49087000204D
:102FD0000149087010BD0000CC000020FF7F0000F8
:102FE000FFFF0000FF3F000030750000C000002020
:102FF000A40000204001002010B5064800780028F9
:1030000001D0FEF73BFB044802F030FD06200349E7
:10301000487010BD71010020E8070020A4000020C6
:1030200010B505242046FFF735FDFEF7B9FD094927
:10303000401809490860C82211460020FFF766F8C9
:10304000C8231A4600210548FFF7DCF804A001F068
:10305000AFFD10BD88130000BC000020FF7F000002
:103060002E2E2E2E2E2E2E2E2E2E0D0A000000007D
:1030700010B507490978042903D10D21054A1170BB
:1030800002E00A21034A1170FEF7F0FC10BD0000B7
:10309000A4000020C800002010B504463420FEF72C
:1030A0008FF82046FEF792F810BD10B5FEF7E8FC49
:1030B000044621460120FFF715FAFDF7A3FDFFF7AF
:1030C00003FE10BD10B5FEF7E5FC044621460120C5
:1030D000FFF708FAFDF7F4FCFFF7F6FD10BD00005E
:1030E0001CB50AA103C9019100900A480078012883
:1030F00001D0FEF743F801F027FC062005490870CF
:1031000000216846FEF790FB1CBD0000F50C000096
:1031100000000CF57001002010B50321890204485D
:10312000FEF756FC0121C9020148FEF74FFC10BD15
:103130000004004810B5032189020448FEF748FC4A
:10314000012189020148FEF741FC10BD000400483E
:1031500010B5032189020248FEF73AFC10BD0000B9
:10316000000400481CB50121880400F0BBF90320CD
:103170008002009001216846017103214171002104
:10318000817169460248FEF7ADFBFFF7E1FF1CBD08
:103190000004004810B5FF20F530FDF7FBFCE620E9
:1031A000FDF70CFDFDF7BCFC782002F0C5F9FDF73A
:1031B000AFFC282002F0C0F9FF20A530FDF7EAFCA3
:1031C0006420FDF7FBFCFDF7ABFC782002F0B4F9BE
:1031D000FDF79EFC182002F0AFF9FF206930FDF7E3
:1031E000D9FC8220FDF7EAFCFDF79AFC782002F07A
:1031F000A3F9FDF78DFC502002F09EF9FF20C330AB
:10320000FDF7C8FC8220FDF7D9FC00200149487079
:1032100010BD0000400100207047000000218278AE
:10322000002A27D0184A03231B02D21803789B10C8
:103230009B00D15802789207D30EFF229A400B468A
:103240009343194642789207120E03789B07DB0ED0
:103250009A4011430C4A03231B02D21803789B1097
:103260009B00D1500278D306DB0E01229A40064B18
:103270001A6007E00278D306DB0E01229A40024B67
:1032800080331A607047000000E100E010B5FF20B5
:103290007D30FDF77FFC8220FDF790FCFDF740FCC0
:1032A000282002F049F9FDF733FC502002F044F9E0
:1032B000FDF736FC282002F03FF9FDF729FC5020ED
:1032C00002F03AF9FF20A530FDF764FCC820FDF7B5
:1032D00075FC00200149487010BD0000400100202D
:1032E000002807D007490968FF2201321143054A27
:1032F000116006E003490968FF2201329143014A47
:103300001160704700700040034909688200114352
:10331000014A1160704700000070004006480068D4
:103320000221084304490860044800690421084355
:103330000249086130BF70470070004000ED00E0B6
:1033400001460020044A52680A40002A01D00120A8
:1033500000E000207047000000700040002905D008
:10336000054A52680243044B5A6004E0024A52681C
:103370008243014B5A607047007000400FB430B573
:1033800085B014220BA96846FCF7F6FE2C49087A92
:1033900008A90EC9FDF7D4FAFFF7FCFEFEF768FF97
:1033A0002748007A602813DB2548007A64280FDA62
:1033B000FEF70AFC042802DBFFF777FE17E0052082
:1033C0001F494870097A48B2FEF71CF804460EE01F
:1033D000FEF7DEFC5F2802DBFFF767FE07E0042054
:1033E00017494870097A48B2FEF7D2F8044600201F
:1033F00014490870601C002802D1FEF7C9F8044681
:10340000601C002806D00E490C72087AFEF74CFBAF
:1034100005460CE064200A490872FEF731FB0546B8
:10342000FDF70FFBFEF790FF07A001F0C1FB294657
:103430000420FFF757F805B030BC08BC04B01847AB
:10344000A4000020C900002073797374656D2065A5
:1034500072723F3F3F3F0D0A0000000070470000BE
:1034600010B50020074948728872022300220649DD
:10347000064802F079FCFEF793FB05494018054920
:10348000086010BDA4000020C96000087808002072
:10349000C4090000BC0000200FB410B50E4800683D
:1034A00002F00AFE0D490968884203D110BC08BC2D
:1034B00004B018470849096816225143084A881879
:1034C000162202A9FCF758FE0348006802F0F4FD3A
:1034D0000149086000BFE9E708000020040000205F
:1034E000A4010020002905D0054A52690243044B7B
:1034F0005A6104E0024A52698243014B5A617047A3
:1035000000100240002905D0054AD2690243044B4D
:10351000DA6104E0024AD2698243014BDA61704702
:1035200000100240002905D0054A92690243044B6D
:103530009A6104E0024A92698243014B9A617047A2
:1035400000100240002905D0054AD2680243044B0E
:10355000DA6004E0024AD2688243014BDA607047C5
:1035600000100240002807D00749096A012212040E
:103570001143054A116206E00349096A0122120457
:103580009143014A11627047001002400348406AAB
:1035900001210906084301494862704700100240B2
:1035A00010B502460021002300205111002902D14C
:1035B0000C4C23680BE0012902D10A4C236A06E077
:1035C000022902D1074C636A01E0064C636BD10605
:1035D000C90E01248C401C40002C01D0012000E0C9
:1035E000002010BD00100240002806D00649496A9C
:1035F00001221143044A516205E00349496A49081E
:103600004900014A5162704700100240002807D06B
:103610000749096A0122D2031143054A116206E0F3
:103620000349096A0122D2039143014A116270479A
:10363000001002400249096A0143014A11627047C1
:103640000010024070B588B00546932168460172AB
:10365000702141720021817300240BE0295D02AAD0
:10366000A01C11546946887B295D484069468873CF
:10367000601CC4B2042CF1DB03AA0332072102A8A8
:1036800000F018F80821084600F049F807A802AB36
:10369000092202A900900C2000F044F90646002EF1
:1036A00004D16846007F182800D100E00226304689
:1036B00008B070BDF7B5074615460421052000F097
:1036C0002EF80021012000F0D3F880210B2000F01B
:1036D000A3FA002405E0395D092000F0C9F8601C58
:1036E000C4B201988442F6DB0321012000F0C0F847
:1036F000FF2400BF052000F09FF80646601EC4B2FC
:10370000002C03D0042030400028F3D0222000F009
:1037100093F82870212000F08FF86870FEBD70B516
:1037200005460C460026284600F086F80646304638
:10373000A0430146284600F09BF870BDF0B585B067
:1037400004460F46FF2214216846FCF727FD694610
:10375000262000F09CF90546002D02D0022005B07D
:10376000F0BD69460E7830024978084306460120CC
:103770008002864202D10020207008E00120400231
:10378000864202D10120207001E0FF2020706846AF
:1037900000F090F80546002D01D00220DFE76846D2
:1037A000FFF750FF0546002D01D00220D7E700F0BB
:1037B00057F9042269463846FCF7DEFC0020CEE7C4
:1037C00010B500F095F9012001F0D6FE00F098F94F
:1037D000012001F0D1FE00F08BF9012001F0CCFEB8
:1037E0000F21012000F044F8012001F0C5FE3D2129
:1037F000112000F03DF81E212D2000F039F80021A5
:103800002C2000F035F88D212A2000F031F83E21DF
:103810002B2000F02DF84021152000F029F800F0B1
:1038200043F8142300220249024802F09DFA10BD19
:10383000113B0008FC0C002070B5044640210B48E9
:10384000FEF7C4F8062001F097FE60007E210840D4
:1038500004468034204600F00DFA00F0EDF90546EC
:1038600040210248FEF7B4F8284670BD0004004825
:1038700070B504460D4640210A48FEF7A7F8062019
:1038800001F07AFE60007E2108400446204600F0E8
:10389000F1F9284600F0EEF940210248FEF798F8C9
:1038A00070BD00000004004810B503211420FFF78C
:1038B00036FF10BDF0B587B0054600270821084641
:1038C000FFF72DFF00210D20FFF7D2FF80210E20F2
:1038D000FFF725FF9321684601712021417106A859
:1038E00001AB022201A900900C2000F01BF8064653
:1038F000002E10D1002407E001A8005D285501A882
:10390000005D4740601CC4B2042CF5DB01A8005DDB
:10391000B84200D0022680210E2000F07DF930460A
:1039200007B0F0BDFFB583B006460220029000202C
:10393000019000900E2E04D11220019010200090D2
:1039400005E00C2E03D177200190302000908022DA
:103950000198104301460220FFF78AFF80210420CE
:10396000FFF7DDFE00210120FFF782FF80210A2002
:1039700000F052F9002506E00498415D0920FFF7A8
:1039800077FF681C85B205988542F5DB314601203A
:10399000FFF76EFF0C2E03D180210D2000F03CF9C3
:1039A0007D252D0100BF0420FFF746FF0446681E59
:1039B00085B2002D07D0E007C00F002803D1009882
:1039C00020400028EFD080210D20FFF7A8FE002D19
:1039D0003BD00620FFF730FF1B210840002832D1E2
:1039E000029001982040C007C00F002801D001209C
:1039F00002900C2E29D10A20FFF71EFF04460C204E
:103A0000FFF71AFF47077F0F002F06D0601EC00088
:103A1000C019C1B20C98017003E0E006010E0C98C9
:103A20000170002C00D10124122C00DD122400258D
:103A300006E00920FFF700FF06994855681C85B28B
:103A4000A542F6DB01E00220029080210C2000F06C
:103A5000E3F800210120FFF70BFF029807B0F0BD4B
:103A600000B587B050216846017100214171821D67
:103A7000022101A8FFF71EFE06A801AB042201A93E
:103A800000900C20FFF74EFF002007B000BD70B57E
:103A900088B005460C4608210846FFF740FE07217E
:103AA0000D20FFF7E5FE0321142000F0B5F868466D
:103AB000057207A802AB012202A900900C20FFF7B3
:103AC00031FF0646002E0AD16846007F102806D135
:103AD0006846007A20706846407A607000E00226EE
:103AE000304608B070BD10B500F002F810BD0000FF
:103AF00010B580210148FDF76BFF10BD00040048A0
:103B000010B580210148FDF761FF10BD0004004899
:103B100010B58CB0044600200B903948007801287D
:103B200001D10CB010BD37484078C01E030001F031
:103B30007CF80B086262073109620A62620B62005C
:103B400000BF00BF00BF00BF09A90BA8FFF7F6FD2B
:103B500000281ED1029008A9087202A909A8FCF742
:103B600043FB002814D028A001F022F80320694666
:103B70000873052209A903A80230FCF7FDFA062202
:103B800007A96846FCF7F8FA03A80FC8FFF784FCFA
:103B900000BF31E01F480078032800D02CE01D480A
:103BA0000078032826D109A90BA8FFF7C7FD002834
:103BB00020D1029008A9087202A909A8FCF714FBF9
:103BC000002816D0032069460873052209A903A816
:103BD0000230FCF7D1FA062207A96846FCF7CCFAB6
:103BE00003A80FC8FFF758FC1E2250210120FEF742
:103BF0008DFA00BF00E000BF00BF00BF91E70000EA
:103C0000CC000020A40000207363616E206F6B0D58
:103C10000A0000009908002070B505460C460026F1
:103C20002846FFF709FE064630462043014628464F
:103C3000FFF71EFE70BD000070B50024002513E0E4
:103C400008210B48FDF7C2FE6006040E0848008AF2
:103C500010210840002801D0012004430821044815
:103C6000FDF7B6FE681CC5B2082DE9DB204670BD25
:103C70000004004870B5044600251BE008211148E7
:103C8000FDF7A4FE80202040002804D020210D480C
:103C9000FDF79EFE03E020210A48FDF797FE60062F
:103CA000040E08210748FDF793FE062001F064FC8E
:103CB000681CC5B2082DE1DB20210248FDF786FE15
:103CC00070BD0000000400481CB501218804FFF706
:103CD00009FC0121684601716820009000216846B6
:103CE0008171C1710321417169461748FDF7FAFDE1
:103CF00008211548FDF76AFE20211348FDF766FEEE
:103D000040211148FDF764FE0121684601718020C1
:103D10000090002168468171C1710321417169469B
:103D20000948FDF7DFFDFFF7EBFE00216846017152
:103D30001020009068468171C1710321417169466C
:103D40000148FDF7CFFD1CBD0004004810B503215C
:103D50001420FFF761FF10BD38B50246002400941F
:103D600000230020CA24174D6C6253246C62002982
:103D700005D02C46A4681443AC6001201DE0114C12
:103D8000A46894430F4DAC6000BF0E4CE468150A64
:103D90002C402346009C641C00940125AD03009C2C
:103DA000AC4201D0002BF0D0064CE468150A2C4040
:103DB000002C01D1002000E00120FF24014D6C62A5
:103DC00038BD00000028004030B503460020CA245A
:103DD000064D6C6253246C6214060C432046034C5F
:103DE00040346060FF246C6230BD00000028004059
:103DF000014600BFF020084000110A235843024644
:103E00000807000F8018C0B270470146002204E086
:103E1000501CC2B208460A38C1B20A29F8DA1007A3
:103E2000000E08437047000010B5002101098022F0
:103E30000A4392B2D243044BDB68802423401A43E6
:103E4000014BDA6010BD00000028004000B589B0C9
:103E500001204002FFF7EEFB0120FFF7D7FB00F047
:103E6000FBF9002006907F200790FF202C3008905F
:103E700006A800F0EDF800216846C1720172417297
:103E800081723121017500200490C807039002AAB5
:103E9000C10D012000F008F90F2201210802FFF7EF
:103EA00093FF0121080300F0A1F801210802FFF7A8
:103EB00053FF00216846C17101714171817101A9EF
:103EC000012000F05DF909B000BD000008B5002236
:103ED000009200200021124AD26840231A40002A92
:103EE0001BD1421E0E4BDA6000BF0D4AD268402340
:103EF0001A401146009A521C00921B02009A9A42E4
:103F000001D00029F1D0064AD26840231A40002A85
:103F100001D0012002E0002000E0012008BD0000E7
:103F2000002800400348C068802188430149C860D8
:103F3000704700000028004070B5014600200022B4
:103F400000230F4C246804252C4022460C4C403C96
:103F5000A4680C408E0C0D46F540ED0B15402C432B
:103F60002346074C403CE4680D092C402246002BB8
:103F700004D094B2002C01D0012000E0002070BDDC
:103F80004028004010B501208003FFF7D5FF00282E
:103F90000BD00DA000F00CFE01208003FFF744FFC2
:103FA00001204004FDF79CF80CE001200003FFF71E
:103FB000C3FF002806D009A000F0FAFD012000038D
:103FC000FFF732FF10BD000077616B6575705069B7
:103FD0006E20697320776F726B0D0A00616C726DD1
:103FE0004120697320776F726B0D0A0010B5CA22E9
:103FF000164B5A6253225A62002911D01A4692680F
:1040000004240346A3431A43104B9A600F4A4032DC
:104010001268042303401A430C4B40331A6010E02B
:104020000A4A926804240346A3439A43074B9A60C2
:10403000064A40321268042303409A43034B40333C
:104040001A60FF22014B5A6210BD00000028004098
:1040500030B504460025CA20124948625320486200
:10406000FFF734FF002800D117E00E488068402198
:1040700088430C49886008468068216808430949DC
:104080008860A068086108460069A188090408439F
:1040900004490861FFF746FF0125FF2001494862F6
:1040A000284630BD00280040F8B5054614460026D5
:1040B000002D0ED13148806840210840002800D0F2
:1040C00002E00020E07000BFA068002800D11BE0E3
:1040D0001AE02A48806840210840002804D020784F
:1040E000FFF786FE064602E00020E07000BFA068F1
:1040F000002804D1207BFFF77BFE064604E0207BEE
:10410000FFF776FE064600BF002D12D0207800048F
:10411000617809020843A1780843E178090408435B
:10412000217B09060843A1680843616808430646E5
:1041300019E02078FFF769FE07046078FFF765FE55
:1041400000020743A078FFF760FE0743E078000411
:104150000743207BFFF759FE00060743A06807438B
:10416000606807433E46CA200449486253204862BB
:104170000846C661FF204862F8BD000000280040E4
:10418000F8B505460C46002600200090002D0AD107
:104190002F48806840210840002800D002E000201D
:1041A000E07000BF0EE02A488068402108400028E7
:1041B00004D02078FFF71CFE064602E00020E070E5
:1041C00000BF00BF002D0BD02078000461780902E9
:1041D0000843A1780843E17809040843064610E043
:1041E0002078FFF712FE07046078FFF70EFE00024A
:1041F0000743A078FFF709FE0743E0780004074370
:104200003E46CA201249486253204862FFF75EFECC
:10421000002801D1009016E00E4830400C4908609B
:10422000FFF780FE0A48806820210840002808D156
:1042300000F012F8002801D1009004E00120009065
:1042400001E001200090FF20014948620098F8BD7C
:10425000002800407F7F7F0008B5002200920020E8
:104260000021174A926820231A40002A01D0012019
:1042700025E0CA22124B5A6253225A621A46D26869
:10428000A0239A430E4BDA6000BF0D4AD268202368
:104290001A401146009A521C00929B02009A9A42C0
:1042A00001D00029F1D0064AD26820231A40002A02
:1042B00001D0012000E00020FF22014B5A6208BD1E
:1042C0000028004070B504460E46002C01D0642C36
:1042D00002DB0020C04370BD5F2C04DC601E400187
:1042E0000749451804E02046603840010549451853
:1042F000202229463046FBF73FFF2020EBE7000055
:1043000000F0000800FC000810B50CA000F050FC04
:104310000E480068401C0D490860084600680328E4
:1043200002D3FEF72BFE05E0FEF7CEFDFCF789FB7E
:10433000FEF70AF8064801F099FB10BD636F6D7037
:10434000617265206661696C0D0A0000C40000207E
:10435000E807002010B50446002C06D004A000F0A9
:1043600027FC204600F00CF801E0FFF7CDFF10BD60
:10437000636F6D70617265206F6B0D0A0000000045
:1043800070B504460E4804720146087AFDF78CFBAE
:10439000054629460120FEF7A5F80A490120FDF748
:1043A000F9FD002008494870FEF7F4FE1220044988
:1043B0004870064801F05AFBFCF7E0FE70BD0000B3
:1043C000A4000020FFBF000088000020E8070020B4
:1043D00010B5FF207D30FCF7DDFB8220FCF7EEFB03
:1043E000FCF79EFB782001F0A7F8FCF791FB282052
:1043F00001F0A2F8FCF794FB782001F09DF8FCF79F
:1044000087FB282001F098F8FF20A530FCF7C2FBBD
:10441000C820FCF7D3FB00200149487010BD000004
:1044200040010020704700000CB500200190009072
:1044300011201D4908601D4840681C494860084615
:1044400040684860084640687F21C903884317498F
:104450004860084640680521C9040843134948607C
:10446000084600680121090608431049086000BF9A
:104470000E4800680121490608400028F8D00B4882
:104480004068800880000949486008464068022169
:1044900008430649486000BF044840680C210840B2
:1044A0000828F9D10CBD0000002002400010024095
:1044B00010B50446002C01D0012C04D103488470AF
:1044C000FEF7C6FA00E010BD00BFFCE7E8080020D8
:1044D0007047000010B51B480068012108431949C6
:1044E0000860084640681849084016494860084670
:1044F0000068164908401349086008460068012111
:10450000890488430F490860084640683F21090430
:1045100088430C4948600846C06A00090001C86227
:104520000846006BFF21543188430649086308465A
:10453000406B40084000486300208860FFF774FF2C
:1045400010BD0000001002400CB8FF08FFFFF6FE8F
:1045500010B50121054800F04CF8002805D00121D4
:10456000024800F023F800F021F910BD00200040BF
:1045700010B50121054800F03CF8002805D00121C4
:10458000024800F013F800F069F910BD0004004083
:10459000002904D0028880231A43028003E00288A5
:1045A000014B1A40028070477FFF0000CA4302821D
:1045B00070470000002904D0028801231A430280BA
:1045C00003E00288014B1A4002807047FEFF0000A2
:1045D000002907D04422125A0123DB031A43442343
:1045E0001A5205E04422125A53045B0C442213521F
:1045F000704730B50246002000230024158A0D4084
:104600002B4695890D402C46002B03D0002C01D061
:10461000012000E0002030BD002A03D083890B4335
:10462000838102E083898B438381704770B50024C6
:1046300000220023058C1C4E35400584028C8388A3
:10464000048B194D6F3D2C40B51E2C400D882C431A
:10465000751E2A408D892A434D882A43134DA8424E
:1046600008D0134DA84205D0124DA84202D0124DD9
:10467000A84212D10C4DED1F2A40CD892A430A4D84
:10468000ED1E2A408D882A43074DFF3D2B400B4DE0
:104690002B400D8A2B434D8A2B43838004838D68E6
:1046A0004563028470BD0000FEFF0000002C014045
:1046B000004001400044014000480140FFFD00006F
:1046C0000A460021018B034B19400B461343194640
:1046D00001837047F7FF000000220288154B9842C3
:1046E00006D001239B07984202D0134B984203D176
:1046F000124B1A404B881A43114B984203D0114B6E
:104700001A400B891A4302804B68C3620B880385E9
:10471000084B984208D00C4B984205D00B4B98425E
:1047200002D00B4B984201D18B7A038601238382FE
:1047300070470000002C0140000400408FFF000083
:1047400000100040FFFC0000004001400044014018
:10475000004801401FB5C72002902F216846818084
:1047600000218181C180817301210802FEF7CAFE08
:1047700001A90D48FFF7B0FF13216846017002211F
:10478000417001218170FEF749FD01210648FFF7C4
:104790000DFF012211460448FFF73EFF01210248A8
:1047A000FFF708FF1FBD00000020004010B51248B1
:1047B0000068401C1049086010480068401C0F4900
:1047C00008600D4803F03AFE05210C480068FBF72D
:1047D000A9FC002904D10A480068401C0849086067
:1047E000FF212D3106480068FBF79CFC002901D110
:1047F000FEF7CEF810BD0000180000201C000020BD
:10480000140000201FB501200290124968468180E3
:1048100000218181C180817301210220FEF772FE97
:1048200001A90D48FFF758FF1021684601700121CA
:1048300041708170FEF7F2FC01210748FFF7B6FED8
:10484000012211460448FFF7E7FE01210248FFF765
:10485000B1FE1FBD7FBB00000004004010B508483A
:104860000068401C06490860FF21F53104480068D3
:10487000FBF758FC002901D1FEF78AF810BD0000B3
:104880001400002010B50749074800F02DF8002853
:1048900006D0054800F04FF8C4B2204603F0D8FE19
:1048A00010BD0000050105000038014010B50749A2
:1048B000074800F019F8002806D0054800F03BF83A
:1048C000C4B2204603F0C4FE10BD0000050105007F
:1048D0000044004002460020D3690B40002B01D069
:1048E000012000E00020704770B502460B4600240E
:1048F0000021002500201E04350ED9B201268E406D
:104900003146012D02D11668314006E0022D02D158
:104910005668314001E0966831401C0C0126A640E3
:104920003446D6693440002903D0002C01D0012040
:1049300000E0002070BD0146888CC005C00D7047A6
:10494000CA05D20D0285704710B572B6024801F053
:104950008DF862B610BD000078010020F7B584B074
:1049600004460F4600250698039024E0002002909C
:104970001CE013E072B601A9124801F0A1F8064646
:1049800062B6012E00D10AE0684600792070641CEE
:104990006D1CBD4202D3284607B0F0BDEAE700BF58
:1049A000012000F0E9FD0298401C02907D21C90021
:1049B00002988842DDD30398411E03910028D5D187
:1049C0002846E9E77801002070B504460D461646F2
:1049D000094806700BE02178641C0848FFF7B0FF17
:1049E00000BF40210548FFF775FF0028F9D0284691
:1049F0006D1E0028EFD170BD010000200044004072
:104A000070B5FEF7C7FBFDF733FC3F48007802287E
:104A10000DD1FDF7BDF9002806D009203A494870AC
:104A2000FEF726FB044659E0FEF74CFB56E03648FD
:104A30000078042806D1092033494870FEF718FB96
:104A400004464BE030480078012815D1FDF7A0F965
:104A50005F280EDA00202D490870FCF799FD2A49DD
:104A60000872087AFDF720F80446042026494870A9
:104A700034E0FEF71AFB31E023480078032815D113
:104A8000FDF7A2F804280EDA002020490870FCF790
:104A9000B9FC1D490872087AFDF706F8044605209E
:104AA000194948701AE0FEF700FB17E01648007835
:104AB000052802D1FBF7F4FE10E013480078062821
:104AC0000CD1172010494870FDF7E8F90546FCF7AE
:104AD000EBFF044621460120FDF704FD0C4800F0E1
:104AE000C5FF09484078032808D0074840781728B0
:104AF00004D021460420FDF7F5FC03E02146012007
:104B0000FDF7F0FC70BD0000A4000020C9000020EB
:104B1000E807002070B504460A2C01DB0F2C00DDED
:104B200070BD084800F0A2FF07480470092007493B
:104B30004870FCF79BFF054629460420FDF7D2FC90
:104B400000BFEDE7E8070020C8000020A400002017
:104B500070B505460E46FCF7DFFB2846FDF71BF84F
:104B60000949884202D02846FEF796FA314628467F
:104B7000FCF77AFB0446FCF76DFB042C01D0002007
:104B800070BD0120FCE70000FFFF000010B5FCF73E
:104B9000C3FB0548FCF71AFB04490348FCF764FB18
:104BA000FCF758FB10BD000000E800088855000025
:104BB0000FB410B503A9044B044A029800F0FEF8A4
:104BC00010BC08BC04B01847FD5A0008740100204E
:104BD0000FB41CB50A46521E0192009007A9064B5D
:104BE0006A46069800F0EAF8009A002111701CBC91
:104BF00008BC04B018470000F55400082021020C3E
:104C000001D010211046020A01D0104608390209CD
:104C100001D01046091F820801D01046891E4208A3
:104C200001D0881E7047081A704730B47446641E5D
:104C30002578641CAB4204D3635D5B00E31830BC91
:104C400018471D46F8E702E008C8121F08C1002AED
:104C5000FAD170477047002001E001C1121F002AFD
:104C6000FBD17047F0B51FB484B007980699020DC8
:104C7000014314D04A484B491018484305140F9873
:104C800001280E981CD0281A401C0024464E474983
:104C9000009401910290002814DA474227E00F980F
:104CA000012443A3012808D0002104980F9A8460AE
:104CB0000360C260416009B0F0BD0E98C143F4E7E3
:104CC0004042E2E7074612E0F80707D022463346A3
:104CD00001990098FBF782FB019100902246334630
:104CE00010461946FBF77AFB04460E467F10002F4C
:104CF000EAD10298019B0028009A0799069802DAE7
:104D0000FBF76CFB01E0FBF7D1FB04460E460022EB
:104D1000284BFBF763FC03D80020C043014607E0A3
:104D20000022254B20463146FBF7A6FAFBF736FC5E
:104D3000102409E0002C0ADB0A220023FBF76BFA9F
:104D4000059B30321A55641E02460A43F2D11122E5
:104D5000641C059B121B1C190F9B012B03D0012304
:104D600008430ED10AE0084304D011200E90002021
:104D70000F9084E70E98151A6D1E0BE00E98824274
:104D800002DD00236D1C03E0824201DA00236D1E68
:104D9000002BEED004980F998260C16030C08AE782
:104DA00001FCFFFF104D0000000024400000F03F18
:104DB000300000000000F0430000E03FFFB597B076
:104DC0000646002518E2252877D100242746FD490C
:104DD000049400E00443761C32780120203A90408D
:104DE0000842F7D130782A280ED0022230780146C6
:104DF0003039092916D804990A2359433039401803
:104E00001443761C0490F1E7189802C80491189096
:104E1000002904DA012040030443484204900220A0
:104E20000443761C30782E2814D104200443707873
:104E3000761C2A2809D11898761C80C8189009E099
:104E40000A214F43303FC719761C3078014630396C
:104E50000929F5D930786C2810D006DC4C281AD0F6
:104E600068280ED06A2817D104E0742813D07A2855
:104E700012D110E00120400504430CE00121090596
:104E800001E0032109050C437178814203D101201F
:104E900000052418761C761C3078119066280BD0FB
:104EA00013DC58287DD009DC00287BD04528F6D0BB
:104EB0004628F4D047281AD1A5E118E0632835D058
:104EC000642870D0652812D19DE170286CD008DC70
:104ED0006728F1D069287BD06E280DD06F2806D1C5
:104EE000BAE073282ED0752871D0782859D01A9A34
:104EF000199990476D1C7EE16002400F022809D08D
:104F000003280DD00428189801680DD00D60001DED
:104F1000189070E11898EA1701680D604A60F6E78A
:104F2000189801680D80F2E70D70F0E718986A464E
:104F300001781172001D18900020507202A8009094
:104F4000012005E0189802C8189000200091C04385
:104F500061070DD5002101E00199491C0191B94279
:104F600012DA8142F8DB009A515C0029F4D10BE09F
:104F7000002101E00199491C01918142FADB019A6B
:104F80000099895C0029F5D1019904981A9B471A68
:104F900021463846199A00F097FA019940194518A8
:104FA0000BE04FE02CE113E04EE000980099007810
:104FB000491C00911A9A199990470198401E019036
:104FC000401CF2D1214638461A9B199A10E137E06D
:104FD0000A200021009001916002410F022907D0B0
:104FE000189A01CA1892C2179446032908D00AE0F9
:104FF0001898C01DC108C90005C91891944607E05A
:1050000000B2C2179446042902D140B2C1178C469F
:1050100000226146944506DA0A4600214042914149
:105020008C462D2102E0210504D52B216A461173FF
:10503000012103E0E10701D02021F7E7029155E0CB
:105040000A200AE0102008E010200090002104202F
:1050500004430191082703E00820002101910090FA
:105060006002410F022907D0189A01CA1892002243
:105070009446032908D008E01898C01DC108C9004B
:1050800005C91891944603E080B2042900D1C0B24A
:1050900000210291210729D51199702906D0009A83
:1050A0001021019B4A401A4305D00EE040216A4678
:1050B0001173012108E06146014306D030216A46A0
:1050C00011731199517302210291009A0821019BD9
:1050D0004A401A430AD16146014301D1610705D50F
:1050E00030216A46117301217F1E029111995829BE
:1050F00004D035A10E910DA90D910DE037A1F9E76E
:105100006146019B009AFBF786F80E9B8C469B5CE0
:105110000D9A521E0D92137061460143F0D10D9805
:1051200005A9081A20300190600703D5012000046A
:10513000844300E001270198874201DD381A00E02E
:105140000020019900904118029809180498401A0B
:105150000490E00306D421461A9B199A049800F0A3
:10516000B3F94519002706E003A81A9AC05D1999FA
:1051700090476D1C7F1C02988742F5DBE0030CD53D
:1051800021461A9B199A049800F09EF9451904E0EB
:105190001A9A3020199990476D1C0099481E00906A
:1051A0000029F5DC08E00D980D990078491C0D9157
:1051B0001A9A199990476D1C0199481E019000296F
:1051C000F1DC63E109280100303132333435363700
:1051D0003839616263646566000000003031323343
:1051E00034353637383941424344454600000000E3
:1051F00000F05AF94519761C3078002800D0E2E515
:1052000028461BB0F0BD600700D406271898C01DC3
:10521000C108C90048680A680831C30FDB07189144
:10522000190001D09CA108E0210501D59BA104E053
:10523000E10701D09AA100E09AA1430011985B0810
:10524000109165280CD006DC452809D046281DD0D1
:10525000472841D141E0662818D067283CD13CE07E
:105260000021112F01DB112000E0781C019100903A
:1052700008A911A8FFF7F6FC139905910021119ACE
:1052800015927F1C12980197009150E00120C007F1
:1052900003900120019008A9009711A8FFF7E2FCF4
:1052A000139A149905920022119B0092129815935B
:1052B000059A0192002901D0104602E0791C40189D
:1052C0000190381A01D5019804E04042401E009038
:1052D000781C0190C01B029043E0012F00DA0127E7
:1052E0000021112F01DD112000E0384601910090CE
:1052F00008A911A8FFF7B6FC13990591119A00218E
:10530000129815920091019721070CD40599B94282
:1053100001DB019900E00191012904DD159A491E84
:10532000515C302906D0B84201DA011D05DA0121AD
:10533000029115E00199491EEDE7002805DC00996E
:10534000411800910199091A03E0019A411C914208
:1053500000DD01910099401A401C02900120C00715
:105360000390200706D402990198814202DB0020B5
:10537000C043029000206946C87707AF0121039817
:105380000337C907884224D0022011902B201290A5
:10539000039800280CDA404203902D20129007E079
:1053A0000A210398FAF7BEFE30317F1E0390397050
:1053B0001199481E11900029F2DC03980028EFD1C2
:1053C000791E129808703078202108404530BF1EA1
:1053D000387006A8C01BC01D0390109800780028E4
:1053E00000D00120019941180298C01709180398AC
:1053F00009180498401A401E0490E00306D4214680
:105400001A9B199A049800F05FF8451910980078D3
:10541000002803D01A9A199990476D1CE00324D5EF
:1054200021461A9B199A049800F04EF845191CE081
:105430000098002807DB00990598884203DD15983D
:10544000405C199901E0199930201A9A9047009808
:105450006D1C401C00900298401E0290002804D150
:105460001A9A2E20199990476D1C0199481E019097
:105470000029DDDC05E038781A9A7F1C19999047DD
:105480006D1C0399481E03900029F4DC21461A9BE9
:10549000199A0498ACE600002D0000002B000000D3
:1054A0002000000000000000F8B5044600251E465C
:1054B0001746880404D405E039462020B0476D1C07
:1054C000641EF9D52846F8BDFFB50446002581B015
:1054D0001E46C80301D5302700E02027880404D5E4
:1054E00005E038460399B0476D1C641EF9D528467F
:1054F00005B0F0BD4A68002A06D00A68531C0B604C
:1055000010704868401E4860704700000820002165
:10551000064A9161042111610549087009787D22CC
:10552000D2005143034A11807047000000E000E0C0
:105530000C0000200E00002001460D4A12884A434C
:10554000521E0C4B5A6100229A6101221A6100BF5F
:10555000084A1069C207D20F002A04D0012212049F
:105560000240002AF4D00022024B1A619A6170476F
:105570000E00002000E000E001460D4A12784A4388
:10558000521E0C4B5A6100229A6101221A6100BF1F
:10559000084A1069C207D20F002A04D0012212045F
:1055A0000240002AF4D00022024B1A619A6170472F
:1055B0000C00002000E000E010B50446002C05D0EF
:1055C000012149030448FCF703FA04E001214903DF
:1055D0000148FCF7FBF910BD0004004810B5044673
:1055E000002C05D00121C9030448FCF7F1F904E0BF
:1055F0000121C9030148FCF7E9F910BD0004004886
:1056000010B50446002C05D0012109030448FCF71D
:10561000DDF904E0012109030148FCF7D9F910BDC7
:105620000004004810B50446002C05D00121890370
:105630000448FCF7CDF904E0012189030148FCF797
:10564000C5F910BD0004004890B000F083FBFFF7DF
:105650005DFFFBF789FA0320FCF7F8FC002101202D
:10566000FCF720FEFDF794F800F034FCFCF788FF0F
:10567000FCF784FEFEF728FBFFF7C4F8FEF7A0F85E
:10568000FBF7F8FAFDF76EFD00210420FCF72AFF76
:10569000FBF7D7F9FDF796F9002401200F900020C1
:1056A000E349086051E0FCF77BFAE2490860E2490F
:1056B0000120FCF717FFDF480068E04909688842CD
:1056C00043D0DB480068401CD9490860D9480068CD
:1056D000DA49086000F06CFB01A8FCF7FFF918221A
:1056E00001A907A8FAF748FD6846007F02280CD1F7
:1056F0006846807F232808D1D1490120FCF7D2FDDC
:1057000000210846FCF7EEFE20E0C9480068642846
:1057100004D1CC490120FCF7C5FD16E0C44800685F
:10572000C82805D1C449C1390120FCF7BBFD0CE0F4
:10573000BF480068FF212D31884206D10021012099
:10574000FCF7B0FD0020BA490860ACE700BF6EE18D
:10575000FCF726FAB749086008460068B7490968A7
:105760008842F4D0B3480068B449086000F020FBD8
:1057700001A8FCF7B3F9182201A907A8FAF7FCFC65
:10578000AB480068401CAA490860224608460168E8
:10579000ADA0FFF70DFA6846007F02286FD1002008
:1057A000A34908606846807F2A380300FFF73DFA66
:1057B000105E666666666662091827323D484C517F
:1057C000566600200D900F98002801D1012000E0BE
:1057D00000200F90012C02D001200F9001244DE0F9
:1057E00000200D900E98002801D1012000E000203B
:1057F0000E90022C02D001200E9002243EE0002DDB
:1058000001D1012000E000200546032C01D0012534
:10581000032433E0002D01D1012000E000200546E3
:10582000042C01D00125042428E0002D01D1012001
:1058300000E000200546052C01D0012505241DE0CF
:10584000062C00D0062419E0072C00D0072400BF46
:1058500014E0082C00D0082400BF0FE0092C04D06D
:10586000FEF741F9FEF772FA092407E00A2C00D08E
:105870000A2403E00B2C00D00B2400BF00BF230040
:10588000FFF7D3F90CD3072A4F5B6874798A9BC45E
:10589000CBD30F98012816D1C82165480068FAF7C4
:1058A00041FC002917D109210D98FAF751FC491C38
:1058B000C8B20D900D98FCF78DF886B231460120E4
:1058C000FCF710FE07E0002059490860002600217F
:1058D0000846FCF707FEA9E00E98012818D1C82158
:1058E00053480068FAF71EFC002919D109210D98C8
:1058F000FAF72EFC491CC8B20D900D98FCF76AF817
:105900000002C03086B231460120FCF7EBFD07E013
:10591000002047490860002600210846FCF7E2FD08
:1059200084E0012D04D147490120FCF7BBFC03E0D2
:1059300043490120FCF7B6FC78E0012D05D13E4932
:10594000C1390120FCF7AEFC03E03D490120FCF722
:10595000A9FC6BE0012D04D100210120FCF7A2FC81
:1059600003E037490120FCF79DFC5FE0344901204A
:10597000FCF798FC5AE000BF2D480068002802D1CF
:10598000FDF7CAFB07E02A480068FF212D31884255
:1059900001D1FDF7DDFB49E000BF25480068002884
:1059A00002D1FDF7C7FB07E021480068FF212D3138
:1059B000884201D1FDF7CCFB38E00020069004A915
:1059C00006A8FDF7BBFE00281FD1039069460875A5
:1059D00003A904A8FAF708FC002815D01E225021BC
:1059E0000120FCF793FB1CA0FFF7E2F8002706E07C
:1059F00004A8C15D1BA0FFF7DBF8781CC7B2042F19
:105A0000F6DB19A0FFF7D4F800BF0FE0FF20064334
:105A100031460120FCF766FD08E0FF200002064346
:105A200031460120FCF75EFD00E000BF00BF8FE6BD
:105A3000640100205C010020C0C000006001002063
:105A4000FF3F0000FF7F00007433203D2025642CC1
:105A50002025640D0A000000636172644E756D3A82
:105A6000200D0A00255800000D0A00000021418089
:105A7000C18081807047028000234380C38083807F
:105A800081607047024653881088401E834201DDC2
:105A90000120704793881088401E834205D1938867
:105AA0009068C1540020908005E093889068C154AC
:105AB0009088401C90805088401C50800020E8E76F
:105AC00002465088002801D101207047D3881088F1
:105AD000401E834206D1D3889068C05C08700020C5
