:020000040800F2
:1000000060110020CD000008793100087526000835
:1000100000000000000000000000000000000000E0
:10002000000000000000000000000000BD450008C6
:100030000000000000000000BD3300086946000811
:10004000FD000008000000001D410008FD00000840
:10005000FD000008FD000008811000088310000862
:1000600000000000FD000008FD000008FD00000881
:10007000FD000008FD000008FD0000080000000071
:1000800009470008FD000008FD000008E9460008D7
:10009000FD000008FD000008FD000008FD0000084C
:1000A000FD000008FD000008FD000008F1490008FF
:1000B000194A0008FD0000080348854600F0A2FA2E
:1000C0000048004765600008601100200C4880F37C
:1000D00008880C480168090E0B4A914205D10B486B
:1000E0000B4901600B480C4901600C4880470C48E3
:1000F0000047FEE7FEE7FEE7FEE7FEE7FEE700005B
:1001000060110020040000001F00000018100240D1
:100110000100000000000140000000006D460008E2
:10012000B900000830B50B4601460020202201240A
:1001300009E00D46D5409D4205D31D469540491B1B
:100140002546954040191546521E002DF1DC30BD64
:1001500070B500242546002801DA01244042002918
:1001600001DA01254942FFF7DDFFAC4200D04042F1
:10017000002C00D0494270BD03460B439B0703D0BF
:1001800009E008C9121F08C0042AFAD203E00B785C
:100190000370401C491C521EF9D27047D2B201E0D4
:1001A0000270401C491EFBD270470022F6E710B5D2
:1001B00013460A4604461946FFF7F0FF204610BDD5
:1001C00030B505462A460B4610781C78521C5B1C3D
:1001D000002801D0A042F7D0002C03D0002802D084
:1001E0006D1CEFE7284630BD10B5002200E0521C20
:1001F000835C8C5CA34201D1002BF8D1D8B2E1B270
:10020000401A10BD03460A780270401C491C002A9F
:10021000F9D118467047F0B51FB40646002082B0E9
:1002200005464024019100901BE0019922460F46AB
:10023000304600F009FA049A059B801A994110D3C0
:1002400010461946224600F0EFF9361A8F41019701
:10025000224601200021009F00F0E6F938184D41A8
:1002600000902046641E0028DFDC019B0098294690
:10027000324607B0F0BD0000F0B5074608465840CA
:1002800087B0C00F049048000E4659004008490846
:10029000BC1A884105D2384631461E4617460B46E1
:1002A00002465800400810434CD0300D03904005E2
:1002B0005900400D490D0590401A0290402872DA0D
:1002C00018030121000B09050843019004980092CE
:1002D000002805D0019952420020884100920190E7
:1002E000029840210A1A0199009800F09DF90546EC
:1002F0000C466B4607CB00F0B8F9C0197141039A60
:100300000E0D0023D71756401A467A40164344D0A4
:10031000049A002A2DD0029A012A039A15DC1205AC
:10032000C01A914101263605001C7141D20F059E6D
:10033000D2070093019202962A46234600F0B5F9AF
:1003400007B0F0BD38463146FAE71605224A0F4697
:10035000B218C01AB74101210905001C4F4100180D
:100360007F41114618187941E20F10436D1964411D
:1003700013E0E2076D0815436408C2071443039AAB
:1003800001261205C01A91413605001C7141CE07A5
:10039000400830434908C01851412A46234600F01E
:1003A00077F9CDE7FFE7049801224000C117121A40
:1003B00000238B4104983146C417381AA141EEE757
:1003C00030B40124E407634030BC55E730B4012465
:1003D000E407614030BC4FE70000E0FFF0B51FB418
:1003E00088B00B990998002448400999C00F49002A
:1003F00049080991C0070B990090490049080B91E1
:1004000009990898A64608431CD00B990A980843F6
:1004100018D0099801244000420D4800410D099868
:1004200024050003000B204309900B980003000BE8
:1004300020430B9050181C4940180022019014468C
:10044000104605E0002001460DB0F0BD032801DA9A
:10045000034600E003239C46C11A0AAE0AE05F008F
:1004600008ADED5B4F00F75B7D430027AA187C4188
:10047000491C5B1E6145F2DD410004AB5A52210468
:10048000120C0A43240C401C0828DFDB0198029060
:100490000099704601910090059B049A079906986F
:1004A00000F003F9D0E700000DFCFFFFF0B50C46AB
:1004B0005C4085B0E40FE40703944C000026640818
:1004C00059009446490802460296224321D06246CA
:1004D0000A431ED06200570D4A000E032303550D38
:1004E000012402462C492405781B1B0B360B4018AF
:1004F00023432643614600901C46501AB44103D35F
:100500000098401C009002E0921800985B4100287F
:1005100003DA0020014605B0F0BD002001210905E5
:100520000746864611E064461D46141BB54106D3B6
:100530006546521BB341744607430C43A646CD079C
:1005400040084908284392185B4105460D43EAD10B
:100550001046184313D06046194650407140084376
:1005600006D06046101AB34106D20122002306E0ED
:1005700000220123DB0702E00122D243531000983E
:1005800074460105381C6141029C039D00196941B4
:1005900000F07EF8BFE70000FD0300004A000903F9
:1005A0000123090B1B0519430A4B10B5520D9A4242
:1005B00002DA0020014610BD064B34339A4203DCB8
:1005C0009A1A00F041F810BD034BD21800F02CF835
:1005D00010BD0000FF030000CDFBFFFF10B5002998
:1005E00004DB0124E40740428C412146002B04DB5C
:1005F0001C460123DB075242A341994200D190429D
:1006000010BD0000064C0125064E05E0E36807CC4E
:100610002B430C3C98471034B442F7D3FFF750FDFE
:100620009C8A0008BC8A000810B5202A04DB014619
:10063000203A9140002010BD914020239C1A03468F
:10064000E3401943904010BD10B5202A04DB084652
:10065000203AD040002110BD0B46D340D04020248A
:10066000A21A91400843194610BD10B5202A06DB96
:10067000CB170846203A1041C1170B4306E00B4642
:100680001341D0402024A21A91400843194610BDBE
:1006900010B5002B08DA0024401C614192185B4120
:1006A0001A4301D14008400010BDF0B51FB482B01C
:1006B00005460C0003D0084604F0E0FB02E004F01D
:1006C000DDFB20300246009021462846FFF7ACFFB4
:1006D000049B059A04460F4618431143084314D05F
:1006E000184610431BD0009840210A1A1846059955
:1006F000FFF7AAFF05460E46009A05990498FFF7F2
:1007000093FF084305D0012004E02046394607B096
:10071000F0BD0020C11705430E432C433743009919
:100720000E986305401A7905E40A00220C43FD0A7D
:100730000A3002D500200146E9E701051019694198
:100740000C9C0D9D00196941FFF7A2FFDFE770B512
:100750008C180578401C6B075B0F01D10378401C97
:100760002A1106D10278401C03E006780E70401C66
:10077000491C5B1EF9D12B0705D40023521E0DD452
:100780000B70491CFAE70378401CCB1A921C03E05B
:100790001D780D70491C5B1C521EF9D5A142D8D39F
:1007A000002070BD10B50B460021846A1C43846292
:1007B00000BF0C4614432146416110BD01617047E2
:1007C000002904D0826801231A43826003E0826812
:1007D00002231A438260704710B5044605488442DC
:1007E00007D10121401502F05DFE0021601502F0E5
:1007F00059FE10BD0024014030B501460020002202
:1008000000238C680125ED072C438C6000BF8C68A9
:10081000E30FDB07521C0F242403A24201D0002B5C
:10082000F5D18C68E40FE407002C01D1086C00E0DE
:10083000002030BD30B502460020002301242406EC
:100840000C40002C05D0946801252D06AC432346AE
:1008500000E013681C460C40002C01D0012000E091
:10086000002030BD10B50022C268084B1A400C7938
:1008700064030B6823438C682343CC6823430C69CF
:1008800023434C6923431A43C26010BD03D2FFFFC8
:100890000021016001718160C160016141617047A7
:1008A00010B500F0C1FB01F097F804462146012085
:1008B00001F0DCFD0D480078002801D000F08AFB33
:1008C00000F0CEF80520C00104F076FF08490120B1
:1008D00001F0ACFC01F0A8F804462146012001F02B
:1008E000C5FD00F08FF902F0D3F910BD69010020B9
:1008F000FFBF000070B50446632C02DD0020C0433A
:1009000070BD602C04DB632C02DC01200B49887075
:10091000601EC004050E601EC606F60EA90007483C
:10092000001D40580121B1400843AA000349091D98
:10093000885002F051F80120E2E70000340900205D
:100940000FB410B586B0044614220CA96846FFF710
:1009500013FC204609A90EC905F022FA002808D187
:100960002046FFF7C7FFC0B206B010BC08BC04B0F9
:1009700018470120F8E71CB50121480402F062FD88
:10098000022000900320694608710920C00600F08B
:1009900073FF1CBD10B586B000240121480202F08F
:1009A00071FD0121480402F04DFDFFF7E4FF6846A8
:1009B000FFF76EFF002000906946087102900390D7
:1009C000049005901348FFF707FF0121890711489C
:1009D000FFF7F4FE69460F48FFF744FF05220221A6
:1009E0000C48FFF7DFFE0B48FFF706FF012109481F
:1009F000FFF7E6FE04E0601C84B2012004F0FCFE78
:100A000001210448FFF716FF002801D1642CF2DB16
:100A100006B010BD002401401CB50121480402F0BD
:100A200011FD0820009001216846017103214171E8
:100A300000218171C17169460920C00600F01CFFC8
:100A40001CBD10B55F20C00000F0A4F8FF20693085
:100A500000F0B4F80A22C821012001F01BFB10BDF0
:100A600010B500F05DF8A02004F0A6FE00F050F8EC
:100A7000642004F0A1FE00F053F8A02004F09CFED6
:100A800000F046F8642004F097FE00F049F8A0203A
:100A900004F092FE00F03CF8642004F08DFE00F0BB
:100AA0003FF8A02004F088FE00F032F8642004F043
:100AB00083FE00200149487010BD0000380100206D
:100AC00010B5FF20A53000F065F8C82000F076F8DA
:100AD00000F026F8482004F06FFE00F019F84820D6
:100AE00004F06AFE00F01CF8482004F065FE00F0F7
:100AF0000FF8482004F060FE00F012F8482004F0DF
:100B00005BFE00F005F8482004F056FE10BD000022
:100B100010B50021014803F027FE10BD004401403C
:100B200010B50121014803F01FFE10BD0044014033
:100B30001CB50121480402F085FCFF200130009023
:100B4000022168460171032141710021C17169468A
:100B5000044800F091FE02220821024800F0D4FE71
:100B60001CBD00000004004810B5FFF7E1FFFF20A6
:100B7000A53000F00FF8C82000F020F80223002272
:100B80000249034805F030FA10BD0000D5200008E6
:100B90001C0900203EB504460121480402F072FC05
:100BA00001942F216846018000210181418069461E
:100BB000014803F05DFE3EBD0044014010B586B023
:100BC00004466021684681800121C18000210181A5
:100BD0000394022101820021818201A9084803F0C7
:100BE000F1FD0821064803F037FE0121044803F017
:100BF0009BFD0121024803F0A9FD06B010BD0000D5
:100C00000044014010B5FFF78BFFA02004F0D4FD95
:100C1000FFF77EFF502004F0CFFDFFF781FFA020FB
:100C200004F0CAFDFFF774FF502004F0C5FDFFF784
:100C300077FFA02004F0C0FDFFF76AFF502004F00A
:100C4000BBFD00200149487010BD000038010020A4
:100C50001CB50121480402F0F5FB0120C002009000
:100C6000002168460171C17169460920C00600F083
:100C700003FE1CBD10B50021022001F08BF910BD50
:100C8000F0B589B00646002537680121C902092060
:100C9000C00600F05BFE00284ED105F04DFA00289A
:100CA0004AD1002441E04248015D022001F072F97E
:100CB0000121C9020920C00600F048FE012832D1F6
:100CC00020013C49085C00280FD101202101394A4C
:100CD00050540020210189188860200111464018D5
:100CE000476001202101891808732001314940180B
:100CF00080687D214901884208D220012D49401891
:100D00004068381A21012B4A891888602001294936
:100D1000401880684B21C900884204D12448005DF6
:100D2000802108430543601C84B2052CBBDD0021F3
:100D3000022001F02FF91CE0002418E020011D49D9
:100D400040188068022809D32001401880684B2190
:100D5000C900884202D21648005D054300202101E7
:100D6000144A5054210189188860601C84B2052CF3
:100D7000E4DB002D1AD00121684601738573062239
:100D800007A9FFF7F9F903A80FC802F035FB05F032
:100D9000C7F8002805D108484078162801D001F08E
:100DA00068FF294605A004F043F800BF09B0F0BD74
:100DB000210000202C0800209C0000204B65795663
:100DC000616C75653A2025580D0A0000FFB589B0A1
:100DD00006460F46002501F025F8089008980028DF
:100DE00001D10DB0F0BD002421E0284600F02CFB1D
:100DF0000546681C002800D1F3E7E8B2694603F015
:100E00002DFB6846C078B0420FD10C98012803D062
:100E100068468088B84208D101A802300B99FFF7D4
:100E2000CFF9002801D02846DBE7601CC4B208983F
:100E30008442DADB0020D4E7FFB589B01298C007FE
:100E4000C00F002803D00024254D264E14E0129830
:100E5000C007C00F002803D00024234D234E0BE011
:100E60001298C007C00F002803D05F24204D214EE8
:100E700002E000200DB0F0BDA847C7B2002F01D19D
:100E80000020F7E70020089024E02046B047044601
:100E9000601C002800D1EDE7E0B2694603F0DEFAFD
:100EA0006846C1780998814210D10C98012804D075
:100EB000684681880A98814208D101A902310B98BD
:100EC000FFF77EF9002801D02046D3E70898401CA0
:100ED000C0B208900898B842D7DB0020CAE70000EB
:100EE000251E000849140008191D0008991400085F
:100EF000511B000809130008F0B589B00446632CA3
:100F000003DD0020C04309B0F0BD1648007800287A
:100F100014D001A9204603F0A1FA6846C07903283D
:100F20000CD16846817A01A8C0790002081887B2FE
:100F3000384600F01BF8002800D1E4E7601EC0042A
:100F4000050E601EC606F60EA9000748415801208E
:100F5000B0408143AA000448815001F03DFD0120CA
:100F6000D1E7000069010020380900207FB5044660
:100F700015A103C90191009015480078012801D0FE
:100F800000F0CEF82004010E68468170C470002085
:100F9000029003900121684600F010FC7D22D200EF
:100FA000082102A803F01AFEC5B2082D0ADB684624
:100FB000007B002803D06846007B052802D1012071
:100FC00004B070BD0020FBE7F5040000000000F550
:100FD000680100201FB511A103C9019100901148BB
:100FE0000078012801D000F09BF8002002900390C7
:100FF0000121684600F0E2FB7D22D200082102A810
:1010000003F0ECFDC4B2082C06DB6846007B002828
:1010100002D1012004B010BD0020FBE7F50500005F
:10102000000000F56801002010B500F047F90F48F6
:1010300000F09EF80E4800F09BF80E4800F098F87B
:101040000D4800F095F800F0D7F800200B498870A3
:10105000002406E00021A2000848001D8150601C09
:10106000C4B2042CF6DB01F0B7FC10BD00F00008A0
:1010700000F4000800F8000800FC00083409002013
:101080007047704701494861704700000004014003
:1010900010B50DA003F0CCFE002011490872087AAB
:1010A00000F0CCFC04462146012001F0DFF90D4997
:1010B000012001F0BBF81220094948700A4804F0E9
:1010C00015FE00F02DF810BD6E6F20696420776169
:1010D000732072656769737465640D0A000000000F
:1010E0009C000020FFBF0000F007002010B500F0BA
:1010F000E5F8034800F03CF800F07EF810BD000071
:1011000000E8000810B5044600F0D8F8342000F0DC
:1011100029F8204600F02CF800F06EF810BD000011
:101120001FB50C480078002812D00BA103C901910B
:1011300000900121684600F041FB6422082102A8CA
:1011400003F04CFD03F040FD01200549087000BF8D
:101150001FBD000069010020F5090000000009F52D
:10116000680100200149C86070470000002002406B
:1011700030B5044604250B20000400F0B1F8054604
:10118000042D17D10C480069022108430A4908615F
:1011900008464461006940210843074908610B2063
:1011A000000400F09DF805460348006902218843C9
:1011B00001490861284630BD0020024004200D4945
:1011C000C968C907C90F002901D0012010E00949E9
:1011D000C96810221140002901D0022008E0054909
:1011E000C96804221140002901D0032000E0042036
:1011F0007047000000200240034800698021084336
:1012000001490861704700000020024070B50446A3
:101210000D4604260B20000400F062F80646042E5A
:1012200011D10A4800690121084308490861258055
:101230000B20000400F054F80646044800694008FA
:10124000400002490861304670BD000000200240A5
:1012500078B506460C460425002000900B200004BB
:1012600000F03EF80546042D24D113480069012101
:1012700008431149086134800B20000400F030F865
:101280000546042D10D1B01C0090200C0099088058
:101290000B20000400F024F80546074800694008C8
:1012A00040000549086105E0034800694008400026
:1012B00001490861284678BD0020024005480069C0
:1012C00080210840002804D00348024948600348B0
:1012D000486070470020024023016745AB89EFCD8D
:1012E00010B503460424FFF769FF044603E0FFF747
:1012F00065FF04465B1E012C01D1002BF7D1002BAA
:1013000000D10524204610BD30B50246602A01DB1D
:10131000632A01DD602101E0501CC1B214E0481EC7
:10132000C004030E481EC406E40E9D00094840593F
:101330000125A5402840002804D058010019401C70
:1013400040B230BD481CC1B26429E8DB0020C04374
:10135000F7E700003809002030B50246632A01DCB7
:10136000602A01DA632101E0501EC1B214E0481E78
:10137000C004030E481EC406E40E9D0009484059EF
:101380000125A5402840002804D058010019401C20
:1013900040B230BD481EC1B26029E8DA0020C04327
:1013A000F7E700003809002030B50246602A01DB6B
:1013B000632A01DD602101E0501CC1B214E0481E27
:1013C000C004030E481EC406E40E9D00094840599F
:1013D0000125A5402840002804D158010019401CCF
:1013E00040B230BD481CC1B26429E8DB0120C043D3
:1013F000F7E700003809002030B50246632A01DC17
:10140000602A01DA632101E0501EC1B214E0481ED7
:10141000C004030E481EC406E40E9D00094840594E
:101420000125A5402840002804D158010019401C7E
:1014300040B230BD481EC1B26029E8DA0120C04385
:10144000F7E700003809002030B50246642A01DAC7
:10145000012A01DA012101E0501CC1B214E0481E4A
:10146000C004030E481EC406E40E9D0009484059FE
:101470000125A5402840002804D058010019401C2F
:1014800040B230BD481CC1B26429E8DB0020C04333
:10149000F7E700003809002030B502465F2A01DC7A
:1014A000012A01DA012101E0501CC1B214E0481EFA
:1014B000C004030E481EC406E40E9D0009484059AE
:1014C0000125A5402840002804D058010019401CDF
:1014D00040B230BD481CC1B26029E8DB0020C043E7
:1014E000F7E700003809002030B50246602A01DA2B
:1014F000012A01DA5F2101E0501EC1B214E0481E4A
:10150000C004030E481EC406E40E9D00084840595E
:101510000125A5402840002804D058010019401C8E
:1015200040B230BD481EC1B20029E8D1481EF8E7DC
:101530003809002030B502465F2A01DC012A01DAB1
:10154000012101E0501CC1B214E0481EC004030E8A
:10155000481EC406E40E9D00094840590125A540D7
:101560002840002804D158010019401C40B230BD69
:10157000481CC1B26029E8DB0120C043F7E7000046
:101580003809002030B50246602A01DA012A01DA62
:101590005F2101E0501EC1B214E0481EC004030EDA
:1015A000481EC406E40E9D00084840590125A54088
:1015B0002840002804D158010019401C40B230BD19
:1015C000481EC1B20029E8D1881EF8E7380900207A
:1015D00010B54021014800F0C3F910BD00140048C7
:1015E00010B54021014800F0BDF910BD00140048BD
:1015F0001CB50021684681710121C1714020009015
:1016000068460171032141710121880501F01AFF2B
:101610006946024800F030F91CBD00000014004883
:101620001CB50AA103C9019100900A48007801285D
:1016300001D0FFF775FD03F0C7FA022005490870D5
:101640000021684600F0BAF81CBD0000F50100005A
:10165000010000F56801002010B590B0202102A81B
:10166000FEF7A3FD00F06CFA04465248007801280A
:101670007ED0082C7CDB042008A9087201220821F6
:1016800002A803F0ABFA4C48007802285ED1012092
:10169000494908706846407A01280FD1012108A8FD
:1016A00081726846C17A0AA8C17006220EA96846EE
:1016B000FEF762FD0AA80FC801F09EFE6846407A58
:1016C000032872D16846007B01280BD06846007B56
:1016D000042807D06846007B842803D06846007B36
:1016E000072810D1032108A881726846017B0AA847
:1016F000C17006220EA96846FEF73EFD0AA80FC873
:1017000001F07AFE51E06846007B002817D10321E2
:1017100008A8817200210AA8C1706846C17A0AA887
:1017200001716846817A0AA8417106220EA96846AD
:10173000FEF722FD0AA80FC801F05EFE35E06846FC
:10174000007B082831D1FFF76BFF2EE01A480078A4
:10175000062827D10120184908706846407A0C28CD
:1017600023D16846007B082803D101F069FC1CE006
:101770001DE00C2108A881726846017B0AA8C1708F
:101780006846C17A0AA801716846817A0AA841713F
:1017900006220EA96846FEF7EFFC0AA80FC801F062
:1017A0002BFE02E001200449087003F00DFA10B08E
:1017B00010BD00000000002068010020FEB50546B5
:1017C0000E46082229466846FEF7D6FC002701246B
:1017D00004E06846005D4740601CC4B2062CF8DB9C
:1017E0006846877103F0F0F932460821684603F035
:1017F0002BFAFEBDF7B50C4615460027002D01D18A
:101800000120FEBDFFF75AFD002616E001E0781C1E
:1018100087B221680098FFF71BFD042801D00A2F2A
:10182000F5DB0A2F03DBFFF7E7FC0120E9E700986F
:10183000001D0090241D701C86B2E81CC117890F82
:1018400009188910B142E1DCFFF7D6FC0020D8E787
:101850001CB50121C80401F0F5FD012080030090B2
:101860000021684601710121C1716946014800F0FB
:1018700003F81CBD00080048F0B50A46002100230B
:10188000002400BF3DE001258D402B4615681D401A
:101890002C469C4234D11579012D02D01579022DA8
:1018A00016D185684F000326BE40B5438560557943
:1018B0004E00B540866835438560858801268E4098
:1018C000B5438580858896798E40B6B2354385804C
:1018D00005684F000326BE40B543056015794E00EC
:1018E000B540066835430560C5684F000326BE4015
:1018F000B543C560D5794E00B540C6683543C5606F
:10190000491C1029BFD3F0BDF0B5002300244D07BA
:10191000EE0E1546B5402B46CD10AE0005462035DF
:10192000AD594E07F70E0F26BE40B543CE10B60098
:1019300007462037BD51CD10AE003D46AD591D4381
:101940002C46CD10AD003E467451F0BD024600203D
:10195000138A0B40002B01D0012000E000207047CB
:10196000018570478161704770B50446632C02DDC4
:101970000020C04370BD0A212046FEF7E9FB06495E
:101980000D5C0A212046FEF7E3FB0348405C290278
:10199000084305B22846EDE7480000200349887A4D
:1019A0000102024A527B114308467047480000205A
:1019B0000349887A0102024A527C11430846704763
:1019C000480000200349087C0102024A127C1143AE
:1019D00008467047480000200349087B0102024A7C
:1019E000527C114308467047480000200349887B19
:1019F0000102024AD27B114308467047480000208A
:101A00000349887C0102024AD27B11430846704791
:101A1000480000200349C87C0102024AD27B1143DE
:101A200008467047480000200349C87C0102024A6A
:101A3000127D1143084670474800002070B50446E7
:101A4000632C01DD002070BD0A212046FEF780FBDB
:101A500006490D5C0A212046FEF77AFB0348405CEC
:101A60002902084305462846EDE70000480000200B
:101A700010B586B004461E4800681E4909688842B1
:101A80000ED1002069460870142100A80230FEF72C
:101A90008CFB162269462046FEF76EFB06B010BD91
:101AA0001348006816225043134A811816226846CC
:101AB000FEF762FB00210E480068162250430E4AD2
:101AC00011540B490968162251430B4A8918881C86
:101AD0001421FEF76AFB0648006804F027FC04495D
:101AE0000860162269462046FEF746FB00BFD5E790
:101AF0000400002008000020AC010020014630292D
:101B000005DB392903DC08463038C2B206E02A2951
:101B100001D10A2202E0232900D10B2201209040AA
:101B200003239B03984380B27047024611880846FE
:101B30007047000001480068704700001400002052
:101B400010B5024800F066F910BD000080010020C9
:101B500010B50020602110E04A1E52099300084A87
:101B6000D2584B1EDC06E40E0123A3401A40002A83
:101B700001D0421CD0B24A1CD1B26429ECDB10BDAA
:101B800038090020F1B58AB0002509A800F042F814
:101B90006846808C002801D10BB0F0BDFFF7D8FF5C
:101BA0000446002C00D1F7E7002620E05F20FFF775
:101BB000ABFB0546681C002801D05F2D01DC00202E
:101BC000EAE7E8B201A902F049FC6846C0790328B7
:101BD0000BD16846817A01A8C0790002081887B243
:101BE0000A98874201D12846D6E7701C86B2A642E1
:101BF000DCDB0020D0E770B505460024284600F065
:101C00003DF80446002C03D12846FFF7BBFF0446ED
:101C1000204670BD7FB5044615A103C9019100900F
:101C200015480078012801D0FFF77AFA02F0CCFFBE
:101C300000200290039001216846FFF7BFFD7D223E
:101C4000D200082102A802F0C9FF85B2082D0DDBE1
:101C50006846007B002809D16846807A0102684600
:101C6000C07A08182080002004B070BD0120FBE776
:101C7000F5090000000009F568010020F1B58AB0FF
:101C8000002609A8FFF7C6FF6846808C002801D10E
:101C90000BB0F0BD00F040F80446002C00D1F7E78F
:101CA00000251DE03046FFF7F7FB0646701C0028B4
:101CB00000D1EDE7F0B201A902F0D0FB6846C0798F
:101CC00003280BD16846817A01A8C0790002081860
:101CD00087B20A98874201D13046D9E7681C85B29D
:101CE000A542DFDB0020D3E710B5012189030248BC
:101CF000FFF72CFE10BD00000008004810B5FF21C2
:101D000001310920C006FFF721FE10BD01480088FF
:101D10007047000000E8000810B50020012110E025
:101D20004A1E52099300084AD2584B1EDC06E40EA4
:101D30000123A3401A40002A01D0421CD0B24A1C01
:101D4000D1B26029ECDB10BD3809002010B5FF24AA
:101D5000012001F0A5FA012831D1000302F0B8F901
:101D6000012801D104242EE004F0ECF8012804D16C
:101D7000022416A003F05CF825E004F0DDF9002849
:101D80000CD10121C9020920C006FFF7DFFD0028A0
:101D900004D0002411A003F04BF814E00121C90283
:101DA0000920C006FFF7D2FD00280CD104F0C4F9C9
:101DB000002808D101240DA003F03AF803E0032421
:101DC0000EA003F035F8204610BD000066696E676E
:101DD00065725F77616B6575700D0A00746F75636E
:101DE000685F77616B6575700D0A000062757474C9
:101DF0006F6E5F77616B6575700D0A007379737430
:101E0000656D5F72657365745F77616B6575700D85
:101E10000A00000001468868002800D17047488801
:101E2000C0B2FBE710B50020012110E04A1E5209A4
:101E30009300084AD2584B1EDC06E40E0123A3404F
:101E40001A40002A01D0421CD0B24A1CD1B26429E7
:101E5000ECDB10BD3809002070B505460E46022D9A
:101E600001D1094C05E0012D01D1084C01E0002011
:101E700070BD002E03D00120A168884702E0002039
:101E8000A16888470120F3E73800002028000020DF
:101E900010B5012149030248FFF764FD10BD0000A1
:101EA0000008004810B5012149030248FFF758FD1A
:101EB00010BD000000080048F8B506460F46022E87
:101EC00001D1144C05E0012E01D1134C01E000209A
:101ED000F8BD072519E00120A8403840002803D0AC
:101EE00001202168884702E00020216888470120FE
:101EF00003F082FC002061688847012003F07CFC2D
:101F0000012061688847681E45B2002DE3DA012090
:101F1000DEE70000380000202800002070B50446ED
:101F20000D46022C03D1012C01D1002070BD0021EF
:101F30002046FFF791FFE9B22046FFF7BDFF2804D6
:101F4000010E2046FFF7B8FF01212046FFF784FF6E
:101F50000120EBE770B504460D46022C03D1012C9D
:101F600001D1002070BD00212046FFF775FFE9B2C6
:101F70002046FFF7A1FF2804010E2046FFF79CFF33
:101F800000212046FFF798FF01212046FFF764FF5C
:101F90000120E7E770B505460E46022D01D10B4C36
:101FA00005E0012D01D10A4C01E0002070BD0020A8
:101FB000A168884700F0B4FA31462846FFF77CFF55
:101FC0000120A16888470120F0E7000038000020C8
:101FD000280000201CB50446012040030090012188
:101FE000684601710321417100218171C171012194
:101FF000C80401F027FA69462048FFF73DFCFFF7C7
:1020000047FF02202040002819D00121880401F058
:1020100019FA0F200003009069461948FFF72CFCBD
:10202000012149031648FFF79BFC0121C90314480D
:10203000FFF796FC012109031148FFF791FCE00727
:10204000C00F00280FD00121480401F0FBF9F02057
:10205000009069460920C006FFF70EFC20210920E8
:10206000C006FFF77DFC07490120FFF757FF00215D
:102070000220FFF78FFFFFF715FF1CBD0008004887
:1020800000040048FF3F000010B5FEF783FCFEF798
:10209000C3FC10BD70B504460D46164600200C4921
:1020A00048700846C66085604460002C04D14078C2
:1020B0000421084306494870FFF73CFD40000449ED
:1020C000086108464078022108430149487070BD04
:1020D0003801002070B505462B480078002851D102
:1020E000294840780221084000284BD0FFF722FD04
:1020F000440025480069A04244D823484078C007DE
:10210000C00F002817D02048C06800191E49086178
:1021100008464078400840004870FEF7F9FC1A482D
:1021200040780421084000282CD117484068401E00
:102130001549486026E01448406800280CD1124830
:10214000407804210840002806D10F484078022139
:1021500048400D49487015E00B48806800190A494D
:102160000861084640780121084307494870FEF796
:10217000D7FC0548407808210840002802D00120FB
:102180000149487070BD000038010020F8B50446D0
:102190000D4616461F461548844203D101201449B6
:1021A000087609E01348844203D1012010490876DB
:1021B00002E000200E49087600200D4948700846CC
:1021C000C760866045608482002D04D14078042178
:1021D000084307494870FFF7ADFC05490861084608
:1021E00040780221084302494870F8BDFF7F000093
:1021F00080000020FFBF000010B500200949487092
:10220000C820C86088600120486007488882FFF7BE
:1022100091FC0449086108464078022108430149BD
:10222000487010BD80000020FFBF000070B505465B
:102230000C460020254908762B0002F036FE0910D6
:10224000061D44324444443D440001201F49487067
:1022500008468482818A0120FFF760FE34E0002076
:102260001A49487008468482C08AC8820846818A12
:102270000120FFF753FE27E0002014494870322068
:10228000C86088600120486008468482FFF752FCDD
:102290000E49086108464078022108430B494870FE
:1022A00012E0062009494870C820C86088600020F4
:1022B00048600846848207E00448407808210843C3
:1022C0000249487000E000BF00BF70BD80000020E0
:1022D00010B5002009494870C820C86088600120F6
:1022E000486007488882FFF725FC044908610846D2
:1022F0004078022108430149487010BD8000002049
:10230000FF7F000010B5022300220249024803F0BB
:102310006BFE10BD1D230008AC08002070B50546FB
:102320005048007800287DD14E484078022108406E
:1023300000285ED0FFF7FEFB04464A480169A1422F
:1023400057D84078C007C00F002828D04548C0683B
:102350000019444908610846407840084000487028
:102360000846007E002804D03F490120FFF7D6FD33
:1023700004E03C48C18A0120FFF7D0FD394840788D
:1023800004210840002834D136484068401E3549B1
:1023900048600846406800282BD1087629E031487B
:1023A000406800280CD12F484078042108400028BC
:1023B00006D12C484078022148402A49487018E04C
:1023C000284880680019274908610846407801219B
:1023D0000843244948700846818A0120FFF79EFD82
:1023E0002048407808210840002802D001201D49DB
:1023F00048701C48407810210840002830D0FFF772
:1024000099FB044617480069A04229D8154840782E
:10241000C007C00F002813D0124840784008400081
:10242000104900E01CE04870084640781021484000
:102430000C4948700846C18A0120FFF76FFD0FE084
:10244000084880680019074908610846407801215A
:102450000843044948700846818A0120FFF75EFD61
:1024600070BD000080000020FF3F000070B50546F1
:102470000C462B0002F019FD0910061B42304242A7
:10248000423B420001201F49487008468482818AED
:102490000220FFF75FFD32E000201A494870401E1D
:1024A00088820846818A0220FFF754FD27E0002039
:1024B000144948709620C8608860C8204860084663
:1024C0008482FFF737FB0F490861084640780221F4
:1024D00008430C49487012E006200A4948709620CB
:1024E000C8608860002048600846848207E005488C
:1024F0004078082108430349487000E000BF00BF4E
:1025000070BD00006000002010B532230022024997
:10251000024803F069FD10BDB125000894080020B1
:1025200010B52248407802210840002805D11F48F4
:1025300040780421084000281DD01C484078C0077E
:10254000C00F00280BD01948017D0220FFF7B4FC12
:102550001648808A01120220FFF7AEFC25E0002019
:10256000002822D1FF210220FFF7A6FCFF21022034
:10257000FFF7A2FC19E00D484078C007C00F002803
:102580000BD00A48017D0220FFF796FC0748808A9D
:1025900001120220FFF790FC07E0FF210220FFF765
:1025A0008BFCFF210220FFF787FC10BD600000209C
:1025B00070B505462D480078002856D12B48407844
:1025C00002210840002850D0FFF7B4FA04462748FB
:1025D0000069A04249D825484078C007C00F0028AC
:1025E00019D02248C068001920490861084640787F
:1025F0004008400048701E490220FFF7ABFC1B4812
:1026000040780421084000282FD118484068401E17
:102610001649486029E01548406800280CD1134845
:10262000407804210840002806D110484078022153
:1026300048400E49487018E00C48806800190B4962
:102640000861084640780121084308494870084657
:10265000818A0220FFF77EFC044840780821084068
:10266000002802D001200149487070BD60000020A0
:10267000FFFF000000BFFEE738B5044601236A46AD
:102680002146B42000F0D4F8002802D06846007833
:1026900038BD00F0AFF80020FAE773B50446002516
:1026A000012301AA2146B42000F000F90546002DBF
:1026B00001D100F09FF828467CBD000010B504460B
:1026C000002C04D101210748FFF74AF903E001215A
:1026D0000448FFF747F900F007F801210148FFF728
:1026E00041F910BD0004004810B50A2003F084F839
:1026F00002210848FFF736F90A2003F07DF801218E
:102700000448FFF723F9044602210248FFF728F99D
:10271000204610BD000400481CB50121880400F0CB
:1027200091FE03200090012168460171032141714F
:10273000012181710021C17169460248FFF79CF8AF
:102740001CBD00000004004870B50024002509E00D
:102750006006040EFFF7C8FF002801D0601CC4B259
:10276000681CC5B2082DF3DB204670BD70B5044669
:10277000002513E080202040C611002E04D1012145
:102780000D48FFF7EDF803E001210B48FFF7EAF8E9
:102790006006040EFFF7A8FF681CC5B2082DE9DB30
:1027A000FFF7A2FF002803D000200449087002E0D0
:1027B00001200249087070BD00040048200000207C
:1027C00010B501210A48FFF7CDF802210848FFF7AC
:1027D000C9F80A2003F010F801210548FFF7C0F8F6
:1027E0000A2003F009F802210148FFF7B9F810BDEB
:1027F0000004004810B502210C48FFF7B1F8012190
:102800000A48FFF7ADF80A2002F0F6FF0221074858
:10281000FFF7A8F80A2002F0EFFF01210348FFF7B5
:10282000A1F80A2002F0E8FF10BD000000040048F3
:10283000FFB581B0064614461F46FFF7C1FF30467C
:10284000FFF794FF18480078002801D105B0F0BDCB
:102850000298FFF78BFF14480078002800D1F5E7B5
:10286000FFF7AEFF711CC8B2FFF780FF0E4800787B
:10287000002800D1EAE7002508E0FFF765FF207097
:102880000020FFF71BFF641C681CC5B2781EA8421D
:10289000F3DCFFF759FF20700120FFF70FFFFFF770
:1028A000A9FF0120D2E7000020000020FFB581B081
:1028B0000E4614461F46FFF783FF0198FFF756FFA9
:1028C00010480078002801D105B0F0BD3046FFF770
:1028D0004DFF0C480078002800D1F5E700250AE0FC
:1028E0002078FFF743FF07480078002800D1EBE786
:1028F000641C681CC5B2BD42F2DBFFF77BFF012000
:10290000E2E700002000002001480249086070470B
:10291000CCCC0000003000400148024908607047FC
:10292000AAAA00000030004001494860704700003A
:1029300000300040014988607047000000300040CE
:1029400001490860704700000030004010B507489A
:10295000FFF7F6FF0520FFF7E7FF0548FFF7EAFF5F
:10296000FFF7DAFFFFF7D0FF10BD0000555500005C
:10297000E204000010B5142213491448FDF7FCFBD3
:10298000124800881249884206D010480069FF2189
:1029900009020840002815D0002406E00021A2000A
:1029A0000A48001D8150601CC4B2042CF6DB0020D4
:1029B0000649887000F010F806480078002801D019
:1029C000FEF708FB10BD000000EC000834090020F1
:1029D000FFFF00006901002000B585B014220C49FA
:1029E0006846FDF7C9FB684600880A49884206D058
:1029F000FEF764FC0648FEF7BBFBFEF7FDFB01207B
:102A00000549088014220248FEF7F4FE05B000BD17
:102A100000EC0008FFFF00003409002038B5044630
:102A2000FFF77AFF042C0CD10025A00201F0C8FAB0
:102A300000F072F901E0681C85B272488542FADB49
:102A400038BD032C07D1FEF703FFFFF74DF900282F
:102A500001D102F039FF03F0BDFA02F097FEFEF754
:102A600083F80320FFF7B6FAFFF70EFBFEF7C0FD71
:102A7000FEF7B6FDFFF77EFF052C05D000210120F3
:102A8000FFF7D4FBFDF7DDFF022C03D0012C01D0B2
:102A9000002C34D1FFF73AF95B49884210D1162057
:102AA0005A4948705A490020FFF7E0FC5949012073
:102AB000FFF734FA00205849487000F01BFB45E04E
:102AC000FFF7B0F9002808D0FEF77CFF00906946B8
:102AD00009880120FFF7CAFC09E0FEF7A5FF009076
:102AE000694609880120FFF7C1FCFDF7E9FF00F006
:102AF000A9F9054629460120FFF7B8FC26E0032C7A
:102B000021D1FFF78FF9002808D0FEF75BFF009076
:102B1000694609880120FFF7A9FC09E0FEF784FF58
:102B20000090694609880120FFF7A0FCFDF7C8FF67
:102B3000142036494870FEF745FF05462946012016
:102B4000FFF794FC02E000203049487001F088F95A
:102B500000F00AFF002C07D1684601F0ADF803F041
:102B6000EDFB2EA002F064F9FFF7D6FD03F0ECFABE
:102B7000FFF7CAFCFFF7C6FBFEF77CF801F0F8FE92
:102B800001F0B4FE00F09EFA00F01AFC032C12D102
:102B90005D2000F0D9FD002804D000F0A7FC23A0A0
:102BA00002F046F9FFF7B2F81749884201D1FEF763
:102BB0009DFAFFF7CBFE022C05D0012C03D0002C90
:102BC00001D0032C08D11D48FEF7AFFF1049884201
:102BD00002D01A48FEF796FA032C11D000252146A0
:102BE00017A002F025F904E0681CC5B2012002F02C
:102BF000E3FD03F0A1FA002801D1642DF4DB00BF4E
:102C000000BF1DE788130000885500009C000020CD
:102C1000FFFF0000FFBF0000800000207363616EB3
:102C20002E2E2E2E2E2E2E0D0A00000069776467A0
:102C30002072657365740D0A0000000000E400084E
:102C40006D6F64653A2025640D0A00001CB50121F2
:102C5000480400F0F7FBFF20013000900021684697
:102C600001710121C17169460920C006FEF704FE09
:102C70001CBD10B5FF20A530FDF78CFFC820FDF767
:102C80009DFF0A2223210120FFF704FA10BD000056
:102C900010B500240AE0012002F0AEFD601C84B2F1
:102CA000FF20F530844201DD002010BD03F044FA1E
:102CB0000028F0D003F006FAFEF78AFC012000F0AD
:102CC000BFFA012000F0FEFB002000F0FBFB01201A
:102CD00000F05EFD002404E0012002F08DFD601C88
:102CE00084B2412000F030FD002801D1642CF3DBD8
:102CF00001F078F90121080200F0E0FA012000F06B
:102D0000B3FA72B603F018FA002801D000F0B6FA50
:102D10000048CAE7FFFF000070B5002506E0681C08
:102D200085B23648854201DD002070BD03F004FA0B
:102D30000028F4D0FEF7E2FF002825D13048FEF746
:102D4000F4FE04462F49884200D10024641C214629
:102D50002DA002F06DF8062C0BD101202F49087030
:102D600000F00EF9641CA1B2254802F031F80120F0
:102D7000DBE7072C07D2214629A002F059F8A1B2BF
:102D80001F4802F025F80BE01D48FEF7CEFE1D4956
:102D9000884205D027A002F04BF81948FEF7B2F997
:102DA000FEF716FC012000F04BFA012000F08AFB30
:102DB000002000F087FB012000F0EAFC002501E084
:102DC000681C85B2412000F0BFFC002803D17D20A3
:102DD000C0008542F4DB01F005F90121080200F092
:102DE0006DFA012000F040FA72B603F0A5F9002850
:102DF00001D000F043FA034897E700008813000071
:102E000000E40008FFFF000074696D65436F756E94
:102E10007431203D2025640D0A000000C40000200C
:102E2000777269746520256420746F20666C617305
:102E3000680D0A006C6F636B2072656C6561736569
:102E40000D0A000010B509480078002801D000F0F4
:102E5000F7F8002006490870064802F047FF0320F3
:102E600005494870FEF7AEFD10BD00006901002065
:102E7000C1000020F00700209C00002010B507488A
:102E80000078002801D000F0DBF8054802F02EFFA2
:102E9000082004494870FEF781FD10BD690100203B
:102EA000F00700209C00002010B50748007800289B
:102EB00001D000F0C5F80D2004494870FEF7A0FDD0
:102EC0000446204610BD0000690100209C0000203F
:102ED00010B507480078002801D000F0B1F80A20AA
:102EE00004494870FEF78CFD0446204610BD0000E2
:102EF000690100209C00002010B5FEF7D3FFFEF70B
:102F000075FD044621460120FFF7B0FA0C49012067
:102F1000FFF704F8FDF776FE0A490120FEF7FEFFF1
:102F2000FEF7B6FFFEF706FE07494018074908609E
:102F300015200749487001200649087010BD00009F
:102F4000FF7F0000FF3F000030750000B800002048
:102F50009C0000203801002010B5064800780028A9
:102F600001D0FEF75DFB044802F0C0FE06200349D5
:102F7000487010BD69010020F00700209C0000206F
:102F800010B505242046FFF749FDFEF7D3FD09499A
:102F9000401809490860C82211460020FFF77AF856
:102FA000C8231A4600210548FFF7F0F804A001F0F5
:102FB0003FFF10BD88130000B4000020FF7F000019
:102FC0002E2E2E2E2E2E2E2E2E2E0D0A000000001E
:102FD00010B507490978042903D10D21054A11705C
:102FE00002E00A21034A1170FEF70AFD10BD00003D
:102FF0009C000020C000002010B504463420FEF7DD
:10300000B1F82046FEF7B4F810BD10B5FEF702FD8A
:10301000044621460120FFF729FAFDF7F3FDFFF7EB
:1030200037FE10BD10B5FEF7FFFC04462146012017
:10303000FFF71CFAFDF744FDFFF72AFE10BD000064
:103040001CB50AA103C9019100900A480078012823
:1030500001D0FEF765F801F0B7FD062005490870BC
:1030600000216846FEF7AAFB1CBD0000F50C00001D
:1030700000000CF56801002010B503218902044806
:10308000FEF770FC0121C9020148FEF769FC10BD82
:103090000004004810B5032189020448FEF762FCD1
:1030A000012189020148FEF75BFC10BD00040048C5
:1030B00010B5032189020248FEF754FC10BD000040
:1030C000000400481CB50121880400F0BBF903206E
:1030D00080020090012168460171032141710021A5
:1030E000817169460248FEF7C7FBFFF7E1FF1CBD8F
:1030F0000004004810B5FF20F530FDF74BFDE62039
:10310000FDF75CFDFDF70CFD782002F055FBFDF7A7
:10311000FFFC282002F050FBFF20A530FDF73AFD10
:103120006420FDF74BFDFDF7FBFC782002F044FB2B
:10313000FDF7EEFC182002F03FFBFF206930FDF7A1
:1031400029FD8220FDF73AFDFDF7EAFC782002F028
:1031500033FBFDF7DDFC502002F02EFBFF20C330D7
:10316000FDF718FD8220FDF729FD00200149487078
:1031700010BD000038010020704700000021827857
:10318000002A27D0184A03231B02D21803789B1069
:103190009B00D15802789207D30EFF229A400B462B
:1031A0009343194642789207120E03789B07DB0E71
:1031B0009A4011430C4A03231B02D21803789B1038
:1031C0009B00D1500278D306DB0E01229A40064BB9
:1031D0001A6007E00278D306DB0E01229A40024B08
:1031E00080331A607047000000E100E010B5FF2056
:1031F0007D30FDF7CFFC8220FDF7E0FCFDF790FC71
:10320000282002F0D9FAFDF783FC502002F0D4FA0E
:10321000FDF786FC282002F0CFFAFDF779FC50205C
:1032200002F0CAFAFF20A530FDF7B4FCC820FDF774
:10323000C5FC00200149487010BD00003801002085
:10324000002807D007490968FF2201321143054AC7
:10325000116006E003490968FF2201329143014AE7
:1032600011607047007000400349096882001143F3
:10327000014A116070470000007000400648006875
:1032800002210843044908600448006904210843F6
:103290000249086130BF70470070004000ED00E057
:1032A00001460020044A52680A40002A01D0012049
:1032B00000E000207047000000700040002905D0A9
:1032C000054A52680243044B5A6004E0024A5268BD
:1032D0008243014B5A607047007000400FB430B514
:1032E00085B014220BA96846FCF746FF2C49087AE2
:1032F00008A90EC9FDF724FBFFF7FCFEFEF77CFFD3
:103300002748007A602813DB2548007A64280FDA02
:10331000FEF71EFC042802DBFFF777FE17E005200E
:103320001F494870097A48B2FEF73EF804460EE09D
:10333000FEF7F2FC5F2802DBFFF767FE07E00420E0
:1033400017494870097A48B2FEF7F4F8044600209D
:1033500014490870601C002802D1FEF7EBF80446FF
:10336000601C002806D00E490C72087AFEF766FB36
:1033700005460CE064200A490872FEF74BFB05463F
:10338000FDF75FFBFEF7A4FF07A001F051FD294602
:103390000420FFF76BF805B030BC08BC04B0184738
:1033A0009C000020C100002073797374656D206556
:1033B00072723F3F3F3F0D0A00000000704700005F
:1033C00010B500200749487288720223002206497E
:1033D000064802F009FEFEF7ADFB05494018054915
:1033E000086010BD9C0000203D630008C408002058
:1033F000C4090000B40000200FB410B50E480068E6
:1034000002F094FF0D490968884203D110BC08BC42
:1034100004B018470849096816225143084A881819
:10342000162202A9FCF7A8FE0348006802F07EFFFE
:103430000149086000BFE9E70800002004000020FF
:10344000AC010020002905D0054A52690243044B13
:103450005A6104E0024A52698243014B5A61704743
:1034600000100240002905D0054AD2690243044BEE
:10347000DA6104E0024AD2698243014BDA617047A3
:1034800000100240002905D0054A92690243044B0E
:103490009A6104E0024A92698243014B9A61704743
:1034A00000100240002905D0054AD2680243044BAF
:1034B000DA6004E0024AD2688243014BDA60704766
:1034C00000100240002807D00749096A01221204AF
:1034D0001143054A116206E00349096A01221204F8
:1034E0009143014A11627047001002400348406A4C
:1034F0000121090608430149486270470010024053
:10350000FEB50446002500260020029001900090A0
:103510000027864840680C2108400546002D06D04B
:10352000042D07D0082D08D00C2D2CD128E0804880
:1035300020602BE07E48206028E07C4840680F2116
:10354000890408400646794840680321C9030840B9
:103550000290B00C861C0298002803D175483746AB
:1035600047430BE07148C06A0007000F401C019000
:103570006F480199FCF7D6FD70430746276005E0C8
:103580006D48206002E06A48206000BF00BF6748C5
:103590004068F021084005462D096848405D0090CC
:1035A00020680099C84060606048406807210902AF
:1035B000084005462D0A6148405D0090616800980A
:1035C000C140A1605948006BFF2101310840884289
:1035D00002D05B48E0600DE0544840680121890357
:1035E0000840884203D0A0684008E06002E0A0687C
:1035F0008008E0604D48006B40210840402802D020
:103600005048206102E00120C00320614748006B60
:1036100010210840102802D04548606101E0206870
:1036200060614248006B8007800F002802D1A068CB
:10363000A06119E03D48006B8007800F012802D18E
:103640002068A06110E03948006B8007800F0228D5
:1036500002D18003A06107E03448006B8007800F2F
:10366000032801D13248A0613048006B03210904CE
:103670000840002802D1A068E06120E02B48006BE0
:1036800003210904084001210904884202D120686D
:10369000E06114E02548006B032109040840012182
:1036A0004904884202D18010E06108E01F48006BA5
:1036B000032109040840884201D11D48E0611B48EC
:1036C000006B032189040840002802D1A068206211
:1036D00020E01648006B0321890408400121890479
:1036E000884202D12068206214E01048006B032158
:1036F000890408400121C904884202D100112062D6
:1037000008E00A48006B032189040840884201D17F
:10371000074820620548006B80210840802802D0BD
:103720000548606200E06762FEBD000000100240D4
:1037300000127A0000093D00006CDC026A010020E2
:10374000809FD5001280000010B5024600210023A2
:1037500000205111002902D10C4C23680BE00129F3
:1037600002D10A4C236A06E0022902D1074C636A9F
:1037700001E0064C636BD106C90E01248C401C404D
:10378000002C01D0012000E0002010BD00100240FC
:10379000002806D00649496A01221143044A5162B1
:1037A00005E00349496A49084900014A51627047E6
:1037B00000100240002807D00749096A0122D203FD
:1037C0001143054A116206E00349096A0122D20346
:1037D0009143014A11627047001002400249096A90
:1037E0000143014A116270470010024070B588B071
:1037F0000546932168460172702141720021817350
:1038000000240BE0295D02AAA01C11546946887BA4
:10381000295D484069468873601CC4B2042CF1DB02
:1038200003AA0332072102A800F018F8082108466D
:1038300000F049F807A802AB092202A900900C2069
:1038400000F044F90646002E04D16846007F18288F
:1038500000D100E00226304608B070BDF7B507463B
:1038600015460421052000F02EF80021012000F06B
:10387000D3F880210B2000F09BFA002405E0395D8D
:10388000092000F0C9F8601CC4B201988442F6DB3C
:103890000321012000F0C0F8FF2400BF052000F044
:1038A0009FF80646601EC4B2002C03D004203040AE
:1038B0000028F3D0222000F093F82870212000F097
:1038C0008FF86870FEBD70B505460C460026284688
:1038D00000F086F806463046A0430146284600F030
:1038E0009BF870BDF0B585B004460F46FF22142149
:1038F0006846FCF753FC6946262000F09CF9054613
:10390000002D02D0022005B0F0BD69460E783002CD
:1039100049780843064601208002864202D10020F1
:10392000207008E001204002864202D10120207070
:1039300001E0FF202070684600F090F80546002D59
:1039400001D00220DFE76846FFF750FF0546002D53
:1039500001D00220D7E700F057F904226946384623
:10396000FCF70AFC0020CEE710B500F095F9012025
:1039700001F042FF00F098F9012001F03DFF00F056
:103980008BF9012001F038FF0F21012000F044F8ED
:10399000012001F031FF3D21112000F03DF81E21F2
:1039A0002D2000F039F800212C2000F035F88D2171
:1039B0002A2000F031F83E212B2000F02DF8402184
:1039C000152000F029F800F043F8142300220249E2
:1039D000024802F009FB10BDB93C0008480D002068
:1039E00070B5044640210B48FDF7BAFF062001F0F0
:1039F00003FF60007E21084004468034204600F02A
:103A000005FA00F0E5F9054640210248FDF7AAFF56
:103A1000284670BD0004004870B504460D4640219C
:103A20000A48FDF79DFF062001F0E6FE60007E21BA
:103A300008400446204600F0E9F9284600F0E6F97F
:103A400040210248FDF78EFF70BD000000040048D1
:103A500010B503211420FFF736FF10BDF0B587B075
:103A60000546002708210846FFF72DFF00210D20FD
:103A7000FFF7D2FF80210E20FFF725FF9321684634
:103A800001712021417106A801AB022201A9009019
:103A90000C2000F01BF80646002E10D1002407E091
:103AA00001A8005D285501A8005D4740601CC4B214
:103AB000042CF5DB01A8005DB84200D0022680216D
:103AC0000E2000F075F9304607B0F0BDFFB583B0A9
:103AD0000646022002900020019000900E2E04D194
:103AE000122001901020009005E00C2E03D17720C9
:103AF000019030200090802201981043014602205E
:103B0000FFF78AFF80210420FFF7DDFE002101205E
:103B1000FFF782FF80210A2000F04AF9002506E025
:103B20000498415D0920FFF777FF681C85B205986E
:103B30008542F5DB31460120FFF76EFF0C2E03D1E5
:103B400080210D2000F034F97D252D0100BF0420D7
:103B5000FFF746FF0446681E85B2002D07D0E00738
:103B6000C00F002803D1009820400028EFD080210A
:103B70000D20FFF7A8FE002D3BD00620FFF730FFF9
:103B80001B210840002832D1029001982040C00734
:103B9000C00F002801D0012002900C2E29D10A204C
:103BA000FFF71EFF04460C20FFF71AFF47077F0FA1
:103BB000002F06D0601EC000C019C1B20C98017061
:103BC00003E0E006010E0C980170002C00D10124E6
:103BD000122C00DD1224002506E00920FFF700FF6B
:103BE00006994855681C85B2A542F6DB01E0022023
:103BF000029080210C2000F0DBF800210120FFF76B
:103C00000BFF029807B0F0BD00B587B050216846A1
:103C1000017100214171821D022101A8FFF71EFEE2
:103C200006A801AB042201A900900C20FFF74EFF6B
:103C3000002007B000BD70B588B005460C460821CD
:103C40000846FFF740FE07210D20FFF7E5FE0321A0
:103C5000142000F0ADF86846057207A802AB0122F7
:103C600002A900900C20FFF731FF0646002E0AD172
:103C70006846007F102806D16846007A20706846A2
:103C8000407A607000E00226304608B070BD10B582
:103C900000F002F810BD000010B580210148FDF7CA
:103CA00061FE10BD0004004810B580210148FDF7F9
:103CB00057FE10BD0004004810B58CB0044600202B
:103CC0000B9036484078C01E030001F0EEF80B0858
:103CD0006262073109620A62620B620000BF00BFC4
:103CE00000BF00BF09A90BA8FFF7FCFD00281ED1EB
:103CF000029008A9087202A909A8FCF775FA002821
:103D000014D027A001F094F8032069460873052217
:103D100009A903A80230FCF72FFA062207A9684672
:103D2000FCF72AFA03A80FC8FFF766FB00BF31E0D3
:103D30001E480078032800D02CE01C480078032897
:103D400026D109A90BA8FFF7CDFD002820D10290AC
:103D500008A9087202A909A8FCF746FA002816D09B
:103D6000032069460873052209A903A80230FCF75D
:103D700003FA062207A96846FCF7FEF903A80FC854
:103D8000FFF73AFB1E2250210120FEF783F900BF06
:103D900000E000BF00BF0CB010BD00009C00002080
:103DA0007363616E206F6B0D0A000000E508002050
:103DB00070B505460C4600262846FFF711FE06465C
:103DC0003046204301462846FFF726FE70BD00001E
:103DD00070B50024002513E008210B48FDF7C0FD55
:103DE0006006040E0848008A10210840002801D00F
:103DF0000120044308210448FDF7B4FD681CC5B246
:103E0000082DE9DB204670BD0004004870B504466B
:103E100000251BE008211148FDF7A2FD802020406D
:103E2000002804D020210D48FDF79CFD03E020214F
:103E30000A48FDF795FD6006040E08210748FDF7C6
:103E400091FD062001F0D8FC681CC5B2082DE1DB0D
:103E500020210248FDF784FD70BD000000040048E9
:103E60001CB501218804FFF7EDFA012168460171B4
:103E700068200090002168468171C1710321417161
:103E800069461748FDF7F8FC08211548FDF768FD5D
:103E900020211348FDF764FD40211148FDF762FD24
:103EA00001216846017180200090002168468171DF
:103EB000C1710321417169460948FDF7DDFCFFF737
:103EC000F3FE002168460171102000906846817160
:103ED000C1710321417169460148FDF7CDFC1CBD4C
:103EE0000004004810B503211420FFF761FF10BD46
:103EF00038B502460024009400230020CA24174D40
:103F00006C6253246C62002905D02C46A4681443CB
:103F1000AC6001201DE0114CA46894430F4DAC60CF
:103F200000BF0E4CE468150A2C402346009C641C1C
:103F300000940125AD03009CAC4201D0002BF0D0D1
:103F4000064CE468150A2C40002C01D1002000E04A
:103F50000120FF24014D6C6238BD000000280040A4
:103F600030B503460020CA24064D6C6253246C62AF
:103F700014060C432046034C40346060FF246C62FE
:103F800030BD000000280040014600BFF02008407E
:103F900000110A23584302460807000F8018C0B2D8
:103FA00070470146002204E0501CC2B208460A389D
:103FB000C1B20A29F8DA1007000E08437047000062
:103FC00010B50021010980220A4392B2D243044B6A
:103FD000DB68802423401A43014BDA6010BD0000E7
:103FE0000028004000B589B001204002FFF7F6FB31
:103FF0000120FFF7DFFB00F0FBF9002006907F2097
:104000000790FF202C30089006A800F0EDF8002162
:104010006846C172017241728172312101750020BE
:104020000490C807039002AAC10D012000F008F90E
:104030000F2201210802FFF793FF0121080300F07E
:10404000A1F801210802FFF753FF00216846C17162
:1040500001714171817101A9012000F05DF909B080
:1040600000BD000008B50022009200200021124A85
:10407000D26840231A40002A1BD1421E0E4BDA6040
:1040800000BF0D4AD26840231A401146009A521CC4
:1040900000921B02009A9A4201D00029F1D0064AF0
:1040A000D26840231A40002A01D0012002E00020FB
:1040B00000E0012008BD0000002800400348C0685F
:1040C000802188430149C8607047000000280040F3
:1040D00070B501460020002200230F4C24680425FF
:1040E0002C4022460C4C403CA4680C408E0C0D46E3
:1040F000F540ED0B15402C432346074C403CE4684B
:104100000D092C402246002B04D094B2002C01D083
:10411000012000E0002070BD4028004010B50120C3
:104120008003FFF7D5FF00280BD00DA000F080FE24
:1041300001208003FFF744FF01204004FCF7A2FFA9
:104140000CE001200003FFF7C3FF002806D009A000
:1041500000F06EFE01200003FFF732FF10BD0000EB
:1041600077616B65757050696E20697320776F7227
:104170006B0D0A00616C726D4120697320776F725C
:104180006B0D0A0010B5CA22164B5A6253225A62AE
:10419000002911D01A46926804240346A3431A4307
:1041A000104B9A600F4A40321268042303401A43AE
:1041B0000C4B40331A6010E00A4A9268042403460C
:1041C000A3439A43074B9A60064A4032126804237D
:1041D00003409A43034B40331A60FF22014B5A625B
:1041E00010BD00000028004030B504460025CA205C
:1041F0001249486253204862FFF734FF002800D17B
:1042000017E00E488068402188430C4988600846C2
:1042100080682168084309498860A06808610846E9
:104220000069A1880904084304490861FFF746FFB3
:104230000125FF2001494862284630BD0028004082
:10424000F8B5054614460026002D0ED13148806889
:1042500040210840002800D002E00020E07000BFAC
:10426000A068002800D11BE01AE02A48806840219D
:104270000840002804D02078FFF786FE064602E0BA
:104280000020E07000BFA068002804D1207BFFF769
:104290007BFE064604E0207BFFF776FE064600BF65
:1042A000002D12D020780004617809020843A1781B
:1042B0000843E17809040843217B09060843A16803
:1042C000084361680843064619E02078FFF769FE55
:1042D00007046078FFF765FE00020743A078FFF748
:1042E00060FE0743E07800040743207BFFF759FE98
:1042F00000060743A0680743606807433E46CA209C
:1043000004494862532048620846C661FF2048625B
:10431000F8BD000000280040F8B505460C46002610
:1043200000200090002D0AD12F48806840210840CD
:10433000002800D002E00020E07000BF0EE02A4814
:10434000806840210840002804D02078FFF71CFE38
:10435000064602E00020E07000BF00BF002D0BD039
:1043600020780004617809020843A1780843E178C5
:1043700009040843064610E02078FFF712FE070400
:104380006078FFF70EFE00020743A078FFF709FEF2
:104390000743E078000407433E46CA2012494862BA
:1043A00053204862FFF75EFE002801D1009016E01E
:1043B0000E4830400C490860FFF780FE0A488068CC
:1043C00020210840002808D100F012F8002801D16F
:1043D000009004E00120009001E001200090FF2007
:1043E000014948620098F8BD002800407F7F7F00A7
:1043F00008B50022009200200021174A926820236D
:104400001A40002A01D0012025E0CA22124B5A622C
:1044100053225A621A46D268A0239A430E4BDA609E
:1044200000BF0D4AD26820231A401146009A521C40
:1044300000929B02009A9A4201D00029F1D0064ACC
:10444000D26820231A40002A01D0012000E0002079
:10445000FF22014B5A6208BD0028004070B5044697
:104460000E46002C01D0642C02DB0020C04370BD3E
:104470005F2C04DC601E40010749451804E020461B
:104480006038400105494518202229463046FBF78F
:1044900073FE2020EBE7000000F0000800FC00089D
:1044A00010B50CA000F0C4FC0E480068401C0D497B
:1044B000086008460068032802D3FEF71DFD05E0EA
:1044C000FEF7C0FCFCF7BDFAFDF702FF064801F05D
:1044D0000DFC10BD636F6D70617265206661696C63
:1044E0000D0A0000BC000020F007002010B50446B3
:1044F000002C06D004A000F09BFC204600F00CF835
:1045000001E0FFF7CDFF10BD636F6D706172652034
:104510006F6B0D0A0000000070B504460E4804726F
:104520000146087AFDF78AFA054629460120FDF77B
:104530009DFF0A490120FDF7F1FC00200849487061
:10454000FEF7D8FD122004494870064801F0CEFB62
:10455000FCF7E6FD70BD00009C000020FFBF0000DE
:1045600080000020F007002010B5FF207D30FCF710
:1045700011FB8220FCF722FBFCF7D2FA782001F035
:104580001BF9FCF7C5FA282001F016F9FCF7C8FA68
:10459000782001F011F9FCF7BBFA282001F00CF9A2
:1045A000FF20A530FCF7F6FAC820FCF707FB002037
:1045B0000149487010BD000038010020704700001C
:1045C0000CB500200190009011201D4908601D4885
:1045D00040681C4948600846406848600846406892
:1045E0007F21C90388431749486008464068052170
:1045F000C9040843134948600846006801210906B8
:1046000008431049086000BF0E48006801214906B0
:1046100008400028F8D00B4840688008800009490D
:10462000486008464068022108430649486000BFC8
:10463000044840680C2108400828F9D10CBD00004E
:10464000002002400010024010B50446002C01D0AA
:10465000012C04D103488470FEF7BEF900E010BDC0
:1046600000BFFCE7340900207047000010B51B486C
:104670000068012108431949086008464068184944
:104680000840164948600846006816490840134922
:104690000860084600680121890488430F490860C2
:1046A000084640683F21090488430C494860084691
:1046B000C06A00090001C8620846006BFF2154313E
:1046C0008843064908630846406B40084000486339
:1046D00000208860FFF774FF10BD0000001002404A
:1046E0000CB8FF08FFFFF6FE10B50121054800F0E9
:1046F0004CF8002805D00121024800F023F800F012
:1047000021F910BD0020004010B50121054800F03E
:104710003CF8002805D00121024800F013F800F011
:1047200053F910BD00040040002904D00288802302
:104730001A43028003E00288014B1A40028070474E
:104740007FFF0000CA43028270470000002904D0A6
:10475000028801231A43028003E00288014B1A40B9
:1047600002807047FEFF0000002907D04422125A41
:104770000123DB031A4344231A5205E04422125A50
:1047800053045B0C44221352704730B5024600209C
:1047900000230024158A0D402B4695890D402C4698
:1047A000002B03D0002C01D0012000E0002030BD00
:1047B000002A03D083890B43838102E083898B43E2
:1047C0008381704770B5002400220023058C1C4EA5
:1047D00035400584028C8388048B194D6F3D2C4035
:1047E000B51E2C400D882C43751E2A408D892A4306
:1047F0004D882A43134DA84208D0134DA84205D036
:10480000124DA84202D0124DA84212D10C4DED1FFC
:104810002A40CD892A430A4DED1E2A408D882A431D
:10482000074DFF3D2B400B4D2B400D8A2B434D8AEE
:104830002B43838004838D684563028470BD000030
:10484000FEFF0000002C01400040014000440140F8
:1048500000480140FFFD00000A460021018B034B88
:1048600019400B461343194601837047F7FF0000B8
:1048700000220288154B984206D001239B079842DC
:1048800002D0134B984203D1124B1A404B881A4363
:10489000114B984203D0114B1A400B891A430280E6
:1048A0004B68C3620B880385084B984208D00C4BB9
:1048B000984205D00B4B984202D00B4B984201D145
:1048C0008B7A03860123838270470000002C01400D
:1048D000000400408FFF000000100040FFFC0000BB
:1048E0000040014000440140004801401FB5C7207E
:1048F00002902F216846818000218181C1808173CF
:1049000001210802FEF7AEFD01A90D48FFF7B0FF37
:104910001321684601700221417001218170FEF768
:104920002DFC01210648FFF70DFF01221146044826
:10493000FFF73EFF01210248FFF708FF1FBD0000FF
:104940000020004010B508480068401C0649086077
:1049500006480068401C05490860034803F06EFEE5
:104960000148FCF78DF910BD180000201C00002044
:104970001FB5012002901249684681800021818183
:10498000C180817301210220FEF76CFD01A90D4851
:10499000FFF76EFF102168460170012141708170A0
:1049A000FEF7ECFB01210748FFF7CCFE0122114680
:1049B0000448FFF7FDFE01210248FFF7C7FE1FBDB7
:1049C0007FBB00000004004010B508480068401C90
:1049D00006490860FF21F53104480068FBF7A2FB97
:1049E000002901D1FDF798FF10BD00001400002040
:1049F00010B50749074800F039F8002806D00548E7
:104A000000F0D8F8C4B2204603F054FF10BD0000F7
:104A1000050105000038014010B50749074800F0BE
:104A200025F8002806D0054800F0C4F8C4B2204696
:104A300003F040FF10BD00000501050000440040E8
:104A4000002904D0026801231A43026003E00268CF
:104A5000520852000260704702460020D3690B40A2
:104A6000002B01D0012000E00020704770B5024605
:104A70000B4600240021002500201E04350ED9B26B
:104A800001268E403146012D02D11668314006E0E4
:104A9000022D02D15668314001E0966831401C0C6D
:104AA0000126A6403446D6693440002903D0002CA4
:104AB00001D0012000E0002070BD0000F0B58BB0F7
:104AC00004460D46002700200A9000262068400872
:104AD000400020606668032109033046884306468B
:104AE000A8680643666026682D480640E96868683D
:104AF00008432969084306432660A6680321090282
:104B000030468843064668690643A6606846FEF755
:104B1000F7FC2448844202D106980A900DE022480E
:104B2000844202D107980A9007E02048844202D1CB
:104B300008980A9001E002980A9020680121C903B0
:104B4000084000280CD029680A9A5000FBF7EAFABE
:104B5000074629680A9A5000FBF7E4FA0E4609E076
:104B600029680A98FBF7DEFA074629680A98FBF7D6
:104B7000D9FA0E4628684008B04200D87F1C206849
:104B80000121C9030840002806D03807460F3846DF
:104B90000749084030430746A7810BB0F0BD00002D
:104BA000F3E9FFFF003801400044004000480040A6
:104BB000F0FF00000146888CC005C00D7047CA0593
:104BC000D20D02857047000010B572B6024801F0A0
:104BD0008DF862B610BD000080010020F7B584B0EA
:104BE00004460F4600250698039024E0002002901A
:104BF0001CE013E072B601A9124801F0A1F80646C4
:104C000062B6012E00D10AE0684600792070641C6B
:104C10006D1CBD4202D3284607B0F0BDEAE700BFD5
:104C2000012000F0E9FD0298401C02907D21C9009E
:104C300002988842DDD30398411E03910028D5D104
:104C40002846E9E78001002070B504460D46164667
:104C5000094806700BE02178641C0848FFF7AFFF95
:104C600000BF40210548FFF7F7FE0028F9D028468D
:104C70006D1E0028EFD170BD0000002000440040F0
:104C800070B5FEF737FAFDF7B7FA3F48007802280B
:104C90000DD1FDF741F8002806D009203A494870A7
:104CA000FEF796F9044659E0FEF7BCF956E036489F
:104CB0000078042806D1092033494870FEF788F9A6
:104CC00004464BE030480078012815D1FDF724F860
:104CD0005F280EDA00202D490870FCF72BFC2A49CA
:104CE0000872087AFCF7AAFE044604202649487098
:104CF00034E0FEF78AF931E023480078032815D123
:104D0000FCF726FF04280EDA002020490870FCF783
:104D10004BFB1D490872087AFCF790FE04460520FB
:104D2000194948701AE0FEF770F917E01648007844
:104D3000052802D1FBF7B4FD10E0134800780628DF
:104D40000CD1172010494870FDF76CF80546FCF7A8
:104D500075FE044621460120FDF788FB0C4800F053
:104D6000C5FF09484078032808D00748407817282D
:104D700004D021460420FDF779FB03E02146012001
:104D8000FDF774FB70BD00009C000020C1000020F6
:104D9000F007002070B504460A2C01DB0F2C00DD63
:104DA00070BD084800F0A2FF0748047009200749B9
:104DB0004870FCF725FE054629460420FDF756FB02
:104DC00000BFEDE7F0070020C00000209C0000209D
:104DD00070B505460E46FCF771FA2846FCF7A5FEAD
:104DE0000949884202D02846FEF706F9314628468E
:104DF000FCF70CFA0446FCF7FFF9042C01D0002064
:104E000070BD0120FCE70000FFFF000010B5FCF7BB
:104E100055FA0548FCF7ACF904490348FCF7F6F9E4
:104E2000FCF7EAF910BD000000E800088855000012
:104E30000FB410B503A9044B044A029800F0FEF821
:104E400010BC08BC04B018477D5D00087C01002040
:104E50000FB41CB50A46521E0192009007A9064BDA
:104E60006A46069800F0EAF8009A002111701CBC0E
:104E700008BC04B018470000755700082021020C38
:104E800001D010211046020A01D01046083902094B
:104E900001D01046091F820801D01046891E420821
:104EA00001D0881E7047081A704730B47446641EDB
:104EB0002578641CAB4204D3635D5B00E31830BC0F
:104EC00018471D46F8E702E008C8121F08C1002A6B
:104ED000FAD170477047002001E001C1121F002A7B
:104EE000FBD17047F0B51FB484B007980699020D46
:104EF000014314D04A484B491018484305140F98F1
:104F000001280E981CD0281A401C0024464E474900
:104F1000009401910290002814DA474227E00F988C
:104F2000012443A3012808D0002104980F9A84602B
:104F30000360C260416009B0F0BD0E98C143F4E760
:104F40004042E2E7074612E0F80707D02246334620
:104F500001990098FBF742FA0191009022463346EE
:104F600010461946FBF73AFA04460E467F10002F0A
:104F7000EAD10298019B0028009A0799069802DA64
:104F8000FBF72CFA01E0FBF791FA04460E460022EB
:104F9000284BFBF723FB03D80020C043014607E062
:104FA0000022254B20463146FBF766F9FBF7F6FA5F
:104FB000102409E0002C0ADB0A220023FBF72BF95E
:104FC000059B30321A55641E02460A43F2D1112263
:104FD000641C059B121B1C190F9B012B03D0012382
:104FE00008430ED10AE0084304D011200E9000209F
:104FF0000F9084E70E98151A6D1E0BE00E988242F2
:1050000002DD00236D1C03E0824201DA00236D1EE5
:10501000002BEED004980F998260C16030C08AE7FF
:1050200001FCFFFF104D0000000024400000F03F95
:10503000300000000000F0430000E03FFFB597B0F3
:105040000646002518E2252877D100242746FD4989
:10505000049400E00443761C32780120203A90400A
:105060000842F7D130782A280ED002223078014643
:105070003039092916D804990A2359433039401880
:105080001443761C0490F1E7189802C80491189014
:10509000002904DA0120400304434842049002201E
:1050A0000443761C30782E2814D1042004437078F1
:1050B000761C2A2809D11898761C80C8189009E017
:1050C0000A214F43303FC719761C307801463039EA
:1050D0000929F5D930786C2810D006DC4C281AD074
:1050E00068280ED06A2817D104E0742813D07A28D3
:1050F00012D110E00120400504430CE00121090514
:1051000001E0032109050C437178814203D101209C
:1051100000052418761C761C3078119066280BD078
:1051200013DC58287DD009DC00287BD04528F6D038
:105130004628F4D047281AD1A5E118E0632835D0D5
:10514000642870D0652812D19DE170286CD008DCED
:105150006728F1D069287BD06E280DD06F2806D142
:10516000BAE073282ED0752871D0782859D01A9AB1
:10517000199990476D1C7EE16002400F022809D00A
:1051800003280DD00428189801680DD00D60001D6B
:10519000189070E11898EA1701680D604A60F6E708
:1051A000189801680D80F2E70D70F0E718986A46CC
:1051B00001781172001D18900020507202A8009012
:1051C000012005E0189802C8189000200091C04303
:1051D00061070DD5002101E00199491C0191B942F7
:1051E00012DA8142F8DB009A515C0029F4D10BE01D
:1051F000002101E00199491C01918142FADB019AE9
:105200000099895C0029F5D1019904981A9B471AE5
:1052100021463846199A00F097FA01994019451825
:105220000BE04FE02CE113E04EE00098009900788D
:10523000491C00911A9A199990470198401E0190B3
:10524000401CF2D1214638461A9B199A10E137E0EA
:105250000A200021009001916002410F022907D02D
:10526000189A01CA1892C2179446032908D00AE076
:105270001898C01DC108C90005C91891944607E0D7
:1052800000B2C2179446042902D140B2C1178C461D
:1052900000226146944506DA0A46002140429141C7
:1052A0008C462D2102E0210504D52B216A4611737D
:1052B000012103E0E10701D02021F7E7029155E049
:1052C0000A200AE0102008E01020009000210420AD
:1052D00004430191082703E0082000210191009078
:1052E0006002410F022907D0189A01CA18920022C1
:1052F0009446032908D008E01898C01DC108C900C9
:1053000005C91891944603E080B2042900D1C0B2C7
:1053100000210291210729D51199702906D0009A00
:105320001021019B4A401A4305D00EE040216A46F5
:105330001173012108E06146014306D030216A461D
:1053400011731199517302210291009A0821019B56
:105350004A401A430AD16146014301D1610705D58C
:1053600030216A46117301217F1E0291119958293B
:1053700004D035A10E910DA90D910DE037A1F9E7EB
:105380006146019B009AFAF746FF0E9B8C469B5C98
:105390000D9A521E0D92137061460143F0D10D9883
:1053A00005A9081A20300190600703D501200004E8
:1053B000844300E001270198874201DD381A00E0AC
:1053C0000020019900904118029809180498401A89
:1053D0000490E00306D421461A9B199A049800F021
:1053E000B3F94519002706E003A81A9AC05D199978
:1053F00090476D1C7F1C02988742F5DBE0030CD5BB
:1054000021461A9B199A049800F09EF9451904E068
:105410001A9A3020199990476D1C0099481E0090E7
:105420000029F5DC08E00D980D990078491C0D91D4
:105430001A9A199990476D1C0199481E01900029EC
:10544000F1DC63E10928010030313233343536377D
:1054500038396162636465660000000030313233C0
:105460003435363738394142434445460000000060
:1054700000F05AF94519761C3078002800D0E2E592
:1054800028461BB0F0BD600700D406271898C01D41
:10549000C108C90048680A680831C30FDB071891C2
:1054A000190001D09CA108E0210501D59BA104E0D1
:1054B000E10701D09AA100E09AA1430011985B088E
:1054C000109165280CD006DC452809D046281DD04F
:1054D000472841D141E0662818D067283CD13CE0FC
:1054E0000021112F01DB112000E0781C01910090B8
:1054F00008A911A8FFF7F6FC139905910021119A4C
:1055000015927F1C12980197009150E00120C0076E
:1055100003900120019008A9009711A8FFF7E2FC71
:10552000139A149905920022119B009212981593D8
:10553000059A0192002901D0104602E0791C40181A
:105540000190381A01D5019804E04042401E0090B5
:10555000781C0190C01B029043E0012F00DA012764
:105560000021112F01DD112000E03846019100904B
:1055700008A911A8FFF7B6FC13990591119A00210B
:10558000129815920091019721070CD40599B94200
:1055900001DB019900E00191012904DD159A491E02
:1055A000515C302906D0B84201DA011D05DA01212B
:1055B000029115E00199491EEDE7002805DC0099EC
:1055C000411800910199091A03E0019A411C914286
:1055D00000DD01910099401A401C02900120C00793
:1055E0000390200706D402990198814202DB002033
:1055F000C043029000206946C87707AF0121039895
:105600000337C907884224D0022011902B20129022
:10561000039800280CDA404203902D20129007E0F6
:105620000A210398FAF77EFD30317F1E039039700E
:105630001199481E11900029F2DC03980028EFD13F
:10564000791E129808703078202108404530BF1E1E
:10565000387006A8C01BC01D039010980078002861
:1056600000D00120019941180298C0170918039829
:1056700009180498401A401E0490E00306D42146FD
:105680001A9B199A049800F05FF845191098007851
:10569000002803D01A9A199990476D1CE00324D56D
:1056A00021461A9B199A049800F04EF845191CE0FF
:1056B0000098002807DB00990598884203DD1598BB
:1056C000405C199901E0199930201A9A9047009886
:1056D0006D1C401C00900298401E0290002804D1CE
:1056E0001A9A2E20199990476D1C0199481E019015
:1056F0000029DDDC05E038781A9A7F1C199990475B
:105700006D1C0399481E03900029F4DC21461A9B66
:10571000199A0498ACE600002D0000002B00000050
:105720002000000000000000F8B5044600251E46D9
:105730001746880404D405E039462020B0476D1C84
:10574000641EF9D52846F8BDFFB50446002581B092
:105750001E46C80301D5302700E02027880404D561
:1057600005E038460399B0476D1C641EF9D52846FC
:1057700005B0F0BD4A68002A06D00A68531C0B60C9
:1057800010704868401E48607047000008200021E3
:10579000064A9161042111610549087009787D224A
:1057A000D2005143034A11807047000000E000E03E
:1057B0000C0000200E00002001460D4A12884A43CA
:1057C000521E0C4B5A6100229A6101221A6100BFDD
:1057D000084A1069C207D20F002A04D0012212041D
:1057E0000240002AF4D00022024B1A619A617047ED
:1057F0000E00002000E000E001460D4A12784A4306
:10580000521E0C4B5A6100229A6101221A6100BF9C
:10581000084A1069C207D20F002A04D001221204DC
:105820000240002AF4D00022024B1A619A617047AC
:105830000C00002000E000E010B50446002C05D06C
:10584000012149030448FCF78DF804E001214903D4
:105850000148FCF785F810BD0004004810B5044667
:10586000002C05D00121C9030448FCF77BF804E0B3
:105870000121C9030148FCF773F810BD000400487A
:1058800010B50446002C05D0012109030448FCF79B
:1058900067F804E0012109030148FCF763F810BD33
:1058A0000004004810B50446002C05D001218903EE
:1058B0000448FCF757F804E0012189030148FCF78C
:1058C0004FF810BD0004004890B000F083FBFFF7D4
:1058D0005DFFFBF749F90320FCF77CFB0021012069
:1058E000FCF7A4FCFCF718FF00F02EFCFCF70CFE04
:1058F000FCF708FDFEF7B4FAFFF73AF8FEF734F8C4
:10590000FBF7B8F9FDF7DEFB00210420FCF7AEFD44
:10591000FBF797F8FDF71AF8002401200F900020FC
:10592000E349086051E0FCF705F9E2490860E24903
:105930000120FCF79BFDDF480068E04909688842C8
:1059400043D0DB480068401CD9490860D94800684A
:10595000DA49086000F06CFB01A8FCF789F818220E
:1059600001A907A8FAF708FC6846007F02280CD1B5
:105970006846807F232808D1D1490120FCF756FCD6
:1059800000210846FCF772FD20E0C9480068642841
:1059900004D1CC490120FCF749FC16E0C44800685A
:1059A000C82805D1C449C1390120FCF73FFC0CE0EF
:1059B000BF480068FF212D31884206D10021012017
:1059C000FCF734FC0020BA490860ACE700BF6EE188
:1059D000FCF7B0F8B749086008460068B74909689D
:1059E0008842F4D0B3480068B449086000F020FB56
:1059F00001A8FCF73DF8182201A907A8FAF7BCFB9B
:105A0000AB480068401CAA49086022460846016865
:105A1000ADA0FFF70DFA6846007F02286FD1002085
:105A2000A34908606846807F2A380300FFF73DFAE3
:105A3000105E666666666662091827323D484C51FC
:105A4000566600200D900F98002801D1012000E03B
:105A500000200F90012C02D001200F9001244DE076
:105A600000200D900E98002801D1012000E00020B8
:105A70000E90022C02D001200E9002243EE0002D58
:105A800001D1012000E000200546032C01D00125B2
:105A9000032433E0002D01D1012000E00020054661
:105AA000042C01D00125042428E0002D01D101207F
:105AB00000E000200546052C01D0012505241DE04D
:105AC000062C00D0062419E0072C00D0072400BFC4
:105AD00014E0082C00D0082400BF0FE0092C04D0EB
