:020000040800F2
:1000000008100020CD000008ED2500084D1E000856
:1000100000000000000000000000000000000000E0
:10002000000000000000000000000000A9370008E8
:100030000000000000000000E1260008A5380008CC
:10004000FD00000800000000D9330008FD00000892
:10005000FD000008FD000008E90D0008EB0D000898
:1000600000000000FD000008FD000008FD00000881
:10007000FD000008FD000008FD0000080000000071
:1000800025390008FD000008FD000008FD000008FB
:10009000FD000008FD000008FD000008FD0000084C
:1000A000FD000008FD000008FD000008FD0000083C
:1000B000FD000008FD0000080348854600F0EEF84A
:1000C00000480047F5440008081000200C4880F361
:1000D00008880C480168090E0B4A914205D10B486B
:1000E0000B4901600B480C4901600C4880470C48E3
:1000F0000047FEE7FEE7FEE7FEE7FEE7FEE700005B
:1001000008100020040000001F000000181002402A
:10011000010000000000014000000000A9380008B4
:10012000B900000830B50B4601460020202201240A
:1001300009E00D46D5409D4205D31D469540491B1B
:100140002546954040191546521E002DF1DC30BD64
:1001500070B500242546002801DA01244042002918
:1001600001DA01254942FFF7DDFFAC4200D04042F1
:10017000002C00D0494270BD0549064A086850432A
:10018000054A8018086040087047014908607047B8
:10019000400100206D4EC6413930000003460B433C
:1001A0009B0703D009E008C9121F08C0042AFAD22D
:1001B00003E00B780370401C491C521EF9D27047B3
:1001C000D2B201E00270401C491EFBD270470022EF
:1001D000F6E710B513460A4604461946FFF7F0FF46
:1001E000204610BD30B505462A460B4610781C78CF
:1001F000521C5B1C002801D0A042F7D0002C03D079
:10020000002802D06D1CEFE7284630BD10B5002253
:1002100000E0521C835C8C5CA34201D1002BF8D11E
:10022000D8B2E1B2401A10BD03460A780270401CF1
:10023000491C002AF9D118467047F0B51FB406468C
:10024000002082B005464024019100901BE00199F6
:1002500022460F46304600F043F8049A059B801A68
:10026000994110D310461946224600F029F8361A53
:100270008F410197224601200021009F00F020F8C5
:1002800038184D4100902046641E0028DFDC019B99
:1002900000982946324607B0F0BD0000064C012503
:1002A000064E05E0E36807CC2B430C3C984710341E
:1002B000B442F7D3FFF704FFF06D0008106E00089A
:1002C00010B5202A04DB0146203A9140002010BDE1
:1002D000914020239C1A0346E3401943904010BDEF
:1002E00010B5202A04DB0846203AD040002110BD7A
:1002F0000B46D340D0402024A21A9140084319460F
:1003000010BD70B58C180578401C6B075B0F01D1D0
:100310000378401C2A1106D10278401C03E00678BD
:100320000E70401C491C5B1EF9D12B0705D400231D
:10033000521E0DD40B70491CFAE70378401CCB1AEF
:10034000921C03E01D780D70491C5B1C521EF9D5F0
:10035000A142D8D3002070BD00B593B0324800F060
:10036000A7F80121480402F0DBF90121480202F05C
:10037000F7F90121084602F0D3F904200090032187
:10038000684601710021C17169460920C00600F06C
:10039000D5FF264800F016FC234840300290244840
:1003A00003900020049005200590002006908020F6
:1003B0000790400008908000099020200A900002D9
:1003C0000B9000200C9002A9184800F0C7FC0121F6
:1003D000164800F0E9FB0221134800F061F8012102
:1003E000114800F051F80DA800F0C7F800200D905A
:1003F000012108A8017600200F901190042012908E
:100400000DA9094800F09EF805220421064800F0D5
:100410001FF80121044800F0B8F80121024800F05B
:1004200009F813B000BD000000240140080002409C
:10043000E40B0020002905D0C2680123DB031A4326
:10044000C26004E0C2680123DB039A43C2607047C4
:1004500010B50B460021846A1C43846200BF0C4621
:1004600014432146416110BD01607047016170472E
:10047000002904D0826801231A43826003E0826865
:1004800002231A4382607047002904D0C268012306
:100490001A43C26003E0C26852085200C26070474B
:1004A000C26802239A43C260C2680A43C2607047AE
:1004B00010B504460548844207D10121401502F0D9
:1004C0005FF90021601502F05BF910BD00240140C6
:1004D00030B501460020002200238C680125ED077D
:1004E0002C438C6000BF8C68E30FDB07521C0F2489
:1004F0002403A24201D0002BF5D18C68E40FE4075D
:10050000002C01D1086C00E0002030BD0146086CD1
:1005100080B2704730B50246002000230124240633
:100520000C40002C05D0946801252D06AC432346D1
:1005300000E013681C460C40002C01D0012000E0B4
:10054000002030BD10B50022C268084B1A400C795B
:1005500064030B6823438C682343CC6823430C69F2
:1005600023434C6923431A43C26010BD03D2FFFFEB
:10057000816804221143816070470021016001718C
:100580008160C160016141617047002905D0C26886
:1005900001239B031A43C26004E0C26801239B034A
:1005A0009A43C2607047000010B500F03DFC0A4954
:1005B000012001F09FF800F00FF9502003F08EFDAC
:1005C00000F070FF04462146012001F03DFB00F0E1
:1005D000ADF901F027FE10BDFFBF000070B5044665
:1005E000632C02DD0020C04370BD602C04DB632C53
:1005F00002DC01200B498870601EC004050E601EDD
:10060000C606F60EA9000748001D40580121B1405A
:100610000843AA000349091D885001F08BFD012001
:10062000E2E70000B80700201CB50121480402F0F1
:1006300077F8022000900320694608710920C0065F
:1006400000F07CFE1CBD000010B586B00024012126
:10065000480202F085F80121480402F061F8FFF732
:10066000E3FF6846FFF789FF0020009069460871A4
:1006700002900390049005901348FFF719FF0121A1
:1006800089071148FFF7F2FE69460F48FFF75AFF46
:10069000052202210C48FFF7DBFE0B48FFF718FF8D
:1006A00001210948FFF7E4FE04E0601C84B2012048
:1006B00003F034FD01210448FFF72CFF002801D18D
:1006C000642CF2DB06B010BD00240140F8B5002018
:1006D00000900027002600F077F80A2003F01EFDA6
:1006E0002448FFF745FF002426E02248FFF740FF9B
:1006F00006E00098401C80B20090642003F00EFDDC
:1007000004211C48FFF706FF002802D10098642846
:10071000EFDB1848FFF7FAFE054610211548FFF7F2
:10072000A3FE1549694308461449FFF711FD86B237
:10073000B81987B2601C84B2052CD6DB93217943AB
:100740000846EB21FFF704FD0D49888108468189A1
:100750000CA003F011FB0A4880890849CE31884279
:1007600002DA01F01FFD01E001F006FD00F025F8BE
:10077000F8BD000000240140E40C0000FE0F000062
:10078000900000206261743D2025640D0A00000085
:100790001CB50121480401F0C3FF0820009001218D
:1007A000684601710321417100218171C17169465F
:1007B0000920C00600F0C2FD1CBD10B508210920AB
:1007C000C00600F02FFE10BD10B508210920C0069C
:1007D00000F02AFE10BD000010B500F035F81E2014
:1007E00003F07CFC00F028F82D2003F077FC00F0EB
:1007F0002BF81E2003F072FC00F01EF82D2003F0F1
:100800006DFC00F021F81E2003F068FC00F014F8E5
:100810002D2003F063FC00F017F81E2003F05EFCAF
:1008200000F00AF82D2003F059FC0020014948701F
:1008300010BD00001001002010B50021014803F098
:10084000A1F810BD0044014010B50121014803F09A
:1008500099F810BD004401401CB50121480401F085
:100860005FFFFF20013000900221684601710321E3
:1008700041710021C1716946044800F05FFD022208
:100880000821024800F0A2FD1CBD00000004004841
:1008900010B5FFF7E1FFFF20C33000F00FF8822012
:1008A00000F020F8022300220249034803F0E4FD8F
:1008B00010BD0000B1180008A00700203EB5044696
:1008C0000121480401F04CFF01942F21684601806A
:1008D0000021018141806946014803F0D7F83EBDFF
:1008E0000044014010B586B004466021684681800E
:1008F0000121C18000210181039402210182002194
:10090000818201A9084803F06BF80821064803F02A
:10091000B1F80121044803F015F80121024803F061
:1009200023F806B010BD00000044014010B5FFF7E9
:100930008BFF142003F0D2FBFFF77EFF0A2003F0A9
:10094000CDFBFFF781FF142003F0C8FBFFF774FF16
:100950000A2003F0C3FBFFF777FF142003F0BEFB70
:10096000FFF76AFF0A2003F0B9FB00200149487035
:1009700010BD00001001002010B50021022000F081
:10098000F5FE022300220249024803F075FD10BD66
:1009900099090008B401002030B589B0054600244B
:1009A0000121C9020920C00600F032FD002845D10E
:1009B0004249088039E04248404A1288815C02205E
:1009C00000F0D4FE0121C9020920C00600F020FD7C
:1009D00001280BD13948008840003A49085A401C88
:1009E000364909884900374A505205E0002033490A
:1009F00009884900334A5052304800884000314944
:100A0000085A64280CDB00202C49098849002D4A2B
:100A100050522B4829490988405C802108430443EF
:100A200026480088401C254908802448008805285D
:100A3000C1DD0021022000F099FE24E000201F49C2
:100A400008801CE01D48008840001E49085A022802
:100A50000ADB1A4800884000085A642804DA18485B
:100A600016490988405C044300201449098849005C
:100A7000144A505211480088401C104908800F4801
:100A800000880528DEDB002C15D0012168460173A3
:100A90004473052207A9FFF781FB03A80FC803F0E1
:100AA00045F90A221421012000F0E2FE214606A0A9
:100AB00003F062F900BF09B030BD0000180000204B
:100AC00012000020CC0100204B657956616C7565E1
:100AD0003A2025580D0A0000F3B589B006465F2577
:100AE00000F00AFD0746002F01D10BB0F0BD002435
:100AF0001AE0284600F090FA0546681C002800D14C
:100B0000F3E7E8B201A902F02DFE6846C079B042D1
:100B100008D102A902310A98FFF764FB002801D02E
:100B20002846E2E7601CC4B2BC42E2DB0020DCE7FE
:100B3000F3B589B00646002500F060FD0746002F9A
:100B400001D10BB0F0BD00241AE0284600F004FBF0
:100B50000546681C002800D1F3E7E8B201A902F0BD
:100B600001FE6846C079B04208D102A902310A9854
:100B7000FFF738FB002801D02846E2E7601CC4B22A
:100B8000BC42E2DB0020DCE701210907014000292B
:100B900002D00349486001E0024948607047000004
:100BA0000004024000000240002904D00268012332
:100BB0001A43026003E00268014B1A40026070476A
:100BC000FEFF00000168554A1140016000210160EC
:100BD00041608160C1605249884208D1504908395A
:100BE00049680F2211434E4A083A516094E04C493B
:100BF0001431884208D14A4908394968F022114322
:100C0000474A083A516087E045492831884209D16E
:100C10004349083949680F2212021143404A083AF1
:100C2000516079E03E493C31884209D13C4908395C
:100C300049680F2212031143394A083A51606BE0A8
:100C400037495031884209D13549083949680F225E
:100C500012041143324A083A51605DE03049643170
:100C6000884209D12E49083949680F2212051143DB
:100C70002B4A083A51604FE029497831884209D11E
:100C80002749083949680F2212061143244A083AB5
:100C9000516041E02349884208D122490839496816
:100CA0000F2211431F4A083A516035E01D491431A3
:100CB000884208D11B4908394968F0221143194A72
:100CC000083A516028E017492831884209D115496E
:100CD000083949680F2212021143124A083A51603A
:100CE0001AE010493C31884209D10E490839496857
:100CF0000F22120311430B4A083A51600CE00949D4
:100D00005031884208D10749083949680F22120436
:100D10001143044A083A516070470000FEFF00008A
:100D2000080002400804024001460020002201237E
:100D30001B070B40002B02D0064B1A6801E0064B44
:100D40001A6813460B40002B01D0012000E0002060
:100D500070470000000402400000024010B500226D
:100D600002680D4B1A400C6A8B6823430C692343BD
:100D70004C6923438C692343CC6923434C6A234346
:100D80008C6A23431A430260CB6843600B6883601C
:100D90004B68C36010BD00000F80FFFF70B50446B4
:100DA000632C02DD0020C04370BD602C04DB632C8B
:100DB00002DC01200B498870601EC004050E601E15
:100DC000C606F60EA9000748001D40580121B14093
:100DD0008843AA000349091D885001F0ABF901209E
:100DE000E2E70000B80700207047704701494861FA
:100DF000704700000004014010B50020034908704E
:100E000001F0E6F9014802F0D1FC10BD2C010020F0
:100E100010B501200349087001F0F0F9014802F013
:100E2000C5FC10BD2C01002010B500F0CFF80F4814
:100E300000F026F80E4800F023F80E4800F020F8E5
:100E40000D4800F01DF800F05FF800200B49887095
:100E5000002406E00021A2000848001D8150601C0B
:100E6000C4B2042CF6DB01F065F910BD00F00008F7
:100E700000F4000800F8000800FC0008B807002093
:100E800030B5044604250B20000400F0B1F80546F7
:100E9000042D17D10C480069022108430A49086152
:100EA00008464461006940210843074908610B2056
:100EB000000400F09DF805460348006902218843BC
:100EC00001490861284630BD0020024004200D4938
:100ED000C968C907C90F002901D0012010E00949DC
:100EE000C96810221140002901D0022008E00549FC
:100EF000C96804221140002901D0032000E0042029
:100F00007047000000200240034800698021084328
:100F100001490861704700000020024070B5044696
:100F20000D4604260B20000400F062F80646042E4D
:100F300011D10A4800690121084308490861258048
:100F40000B20000400F054F80646044800694008ED
:100F5000400002490861304670BD00000020024098
:100F600078B506460C460425002000900B200004AE
:100F700000F03EF80546042D24D1134800690121F4
:100F800008431149086134800B20000400F030F858
:100F90000546042D10D1B01C0090200C009908804B
:100FA0000B20000400F024F80546074800694008BB
:100FB00040000549086105E0034800694008400019
:100FC00001490861284678BD0020024005480069B3
:100FD00080210840002804D00348024948600348A3
:100FE000486070470020024023016745AB89EFCD80
:100FF00010B503460424FFF769FF044603E0FFF73A
:1010000065FF04465B1E012C01D1002BF7D1002B9C
:1010100000D10524204610BD30B50246602A01DB10
:10102000632A01DD602101E0501CC1B214E0481EBA
:10103000C004030E481EC406E40E9D000948405932
:101040000125A5402840002804D058010019401C63
:1010500040B230BD481CC1B26429E8DB0020C04367
:10106000F7E70000BC07002030B50246632A01DC28
:10107000602A01DA632101E0501EC1B214E0481E6B
:10108000C004030E481EC406E40E9D0009484059E2
:101090000125A5402840002804D058010019401C13
:1010A00040B230BD481EC1B26029E8DA0020C0431A
:1010B000F7E70000BC07002030B50246602A01DBDC
:1010C000632A01DD602101E0501CC1B214E0481E1A
:1010D000C004030E481EC406E40E9D000948405992
:1010E0000125A5402840002804D158010019401CC2
:1010F00040B230BD481CC1B26429E8DB0120C043C6
:10110000F7E70000BC07002030B50246632A01DC87
:10111000602A01DA632101E0501EC1B214E0481ECA
:10112000C004030E481EC406E40E9D000948405941
:101130000125A5402840002804D158010019401C71
:1011400040B230BD481EC1B26029E8DA0120C04378
:10115000F7E70000BC07002030B50246642A01DA38
:10116000012A01DA012101E0501CC1B214E0481E3D
:10117000C004030E481EC406E40E9D0009484059F1
:101180000125A5402840002804D058010019401C22
:1011900040B230BD481CC1B26429E8DB0020C04326
:1011A000F7E70000BC07002030B502465F2A01DCEB
:1011B000012A01DA012101E0501CC1B214E0481EED
:1011C000C004030E481EC406E40E9D0009484059A1
:1011D0000125A5402840002804D058010019401CD2
:1011E00040B230BD481CC1B26029E8DB0020C043DA
:1011F000F7E70000BC07002030B50246602A01DA9C
:10120000012A01DA5F2101E0501EC1B214E0481E3C
:10121000C004030E481EC406E40E9D000848405951
:101220000125A5402840002804D058010019401C81
:1012300040B230BD481EC1B20029E8D1481EF8E7CF
:10124000BC07002030B502465F2A01DC012A01DA22
:10125000012101E0501CC1B214E0481EC004030E7D
:10126000481EC406E40E9D00094840590125A540CA
:101270002840002804D158010019401C40B230BD5C
:10128000481CC1B26029E8DB0120C043F7E7000039
:10129000BC07002030B50246602A01DA012A01DAD3
:1012A0005F2101E0501EC1B214E0481EC004030ECD
:1012B000481EC406E40E9D00084840590125A5407B
:1012C0002840002804D158010019401C40B230BD0C
:1012D000481EC1B20029E8D1881EF8E7BC070020EB
:1012E000F7B50C4615460027002D01D10120FEBDA3
:1012F000FFF76CFE002616E001E0781C87B221683B
:101300000098FFF72DFE042801D00A2FF5DB0A2FE5
:1013100003DBFFF7F9FD0120E9E70098001D0090CD
:10132000241D701C86B2E81CC117890F091889108A
:10133000B142E1DCFFF7E8FD0020D8E7F0B50A464E
:1013400000210023002400BF3DE001258D402B46F5
:1013500015681D402C469C4234D11579012D02D0D0
:101360001579022D16D185684F000326BE40B5437E
:10137000856055794E00B54086683543856085881F
:1013800001268E40B5438580858896798E40B6B219
:101390003543858005684F000326BE40B543056090
:1013A00015794E00B540066835430560C5684F00A5
:1013B0000326BE40B543C560D5794E00B540C6682A
:1013C0003543C560491C1029BFD3F0BDF0B50023DB
:1013D00000244D07EE0E1546B5402B46CD10AE004D
:1013E00005462035AD594E07F70E0F26BE40B543D2
:1013F000CE10B60007462037BD51CD10AE003D4699
:10140000AD591D432C46CD10AD003E467451F0BD84
:1014100002460020138A0B40002B01D0012000E07F
:101420000020704701857047816170470349887AC1
:101430000102024A527B1143084670473C000020DB
:101440000349887A0102024A527C114308467047D8
:101450003C0000200349087C0102024A127C11432F
:10146000084670473C0000200349887B0102024A7D
:10147000D27B1143084670473C0000200349887C1A
:101480000102024AD27B1143084670473C0000200B
:101490000349C87C0102024AD27B114308467047C7
:1014A0003C0000200349C87C0102024A127D11431E
:1014B000084670473C00002070B50446632C01DDEF
:1014C000002070BD0A212046FEF742FE06490D5C51
:1014D0000A212046FEF73CFE0348405C29020843EF
:1014E00005462846EDE700003C0000200148006862
:1014F000704700000C00002010B50020602110E0B3
:101500004A1E52099300084AD2584B1EDC06E40ECC
:101510000123A3401A40002A01D0421CD0B24A1C29
:10152000D1B26429ECDB10BDBC07002070B50026E9
:10153000002501211B48FEF79BFF04E0681C85B2D3
:10154000012002F0EBFD18491648FEF7E3FF0028E2
:1015500001D1642DF2DB1348FFF70AF8002504E0FF
:10156000681C85B2012002F0D9FD0220FFF7DCFBE8
:10157000002801D1642DF3DB0220FFF705FB0024D6
:1015800005E060000949085A8619601C84B2052CE0
:10159000F7DB0749714308460649FEF7C3FD0646D7
:1015A000304670BD0024014001000001E40B002022
:1015B000E40C0000FB4F000010B50020012110E0FA
:1015C0004A1E52099300084AD2584B1EDC06E40E0C
:1015D0000123A3401A40002A01D0421CD0B24A1C69
:1015E000D1B26029ECDB10BDBC0700200146886841
:1015F000002800D170474888C0B2FBE710B5002032
:10160000012110E04A1E52099300084AD2584B1E8D
:10161000DC06E40E0123A3401A40002A01D0421C3C
:10162000D0B24A1CD1B26429ECDB10BDBC0700204B
:1016300070B505460E46022D01D1094C05E0012D7D
:1016400001D1084C01E0002070BD002E03D0012024
:10165000A168884702E00020A16888470120F3E7DD
:101660002C0000201C00002010B501214903024875
:10167000FFF7DAFE10BD00000008004810B5012198
:1016800049030248FFF7CEFE10BD000000080048E5
:10169000F8B506460F46022E01D1144C05E0012E86
:1016A00001D1134C01E00020F8BD072519E001200D
:1016B000A8403840002803D001202168884702E074
:1016C000002021688847012002F028FD0020616881
:1016D0008847012002F022FD012061688847681ECA
:1016E00045B2002DE3DA0120DEE700002C000020E7
:1016F0001C00002070B504460D46022C03D1012CBD
:1017000001D1002070BD00212046FFF791FFE9B212
:101710002046FFF7BDFF2804010E2046FFF7B8FF63
:1017200001212046FFF784FF0120EBE770B5044656
:101730000D46022C03D1012C01D1002070BD0021E7
:101740002046FFF775FFE9B22046FFF7A1FF280406
:10175000010E2046FFF79CFF00212046FFF798FF6F
:1017600001212046FFF764FF0120E7E770B5054639
:101770000E46022D01D10B4C05E0012D01D10A4C82
:1017800001E0002070BD0020A168884700F0B4FA95
:1017900031462846FFF77CFF0120A16888470120D9
:1017A000F0E700002C0000201C0000201CB50446BF
:1017B000012040030090012168460171032141711D
:1017C00000218171C1710121C80400F0A9FF69469F
:1017D0002048FFF7B3FDFFF747FF02202040002815
:1017E00019D00121880400F09BFF0F200003009016
:1017F00069461948FFF7A2FD012149031648FFF782
:1018000011FE0121C9031448FFF70CFE0121090351
:101810001148FFF707FEE007C00F00280FD0012195
:10182000480400F07DFFF020009069460920C006C2
:10183000FFF784FD20210920C006FFF7F3FD0749CB
:101840000120FFF757FF00210220FFF78FFFFFF76E
:1018500015FF1CBD0008004800040048FF3F0000C1
:1018600010B5FEF7F1FEFEF793FFFEF72FFF10BD58
:1018700070B504460D46164600200C4948700846CF
:10188000C66085604460002C04D140780421084380
:1018900006494870FFF72AFE044908610846407867
:1018A000022108430149487070BD0000100100206A
:1018B00070B505462B480078002851D1294840785A
:1018C0000221084000284BD0FFF710FE04462548AF
:1018D0000069A04244D823484078C007C00F0028C0
:1018E00017D02048C06800191E4908610846407892
:1018F000400840004870FEF79FFF1A4840780421D6
:10190000084000282CD117484068401E15494860FF
:1019100026E01448406800280CD112484078042181
:101920000840002806D10F484078022148400D4960
:10193000487015E00B48806800190A49086108469C
:1019400040780121084307494870FEF77DFF0548AC
:10195000407808210840002802D001200149487041
:1019600070BD000010010020F8B504460D46164673
:101970001F461548844203D101201449087609E026
:101980001348844203D101201049087602E0002068
:101990000E49087600200D4948700846C7608660E9
:1019A00045608482002D04D1407804210843074912
:1019B0004870FFF79BFD0549086108464078022101
:1019C000084302494870F8BDFF7F00007400002002
:1019D000FFBF000010B5002009494870C820C8604A
:1019E00088600120486007488882FFF77FFD04492E
:1019F000086108464078022108430149487010BD3B
:101A000074000020FFBF000070B505460C460020A2
:101A1000254908762B0002F0BFF90910061D443253
:101A20004444443D440001201F49487008468482D4
:101A3000818A0120FFF75EFE34E000201A494870D9
:101A400008468482C08AC8820846818A0120FFF73E
:101A500051FE27E00020144948706420C860886067
:101A60000220486008468482FFF740FD0E49086165
:101A700008464078022108430B49487012E00620CE
:101A800009494870C820C86088600020486008463E
:101A9000848207E0044840780821084302494870DE
:101AA00000E000BF00BF70BD7400002010B5002032
:101AB00009494870C820C86088600120486007480C
:101AC0008882FFF713FD0449086108464078022127
:101AD00008430149487010BD74000020FF7F0000DA
:101AE00010B5022300220249024802F0C5FC10BDD5
:101AF000F91A0008F001002070B50546504800783A
:101B000000287DD14E4840780221084000285ED050
:101B1000FFF7ECFC04464A480169A14257D84078D7
:101B2000C007C00F002828D04548C06800194449A4
:101B30000861084640784008400048700846007E2A
:101B4000002804D03F490120FFF7D4FD04E03C48C1
:101B5000C18A0120FFF7CEFD3948407804210840B2
:101B6000002834D136484068401E35494860084650
:101B7000406800282BD1087629E0314840680028C9
:101B80000CD12F48407804210840002806D12C4869
:101B90004078022148402A49487018E02848806867
:101BA0000019274908610846407801210843244963
:101BB00048700846818A0120FFF79CFD2048407844
:101BC00008210840002802D001201D4948701C4807
:101BD000407810210840002830D0FFF787FC0446E9
:101BE00017480069A04229D815484078C007C00F9F
:101BF000002813D01248407840084000104900E007
:101C00001CE0487008464078102148400C49487054
:101C10000846C18A0120FFF76DFD0FE00848806883
:101C20000019074908610846407801210843044922
:101C300048700846818A0120FFF75CFD70BD0000F6
:101C400074000020FF3F000070B505460C462B00D5
:101C500002F0A2F80910061B412F4141413A410010
:101C600001201E49487008468482818A0220FFF7BD
:101C70005DFD31E0002019494870401E8882084609
:101C8000818A0220FFF752FD26E0002013494870A8
:101C9000C820C8608860486008468482FFF726FC38
:101CA0000E49086108464078022108430B494870F4
:101CB00012E0062009494870C820C86088600020EA
:101CC00048600846848207E00448407808210843B9
:101CD0000249487000E000BF00BF70BD5400002002
:101CE00010B5022300220249024802F0C5FB10BDD4
:101CF000891D0008D801002010B522484078022133
:101D00000840002805D11F484078042108400028D9
:101D10001DD01C484078C007C00F00280BD01948C0
:101D2000017D0220FFF7B4FC1648808A01120220D0
:101D3000FFF7AEFC25E00020002822D1FF21022081
:101D4000FFF7A6FCFF210220FFF7A2FC19E00D48D7
:101D50004078C007C00F00280BD00A48017D022040
:101D6000FFF796FC0748808A01120220FFF790FCDB
:101D700007E0FF210220FFF78BFCFF210220FFF785
:101D800087FC10BD5400002070B505462D48007832
:101D9000002856D12B48407802210840002850D016
:101DA000FFF7A4FB044627480069A04249D825480C
:101DB0004078C007C00F002819D02248C068001919
:101DC00020490861084640784008400048701E4994
:101DD0000220FFF7ABFC1B48407804210840002894
:101DE0002FD118484068401E1649486029E0154820
:101DF000406800280CD1134840780421084000288E
:101E000006D110484078022148400E49487018E039
:101E10000C48806800190B49086108464078012188
:101E20000843084948700846818A0220FFF77EFC73
:101E30000448407808210840002802D001200149C8
:101E4000487070BD54000020FFFF000000BFFEE797
:101E500038B5044601236A462146B42000F0D4F880
:101E6000002802D06846007838BD00F0AFF80020A6
:101E7000FAE773B504460025012301AA2146B420E0
:101E800000F000F90546002D01D100F09FF828462A
:101E90007CBD000010B50446002C04D10121074888
:101EA000FFF7C0FA03E001210448FFF7BDFA00F094
:101EB00007F801210148FFF7B7FA10BD00040048F8
:101EC00010B5142002F02AF902210848FFF7ACFAF5
:101ED000142002F023F901210448FFF799FA04467F
:101EE00002210248FFF79EFA204610BD0004004878
:101EF0001CB50121880400F013FC0320009001218F
:101F00006846017103214171012181710021C17174
:101F100069460248FFF712FA1CBD000000040048A1
:101F200070B50024002509E06006040EFFF7C8FF25
:101F3000002801D0601CC4B2681CC5B2082DF3DBB8
:101F4000204670BD70B50446002513E08020204077
:101F5000C611002E04D101210D48FFF763FA03E0FA
:101F600001210B48FFF760FA6006040EFFF7A8FF97
:101F7000681CC5B2082DE9DBFFF7A2FF002803D0DB
:101F800000200449087002E001200249087070BD79
:101F9000000400481000002010B501210A48FFF796
:101FA00043FA02210848FFF73FFA142002F0B6F87E
:101FB00001210548FFF736FA142002F0AFF802219C
:101FC0000148FFF72FFA10BD0004004810B50221A8
:101FD0000C48FFF727FA01210A48FFF723FA1420DB
:101FE00002F09CF802210748FFF71EFA142002F0C5
:101FF00095F801210348FFF717FA142002F08EF834
:1020000010BD000000040048FFB581B0064614462C
:102010001F46FFF7C1FF3046FFF794FF18480078CE
:10202000002801D105B0F0BD0298FFF78BFF1448DE
:102030000078002800D1F5E7FFF7AEFF711CC8B2A9
:10204000FFF780FF0E480078002800D1EAE700255E
:1020500008E0FFF765FF20700020FFF71BFF641CFE
:10206000681CC5B2781EA842F3DCFFF759FF207048
:102070000120FFF70FFFFFF7A9FF0120D2E70000C3
:1020800010000020FFB581B00E4614461F46FFF732
:1020900083FF0198FFF756FF10480078002801D110
:1020A00005B0F0BD3046FFF74DFF0C480078002822
:1020B00000D1F5E700250AE02078FFF743FF074845
:1020C0000078002800D1EBE7641C681CC5B2BD4253
:1020D000F2DBFFF77BFF0120E2E7000010000020A9
:1020E00010B5142210491148FEF758F80F4800881F
:1020F0000F49884206D00D480069FF2109020840B7
:1021000000280FD0002406E00021A2000748001D8F
:102110008150601CC4B2042CF6DB00200349887097
:1021200000F008F810BD000000EC0008B80700201F
:10213000FFFF000000B585B014220C496846FEF789
:102140002DF8684600880A49884206D0FEF73EFF0F
:102150000648FEF795FEFEF7D7FE012005490880E8
:1021600014220248FFF7BCF805B000BD00EC0008DF
:10217000FFFF0000B807002010B5002006490870D6
:102180000648C08A0121490308430449C88204491A
:102190000120FFF7AFFA10BD70000020740000208E
:1021A000FF3F000010B50120064908700648C08AAC
:1021B0000121490388430449C88204490120FFF7EB
:1021C00099FA10BD7000002074000020FF1F00006D
:1021D00010B50020064908700648C08A012109038D
:1021E00008430449C88204490120FFF783FA10BD5F
:1021F0007100002074000020FF3F000010B5012096
:10220000064908700648C08A012109038843044929
:10221000C88200210120FFF76DFA10BD7100002077
:102220007400002010B500240AE0012001F076FFC0
:10223000601C84B2FF20F530844201DD002010BD17
:1022400002F01AFA0028F0D002F0E0F900F030FDB8
:102250000121080700F074FA012000F001FA0120C2
:1022600000F09EFA002000F09BFA012000F0F4FB41
:10227000002404E0012001F051FF601C84B24120E1
:1022800000F0C6FB002801D1642CF3DB01F008F854
:102290000121080200F014FA012000F0F5F902F023
:1022A000EBF9002801D000F0F9F90148C7E7000078
:1022B000FFFF000010B5002406E0601C84B21C483B
:1022C000844201DD002010BD02F0D6F90028F4D0D0
:1022D00000F0EEFC0121080700F032FA012000F0C6
:1022E000BFF9012000F05CFA002000F059FA01204B
:1022F00000F0B2FB002401E0601C84B2412000F039
:1023000087FB002803D17D20C0008442F4DB00F06D
:10231000C7FF0121080200F0D3F9012000F0B4F951
:1023200002F0AAF9002801D000F0B8F90148CAE784
:1023300088130000FFFF000010B500200649087058
:10234000FFF788F80446054801F050FF03200449D0
:102350004870204610BD0000B2000020600100203F
:102360009000002010B50D2003494870FFF786F853
:102370000446204610BD00009000002010B50A2041
:1023800003494870FFF77AF80446204610BD000064
:102390009000002010B507490978042903D10D21C8
:1023A000054A117002E00A21034A1170FFF766F82E
:1023B00010BD000090000020B100002010B5FFF714
:1023C00067F8044621460120FFF73EFCFEF7AEFA0F
:1023D000FFF728FF10BD10B5FFF764F8044621464B
:1023E0000120FFF731FCFEF7A1FAFFF71BFF10BD3C
:1023F00070B504F023FC01F05BFEFFF771FEFEF701
:1024000047FA0320FFF7D2F900210120FFF7FCFA79
:10241000FFF7F4F8002807D0FFF71CF80446214620
:102420000120FFF711FC08E0FFF73CF804462146C5
:102430000120FFF709FCFEF779FA02F013F8FFF725
:1024400057FD02F021F9FFF74BFCFFF749FB00F0C5
:1024500065FE01F059FB00F045F900F0E9FBFEF7DD
:102460008BFA00F03DF8FFF7FBF9FEF711FA00F0E8
:102470004FF800210120FFF7C7FA032004494870F4
:10248000FEF7E8FF054629460120FFF7DDFB70BD9A
:102490009000002010B5032189020448FEF7C4FF14
:1024A0000121C9020148FEF7BDFF10BD000400482C
:1024B00010B5032189020448FEF7B6FF0121890205
:1024C0000148FEF7AFFF10BD0004004810B503211E
:1024D00089020248FEF7A8FF10BD00000004004872
:1024E0001CB50121880400F01BF903208002009034
:1024F0000121684601710321417100218171694602
:102500000248FEF71BFFFFF7E1FF1CBD0004004877
:1025100010B5124812490A78027049784170007863
:10252000FF2803D00D484078FF280CD100200B492C
:102530000870487014200B494870FFF749FE07489F
:1025400001F034F908E005480078002802D1FFF7CF
:102550003FFE01E0FFF752FE10BD00002C010020FD
:1025600000E800089000002010B5FF20F530FEF7CD
:10257000A5F9E620FEF7B6F9FEF766F91E2001F090
:10258000ADFDFEF759F9052001F0A8FDFF20A530AB
:10259000FEF794F96420FEF7A5F9FEF755F91E2021
:1025A00001F09CFDFEF748F9052001F097FDFF20A2
:1025B0006930FEF783F99620FEF794F9FEF744F9A7
:1025C0001E2001F08BFDFEF737F9052001F086FD96
:1025D000FF20C330FEF772F98220FEF783F9002056
:1025E0000149487010BD0000100100207047000034
:1025F00000218278002A27D0184A03231B02D21810
:1026000003789B109B00D15802789207D30EFF22CB
:102610009A400B469343194642789207120E03786C
:102620009B07DB0E9A4011430C4A03231B02D2186E
:1026300003789B109B00D1500278D306DB0E012259
:102640009A40064B1A6007E00278D306DB0E01229F
:102650009A40024B80331A607047000000E100E0AE
:10266000002807D007490968FF2201321143054AB3
:10267000116006E003490968FF2201329143014AD3
:1026800011607047007000400349096882001143DF
:10269000014A116070470000007000400648006861
:1026A00002210843044908600448006904210843E2
:1026B0000249086130BF70470070004000ED00E043
:1026C000002905D0054A52680243044B5A6004E0D1
:1026D000024A52688243014B5A60704700700040C2
:1026E0007047000010B50320084948700020487268
:1026F0008872022300220649064801F0BDFEFEF75B
:10270000F5FE054940180549086010BD90000020FD
:102710008D48000808020020C4090000A80000201D
:10272000002905D0054A52690243044B5A6104E06E
:10273000024A52698243014B5A61704700100240BD
:10274000002905D0054AD2690243044BDA6104E04E
:10275000024AD2698243014BDA617047001002409D
:10276000002905D0054A92690243044B9A6104E0AE
:10277000024A92698243014B9A61704700100240FD
:10278000002905D0054AD2680243044BDA6004E010
:10279000024AD2688243014BDA607047001002405F
:1027A000002807D00749096A012212041143054A8B
:1027B000116206E00349096A012212049143014AA9
:1027C0001162704700100240FEB504460025002645
:1027D00000200290019000900027864840680C215C
:1027E00008400546002D06D0042D07D0082D08D03E
:1027F0000C2D2CD128E0804820602BE07E48206002
:1028000028E07C4840680F21890408400646794842
:1028100040680321C90308400290B00C861C02984E
:10282000002803D17548374647430BE07148C06A1A
:102830000007000F401C01906F480199FDF772FCE2
:1028400070430746276005E06D48206002E06A4853
:10285000206000BF00BF67484068F021084005467F
:102860002D096848405D009020680099C84060606C
:102870006048406807210902084005462D0A614862
:10288000405D009061680098C140A1605948006BAC
:10289000FF2101310840884202D05B48E0600DE032
:1028A00054484068012189030840884203D0A06849
:1028B0004008E06002E0A0688008E0604D48006BDE
:1028C00040210840402802D05048206102E0012009
:1028D000C00320614748006B10210840102802D037
:1028E0004548606101E0206860614248006B8007F4
:1028F000800F002802D1A068A06119E03D48006B5C
:102900008007800F012802D12068A06110E03948BB
:10291000006B8007800F022802D18003A06107E0CE
:102920003448006B8007800F032801D13248A06132
:102930003048006B032109040840002802D1A06838
:10294000E06120E02B48006B0321090408400121CD
:102950000904884202D12068E06114E02548006B38
:1029600003210904084001214904884202D1801052
:10297000E06108E01F48006B032109040840884219
:1029800001D11D48E0611B48006B03218904084008
:10299000002802D1A068206220E01648006B0321C5
:1029A0008904084001218904884202D120682062FC
:1029B00014E01048006B0321890408400121C90478
:1029C000884202D10011206208E00A48006B03210E
:1029D00089040840884201D1074820620548006BFD
:1029E00080210840802802D00548606200E06762CC
:1029F000FEBD00000010024000127A0000093D00F8
:102A0000006CDC022E010020809FD50012800000A7
:102A100010B502460021002300205111002902D1E7
:102A20000C4C23680BE0012902D10A4C236A06E012
:102A3000022902D1074C636A01E0064C636BD106A0
:102A4000C90E01248C401C40002C01D0012000E064
:102A5000002010BD00100240002806D00649496A37
:102A600001221143044A516205E00349496A4908B9
:102A70004900014A5162704700100240002807D007
:102A80000749096A0122D2031143054A116206E08F
:102A90000349096A0122D2039143014A1162704736
:102AA000001002400249096A0143014A116270475D
:102AB0000010024070B588B0054693216846017247
:102AC000702141720021817300240BE0295D02AA6C
:102AD000A01C11546946887B295D4840694688736B
:102AE000601CC4B2042CF1DB03AA0332072102A844
:102AF00000F018F80821084600F049F807A802ABD2
:102B0000092202A900900C2000F050F90646002E80
:102B100004D16846007F182800D100E00226304624
:102B200008B070BDF7B5074615460421052000F032
:102B30002EF80021012000F0DFF880210B2000F0AA
:102B400095FA002405E0395D092000F0D5F8601CF5
:102B5000C4B201988442F6DB0321012000F0CCF8D6
:102B6000FF2400BF052000F0ABF80646601EC4B28B
:102B7000002C03D0042030400028F3D0222000F0A5
:102B80009FF82870212000F09BF86870FEBD70B59A
:102B900005460C460026284600F092F806463046C8
:102BA000A0430146284600F0A7F870BDF0B585B0F7
:102BB00004460F46FF2214216846FDF701FB6946D3
:102BC000262000F0A8F90546002D02D0022005B00D
:102BD000F0BD69460E783002497808430646012068
:102BE0008002864202D10020207008E001204002CD
:102BF000864202D10120207001E0FF20207068464B
:102C000000F09CF80546002D01D00220DFE7684661
:102C1000FFF750FF0546002D01D00220D7E700F056
:102C200063F9042269463846FDF7B8FA0020CEE77A
:102C300010B5C82001F072FA00F09EF9012001F0F1
:102C40006DFA00F0A1F9012001F068FA00F094F9A2
:102C5000012001F063FA0F21012000F04DF801205E
:102C600001F05CFA3D21112000F046F81E212D20D4
:102C700000F042F800212C2000F03EF88D212A209F
:102C800000F03AF83E212B2000F036F840211520C4
:102C900000F032F800F04CF86423002202490348A7
:102CA00001F0EAFB10BD0000992F0008F00B002096
:102CB00010B500F03DF83021012000F0D7F910BD2B
:102CC00070B5044640210B48FEF7ACFB012001F033
:102CD00025FA60007E21084004468034204600F03A
:102CE000F3F900F0D3F9054640210248FEF79CFBBA
:102CF000284670BD0004004870B504460D464021CA
:102D00000A48FEF78FFB012001F008FA60007E21DF
:102D100008400446204600F0D7F9284600F0D4F9D0
:102D200040210248FEF780FB70BD0000000400480F
:102D300010B503211420FFF72AFF10BDF0B587B0AE
:102D40000546002708210846FFF721FF00210D2036
:102D5000FFF7D2FF80210E20FFF719FF932168466D
:102D600001712021417106A801AB022201A9009046
:102D70000C2000F01BF80646002E10D1002407E0BE
:102D800001A8005D285501A8005D4740601CC4B241
:102D9000042CF5DB01A8005DB84200D0022680219A
:102DA0000E2000F063F9304607B0F0BDFFB583B0E8
:102DB0000646022002900020019000900E2E04D1C1
:102DC000122001901020009005E00C2E03D17720F6
:102DD000019030200090802201981043014602208B
:102DE000FFF78AFF80210420FFF7D1FE0021012098
:102DF000FFF782FF80210A2000F038F9002506E065
:102E00000498415D0920FFF777FF681C85B205989B
:102E10008542F5DB31460120FFF76EFF0C2E03D112
:102E200080210D2000F022F97D252D0100BF042016
:102E3000FFF746FF0446681E85B2002D07D0E00765
:102E4000C00F002803D1009820400028EFD0802137
:102E50000D20FFF79CFE002D3BD00620FFF730FF32
:102E60001B210840002832D1029001982040C00761
:102E7000C00F002801D0012002900C2E29D10A2079
:102E8000FFF71EFF04460C20FFF71AFF47077F0FCE
:102E9000002F06D0601EC000C019C1B20C9801708E
:102EA00003E0E006010E0C980170002C00D1012413
:102EB000122C00DD1224002506E00920FFF700FF98
:102EC00006994855681C85B2A542F6DB01E0022050
:102ED000029080210C2000F0C9F800210120FFF7AA
:102EE0000BFF029807B0F0BD00B587B050216846CF
:102EF000017100214171821D022101A8FFF712FE1C
:102F000006A801AB042201A900900C20FFF74EFF98
:102F1000002007B000BD70B588B005460C460821FA
:102F20000846FFF734FE07210D20FFF7E5FE0321D9
:102F3000142000F09BF86846057207A802AB012236
:102F400002A900900C20FFF731FF0646002E0AD19F
:102F50006846007F102806D16846007A20706846CF
:102F6000407A607000E00226304608B070BD10B5AF
:102F700000F002F810BD000010B580210148FEF7F6
:102F800053FA10BD0004004810B580210148FEF737
:102F900049FA10BD0004004870B58CB00646002008
:102FA0000B902A484078C01E030000F0F5FE0B0786
:102FB0004A4A08090A4A0B4A4A0C4A0000BF00BFA5
:102FC00000BF00BF00BFFDF7C7F9FEF7AFFA054627
:102FD00029461FA000F0D0FE8C2D31D209A90BA8E4
:102FE000FFF7E4FD00282BD10290002108A8017210
:102FF000032168460173052209A90D30FDF7CEF8BB
:10300000052207A96846FDF7C9F803A80FC800F014
:103010008DFE1E2250210120FEF72AFC0FA000F099
:10302000ABFE002406E009A8015D0FA000F0A4FE9D
:10303000601CC4B2042CF6DB07A000F09DFE00BFAC
:1030400000BF00BF00BF0CB070BD000090000020AA
:10305000766F6C3D25646D560D0A000063617264E5
:103060004E756D3A200D0A002558000070B50546D2
:103070000C4600262846FFF723FE0646304620432E
:1030800001462846FFF738FE70BD000070B50024E9
:10309000002513E008210B48FEF7C4F96006040E72
:1030A0000848008A10210840002801D0012004436C
:1030B00008210448FEF7B8F9681CC5B2082DE9DB01
:1030C000204670BD0004004870B5044600251BE092
:1030D00008211148FEF7A6F980202040002804D0DE
:1030E00020210D48FEF7A0F903E020210A48FEF751
:1030F00099F96006040E08210748FEF795F90120AA
:1031000001F00CF8681CC5B2082DE1DB2021024853
:10311000FEF788F970BD0000000400481CB50121CD
:103120008804FFF7FDFA01216846017168200090CC
:10313000002168468171C1710321417169461748B8
:10314000FEF7FCF808211548FEF76CF9202113481A
:10315000FEF768F940211148FEF766F9012168463B
:10316000017180200090002168468171C1710321A6
:10317000417169460948FEF7E1F8FFF705FF0021B4
:10318000684601711020009068468171C171032169
:10319000417169460148FEF7D1F81CBD00040048A2
:1031A00010B503211420FFF761FF10BD38B50246AA
:1031B0000024009400230020CA24174D6C6253247D
:1031C0006C62002905D02C46A4681443AC60012031
:1031D0001DE0114CA46894430F4DAC6000BF0E4C31
:1031E000E468150A2C402346009C641C00940125C9
:1031F000AD03009CAC4201D0002BF0D0064CE4683B
:10320000150A2C40002C01D1002000E00120FF24F1
:10321000014D6C6238BD00000028004030B5034607
:103220000020CA24064D6C6253246C6214060C43C1
:103230002046034C40346060FF246C6230BD0000C7
:1032400000280040014600BFF020084000110A237A
:10325000584302460807000F8018C0B27047014665
:10326000002204E0501CC2B208460A38C1B20A2942
:10327000F8DA1007000E08437047000010B500216F
:10328000010980220A4392B2D243044BDB688024B6
:1032900023401A43014BDA6010BD000000280040B3
:1032A00000B589B001204002FFF7FCFB0120FFF7C9
:1032B000E5FB00F0FBF90020069078200790FF2046
:1032C0002D30089006A800F0EDF800216846C17284
:1032D0000172417281723121017500200490C8078A
:1032E000039002AAC10D012000F008F90F2201216C
:1032F0000802FFF793FF0121080300F0A1F8012164
:103300000802FFF753FF00216846C1710171417146
:10331000817101A9012000F05DF909B000BD000034
:1033200008B50022009200200021124AD2684023F2
:103330001A40002A1BD1421E0E4BDA6000BF0D4A14
:10334000D26840231A401146009A521C00921B0278
:10335000009A9A4201D00029F1D0064AD26840234F
:103360001A40002A01D0012002E0002000E00120E4
:1033700008BD0000002800400348C0688021884341
:103380000149C860704700000028004070B5014640
:103390000020002200230F4C246804252C402246E4
:1033A0000C4C403CA4680C408E0C0D46F540ED0BD7
:1033B00015402C432346074C403CE4680D092C4043
:1033C0002246002B04D094B2002C01D0012000E052
:1033D000002070BD4028004010B501208003FFF799
:1033E000D5FF00280BD00DA000F0C6FC0120800303
:1033F000FFF744FF01204004FDF7F8FC0CE001203A
:103400000003FFF7C3FF002806D009A000F0B4FCBA
:1034100001200003FFF732FF10BD000077616B65EC
:10342000757050696E20697320776F726B0D0A009A
:10343000616C726D4120697320776F726B0D0A00A9
:1034400010B5CA22164B5A6253225A62002911D073
:103450001A46926804240346A3431A43104B9A6009
:103460000F4A40321268042303401A430C4B403386
:103470001A6010E00A4A926804240346A3439A4360
:10348000074B9A60064A40321268042303409A436D
:10349000034B40331A60FF22014B5A6210BD0000FB
:1034A0000028004030B504460025CA201249486271
:1034B00053204862FFF734FF002800D117E00E4880
:1034C0008068402188430C498860084680682168EC
:1034D000084309498860A068086108460069A18816
:1034E0000904084304490861FFF746FF0125FF204E
:1034F00001494862284630BD00280040F8B505461D
:1035000014460026002D0ED1314880684021084025
:10351000002800D002E00020E07000BFA068002872
:1035200000D11BE01AE02A488068402108400028AA
:1035300004D02078FFF786FE064602E00020E07007
:1035400000BFA068002804D1207BFFF77BFE064661
:1035500004E0207BFFF776FE064600BF002D12D068
:1035600020780004617809020843A1780843E178D3
:1035700009040843217B09060843A16808436168E0
:103580000843064619E02078FFF769FE07046078D3
:10359000FFF765FE00020743A078FFF760FE0743D0
:1035A000E07800040743207BFFF759FE000607433D
:1035B000A0680743606807433E46CA200449486242
:1035C000532048620846C661FF204862F8BD0000EB
:1035D00000280040F8B505460C4600260020009063
:1035E000002D0AD12F48806840210840002800D0D3
:1035F00002E00020E07000BF0EE02A488068402111
:103600000840002804D02078FFF71CFE064602E0A0
:103610000020E07000BF00BF002D0BD02078000418
:10362000617809020843A1780843E1780904084356
:10363000064610E02078FFF712FE07046078FFF7D7
:103640000EFE00020743A078FFF709FE0743E0786B
:10365000000407433E46CA2012494862532048628C
:10366000FFF75EFE002801D1009016E00E483040C2
:103670000C490860FFF780FE0A4880682021084056
:10368000002808D100F012F8002801D1009004E0D1
:103690000120009001E001200090FF2001494862D4
:1036A0000098F8BD002800407F7F7F0008B5002209
:1036B000009200200021174A926820231A40002A15
:1036C00001D0012025E0CA22124B5A6253225A62CD
:1036D0001A46D268A0239A430E4BDA6000BF0D4A07
:1036E000D26820231A401146009A521C00929B0275
:1036F000009A9A4201D00029F1D0064AD2682023CC
:103700001A40002A01D0012000E00020FF22014BD6
:103710005A6208BD0028004070B500F019F805464F
:103720000120A84003218903884384B20748007818
:10373000002805D00121490320468843044602E0C1
:10374000012040030443204670BD000070000020AB
:1037500070B5FCF711FD05460C21FCF7F9FCCCB265
:10376000204670BD70B504460E46002C01D0642C76
:1037700002DB0020C04370BD5F2C04DC601E4001F2
:103780000749451804E020466038400105494518BE
:10379000202229463046FCF701FD2020EBE70000FF
:1037A00000F0000800FC00087047000010B5044657
:1037B000FDF70CFC0448FDF763FB21880248FDF788
:1037C000ADFBFDF7A1FB10BD00E800080CB5002023
:1037D00001900090314800680121090408432F49F5
:1037E000086000BF2D48006801214904084000908E
:1037F0000198401C01900098002804D1052109037C
:1038000001988842EED1254800680121490408400A
:10381000002802D00120009001E0002000900098D4
:10382000012839D111201E4908601C4840681B49F5
:103830004860084640684860084640687F21C903E0
:103840008843164948600846406811210904084326
:1038500012494860084600680121090608430F49DB
:10386000086000BF0D480068012149060840002893
:10387000F8D00A4840688008800008494860084637
:103880004068022108430549486000BF034840687A
:103890000C2108400828F9D10CBD0000001002409E
:1038A000002002407047000010B51B48006801214D
:1038B00008431949086008464068184908401649F5
:1038C00048600846006816490840134908600846E1
:1038D00000680121890488430F4908600846406850
:1038E0003F21090488430C4948600846C06A000922
:1038F0000001C8620846006BFF2154318843064925
:1039000008630846406B4008400048630020886018
:10391000FFF75CFF10BD0000001002400CB8FF086C
:10392000FFFFF6FE10B50121054800F03CF8002825
:1039300005D00121024800F013F800F013F910BD82
:1039400000040040002904D0028880231A4302802A
:1039500003E00288014B1A40028070477FFF00009D
:10396000CA43028270470000002904D00288012364
:103970001A43028003E00288014B1A40028070471C
:10398000FEFF0000002907D04422125A0123DB0366
:103990001A4344231A5205E04422125A53045B0C82
:1039A00044221352704730B5024600200023002401
:1039B000158A0D402B4695890D402C46002B03D0CF
:1039C000002C01D0012000E0002030BD002A03D0EF
:1039D00083890B43838102E083898B438381704712
:1039E00070B5002400220023058C1C4E3540058450
:1039F000028C8388048B194D6F3D2C40B51E2C40E2
:103A00000D882C43751E2A408D892A434D882A43F0
:103A1000134DA84208D0134DA84205D0124DA8421C
:103A200002D0124DA84212D10C4DED1F2A40CD8973
:103A30002A430A4DED1E2A408D882A43074DFF3D3B
:103A40002B400B4D2B400D8A2B434D8A2B438380FB
:103A500004838D684563028470BD0000FEFF000092
:103A6000002C01400040014000440140004801405A
:103A7000FFFD00000A460021018B034B19400B4655
:103A80001343194601837047F7FF000000220288A4
:103A9000154B984206D001239B07984202D0134B46
:103AA000984203D1124B1A404B881A43114B98424B
:103AB00003D0114B1A400B891A4302804B68C36232
:103AC0000B880385084B984208D00C4B984205D0D0
:103AD0000B4B984202D00B4B984201D18B7A038654
:103AE0000123838270470000002C01400004004045
:103AF0008FFF000000100040FFFC0000004001406C
:103B000000440140004801401FB5012002901349C4
:103B10006846818000218181C1808173012102205A
:103B2000FEF70EFE01A90E48FFF7B0FF1021684610
:103B300001700021417001218170FEF759FD0121C2
:103B40000748FFF70DFF012211460548FFF73EFF2A
:103B500001210348FFF708FF1FBD00007FBB0000E5
:103B60000004004002480068401C0149086070479A
:103B70000C000020002904D0026801231A430260CF
:103B800003E00268520852000260704702460020BB
:103B9000D3690B40002B01D0012000E000207047CA
:103BA000F0B58BB004460D46002700200A90002691
:103BB0002068400840002060666803210903304601
:103BC00088430646A8680643666026682D48064076
:103BD000E968686808432969084306432660A668BF
:103BE0000321090230468843064668690643A660F9
:103BF0006846FEF7E9FD2448844202D106980A90FF
:103C00000DE02248844202D107980A9007E020483C
:103C1000844202D108980A9001E002980A90206834
:103C20000121C903084000280CD029680A9A5000D5
:103C3000FCF778FA074629680A9A5000FCF772FAEE
:103C40000E4609E029680A98FCF76CFA07462968CD
:103C50000A98FCF767FA0E4628684008B04200D878
:103C60007F1C20680121C9030840002806D03807BE
:103C7000460F38460749084030430746A7810BB036
:103C8000F0BD0000F3E9FFFF0038014000440040B0
:103C900000480040F0FF0000CA05D20D02857047C1
:103CA00010B586B004461E4800681E49096888425F
:103CB0000ED1002069460870142100A80130FCF7DD
:103CC00086FA152269462046FCF768FA06B010BD50
:103CD0001348006815225043134A8118152268467C
:103CE000FCF75CFA00210E480068152250430E4A8A
:103CF00011540B490968152251430B4A8918481C75
:103D00001421FCF764FA0648006800F0B7FD044986
:103D10000860152269462046FCF740FA00BFD5E747
:103D2000080100200C010020600200200FB410B533
:103D30000E48006800F0A2FD0D490968884203D1D1
:103D400010BC08BC04B01847084909681522514343
:103D5000084A8818152202A9FCF720FA03480068CF
:103D600000F08CFD0149086000BFE9E70C0100206C
:103D700008010020600200200FB410B503A9044B15
:103D8000044A029800F026F810BC08BC04B018479A
:103D9000414200084401002030B47446641E257876
:103DA000641CAB4204D3635D5B00E31830BC18476E
:103DB0001D46F8E702E008C8121F08C1002AFAD120
:103DC00070477047002001E001C1121F002AFBD19B
:103DD00070470000FFB58FB00F460446002606E08E
:103DE00025280AD0129A11999047641C761C2078D5
:103DF0000028F5D1304613B0F0BD00250121A14ABD
:103E0000009500E00543641C23780846203B984059
:103E10001042F7D120782E2815D104200543607870
:103E2000641C2A280AD101CF641C00900BE0009981
:103E30000A22514330394018641C00902078014612
:103E400030390929F3D920786C280ED004DC4C28AD
:103E500013D06A2812D104E074280ED07A280DD12C
:103E60000BE001204005054307E0012109056278C8
:103E70000D43824201D16D18641C641C2078864673
:103E800069284AD008DC0028B4D058286DD06328AF
:103E900010D0642808D140E070286BD0732812D06D
:103EA000752860D0782860D0129A70461199904792
:103EB000761CE5E03878694608720020487202A84E
:103EC0000190012003E0386801900020C0433F1DAD
:103ED00069070CD5002500E06D1C00998D420FDAB2
:103EE0008542F9DB0199495D0029F5D108E00025FB
:103EF00000E06D1C8542FCDB0199495D0029F8D189
:103F0000761907E0019801990078491C0191129AED
:103F1000119990476D1EF5D2B2E00A20029000215F
:103F20006802400F039102280CD001CFC1178446CC
:103F300000290DDA6246084652420021814194462A
:103F40002D2008E0FF1DFF08FF0003CF8446EFE7A8
:103F5000280504D52B206A46107401203CE0E807B0
:103F60003AD02020F7E70A2000E01020002103913A
:103F7000029007E010200290002104200543082051
:103F8000039100906802400F022810D001CF002159
:103F9000844600200D9028071FD5704670280CD04D
:103FA000029A1020039B42401A430CD015E0FF1DDB
:103FB000FF08FF0003CF8446EBE740206A461074F9
:103FC00001200D900CE06046084306D030206A4680
:103FD00010747046507402200D907046582804D01A
:103FE00029A001900DA80E900DE02CA0F9E76046E5
:103FF000039B029AFCF721F9019B84469B5C0E9A75
:10400000521E0E92137060460843F0D10E9805A917
:10401000081A20300190680701D5009801E00120BE
:1040200000900199884203DD01460198081A00E0DA
:1040300000200025009006E004A8129A405D119926
:1040400090476D1C761C0D988542F5DB04E0129AB2
:10405000302011999047761C0099481E0090002945
:10406000F5DC08E00E980E990078491C0E91129A22
:1040700011999047761C0199481E01900029F1DCA6
:10408000641CB4E609280100303132333435363748
:104090003839616263646566000000003031323394
:1040A0003435363738394142434445460000000034
:1040B00030200021064A91610421116105490870F0
:1040C00009787D22D2005143034A118070470000D5
:1040D00000E000E0020000200400002001460D4A3C
:1040E00012884A430C4B5A6100229A6101221A61DC
:1040F00000BF094A1069C207D20F002A04D001226A
:1041000012040240002AF4D00022034B1A619A6183
:10411000704700000400002000E000E001460D4A66
:1041200012784A430C4B5A6100229A6101221A61AB
:1041300000BF094A1069C207D20F002A04D0012229
:1041400012040240002AF4D00022034B1A619A6143
:10415000704700000200002000E000E010B50446B7
:10416000002C05D0012149030448FDF75DF904E066
:10417000012149030148FDF755F910BD000400482D
:1041800010B50446002C05D00121C9030448FDF7F1
:104190004BF904E00121C9030148FDF743F910BDC3
:1041A0000004004810B50446002C05D00121090385
:1041B0000448FDF737F904E0012109030148FDF740
:1041C00033F910BD0004004810B50446002C05D09A
:1041D000012189030448FDF727F904E0012189033F
:1041E0000148FDF71FF910BD00040048002141807F
:1041F000C18081807047028000234380C380838018
:1042000081607047024653881088401E834201DD5A
:104210000120704793881088401E834205D19388FF
:104220009068C1540020908005E093889068C15444
:104230009088401C90805088401C50800020E8E707
:1042400070B504460D46E1B20548FFF725FD00BFF5
:1042500080210348FFF79AFC0028F9D0204670BD62
:10426000003801400FB4F0B58FB00446012C07DBD5
:10427000202C05DC4F4E601E40013146471824E0DB
:10428000212C07DB402C05DC4B4E601E40014949C8
:1042900047181AE0412C07DB5F2C05DC474E601EF7
:1042A00040014449471810E0602C08DB632C06DC11
:1042B000434E2046603840013146471805E0012052
:1042C0000FB0F0BC08BC04B018472022394607A83C
:1042D000FBF764FF6846808B3A4988420ED1012083
:1042E00010A98882142218A96846FBF757FF3846A0
:1042F00015A90EC900F06AF80020E1E70696012C26
:104300002BDB5F2C29DC00250BE069012E4A881885
:1043100020220699FBF742FF069820300690681C81
:1043200085B2202DF1DBFCF751FE3046FCF7A8FDED
:10433000FCF7EAFD611E4901234A8818202215A9CD
:10434000FBF72CFF0121601E40011F4A11528A0217
:104350001D493046FCF7C4FFB2E700250BE06901B8
:10436000194A881820220699FBF718FF0698203072
:104370000690681C85B2042DF1DBFCF727FE304661
:10438000FCF77EFDFCF7C0FD2146603949010E4A6D
:104390008818202215A9FBF701FF0121204660386B
:1043A0004001094A1152802207493046FCF798FF24
:1043B00086E7000000F0000800F4000800F800089C
:1043C00000FC0008FFFF0000CC0700200FB410B570
:1043D0000446202203A92046FCF782FF10BC08BC3B
:1043E00004B0184710B50446002C05D080210920E0
:1043F000C006FDF719F804E080210920C006FDF78A
:1044000011F810BD10B50446002C05D0102109206C
:10441000C006FDF709F804E010210920C006FDF7E9
:1044200001F810BD10B50446002C05D0202109204C
:10443000C006FCF7F7FF04E020210920C006FCF7C6
:10444000F3FF10BD10B50446002C05D04021092013
:10445000C006FCF7E9FF04E040210920C006FCF794
:10446000E1FF10BD0020034908604860C860086192
:10447000486170479C01002070B504460D46E56018
:10448000A2601846DE0F36187610666000202060A5
:104490000A4841694069002805D108484461206103
:1044A0000020606170BD00E0496948690028FBD1C7
:1044B0004C612161606100BFF4E700009C010020B5
:1044C00010B50B4844690FE02068002808D16068E7
:1044D0002060E068002806D0E168A068884702E014
:1044E0002068401E20606469002CEDD110BD0000E2
:1044F0009C01002008B5002402F0A0FB00F06EF83B
:1045000000F0BAF8002805D124A0FFF735FCFDF72C
:104510006FFF24E0FFF7CCFDFBF71EFFFEF7FEFD6B
:10452000FEF725FDFEF73CFEFDF700F804462146A8
:104530001EA0FFF721FC8C2C05D2FDF759FF1EA011
:10454000FFF71AFC0BE00025FDF7B4FE04E0681C41
:1045500085B20120FFF7E2FD642DF8DB00BF1BE010
:1045600000200090FCF7C2FF00900098A84212D0F3
:10457000009D18484078152808D1174909880098E7
:10458000884208D902201349487004E0684602F0C6
:104590008BFAFFF795FF00BFE2E700006B6579201B
:1045A00077616B6575700D0A00000000766F6C3DD9
:1045B00025646D560D0A0000636172642077616B9B
:1045C0006575702E2E2E2E2E2E2E2E2E2E2E0D0A90
:1045D0000000000090000020000000201CB5002119
:1045E000684681710121C171042000900021684654
:1045F00001710321417101218804FEF791F8694698
:104600000148FCF79BFE1CBD0004004810B50A24BD
:10461000C0215E20FDF72DFC05215D20FDF729FC62
:10462000FF212A20FDF725FCFF215920FDF721FC61
:10463000F0215E20FDF71DFC15E00A20FFF76EFD5E
:104640000020FDF705FC0B4908800120FDF700FC68
:10465000000208490988084306490880601E84B2A0
:10466000002C00D103E000F007F80028E5D000BFDF
:10467000012010BD0600002010B504210148FCF700
:10468000C7FE10BD0004004810B518217848FBF79C
:104690009EFD63218020FDF7ECFB00215E20FDF7ED
:1046A000E8FB01212B20FDF7E4FB01212C20FDF785
:1046B000E0FB05212D20FDF7DCFB00212E20FDF77E
:1046C000D8FB01212F20FDF7D4FB01213020FDF77D
:1046D000D0FBFF213120FDF7CCFB02213220FDF77A
:1046E000C8FB00213320FDF7C4FB00213420FDF777
:1046F000C0FB00213520FDF7BCFB0F213620FDF764
:10470000B8FB0F213720FDF7B4FB00213820FDF75F
:10471000B0FB00213920FDF7ACFB01213A20FDF769
:10472000A8FB01213B20FDF7A4FBFF213C20FDF766
:10473000A0FBFF213D20FDF79CFB00213E20FDF763
:1047400098FB00213F20FDF794FB00214020FDF75E
:1047500090FB05214120FDF78CFB03214220FDF752
:1047600088FB05214320FDF784FB03214420FDF74E
:1047700080FB05214520FDF77CFB03214620FDF74A
:1047800078FB05214720FDF774FB03214820FDF746
:1047900070FB05214920FDF76CFB03214A20FDF742
:1047A00068FB05214B20FDF764FB03214C20FDF73E
:1047B00060FB05214D20FDF75CFB03214E20FDF73A
:1047C00058FB05214F20FDF754FB03215020FDF736
:1047D00050FB05215120FDF74CFB03215220FDF732
:1047E00048FB05215320FDF744FB03215420FDF72E
:1047F00040FB05215520FDF73CFB03215620FDF72A
:1048000038FB05215720FDF734FB03215820FDF725
:1048100030FB05215920FDF72CFB00215A20FDF724
:1048200028FB00215B20FDF724FB04215D20FDF720
:1048300020FB80215C20FDF71CFB8F217B20FDF7F6
:1048400018FBE4217D20FDF714FB94217E20FDF769
:1048500010FBCD217F20FDF70CFBCC215E20FDF766
:1048600008FB152203490448FFF7C5FC10BD0000F2
:1048700084010020480100206001002001463F29FA
:1048800001D100207047481C0146FBE700B599B0F4
:10489000FCF72CFE1790FC484078012806D0FB4915
:1048A00017980968884201D3FDF7BCFC0AA8FFF7F6
:1048B000F7F918220AA910A8FBF770FC10A80078D5
:1048C00000280DD1F0484078122809D0EE484078F1
:1048D000132805D0EC484078142801D019B000BD49
:1048E000EB4917984018E949086010A80078022899
:1048F00006D1FEF711FF01460F900220FDF784F864
:10490000E1484078162801D302F0B4F843007B4414
:104910009B885B009F44AE1015001F0021007A06A3
:104920000D08A409820A4E0C8102B80DAE10AE101B
:10493000D20EAE10AE10D30FD40F5410D50F1610E8
:104940002000D44800788007800F002802D0032080
:10495000CD494870F5E3FDE7FCE710A80078012891
:1049600073D110A84078812813D008DC01280FD01B
:10497000022839D004280FD0102867D1BDE0822842
:104980007ED0842863D088287BD09028F5D1B5E0EC
:1049900000BFFDF747FC06E10220BB49087008464E
:1049A00040688078002811D1FCF706FE00280ADD57
:1049B0000920B5494870FDF7EDFC169004201699C2
:1049C000FDF742F90FE0FDF706FD0CE0B248FFF7F6
:1049D0000DFC0820AC494870FCF728FD169001201A
:1049E0001699FDF731F9DEE00120A7490870084665
:1049F0004068807800281AD1FCF7DEFD5F2813DAC2
:104A00000020A6490870FCF71DFC9F49087204208D
:104A100048700846007A0F90FCF74EFD169004206F
:104A20001699FDF711F90FE0FDF7C8FC0CE09A4864
:104A3000FFF7DCFBFCF7FAFC16900820924948705F
:104A400001201699FDF700F9ADE0ADE0AAE00420E1
:104A50008D490870FCF750FD002813D001208A49C9
:104A6000496888708C48FFF7C1FB08208649487068
:104A7000FCF7DCFC169001201699FDF7E5F803E041
:104A800003E06FE0FDF7A7FC8DE003207E4908708E
:104A9000FCF732FD002811DD7F48FFF7A7FB5F2000
:104AA000FCF70AFB7849087208204870FCF7BEFC46
:104AB000169001201699FDF7C7F81DE0FCF71CFDC4
:104AC000042802DBFDF77AFC16E000207349087029
:104AD0007148FFF78BFB5F20FCF7EEFA6A4908721A
:104AE000052048700846007A0F90FCF7E5FC169008
:104AF00004201699FDF7A8F855E000BF012162488F
:104B000001704068807800281BD1FCF755FD5F28B4
:104B100014DA6148FFF76AFB0020FCF793FB5A495F
:104B20000872062048700846007A0F90FCF7C4FC13
:104B3000169001201699FDF787F812E0FDF73EFC6C
:104B40000FE05548FFF752FBFCF770FC1690002170
:104B50004D48017208204C49487001201699FDF714
:104B600073F820E0052048490870084640688078BE
:104B7000002809D1FCF742FD002802DDFBF714FDF7
:104B80000FE0FDF728FC0CE04348FFF72FFB08205F
:104B90003D494870FCF74AFC169001201699FDF734
:104BA00053F800E000BF37E110A8007802287DD15B
:104BB000002018903848FCF719FD0F900F98012835
:104BC00010D110A84078A3280CD12F480069007894
:104BD000002802D1FCF71CF901E0FCF70DF92E4882
:104BE000FFF704FB10A840782A280DD10F98012860
:104BF00008DD0A2278210120FCF73AFE2648FFF75B
:104C0000F5FA01E0FDF70EFB0F98142803DA10A85F
:104C10004078232837D10F980A2874DB0021204AD6
:104C20000F98115411460120FBF782FF1890189835
:104C300000283CD01449189808720846007A0E9053
:104C4000FCF73AFC169001201699FCF7FDFF154978
:104C50000120FCF74FFDFDF787FC13490120FCF70D
:104C600049FD1E20FFF73AFA00210120FCF742FD22
:104C7000054800690078002802D1122002494870D6
:104C80000548FFF7B3FA68E090000020A800002074
:104C9000C4090000B400002060010020B200002020
:104CA00048010020FFBF0000FF3F000056E0F84829
:104CB0000068401CF649086008460068032816D9B9
:104CC000FCF7D2FB169001201699FCF7BDFFFBF70D
:104CD0002DFEFCF7C9FCEF4917984018EE49086013
:104CE0001520EE4948700120ED49087006E00A22BF
:104CF00064210120FCF7BCFDFCF7D8FEE948FFF772
:104D000075FA2AE0FFE7E2480068401CE0490860C5
:104D100008460068032816D9FCF7A6FB1690012068
:104D20001699FCF791FFFBF701FEFCF79DFCD949B2
:104D300017984018D84908601520D84948700120B4
:104D4000D749087009E0D748FFF750FA0A226421D2
:104D50000120FCF78DFDFCF7A9FE5DE010A80078AE
:104D6000032859D110A901310220FBF7E1FE189068
:104D70001898002829D00020C5490860C74918980C
:104D800008720846007A0F90FCF796FB16900120F7
:104D90001699FCF759FFC4490120FCF7ABFCFDF75D
:104DA000E3FBC2490120FCF7A5FC1E20FFF796F9A2
:104DB00000210120FCF79EFCB8480069007800281B
:104DC0002AD11220B549487026E0B1480068401C3D
:104DD000AF49086008460068032816D9FCF744FB71
:104DE000169001201699FCF72FFFFBF79FFDFCF7AB
:104DF0003BFCA84917984018A74908601520A74907
:104E000048700120A649087006E00A2264210120AA
:104E1000FCF72EFDFCF74AFE9CE5A048007804282C
:104E200006D15F200E9063200D90A1480F9005E001
:104E300000200E905F200D909E480F9010A80078E3
:104E400001286ED100219C48017010A840780428E8
:104E500012D004DC012807D0022878D1EEE008281F
:104E600076D01028F9D1E1E1FDF766FA169001201D
:104E70001699FCF7E9FEFDE28848007804286ED117
:104E80008E4800780D2806D10E218C480170FCF761
:104E9000D7FA169052E0894800780E2821D10020D8
:104EA000FCF7E2F818901898401C00280CD07B49B9
:104EB000189808720F20814908701898C0B20C9099
:104EC000FCF7FAFA169039E0FCF7ECFA16904B2250
:104ED000D20011461420FCF7CBFC03206F49487028
:104EE0002CE0764800780F281CD16C48007A40B23C
:104EF0000C90FCF7B9F818901898401C002809D0BD
:104F00006649189808721898C0B20C90FCF7D4FA49
:104F1000169013E00D2069490870FCF7AFFA16905F
:104F20000CE0A8E20D20654908704B22D200114622
:104F30001420FCF79DFCFCF7A1FA16905748407826
:104F4000032807D101201699FCF77EFE75E08FE259
:104F50008FE204E004201699FCF776FE6DE04F48DE
:104F60000078022869D1554800780A2806D10B201C
:104F700052490870FCF764FA169051E04F480078E7
:104F80000B2821D10020FCF737F918901898401C05
:104F900000280CD04149189808720C204749087025
:104FA0001898C0B20C90FCF787FA169038E0FCF71E
:104FB00079FA16904B22D20011461420FCF758FCC7
:104FC0000320364948702BE03C4800780C281BD160
:104FD0003248007A40B20C90FCF70EF918901898FD
:104FE000401C002809D02D49189808721898C0B2A2
:104FF0000C90FCF761FA169012E00A202F49087015
:10500000FCF73CFA16900BE00A202C4908704B2262
:10501000D20011461420FCF72BFCFCF72FFA169057
:105020001E484078032804D101201699FCF70CFE95
:1050300003E004201699FCF707FE1BE217480078EE
:1050400004287DD11D4800780D2839D10020FBF7B8
:10505000E3FF18901898401C00280CD00F491898AE
:1050600008720F20154908701898C0B20C90FCF710
:1050700023FA16905BE0FCF715FA16904B22D2004B
:1050800011461420FCF7F4FB0320044948704EE05D
:10509000AC00002020BF0200000000209000002093
:1050A0001001002060010020FFBF0000FF3F000052
:1050B00019100008A9110008B2000020B10000205A
:1050C000FE4800780E2806D10D20FC490870FCF738
:1050D000D5F916902BE0F94800780F281BD1F84835
:1050E000007A40B20C90FBF797FF18901898401C7C
:1050F000002809D0F249189808721898C0B20C908C
:10510000FCF7DAF9169012E00E20EC490870FCF773
:1051100097F916900BE00D20E84908704B22D20059
:1051200011461420FCF7A4FBFCF7A8F91690E448FC
:105130004078032806D101201699FCF785FD74E01C
:1051400005E0F5E304201699FCF77EFD6DE0DC48F0
:105150000078022869D1D94800780A2821D1002096
:10516000FCF74AF818901898401C00280CD0D44935
:10517000189808720C20D14908701898C0B20C9089
:10518000FCF79AF9169043E0FCF78CF916904B2245
:10519000D20011461420FCF76BFB0320C84948706D
:1051A00036E0C64800780B2806D10A20C3490870AB
:1051B000FCF764F916902BE0C04800780C281BD14E
:1051C000BF48007A40B20C90FCF716F81890189877
:1051D000401C002809D0BA49189808721898C0B223
:1051E0000C90FCF769F9169012E00B20B349087097
:1051F000FCF726F916900BE00A21B04801704B220B
:10520000D20011461420FCF733FBFCF737F9169057
:10521000AB484078032804D101201699FCF714FD0F
:1052200003E004201699FCF70FFD23E1A348007862
:105230000A2809D1A2494870FDF7A0F8169001206C
:105240001699FCF701FD12E19C4800780B2802D169
:10525000FBF7AAF90BE1994800780C286DD1984822
:10526000017A0E9881424ADD9548017A0D98814273
:1052700045DC9348007A401E40B20C900F99884755
:105280008F49097A88421CD10A218C480170322248
:1052900064210220FCF7ECFAFCF79CFB8848007ABA
:1052A0000C90FBF77BFDFCF787F9002801D1FDF797
:1052B00092F8FCF7E3F8169004201699FCF7C4FC6A
:1052C000D5E000217F480170322264210220FCF7E2
:1052D000CFFAC8231A4601217B48FCF745FB002082
:1052E0000F998847764908720846007A0C90FCF7B7
:1052F000E3F8169004201699FCF7A6FCB7E000200E
:1053000070490870322264210220FCF7B1FAC823E8
:105310001A4601216C48FCF727FB00200F998847AB
:10532000674908720846007A0C90FCF7C5F8169099
:1053300004201699FCF788FC99E0604800780D2855
:1053400007D1FDF70FF8169001201699FCF77CFCA9
:105350008DE05A4800780E2802D1FBF725F986E047
:10536000564800780F2872D15548017A0E9881422C
:105370004EDD5348017A0D98814249DC5048007A4D
:10538000401E40B20C900F9988474D49097A8842D7
:1053900020D10D2049490870322264210220FCF7F7
:1053A00067FAFCF717FB4648007A0C90FBF7F6FC0F
:1053B000FCF7A2F8002805D144498870FCF7BAFE32
:1053C000FDF709F8FCF75AF8169004201699FCF737
:1053D0003BFC4CE000203B49087032226421022053
:1053E000FCF746FAC8231A4601213748FCF7BCFAF5
:1053F00000200F998847324908720846007A0C90BD
:10540000FCF75AF8169004201699FCF71DFC2EE0C4
:1054100000202C490870322264210220FCF728FA6F
:10542000C8231A4601212848FCF79EFA00200F994C
:105430008847234908720846007A0C90FCF73CF82C
:10544000169004201699FCF7FFFB10E0FFE74B22B3
:10545000D20011461420FCF70BFA0A2017490870F5
:10546000FCF70CF8169004201699FCF7EDFB01E010
:1054700000BF00BFC9E010A80078022856D10F482D
:1054800000780F2803D00D4800780C284ED110A8C2
:10549000407830284BDB10A84078392847DC094891
:1054A0000078002816D107480078401CC1B2054892
:1054B000017010A840783038014909E0B10000209F
:1054C00090000020B2000020FF7F0000B8070020FD
:1054D000087221E0FE48007801280FD1FC480078CE
:1054E000401CFB490870FB48007A0A21484310A978
:1054F000497830394018F74908720DE00020F44926
:105500000870322264210220FCF7B2F9C8231A463F
:105510000121F148FCF728FAEE48007A0C90FBF7DD
:10552000CBFF169004201699FCF78EFB6DE010A8B7
:10553000407823285ED10E99189888423CDD0D9959
:105540001898884238DCE348007A401E40B20C903C
:105550000F998847DF49097A88420FD1DF48FEF763
:1055600045FE0621DB484170007A0C90FBF7A4FF52
:10557000169001201699FCF767FB46E00020D449FD
:105580000870322264210220FCF772F9C8231A46FF
:105590000121D148FCF7E8F900200F998847CD494F
:1055A00008720846007A0C90FBF786FF16900420DC
:1055B0001699FCF749FB28E00020C5490870322203
:1055C00064210220FCF754F9C8231A460121C2487D
:1055D000FCF7CAF900200F998847C1B2BD48017293
:1055E000007A0C90FBF768FF169004201699FCF7E0
:1055F0002BFB0AE010A840782A2806D1FCF79CFE75
:10560000169001201699FCF71FFB05E410A80078FE
:10561000012875D110A84078042812D004DC012894
:1056200007D002286DD138E008286BD0102868D147
:1056300069E0FCF781FE169001201699FCF704FB47
:10564000B7E0A448007A40B20F90FBF723FE189011
:105650001898801C002812D1FBF7AEFF5F2802DBF0
:10566000FCF7ACFE14E06020FBF714FE99490872C9
:105670000846007A0F90FBF71FFF169008E0954947
:10568000189808720846007A0F90FBF715FF1690DD
:1056900004201699FCF7D8FA8BE08E48007A5F2830
:1056A00002DB00208B4908728A48007A40B20F90D2
:1056B000FBF7C8FD18901898801C002812D1FBF742
:1056C0007BFF5F2802DBFCF779FE14E00020FBF78C
:1056D000B9FD804908720846007A0F90FBF7ECFE8E
:1056E000169008E07B49189808720846007A0F90D7
:1056F000FBF7E2FE169004201699FCF7A5FA58E095
:1057000069E055E053E07348007A002837DD7148BE
:10571000007A5F2833DC6F48007A401E40B20F9059
:10572000FBF790FD6B49097A884210D16B48FEF770
:105730005DFD0620674948700846007A0F90FBF728
:10574000BBFE169001201699FCF77EFA2EE0002091
:105750005F4908700A2278210120FCF789F80020AF
:10576000FBF770FD5B4908720846007A0F90FBF763
:10577000A3FE169004201699FCF766FA16E00020A6
:10578000534908700A2278210120FCF771F80020A3
:10579000FBF758FD4F4908720846007A0F90FBF757
:1057A0008BFE169004201699FCF74EFA01E000E0FB
:1057B00000BF00BF4748407801280BD045484078DB
:1057C000032807D043484078062803D004201699C0
:1057D000FCF73AFAABE010A8007802283CD110A8F8
:1057E0004078302839DB10A84078392835DC384833
:1057F000007800280AD136480078401C34490870E7
:1058000010A840783038334908721BE030480078DF
:1058100001280FD12E480078401C2D4908702D48D2
:10582000007A0A21484310A949783039401829499B
:10583000087207E00020264908700A22782101201A
:10584000FCF716F82348007A0F90FBF735FE169008
:1058500004201699FCF7F8F969E010A8407823288D
:105860005AD1189800283FDD18985F283CDC194869
:10587000007A401E40B20F90FBF7E4FC1549097A0C
:10588000884210D11548FEF7B1FC06201149487036
:105890000846007A0F90FBF70FFE1690012016992C
:1058A000FCF7D2F943E00020094908700A22782168
:1058B0000120FBF7DDFF0020FBF7C4FC054908725F
:1058C0000846007A0F90FBF7F7FD1690042007E0DA
:1058D000B200002090000020FF7F00006001002047
:1058E0001699FCF7B1F922E00020FE4908700A225F
:1058F00078210120FBF7BCFF0020FBF7A3FCFA494D
:1059000008720846007A0F90FBF7D6FD1690042027
:105910001699FCF799F90AE010A840782A2806D1D0
:10592000FCF70AFD169001201699FCF78DF96CE63C
:10593000ECE310A80078012879D110A840788128DC
:1059400017D00CDC04281CD004DC012810D002285D
:105950006ED146E008286CD0102869D174E0822806
:1059600040D084280ED088287DD0902860D16CE06B
:1059700000BFFCF7E1FC169001201699FCF764F9D2
:10598000BCE000BFD848007A602802DC6420D64919
:105990000872D548007A40B20F90FBF7B5FB18901B
:1059A0001898801C002812D1FBF7A6FD042802DB02
:1059B000FCF704FD14E06420FBF7A6FBCA4908725B
:1059C0000846007A0F90FBF777FD169008E0C6496D
:1059D000189808720846007A0F90FBF76DFD169034
:1059E0008CE000BFC048007A632802DB5F20BE491C
:1059F0000872BD48007A40B20F90FBF75DFB18902B
:105A00001898801C002815D1FBF7D6FD042802DB6E
:105A1000FCF7D4FC17E05F20FBF74EFBB24908729D
:105A20000846007A0F90FBF747FD16900BE073E0F5
:105A300063E060E0AC49189808720846007A0F905D
:105A4000FBF73AFD169059E000BFA748007A5F289F
:105A500039DDA548007A632835DCA348007A401E6A
:105A600040B20F9000E047E0FBF726FB9E49097A21
:105A7000884210D19D48FEF7B9FB06209A4948702C
:105A80000846007A0F90FBF717FD16900120169933
:105A9000FCF7DAF82EE00020924908700A227821FB
:105AA0000120FBF7E5FE0020FBF706FB8E4908729C
:105AB0000846007A0F90FBF7FFFC16900420169919
:105AC000FCF7C2F816E00020864908700A22782107
:105AD0000120FBF7CDFE0020FBF7EEFA82490872A9
