:020000040800F2
:1000000098100020CD000008D92C0008C524000855
:1000100000000000000000000000000000000000E0
:10002000000000000000000000000000DD3E0008AD
:100030000000000000000000E92D0008D93F000882
:10004000FD000008000000000D3B0008FD00000856
:10005000FD000008FD0000082D1400082F14000802
:1000600000000000FD000008FD000008FD00000881
:10007000FD000008FD000008FD0000080000000071
:1000800059400008FD000008FD000008FD000008C0
:10009000FD000008FD000008FD000008FD0000084C
:1000A000FD000008FD000008FD000008FD0000083C
:1000B000FD000008FD0000080348854600F0B4FA82
:1000C0000048004795520008981000200C4880F323
:1000D00008880C480168090E0B4A914205D10B486B
:1000E0000B4901600B480C4901600C4880470C48E3
:1000F0000047FEE7FEE7FEE7FEE7FEE7FEE700005B
:1001000098100020040000001F000000181002409A
:10011000010000000000014000000000DD3F000879
:10012000B900000830B50B4601460020202201240A
:1001300009E00D46D5409D4205D31D469540491B1B
:100140002546954040191546521E002DF1DC30BD64
:1001500070B500242546002801DA01244042002918
:1001600001DA01254942FFF7DDFFAC4200D04042F1
:10017000002C00D0494270BD0549064A086850432A
:10018000054A8018086040087047014908607047B8
:10019000580100206D4EC6413930000003460B4324
:1001A0009B0703D009E008C9121F08C0042AFAD22D
:1001B00003E00B780370401C491C521EF9D27047B3
:1001C000D2B201E00270401C491EFBD270470022EF
:1001D000F6E710B513460A4604461946FFF7F0FF46
:1001E000204610BD30B505462A460B4610781C78CF
:1001F000521C5B1C002801D0A042F7D0002C03D079
:10020000002802D06D1CEFE7284630BD10B5002253
:1002100000E0521C835C8C5CA34201D1002BF8D11E
:10022000D8B2E1B2401A10BD03460A780270401CF1
:10023000491C002AF9D118467047F0B51FB406468C
:10024000002082B005464024019100901BE00199F6
:1002500022460F46304600F009FA049A059B801AA0
:10026000994110D310461946224600F0EFF9361A8C
:100270008F410197224601200021009F00F0E6F9FE
:1002800038184D4100902046641E0028DFDC019B99
:1002900000982946324607B0F0BD0000F0B5074689
:1002A0000846584087B0C00F049048000E465900D9
:1002B00040084908BC1A884105D2384631461E46D6
:1002C00017460B4602465800400810434CD0300DEC
:1002D000039040055900400D490D0590401A0290C9
:1002E000402872DA18030121000B09050843019028
:1002F00004980092002805D00199524200208841BC
:1003000000920190029840210A1A0199009800F089
:100310009DF905460C466B4607CB00F0B8F9C019AD
:100320007141039A0E0D0023D71756401A467A40A2
:10033000164344D0049A002A2DD0029A012A039A27
:1003400015DC1205C01A914101263605001C7141C9
:10035000D20F059ED2070093019202962A462346A9
:1003600000F0B5F907B0F0BD38463146FAE716059A
:10037000224A0F46B218C01AB74101210905001CD4
:100380004F4100187F41114618187941E20F104380
:100390006D19644113E0E2076D0815436408C20754
:1003A0001443039A01261205C01A91413605001C18
:1003B0007141CE07400830434908C01851412A46D0
:1003C000234600F077F9CDE7FFE7049801224000CB
:1003D000C117121A00238B4104983146C417381AEA
:1003E000A141EEE730B40124E407634030BC55E797
:1003F00030B40124E407614030BC4FE70000E0FF67
:10040000F0B51FB488B00B990998002448400999A9
:10041000C00F490049080991C0070B990090490095
:1004200049080B9109990898A64608431CD00B99D6
:100430000A98084318D0099801244000420D48004A
:10044000410D099824050003000B204309900B98E7
:100450000003000B20430B9050181C494018002249
:1004600001901446104605E0002001460DB0F0BD95
:10047000032801DA034600E003239C46C11A0AAEB2
:100480000AE05F0008ADED5B4F00F75B7D4300279E
:10049000AA187C41491C5B1E6145F2DD410004AB9A
:1004A0005A522104120C0A43240C401C0828DFDB9A
:1004B000019802900099704601910090059B049A62
:1004C0000799069800F003F9D0E700000DFCFFFF44
:1004D000F0B50C465C4085B0E40FE40703944C0093
:1004E00000266408590094464908024602962243B1
:1004F00021D062460A431ED06200570D4A000E0307
:100500002303550D012402462C492405781B1B0B9F
:10051000360B401823432643614600901C46501A70
:10052000B44103D30098401C009002E09218009858
:100530005B41002803DA0020014605B0F0BD002031
:10054000012109050746864611E064461D46141B35
:10055000B54106D36546521BB341744607430C436D
:10056000A646CD0740084908284392185B41054636
:100570000D43EAD11046184313D060461946504047
:100580007140084306D06046101AB34106D20122DA
:10059000002306E000220123DB0702E00122D24310
:1005A0005310009874460105381C6141029C039D5C
:1005B0000019694100F07EF8BFE70000FD0300006C
:1005C0004A0009030123090B1B0519430A4B10B507
:1005D000520D9A4202DA0020014610BD064B343318
:1005E0009A4203DC9A1A00F041F810BD034BD2186E
:1005F00000F02CF810BD0000FF030000CDFBFFFF52
:1006000010B5002904DB0124E40740428C41214657
:10061000002B04DB1C460123DB075242A341994215
:1006200000D1904210BD0000064C0125064E05E0A9
:10063000E36807CC2B430C3C98471034B442F7D303
:10064000FFF73EFDCC800008EC80000810B5202AA2
:1006500004DB0146203A9140002010BD9140202348
:100660009C1A0346E3401943904010BD10B5202A60
:1006700004DB0846203AD040002110BD0B46D34091
:10068000D0402024A21A91400843194610BD10B54D
:10069000202A06DBCB170846203A1041C1170B432E
:1006A00006E00B461341D0402024A21A9140084393
:1006B000194610BD10B5002B08DA0024401C61411A
:1006C00092185B411A4301D14008400010BDF0B5BB
:1006D0001FB482B005460C0003D0084603F01EFF8D
:1006E00002E003F01BFF203002460090214628461E
:1006F000FFF7ACFF049B059A04460F4618431143CD
:10070000084314D0184610431BD0009840210A1A01
:1007100018460599FFF7AAFF05460E46009A059967
:100720000498FFF793FF084305D0012004E020461A
:10073000394607B0F0BD0020C11705430E432C43D6
:10074000374300990E986305401A7905E40A0022A0
:100750000C43FD0A0A3002D500200146E9E70105F5
:10076000101969410C9C0D9D00196941FFF7A2FF0A
:10077000DFE770B58C180578401C6B075B0F01D163
:100780000378401C2A1106D10278401C03E0067849
:100790000E70401C491C5B1EF9D12B0705D40023A9
:1007A000521E0DD40B70491CFAE70378401CCB1A7B
:1007B000921C03E01D780D70491C5B1C521EF9D57C
:1007C000A142D8D3002070BD00B593B0324800F0EC
:1007D000A7F80121480402F027FB0121480202F09A
:1007E00043FB0121084602F01FFB04200090032177
:1007F000684601710021C17169460920C00601F0F7
:10080000D3F8264800F000FD2348403002902448E9
:100810000390002004902020059000200690802066
:100820000790400008908000099020200A90000264
:100830000B9000200C9002A9184800F0B1FD012196
:10084000164800F0D3FC0221134800F061F80121A2
:10085000114800F051F80DA800F0C7F800200D90E5
:10086000012108A8017600200F9011900420129019
:100870000DA9094800F09EF807220421064800F05F
:100880001FF80121044800F0B8F80121024800F0E7
:1008900009F813B000BD0000002401400800024028
:1008A000400C0020002905D0C2680123DB031A4355
:1008B000C26004E0C2680123DB039A43C260704750
:1008C00010B50B460021846A1C43846200BF0C46AD
:1008D00014432146416110BD0160704701617047BA
:1008E000002904D0826801231A43826003E08268F1
:1008F00002231A4382607047002904D0C268012392
:100900001A43C26003E0C26852085200C2607047D6
:10091000C26802239A43C260C2680A43C260704739
:1009200010B504460548844207D10121401502F064
:10093000ABFA0021601502F0A7FA10BD00240140B7
:1009400030B501460020002200238C680125ED0708
:100950002C438C6000BF8C68E30FDB07521C0F2414
:100960002403A24201D0002BF5D18C68E40FE407E8
:10097000002C01D1086C00E0002030BD0146086C5D
:1009800080B2704730B502460020002301242406BF
:100990000C40002C05D0946801252D06AC4323465D
:1009A00000E013681C460C40002C01D0012000E040
:1009B000002030BD10B50022C268084B1A400C79E7
:1009C00064030B6823438C682343CC6823430C697E
:1009D00023434C6923431A43C26010BD03D2FFFF77
:1009E0008168042211438160704700210160017118
:1009F0008160C160016141617047002905D0C26812
:100A000001239B031A43C26004E0C26801239B03D5
:100A10009A43C2607047000010B500F027FD0A49F4
:100A2000012001F0A1F900F02BF9502004F014FA94
:100A300001F072F804462146012001F03FFC00F06D
:100A4000F1F901F039FF10BDFFBF000070B5044699
:100A5000632C02DD0020C04370BD602C04DB632CDE
:100A600002DC01200B498870601EC004050E601E68
:100A7000C606F60EA9000748001D40580121B140E6
:100A80000843AA000349091D885001F08FFE012088
:100A9000E2E70000140800201CB50121480402F020
:100AA000C3F9022000900320694608710920C0069E
:100AB00000F07AFF1CBD000010B586B000240121B3
:100AC000480202F0D1F90121480402F0ADF9FFF724
:100AD000E3FF6846FFF789FF002000906946087130
:100AE00002900390049005901348FFF719FF01212D
:100AF00089071148FFF7F2FE69460F48FFF75AFFD2
:100B0000052202210C48FFF7DBFE0B48FFF718FF18
:100B100001210948FFF7E4FE04E0601C84B20120D3
:100B200004F0BAF901210448FFF72CFF002801D195
:100B3000642CF2DB06B010BD00240140F8B50020A3
:100B400000900027002600F077F80A2004F0A4F9AE
:100B50002448FFF745FF002426E02248FFF740FF26
:100B600006E00098401C80B20090642004F094F9E4
:100B700004211C48FFF706FF002802D100986428D2
:100B8000EFDB1848FFF7FAFE054610211548FFF77E
:100B9000A3FE1549694308461449FFF7D9FA86B2FE
:100BA000B81987B2601C84B2052CD6DB9321794337
:100BB0000846EB21FFF7CCFA0D4988810846818968
:100BC0000CA003F085FC0A4880890849CE31884290
:100BD00002DA01F031FE01E001F018FE00F025F824
:100BE000F8BD000000240140E40C0000FE0F0000EE
:100BF0008C0000206261743D2025640D0A00000015
:100C00001CB50121480402F00FF9082000900121D1
:100C1000684601710321417100218171C1716946EA
:100C20000920C00600F0C0FE1CBD10B50821092037
:100C3000C00600F02DFF10BD10B508210920C00628
:100C400000F028FF10BD10B55F20C00000F0B2F822
:100C5000FF20693000F0C2F80A22C821012001F00B
:100C600041F910BD10B51920400100F0A3F8C820CB
:100C700000F0B4F80A22BE21012001F033F910BDC2
:100C800010B500F05DF81E2004F0E6F800F050F812
:100C90002D2004F0E1F800F053F81E2004F0DCF8F9
:100CA00000F046F82D2004F0D7F800F049F81E2097
:100CB00004F0D2F800F03CF82D2004F0CDF800F05C
:100CC0003FF81E2004F0C8F800F032F82D2004F0A0
:100CD000C3F800200149487010BD00002801002021
:100CE00010B5FF20A53000F065F8C82000F076F8B8
:100CF00000F026F8092004F0AFF800F019F80920F8
:100D000004F0AAF800F01CF8092004F0A5F800F09F
:100D10000FF8092004F0A0F800F012F8092004F000
:100D20009BF800F005F8092004F096F810BD0000CB
:100D300010B50021014803F0BFF910BD0044014087
:100D400010B50121014803F0B7F910BD004401407E
:100D50001CB50121480402F067F8FF200130009023
:100D6000022168460171032141710021C171694668
:100D7000044800F019FE02220821024800F05CFE3F
:100D80001CBD00000004004810B5FFF7E1FFFF2084
:100D9000A53000F00FF8C82000F020F80223002250
:100DA0000249034804F038FA10BD0000251F00086E
:100DB000FC0700203EB504460121480402F054F827
:100DC00001942F21684601800021018141806946FC
:100DD000014803F0F5F93EBD0044014010B586B06E
:100DE00004466021684681800121C1800021018183
:100DF0000394022101820021818201A9084803F0A5
:100E000089F90821064803F0CFF90121044803F0CD
:100E100033F90121024803F041F906B010BD00008A
:100E20000044014010B5FFF78BFF142004F014F8C4
:100E3000FFF77EFF0A2004F00FF8FFF781FF142070
:100E400004F00AF8FFF774FF0A2004F005F8FFF732
:100E500077FF142004F000F8FFF76AFF0A2003F080
:100E6000FBFF00200149487010BD00002801002050
:100E700010B5FFF765FF322003F0EEFFFFF758FFD4
:100E80001E2003F0E9FFFFF75BFF322003F0E4FFD1
:100E9000FFF74EFF1E2003F0DFFF002001494870DE
:100EA00010BD00002801002010B50021022000F034
:100EB00097FF022300220249024804F0ADF910BD59
:100EC000C90E0008CC01002030B589B005460024C9
:100ED00004F046F9002801D009B030BD0121C90253
:100EE0000920C00600F0CAFD00283FD13D49088016
:100EF00033E03D483B4A1288815C022000F070FFDD
:100F00000121C9020920C00600F0B8FD01280BD15B
:100F10003448008840003549085A401C3149098846
:100F20004900324A505205E000202E490988490004
:100F30002E4A50522B48008840002C49085A6428F9
:100F400006D1294827490988405C80210843044389
:100F500024480088401C234908802248008805282E
:100F6000C7DD0021022000F03BFF24E000201D49E6
:100F700008801CE01B48008840001C49085A0228D1
:100F80000ADB184800884000085A642804DA16482A
:100F900014490988405C044300201249098849002B
:100FA000124A50520F480088401C0E4908800D48D4
:100FB00000880528DEDB002C12D001216846017371
:100FC0008473062207A9FFF7E9F803A80FC803F006
:100FD00047FA01F00DFC214605A003F079FA00BFA5
:100FE00000BF79E7140000200E000020E40100207B
:100FF0004B657956616C75653A2025580D0A0000DD
:10100000FFB58BB00646002400F032FE0A900A9825
:10101000002801D10FB0F0BD00253CE0204600F0D3
:10102000D1FB0446601C002800D1F3E721461CA038
:1010300003F04EFAE0B201A902F02EFF02AF023730
:101040000020099008E039787F1C17A003F040FACF
:101050000998401CC0B209906846018909988142EC
:10106000F1DC12A003F034FA6846C079B04210D126
:101070000E98012804D0684601890C98814208D155
:1010800002A802300D99FFF7ADF8002801D02046E4
:10109000C0E7681CC5B20A988542BFDB0020B9E7EB
:1010A00025640D0A00000000256300000D0A000001
:1010B000FFB589B006460F465F2500F057FD089042
:1010C0000898002801D10DB0F0BD002421E0284689
:1010D00000F0D8FA0546681C002800D1F3E7E8B212
:1010E000694602F0D9FE6846C078B0420FD10C982C
:1010F000012803D068468088B84208D101A902318E
:101100000B98FFF76FF8002801D02846DBE7601C3A
:10111000C4B208988442DADB0020D4E7FFB58BB074
:101120000646002400F0A4FD0A900A98002801D188
:101130000FB0F0BD00253CE0204600F043FB044624
:10114000601C002800D1F3E721461CA003F0C0F981
:10115000E0B201A902F0A0FE02AF02370020099020
:1011600008E039787F1C17A003F0B2F90998401CF9
:10117000C0B209906846018909988142F1DC12A049
:1011800003F0A6F96846C079B04210D10E98012844
:1011900004D0684601890C98814208D102A9023125
:1011A0000D98FFF71FF8002801D02046C0E7681C03
:1011B000C5B20A988542BFDB0020B9E725640D0A55
:1011C00000000000256300000D0A0000012109074E
:1011D0000140002902D00349486001E0024948600B
:1011E000704700000004024000000240002904D0C3
:1011F000026801231A43026003E00268014B1A40AF
:1012000002607047FEFF00000168554A114001600E
:101210000021016041608160C1605249884208D16B
:101220005049083949680F2211434E4A083A516023
:1012300094E04C491431884208D14A490839496838
:10124000F0221143474A083A516087E04549283166
:10125000884209D14349083949680F2212021143D3
:10126000404A083A516079E03E493C31884209D110
:101270003C49083949680F2212031143394A083A98
:1012800051606BE037495031884209D135490839FE
:1012900049680F2212041143324A083A51605DE056
:1012A00030496431884209D12E49083949680F22F2
:1012B000120511432B4A083A51604FE02949783111
:1012C000884209D12749083949680F22120611437B
:1012D000244A083A516041E02349884208D1224912
:1012E000083949680F2211431F4A083A516035E016
:1012F0001D491431884208D11B4908394968F02238
:101300001143194A083A516028E0174928318842A8
:1013100009D11549083949680F2212021143124AAE
:10132000083A51601AE010493C31884209D10E490F
:10133000083949680F22120311430B4A083A5160D9
:101340000CE009495031884208D1074908394968F9
:101350000F2212041143044A083A516070470000FA
:10136000FEFF000008000240080402400146002081
:10137000002201231B070B40002B02D0064B1A68EA
:1013800001E0064B1A6813460B40002B01D00120E8
:1013900000E000207047000000040240000002400E
:1013A00010B5002202680D4B1A400C6A8B6823436B
:1013B0000C6923434C6923438C692343CC69234341
:1013C0004C6A23438C6A23431A430260CB68436010
:1013D0000B6883604B68C36010BD00000F80FFFF87
:1013E00070B50446632C02DD0020C04370BD602C44
:1013F00004DB632C02DC01200B498870601EC004F2
:10140000050E601EC606F60EA9000748001D4058CE
:101410000121B1408843AA000349091D885001F009
:10142000C5F90120E2E7000014080020704770476A
:1014300001494861704700000004014010B50020D8
:101440000349087001F00EFA014802F049FD10BD91
:101450004401002010B501200349087001F018FA7A
:10146000014802F03DFD10BD4401002010B500F020
:10147000E3F80F4800F03AF80E4800F037F80E484D
:1014800000F034F80D4800F031F800F073F8002057
:101490000B498870002406E00021A2000848001DC6
:1014A0008150601CC4B2042CF6DB01F07FF910BD42
:1014B00000F0000800F4000800F8000800FC000834
:1014C0001408002010B5044600F0B6F8342000F0EF
:1014D00007F8204600F00AF800F04CF810BD0000B4
:1014E0000149C860704700000020024030B5044642
:1014F00004250B20000400F0B1F80546042D17D197
:101500000C480069022108430A4908610846446101
:10151000006940210843074908610B20000400F0DE
:101520009DF8054603480069022188430149086186
:10153000284630BD0020024004200D49C968C90773
:10154000C90F002901D0012010E00949C968102203
:101550001140002901D0022008E00549C968042291
:101560001140002901D0032000E004207047000052
:1015700000200240034800698021084301490861B6
:10158000704700000020024070B504460D46042656
:101590000B20000400F062F80646042E11D10A4820
:1015A0000069012108430849086125800B200004D7
:1015B00000F054F80646044800694008400002491B
:1015C0000861304670BD00000020024078B5064634
:1015D0000C460425002000900B20000400F03EF88B
:1015E0000546042D24D113480069012108431149FF
:1015F000086134800B20000400F030F80546042D0B
:1016000010D1B01C0090200C009908800B20000421
:1016100000F024F8054607480069400840000549E5
:10162000086105E00348006940084000014908617D
:10163000284678BD00200240054800698021084006
:10164000002804D0034802494860034848607047B6
:101650000020024023016745AB89EFCD10B503465A
:101660000424FFF769FF044603E0FFF765FF044623
:101670005B1E012C01D1002BF7D1002B00D10524DA
:10168000204610BD30B50246602A01DB632A01DD29
:10169000602101E0501CC1B214E0481EC004030EDA
:1016A000481EC406E40E9D00094840590125A54086
:1016B0002840002804D058010019401C40B230BD19
:1016C000481CC1B26429E8DB0020C043F7E70000F2
:1016D0001808002030B50246632A01DC602A01DACE
:1016E000632101E0501EC1B214E0481EC004030E85
:1016F000481EC406E40E9D00094840590125A54036
:101700002840002804D058010019401C40B230BDC8
:10171000481EC1B26029E8DA0020C043F7E70000A4
:101720001808002030B50246602A01DB632A01DD7B
:10173000602101E0501CC1B214E0481EC004030E39
:10174000481EC406E40E9D00094840590125A540E5
:101750002840002804D158010019401C40B230BD77
:10176000481CC1B26429E8DB0120C043F7E7000050
:101770001808002030B50246632A01DC602A01DA2D
:10178000632101E0501EC1B214E0481EC004030EE4
:10179000481EC406E40E9D00094840590125A54095
:1017A0002840002804D158010019401C40B230BD27
:1017B000481EC1B26029E8DA0120C043F7E7000003
:1017C0001808002030B50246642A01DA012A01DA3D
:1017D000012101E0501CC1B214E0481EC004030EF8
:1017E000481EC406E40E9D00094840590125A54045
:1017F0002840002804D058010019401C40B230BDD8
:10180000481CC1B26429E8DB0020C043F7E70000B0
:101810001808002030B502465F2A01DC012A01DAEF
:10182000012101E0501CC1B214E0481EC004030EA7
:10183000481EC406E40E9D00094840590125A540F4
:101840002840002804D058010019401C40B230BD87
:10185000481CC1B26029E8DB0020C043F7E7000064
:101860001808002030B50246602A01DA012A01DAA0
:101870005F2101E0501EC1B214E0481EC004030EF7
:10188000481EC406E40E9D00084840590125A540A5
:101890002840002804D058010019401C40B230BD37
:1018A000481EC1B20029E8D1481EF8E718080020F8
:1018B00030B502465F2A01DC012A01DA012101E08C
:1018C000501CC1B214E0481EC004030E481EC406DA
:1018D000E40E9D00094840590125A54028400028F4
:1018E00004D158010019401C40B230BD481CC1B29F
:1018F0006029E8DB0120C043F7E70000180800205A
:1019000030B50246602A01DA012A01DA5F2101E0DE
:10191000501EC1B214E0481EC004030E481EC40687
:10192000E40E9D00084840590125A54028400028A4
:1019300004D158010019401C40B230BD481EC1B24C
:101940000029E8D1881EF8E718080020F7B50C46F2
:1019500015460027002D01D10120FEBDFFF76CFECA
:10196000002616E001E0781C87B221680098FFF796
:101970002DFE042801D00A2FF5DB0A2F03DBFFF729
:10198000F9FD0120E9E70098001D0090241D701C5E
:1019900086B2E81CC117890F09188910B142E1DC31
:1019A000FFF7E8FD0020D8E7F0B50A460021002344
:1019B000002400BF3DE001258D402B4615681D40E9
:1019C0002C469C4234D11579012D02D01579022D77
:1019D00016D185684F000326BE40B5438560557912
:1019E0004E00B540866835438560858801268E4067
:1019F000B5438580858896798E40B6B2354385801B
:101A000005684F000326BE40B543056015794E00BA
:101A1000B540066835430560C5684F000326BE40E3
:101A2000B543C560D5794E00B540C6683543C5603D
:101A3000491C1029BFD3F0BDF0B5002300244D0789
:101A4000EE0E1546B5402B46CD10AE0005462035AE
:101A5000AD594E07F70E0F26BE40B543CE10B60067
:101A600007462037BD51CD10AE003D46AD591D4350
:101A70002C46CD10AD003E467451F0BD024600200C
:101A8000138A0B40002B01D0012000E0002070479A
:101A90000185704781617047014608687047000002
:101AA0000349887A0102024A527B11430846704773
:101AB000380000200349887A0102024A527C11430F
:101AC00008467047380000200349087C0102024A9A
:101AD000127C114308467047380000200349887B78
:101AE0000102024AD27B11430846704738000020A9
:101AF0000349887C0102024AD27B114308467047A1
:101B0000380000200349C87C0102024AD27B1143FD
:101B100008467047380000200349C87C0102024A89
:101B2000127D1143084670473800002070B5044606
:101B3000632C01DD002070BD0A212046FEF708FB62
:101B400006490D5C0A212046FEF702FB0348405C73
:101B50002902084305462846EDE70000380000202A
:101B600001480068704700000800002010B5002000
:101B7000602110E04A1E52099300084AD2584B1EB9
:101B8000DC06E40E0123A3401A40002A01D0421CC7
:101B9000D0B24A1CD1B26429ECDB10BD1808002079
:101BA00070B50026002501211B48FEF799FE04E0D0
:101BB000681C85B2012003F06FF918491648FEF73A
:101BC000E1FE002801D1642DF2DB1348FEF708FF87
:101BD000002504E0681C85B2012003F05DF90220B5
:101BE000FFF7C4FB002801D1642DF3DB0220FFF7CF
:101BF000EDFA002405E060000949085A8619601CC6
:101C000084B2202CF7DB0749714308460649FEF7EA
:101C100089FA0646304670BD0024014001000001EB
:101C2000400C0020E40C0000E0FF010010B5002093
:101C3000012110E04A1E52099300084AD2584B1E57
:101C4000DC06E40E0123A3401A40002A01D0421C06
:101C5000D0B24A1CD1B26029ECDB10BD18080020BC
:101C600001468868002800D170474888C0B2FBE769
:101C700010B50020012110E04A1E52099300084AC5
:101C8000D2584B1EDC06E40E0123A3401A40002A62
:101C900001D0421CD0B24A1CD1B26429ECDB10BD89
:101CA0001808002070B505460E46022D01D1094CDA
:101CB00005E0012D01D1084C01E0002070BD002E8F
:101CC00003D00120A168884702E00020A16888476E
:101CD0000120F3E7280000201800002010B50121A2
:101CE00049030248FFF7D6FE10BD00000008004877
:101CF00010B5012149030248FFF7CAFE10BD0000DC
:101D000000080048F8B506460F46022E01D1144CD3
:101D100005E0012E01D1134C01E00020F8BD07259C
:101D200019E00120A8403840002803D00120216894
:101D3000884702E0002021688847012003F0ACF8C2
:101D4000002061688847012003F0A6F8012061683F
:101D50008847681E45B2002DE3DA0120DEE7000067
:101D6000280000201800002070B504460D46022C03
:101D700003D1012C01D1002070BD00212046FFF7C6
:101D800091FFE9B22046FFF7BDFF2804010E20466F
:101D9000FFF7B8FF01212046FFF784FF0120EBE7A2
:101DA00070B504460D46022C03D1012C01D1002050
:101DB00070BD00212046FFF775FFE9B22046FFF70E
:101DC000A1FF2804010E2046FFF79CFF00212046BA
:101DD000FFF798FF01212046FFF764FF0120E7E7A6
:101DE00070B505460E46022D01D10B4C05E0012DC4
:101DF00001D10A4C01E0002070BD0020A168884795
:101E000000F0B6FA31462846FFF77CFF0120A168B2
:101E100088470120F0E7000028000020180000207B
:101E20001CB5044601204003009001216846017161
:101E30000321417100218171C1710121C80400F0A9
:101E4000F3FF69462048FFF7AFFDFFF747FF022089
:101E50002040002819D00121880400F0E5FF0F2060
:101E60000003009069461948FFF79EFD01214903D0
:101E70001648FFF70DFE0121C9031448FFF708FEBD
:101E8000012109031148FFF703FEE007C00F0028F6
:101E90000FD00121480400F0C7FFF02000906946F0
:101EA0000920C006FFF780FD20210920C006FFF7AA
:101EB000EFFD07490120FFF757FF00210220FFF740
:101EC0008FFFFFF715FF1CBD000800480004004805
:101ED000FF3F000010B5FEF7EFFDFEF791FEFEF7A5
:101EE0002DFE10BD70B504460D46164600200C4967
:101EF00048700846C66085604460002C04D1407874
:101F00000421084306494870FFF72AFE40000449AF
:101F1000086108464078022108430149487070BDB5
:101F20002801002070B505462B480078002851D1C3
:101F3000294840780221084000284BD0FFF710FEC6
:101F4000440025480069A04244D823484078C0078F
:101F5000C00F002817D02048C06800191E4908612A
:101F600008464078400840004870FEF7E1FE1A48F5
:101F700040780421084000282CD117484068401EB2
:101F80001549486026E01448406800280CD11248E2
:101F9000407804210840002806D10F4840780221EB
:101FA00048400D49487015E00B48806800190A49FF
:101FB0000861084640780121084307494870FEF748
:101FC000BFFE0548407808210840002802D00120C3
:101FD0000149487070BD000028010020F8B5044692
:101FE0000D4616461F461548844203D10120144968
:101FF000087609E01348844203D10120104908768D
:1020000002E000200E49087600200D49487008467D
:10201000C760866045608482002D04D14078042129
:10202000084307494870FFF79BFD054908610846CA
:1020300040780221084302494870F8BDFF7F000044
:1020400070000020FFBF000010B500200949487053
:10205000C820C86088600120486007488882FFF770
:102060007FFD044908610846407802210843014980
:10207000487010BD70000020FFBF000070B505461D
:102080000C460020254908762B0002F05EFA091064
:10209000061D44324444443D440001201F49487019
:1020A00008468482818A0120FFF75EFE34E000202A
:1020B0001A49487008468482C08AC8820846818AC4
:1020C0000120FFF751FE27E00020144948706420EA
:1020D000C86088600220486008468482FFF740FD9F
:1020E0000E49086108464078022108430B494870B0
:1020F00012E0062009494870C820C86088600020A6
:1021000048600846848207E0044840780821084374
:102110000249487000E000BF00BF70BD70000020A1
:1021200010B5002009494870C820C86088600120A7
:10213000486007488882FFF713FD04490861084694
:102140004078022108430149487010BD700000200A
:10215000FF7F000010B5322300220249024803F03D
:102160005BF810BD6D2100080802002070B505461F
:102170005048007800287DD14E4840780221084020
:1021800000285ED0FFF7ECFC04464A480169A142F2
:1021900057D84078C007C00F002828D04548C068ED
:1021A00000194449086108464078400840004870DA
:1021B0000846007E002804D03F490120FFF7D4FDE7
:1021C00004E03C48C18A0120FFF7CEFD3948407841
:1021D00004210840002834D136484068401E354963
:1021E00048600846406800282BD1087629E031482D
:1021F000406800280CD12F4840780421084000286E
:1022000006D12C484078022148402A49487018E0FD
:10221000284880680019274908610846407801214C
:102220000843244948700846818A0120FFF79CFD35
:102230002048407808210840002802D001201D498C
:1022400048701C48407810210840002830D0FFF723
:1022500087FC044617480069A04229D815484078F1
:10226000C007C00F002813D0124840784008400033
:10227000104900E01CE048700846407810214840B2
:102280000C4948700846C18A0120FFF76DFD0FE038
:10229000084880680019074908610846407801210C
:1022A0000843044948700846818A0120FFF75CFD15
:1022B00070BD000070000020FF3F000070B50546B3
:1022C0000C462B0002F041F90910061B4230424235
:1022D000423B420001201F49487008468482818A9F
:1022E0000220FFF75DFD32E000201A494870401ED1
:1022F00088820846818A0220FFF752FD27E00020ED
:10230000144948709620C8608860C8204860084614
:102310008482FFF725FC0F490861084640780221B6
:1023200008430C49487012E006200A49487096207C
:10233000C8608860002048600846848207E005483D
:102340004078082108430349487000E000BF00BFFF
:1023500070BD00005000002010B532230022024959
:10236000024802F059FF10BD01240008F0010020CE
:1023700010B52248407802210840002805D11F48A6
:1023800040780421084000281DD01C484078C00730
:10239000C00F00280BD01948017D0220FFF7B2FCC6
:1023A0001648808A01120220FFF7ACFC25E00020CD
:1023B000002822D1FF210220FFF7A4FCFF210220E8
:1023C000FFF7A0FC19E00D484078C007C00F0028B7
:1023D0000BD00A48017D0220FFF794FC0748808A51
:1023E00001120220FFF78EFC07E0FF210220FFF719
:1023F00089FCFF210220FFF785FC10BD5000002062
:1024000070B505462D480078002856D12B484078F5
:1024100002210840002850D0FFF7A2FB04462748BD
:102420000069A04249D825484078C007C00F00285D
:1024300019D02248C0680019204908610846407830
:102440004008400048701E490220FFF7A9FC1B48C5
:1024500040780421084000282FD118484068401EC9
:102460001649486029E01548406800280CD11348F7
:10247000407804210840002806D110484078022105
:1024800048400E49487018E00C48806800190B4914
:102490000861084640780121084308494870084609
:1024A000818A0220FFF77CFC04484078082108401C
:1024B000002802D001200149487070BD5000002062
:1024C000FFFF000000BFFEE738B5044601236A465F
:1024D0002146B42000F0D4F8002802D068460078E5
:1024E00038BD00F0AFF80020FAE773B504460025C8
:1024F000012301AA2146B42000F000F90546002D71
:1025000001D100F09FF828467CBD000010B50446BC
:10251000002C04D101210748FFF7BAFA03E001219A
:102520000448FFF7B7FA00F007F801210148FFF768
:10253000B1FA10BD0004004810B50A2002F0ACFC4E
:1025400002210848FFF7A6FA0A2002F0A5FC0121A3
:102550000448FFF793FA044602210248FFF798FA6D
:10256000204610BD000400481CB50121880400F07D
:102570005BFC032000900121684601710321417139
:10258000012181710021C17169460248FFF70CFAEF
:102590001CBD00000004004870B50024002509E0BF
:1025A0006006040EFFF7C8FF002801D0601CC4B20B
:1025B000681CC5B2082DF3DB204670BD70B504461B
:1025C000002513E080202040C611002E04D10121F7
:1025D0000D48FFF75DFA03E001210B48FFF75AFAB7
:1025E0006006040EFFF7A8FF681CC5B2082DE9DBE2
:1025F000FFF7A2FF002803D000200449087002E082
:1026000001200249087070BD000400480C00002041
:1026100010B501210A48FFF73DFA02210848FFF7EB
:1026200039FA0A2002F038FC01210548FFF730FA98
:102630000A2002F031FC02210148FFF729FA10BDFF
:102640000004004810B502210C48FFF721FA0121CF
:102650000A48FFF71DFA0A2002F01EFC0221074873
:10266000FFF718FA0A2002F017FC01210348FFF7D0
:1026700011FA0A2002F010FC10BD0000000400480E
:10268000FFB581B0064614461F46FFF7C1FF30462E
:10269000FFF794FF18480078002801D105B0F0BD7D
:1026A0000298FFF78BFF14480078002800D1F5E767
:1026B000FFF7AEFF711CC8B2FFF780FF0E4800782D
:1026C000002800D1EAE7002508E0FFF765FF207049
:1026D0000020FFF71BFF641C681CC5B2781EA842CF
:1026E000F3DCFFF759FF20700120FFF70FFFFFF722
:1026F000A9FF0120D2E700000C000020FFB581B047
:102700000E4614461F46FFF783FF0198FFF756FF5A
:1027100010480078002801D105B0F0BD3046FFF721
:102720004DFF0C480078002800D1F5E700250AE0AD
:102730002078FFF743FF07480078002800D1EBE737
:10274000641C681CC5B2BD42F2DBFFF77BFF0120B1
:10275000E2E700000C00002010B5142210491148D7
:10276000FDF71CFD0F4800880F49884206D00D4830
:102770000069FF210902084000280FD0002406E06C
:102780000021A2000748001D8150601CC4B2042C27
:10279000F6DB00200349887000F008F810BD000047
:1027A00000EC000814080020FFFF000000B585B011
:1027B00014220C496846FDF7F1FC684600880A4976
:1027C000884206D0FEF738FF0648FEF78FFEFEF778
:1027D000D1FE01200549088014220248FFF7B6F80F
:1027E00005B000BD00EC0008FFFF00001408002049
:1027F00010B5FF20A530FEF7DDFAC820FEF7EEFA8F
:102800000A2223210120FFF76DFB10BD10B5002027
:10281000064908700648C08A012149030843044953
:10282000C88204490120FFF79FFA10BD6C00002008
:1028300070000020FF3F000010B50120064908701D
:102840000648C08A0121490388430449C8820449D3
:102850000120FFF789FA10BD6C00002070000020F5
:10286000FF1F000010B50020064908700648C08A06
:102870000121090308430449C88204490120FFF7E4
:1028800073FA10BD6D00002070000020FF3F0000B3
:1028900010B50120064908700648C08A01210903C5
:1028A00088430449C88200210120FFF75DFA10BD6A
:1028B0006D0000207000002010B500240AE0012007
:1028C00002F0EAFA601C84B2FF20F530844201DD98
:1028D000002010BD02F0D2FD0028F0D002F098FDDB
:1028E00000F06AFD0121080700F0AEFA012000F0B7
:1028F0002DFA012000F0D8FA002000F0D5FA0120CE
:1029000000F02EFC002404E0012002F0C5FA601C57
:1029100084B2412000F000FC002801D1642CF3DBDC
:1029200001F058F80121080200F04EFA012000F0F1
:1029300021FA02F0A3FD002801D000F025FA014899
:10294000C7E70000FFFF000010B5002406E0601C90
:1029500084B21C48844201DD002010BD02F08EFDCF
:102960000028F4D000F028FD0121080700F06CFADF
:10297000012000F0EBF9012000F096FA002000F0B1
:1029800093FA012000F0ECFB002401E0601C84B20B
:10299000412000F0C1FB002803D17D20C00084420B
:1029A000F4DB01F017F80121080200F00DFA012014
:1029B00000F0E0F902F062FD002801D000F0E4F937
:1029C0000148CAE788130000FFFF000010B500208F
:1029D00006490870FFF778F80446054802F0C4FA83
:1029E000032004494870204610BD0000B2000020BA
:1029F000780100208C00002010B50D20034948709C
:102A0000FFF776F80446204610BD00008C00002039
:102A100010B50A2003494870FFF76AF804462046BB
:102A200010BD00008C00002010B5FFF761F9FFF722
:102A300055F8044621460120FFF740FC0C490120CF
:102A4000FFF792F9FEF7EEF90A490120FFF78CF93A
:102A5000FFF744F9FFF784F8074940180749086071
:102A600015200749487001200649087010BD000074
:102A7000FF7F0000FF3F0000905F0100A8000020E2
:102A80008C0000202801002010B50749097804298E
:102A900003D10D21054A117002E00A21034A117089
:102AA000FFF726F810BD00008C000020B1000020C8
:102AB00010B5FFF727F8044621460120FFF7FEFB7B
:102AC000FEF7B0F9FFF7F8FE10BD10B5FFF724F8D8
:102AD000044621460120FFF7F1FBFEF701F9FFF75D
:102AE000EBFE10BD70B502F08DFB02F09FF9FFF711
:102AF00033FEFEF749F90320FFF792F90021012088
:102B0000FFF7BCFAFFF7B4F8002807D0FEF7DCFFA8
:102B1000044621460120FFF7D1FB08E0FEF7FCFF49
:102B2000044621460120FFF7C9FBFEF7D9F8FFF75D
:102B30001BFD02F0ABFCFFF70FFCFFF70BFB00F0F7
:102B400087FE01F07BFB00F051F900F0F5FBFEF78A
:102B5000ABF900F03BF8FFF7BDF900F04FF80021AA
:102B60000120FFF78BFA032004494870FEF7ACFF01
:102B7000054629460120FFF7A1FB70BD8C0000200F
:102B800010B5032189020448FEF784FF0121C90220
:102B90000148FEF77DFF10BD0004004810B5032179
:102BA00089020448FEF776FF012189020148FEF7F9
:102BB0006FFF10BD0004004810B5032189020248D0
:102BC000FEF768FF10BD0000000400481CB501219D
:102BD000880400F029F90320800200900121684652
:102BE0000171032141710021817169460248FEF79C
:102BF000DBFEFFF7E1FF1CBD0004004810B51248E2
:102C000012490A780270497841700078FF2803D091
:102C10000D484078FF280CD100200B4908704870FF
:102C200014200B494870FFF71DFE074801F058F9C2
:102C300008E005480078002802D1FFF713FE01E004
:102C4000FFF726FE10BD00004401002000E8000848
:102C50008C00002010B5FF20F530FEF7ABF8E62021
:102C6000FEF7BCF8FEF76CF80F2002F0F5F8FEF75F
:102C70005FF8052002F0F0F8FF20A530FEF79AF883
:102C80006420FEF7ABF8FEF75BF80F2002F0E4F8E3
:102C9000FEF74EF8032002F0DFF8FF206930FEF760
:102CA00089F88220FEF79AF8FEF74AF80F2002F022
:102CB000D3F8FEF73DF80A2002F0CEF8FF20C3302B
:102CC000FEF778F88220FEF789F800200149487065
:102CD00010BD00002801002070470000002182780C
:102CE000002A27D0184A03231B02D21803789B100E
:102CF0009B00D15802789207D30EFF229A400B46D0
:102D00009343194642789207120E03789B07DB0E15
:102D10009A4011430C4A03231B02D21803789B10DC
:102D20009B00D1500278D306DB0E01229A40064B5D
:102D30001A6007E00278D306DB0E01229A40024BAC
:102D400080331A607047000000E100E0002807D0DF
:102D500007490968FF2201321143054A116006E064
:102D600003490968FF2201329143014A116070470B
:102D7000007000400349096882001143014A116054
:102D800070470000007000400648006802210843B8
:102D900004490860044800690421084302490861A5
:102DA00030BF70470070004000ED00E00146002099
:102DB000044A52680A40002A01D0012000E00020A5
:102DC0007047000000700040002905D0054A526895
:102DD0000243044B5A6004E0024A52688243014BAA
:102DE0005A607047007000407047000010B5032023
:102DF0000849487000204872887232230022064930
:102E0000064802F009FAFEF7ABFE054940180549ED
:102E1000086010BD8C0000209156000820020020A0
:102E2000C4090000A4000020002905D0054A526909
:102E30000243044B5A6104E0024A52698243014B47
:102E40005A61704700100240002905D0054AD26936
:102E50000243044BDA6104E0024AD2698243014B27
:102E6000DA61704700100240002905D0054A9269D6
:102E70000243044B9A6104E0024A92698243014B87
:102E80009A61704700100240002905D0054AD268B7
:102E90000243044BDA6004E0024AD2688243014BE9
:102EA000DA60704700100240002807D00749096A1D
:102EB000012212041143054A116206E00349096A1E
:102EC000012212049143014A11627047001002402E
:102ED000FEB50446002500260020029001900090D7
:102EE0000027864840680C2108400546002D06D082
:102EF000042D07D0082D08D00C2D2CD128E08048B7
:102F000020602BE07E48206028E07C4840680F214C
:102F1000890408400646794840680321C9030840EF
:102F20000290B00C861C0298002803D175483746E1
:102F300047430BE07148C06A0007000F401C019036
:102F40006F480199FDF7EEF870430746276005E0EA
:102F50006D48206002E06A48206000BF00BF6748FB
:102F60004068F021084005462D096848405D009002
:102F700020680099C84060606048406807210902E5
:102F8000084005462D0A6148405D00906168009840
:102F9000C140A1605948006BFF21013108408842BF
:102FA00002D05B48E0600DE054484068012189038D
:102FB0000840884203D0A0684008E06002E0A068B2
:102FC0008008E0604D48006B40210840402802D056
:102FD0005048206102E00120C00320614748006B97
:102FE00010210840102802D04548606101E02068A7
:102FF00060614248006B8007800F002802D1A06802
:10300000A06119E03D48006B8007800F012802D1C4
:103010002068A06110E03948006B8007800F02280B
:1030200002D18003A06107E03448006B8007800F65
:10303000032801D13248A0613048006B0321090404
:103040000840002802D1A068E06120E02B48006B16
:1030500003210904084001210904884202D12068A3
:10306000E06114E02548006B0321090408400121B8
:103070004904884202D18010E06108E01F48006BDB
:10308000032109040840884201D11D48E0611B4822
:10309000006B032189040840002802D1A068206247
:1030A00020E01648006B03218904084001218904AF
:1030B000884202D12068206214E01048006B03218E
:1030C000890408400121C904884202D1001120620C
:1030D00008E00A48006B032189040840884201D1B6
:1030E000074820620548006B80210840802802D0F4
:1030F0000548606200E06762FEBD0000001002400B
:1031000000127A0000093D00006CDC02460100203C
:10311000809FD5001280000010B5024600210023D8
:1031200000205111002902D10C4C23680BE0012929
:1031300002D10A4C236A06E0022902D1074C636AD5
:1031400001E0064C636BD106C90E01248C401C4083
:10315000002C01D0012000E0002010BD0010024032
:10316000002806D00649496A01221143044A5162E7
:1031700005E00349496A49084900014A516270471C
:1031800000100240002807D00749096A0122D20333
:103190001143054A116206E00349096A0122D2037C
:1031A0009143014A11627047001002400249096AC6
:1031B0000143014A116270470010024070B588B0A7
:1031C0000546932168460172702141720021817386
:1031D00000240BE0295D02AAA01C11546946887BDB
:1031E000295D484069468873601CC4B2042CF1DB39
:1031F00003AA0332072102A800F018F808210846A4
:1032000000F049F807A802AB092202A900900C209F
:1032100000F050F90646002E04D16846007F1828B9
:1032200000D100E00226304608B070BDF7B5074671
:1032300015460421052000F02EF80021012000F0A1
:10324000DFF880210B2000F0ABFA002405E0395DA7
:10325000092000F0D5F8601CC4B201988442F6DB66
:103260000321012000F0CCF8FF2400BF052000F06E
:10327000ABF80646601EC4B2002C03D004203040D8
:103280000028F3D0222000F09FF82870212000F0C1
:103290009BF86870FEBD70B505460C4600262846B2
:1032A00000F092F806463046A0430146284600F05A
:1032B000A7F870BDF0B585B004460F46FF22142173
:1032C0006846FCF77DFF6946262000F0A8F9054610
:1032D000002D02D0022005B0F0BD69460E78300204
:1032E00049780843064601208002864202D1002028
:1032F000207008E001204002864202D101202070A7
:1033000001E0FF202070684600F09CF80546002D83
:1033100001D00220DFE76846FFF750FF0546002D89
:1033200001D00220D7E700F063F90422694638464D
:10333000FCF734FF0020CEE710B5C82001F0ACFD4B
:1033400000F09EF9012001F0A7FD00F0A1F9012095
:1033500001F0A2FD00F094F9012001F09DFD0F2184
:10336000012000F04DF8012001F096FD3D211120D3
:1033700000F046F81E212D2000F042F800212C20FC
:1033800000F03EF88D212A2000F03AF83E212B2053
:1033900000F036F84021152000F032F800F04CF82B
:1033A000C82300220249034801F036FF10BD000087
:1033B000A1360008800C002010B500F03DF8302147
:1033C000012000F0EDF910BD70B5044640210B4816
:1033D000FEF75EFB012001F05FFD60007E210840EA
:1033E00004468034204600F009FA00F0E9F9054669
:1033F00040210248FEF74EFB284670BD00040048FD
:1034000070B504460D4640210A48FEF741FB0120F5
:1034100001F042FD60007E2108400446204600F095
:10342000EDF9284600F0EAF940210248FEF732FBA8
:1034300070BD00000004004810B503211420FFF700
:103440002AFF10BDF0B587B00546002708210846C1
:10345000FFF721FF00210D20FFF7D2FF80210E2072
:10346000FFF719FF9321684601712021417106A8D9
:1034700001AB022201A900900C2000F01BF80646C7
:10348000002E10D1002407E001A8005D285501A8F6
:10349000005D4740601CC4B2042CF5DB01A8005D50
:1034A000B84200D0022680210E2000F079F9304683
:1034B00007B0F0BDFFB583B00646022002900020A1
:1034C000019000900E2E04D1122001901020009047
:1034D00005E00C2E03D1772001903020009080224F
:1034E0000198104301460220FFF78AFF8021042043
:1034F000FFF7D1FE00210120FFF782FF80210A2083
:1035000000F04EF9002506E00498415D0920FFF720
:1035100077FF681C85B205988542F5DB31460120AE
:10352000FFF76EFF0C2E03D180210D2000F038F93B
:103530007D252D0100BF0420FFF746FF0446681ECD
:1035400085B2002D07D0E007C00F002803D10098F6
:1035500020400028EFD080210D20FFF79CFE002D99
:103560003BD00620FFF730FF1B210840002832D156
:10357000029001982040C007C00F002801D0012010
:1035800002900C2E29D10A20FFF71EFF04460C20C2
:10359000FFF71AFF47077F0F002F06D0601EC000FD
:1035A000C019C1B20C98017003E0E006010E0C983E
:1035B0000170002C00D10124122C00DD1224002502
:1035C00006E00920FFF700FF06994855681C85B200
:1035D000A542F6DB01E00220029080210C2000F0E1
:1035E000DFF800210120FFF70BFF029807B0F0BDC4
:1035F00000B587B050216846017100214171821DDC
:10360000022101A8FFF712FE06A801AB042201A9BE
:1036100000900C20FFF74EFF002007B000BD70B5F2
:1036200088B005460C4608210846FFF734FE0721FE
:103630000D20FFF7E5FE0321142000F0B1F86846E5
:10364000057207A802AB012202A900900C20FFF727
:1036500031FF0646002E0AD16846007F102806D1A9
:103660006846007A20706846407A607000E0022662
:10367000304608B070BD10B500F002F810BD000073
:1036800010B580210148FEF705FA10BD000400487E
:1036900010B580210148FEF7FBF910BD0004004879
:1036A000F0B58DB0074600200C9034484078C01E1D
:1036B000030000F04AFF0B075F5F08090A5F0B5F1A
:1036C0005F0C5F0000BF00BF00BF00BF00BFFDF781
:1036D0007BF8FEF765FA06463F208002FEF7DCF92C
:1036E00005463221694308466421FCF71BFDB042C0
:1036F0003FD25A21694308466421FCF713FDB042CA
:1037000037D9681C002834D01DA000F0E1FE0AA9BA
:103710000CA8FFF7CFFD00282BD10390002108A8AB
:10372000017303216846017405220AA91230FCF7CF
:1037300035FD062208A96846FCF730FD04A80FC82D
:1037400000F08EFE1E2250210120FEF7CBFB0FA0C1
:1037500000F0BEFE002406E00AA8015D0EA000F005
:10376000B7FE601CC4B2042CF6DB0CA000F0B0FE67
:1037700000BF00BF00BF00BF0DB0F0BD8C00002037
:103780007363616E2E2E2E0D0A0000006361726459
:103790004E756D3A200D0A00255800000D0A0000F4
:1037A00070B505460C4600262846FFF70DFE064676
:1037B0003046204301462846FFF722FE70BD000038
:1037C00070B50024002513E008210B48FEF760F9CE
:1037D0006006040E0848008A10210840002801D025
:1037E0000120044308210448FEF754F9681CC5B2BF
:1037F000082DE9DB204670BD0004004870B5044682
:1038000000251BE008211148FEF742F980202040E6
:10381000002804D020210D48FEF73CF903E02021C8
:103820000A48FEF735F96006040E08210748FEF73E
:1038300031F9012001F030FB681CC5B2082DE1DB35
:1038400020210248FEF724F970BD00000004004862
:103850001CB501218804FFF7E7FA012168460171D0
:1038600068200090002168468171C1710321417177
:1038700069461748FEF798F808211548FEF708F939
:1038800020211348FEF704F940211148FEF702F900
:1038900001216846017180200090002168468171F5
:1038A000C1710321417169460948FEF77DF8FFF7B0
:1038B000EFFE00216846017110200090684681717A
:1038C000C1710321417169460148FEF76DF81CBDC5
:1038D0000004004810B503211420FFF761FF10BD5C
:1038E00038B502460024009400230020CA24174D56
:1038F0006C6253246C62002905D02C46A4681443E2
:10390000AC6001201DE0114CA46894430F4DAC60E5
:1039100000BF0E4CE468150A2C402346009C641C32
:1039200000940125AD03009CAC4201D0002BF0D0E7
:10393000064CE468150A2C40002C01D1002000E060
:103940000120FF24014D6C6238BD000000280040BA
:1039500030B503460020CA24064D6C6253246C62C5
:1039600014060C432046034C40346060FF246C6214
:1039700030BD000000280040014600BFF020084094
:1039800000110A23584302460807000F8018C0B2EE
:1039900070470146002204E0501CC2B208460A38B3
:1039A000C1B20A29F8DA1007000E08437047000078
:1039B00010B50021010980220A4392B2D243044B80
:1039C000DB68802423401A43014BDA6010BD0000FD
:1039D0000028004000B589B001204002FFF7E6FB57
:1039E0000120FFF7CFFB00F0FBF9002006907820C4
:1039F0000790FF202D30089006A800F0EDF8002178
:103A00006846C172017241728172312101750020D4
:103A10000490C807039002AAC10D012000F008F924
:103A20000F2201210802FFF793FF0121080300F094
:103A3000A1F801210802FFF753FF00216846C17178
:103A400001714171817101A9012000F05DF909B096
:103A500000BD000008B50022009200200021124A9B
:103A6000D26840231A40002A1BD1421E0E4BDA6056
:103A700000BF0D4AD26840231A401146009A521CDA
:103A800000921B02009A9A4201D00029F1D0064A06
:103A9000D26840231A40002A01D0012002E0002011
:103AA00000E0012008BD0000002800400348C06875
:103AB000802188430149C860704700000028004009
:103AC00070B501460020002200230F4C2468042515
:103AD0002C4022460C4C403CA4680C408E0C0D46F9
:103AE000F540ED0B15402C432346074C403CE46861
:103AF0000D092C402246002B04D094B2002C01D09A
:103B0000012000E0002070BD4028004010B50120D9
:103B10008003FFF7D5FF00280BD00DA000F0D8FCE4
:103B200001208003FFF744FF01204004FDF780FCE3
:103B30000CE001200003FFF7C3FF002806D009A016
:103B400000F0C6FC01200003FFF732FF10BD0000AB
:103B500077616B65757050696E20697320776F723D
:103B60006B0D0A00616C726D4120697320776F7272
:103B70006B0D0A0010B5CA22164B5A6253225A62C4
:103B8000002911D01A46926804240346A3431A431D
:103B9000104B9A600F4A40321268042303401A43C4
:103BA0000C4B40331A6010E00A4A92680424034622
:103BB000A3439A43074B9A60064A40321268042393
:103BC00003409A43034B40331A60FF22014B5A6271
:103BD00010BD00000028004030B504460025CA2072
:103BE0001249486253204862FFF734FF002800D191
:103BF00017E00E488068402188430C4988600846D9
:103C000080682168084309498860A06808610846FF
:103C10000069A1880904084304490861FFF746FFC9
:103C20000125FF2001494862284630BD0028004098
:103C3000F8B5054614460026002D0ED1314880689F
:103C400040210840002800D002E00020E07000BFC2
:103C5000A068002800D11BE01AE02A4880684021B3
:103C60000840002804D02078FFF786FE064602E0D0
:103C70000020E07000BFA068002804D1207BFFF77F
:103C80007BFE064604E0207BFFF776FE064600BF7B
:103C9000002D12D020780004617809020843A17831
:103CA0000843E17809040843217B09060843A16819
:103CB000084361680843064619E02078FFF769FE6B
:103CC00007046078FFF765FE00020743A078FFF75E
:103CD00060FE0743E07800040743207BFFF759FEAE
:103CE00000060743A0680743606807433E46CA20B2
:103CF00004494862532048620846C661FF20486272
:103D0000F8BD000000280040F8B505460C46002626
:103D100000200090002D0AD12F48806840210840E3
:103D2000002800D002E00020E07000BF0EE02A482A
:103D3000806840210840002804D02078FFF71CFE4E
:103D4000064602E00020E07000BF00BF002D0BD04F
:103D500020780004617809020843A1780843E178DB
:103D600009040843064610E02078FFF712FE070416
:103D70006078FFF70EFE00020743A078FFF709FE08
:103D80000743E078000407433E46CA2012494862D0
:103D900053204862FFF75EFE002801D1009016E034
:103DA0000E4830400C490860FFF780FE0A488068E2
:103DB00020210840002808D100F012F8002801D185
:103DC000009004E00120009001E001200090FF201D
:103DD000014948620098F8BD002800407F7F7F00BD
:103DE00008B50022009200200021174A9268202383
:103DF0001A40002A01D0012025E0CA22124B5A6243
:103E000053225A621A46D268A0239A430E4BDA60B4
:103E100000BF0D4AD26820231A401146009A521C56
:103E200000929B02009A9A4201D00029F1D0064AE2
:103E3000D26820231A40002A01D0012000E000208F
:103E4000FF22014B5A6208BD0028004070B500F007
:103E500019F805460120A84003218903884384B24C
:103E600007480078002805D00121490320468843EF
:103E7000044602E0012040030443204670BD0000D8
:103E80006C00002070B5FCF777F905460C21FCF7B3
:103E90005FF9CCB2204670BD70B504460E46002CCA
:103EA00001D0642C02DB0020C04370BD5F2C04DC19
:103EB000601E40010749451804E020466038400173
:103EC00005494518202229463046FCF767F920208D
:103ED000EBE7000000F0000800FC0008704700005D
:103EE00010B50446FDF7A8FB0448FDF7FFFA21884A
:103EF0000248FDF749FBFDF73DFB10BD00E8000857
:103F00000CB500200190009031480068012109049F
:103F100008432F49086000BF2D480068012149046B
:103F2000084000900198401C01900098002804D19E
:103F30000521090301988842EED125480068012136
:103F400049040840002802D00120009001E0002030
:103F500000900098012839D111201E4908601C48A2
:103F600040681B4948600846406848600846406809
:103F70007F21C903884316494860084640681121DB
:103F800009040843124948600846006801210906EF
:103F900008430F49086000BF0D4800680121490629
:103FA00008400028F8D00A48406880088000084986
:103FB000486008464068022108430549486000BF40
:103FC000034840680C2108400828F9D10CBD0000C6
:103FD00000100240002002407047000010B51B484E
:103FE00000680121084319490860084640681849DB
:103FF00008401649486008460068164908401349B9
:104000000860084600680121890488430F49086058
:10401000084640683F21090488430C494860084627
:10402000C06A00090001C8620846006BFF215431D4
:104030008843064908630846406B400840004863CF
:1040400000208860FFF75CFF10BD000000100240F8
:104050000CB8FF08FFFFF6FE10B50121054800F07F
:104060003CF8002805D00121024800F013F800F0C8
:1040700013F910BD00040040002904D002888023F9
:104080001A43028003E00288014B1A400280704705
:104090007FFF0000CA43028270470000002904D05D
:1040A000028801231A43028003E00288014B1A4070
:1040B00002807047FEFF0000002907D04422125AF8
:1040C0000123DB031A4344231A5205E04422125A07
:1040D00053045B0C44221352704730B50246002053
:1040E00000230024158A0D402B4695890D402C464F
:1040F000002B03D0002C01D0012000E0002030BDB7
:10410000002A03D083890B43838102E083898B4398
:104110008381704770B5002400220023058C1C4E5B
:1041200035400584028C8388048B194D6F3D2C40EB
:10413000B51E2C400D882C43751E2A408D892A43BC
:104140004D882A43134DA84208D0134DA84205D0EC
:10415000124DA84202D0124DA84212D10C4DED1FB3
:104160002A40CD892A430A4DED1E2A408D882A43D4
:10417000074DFF3D2B400B4D2B400D8A2B434D8AA5
:104180002B43838004838D684563028470BD0000E7
:10419000FEFF0000002C01400040014000440140AF
:1041A00000480140FFFD00000A460021018B034B3F
:1041B00019400B461343194601837047F7FF00006F
:1041C00000220288154B984206D001239B07984293
:1041D00002D0134B984203D1124B1A404B881A431A
:1041E000114B984203D0114B1A400B891A4302809D
:1041F0004B68C3620B880385084B984208D00C4B70
:10420000984205D00B4B984202D00B4B984201D1FB
:104210008B7A03860123838270470000002C0140C3
:10422000000400408FFF000000100040FFFC000071
:104230000040014000440140004801401FB50120FA
:10424000029013496846818000218181C180817379
:1042500001210220FEF7F8FD01A90E48FFF7B0FF8B
:104260001021684601700021417001218170FEF724
:1042700035FD01210748FFF70DFF012211460548D2
:10428000FFF73EFF01210348FFF708FF1FBD0000B5
:104290007FBB00000004004002480068401C014948
:1042A0000860704708000020002904D0026801233C
:1042B0001A43026003E0026852085200026070472D
:1042C00002460020D3690B40002B01D0012000E002
:1042D00000207047F0B58BB004460D460027002043
:1042E0000A9000262068400840002060666803218C
:1042F0000903304688430646A86806436660266878
:104300002D480640E9686868084329690843064360
:104310002660A6680321090230468843064668697C
:104320000643A6606846FEF7D3FD2448844202D1C6
:1043300006980A900DE02248844202D107980A901C
:1043400007E02048844202D108980A9001E00298D0
:104350000A9020680121C903084000280CD0296870
:104360000A9A5000FBF7DEFE074629680A9A5000B9
:10437000FBF7D8FE0E4609E029680A98FBF7D2FE43
:10438000074629680A98FBF7CDFE0E4628684008C4
:10439000B04200D87F1C20680121C90308400028D2
:1043A00006D03807460F38460749084030430746CD
:1043B000A7810BB0F0BD0000F3E9FFFF003801401A
:1043C0000044004000480040F0FF0000CA05D20D44
:1043D0000285704710B586B004461E4800681E4925
:1043E000096888420ED1002069460870142100A88F
:1043F0000230FBF7ECFE162269462046FBF7CEFEA4
:1044000006B010BD1348006816225043134A8118A5
:1044100016226846FBF7C2FE00210E4800681622ED
:1044200050430E4A11540B490968162251430B4A56
:104430008918881C1421FBF7CAFE0648006801F0A1
:104440001FF904490860162269462046FBF7A6FEBC
:1044500000BFD5E7200100202401002079020020C0
:104460000FB410B50E48006801F00AF90D4909684B
:10447000884203D110BC08BC04B018470849096839
:1044800016225143084A8818162202A9FBF786FE15
:104490000348006801F0F4F80149086000BFE9E74B
:1044A00024010020200100207902002070B504467C
:1044B0000D46FDF7C1F829462046FDF787F8064668
:1044C000FDF758F8042E01D0002070BD0120FCE754
:1044D0000FB410B503A9044B044A029800F0FEF88B
:1044E00010BC08BC04B01847BD4F00085C01002098
:1044F0000FB41CB50A46521E0192009007A9064B44
:104500006A46069800F0EAF8009A002111701CBC77
:1045100008BC04B018470000154E00082021020C0A
:1045200001D010211046020A01D0104608390209B4
:1045300001D01046091F820801D01046891E42088A
:1045400001D0881E7047081A704730B47446641E44
:104550002578641CAB4204D3635D5B00E31830BC78
:1045600018471D46F8E702E008C8121F08C1002AD4
:10457000FAD170477047002001E001C1121F002AE4
:10458000FBD17047F0B51FB484B007980699020DAF
:10459000014314D04A484B491018484305140F985A
:1045A00001280E981CD0281A401C0024464E47496A
:1045B000009401910290002814DA474227E00F98F6
:1045C000012443A3012808D0002104980F9A846095
:1045D0000360C260416009B0F0BD0E98C143F4E7CA
:1045E0004042E2E7074612E0F80707D0224633468A
:1045F00001990098FBF704FF019100902246334691
:1046000010461946FBF7FCFE04460E467F10002FAD
:10461000EAD10298019B0028009A0799069802DACD
:10462000FBF7EEFE01E0FBF753FF04460E460022C7
:10463000284BFBF7E5FF03D80020C043014607E005
:104640000022254B20463146FBF728FEFBF7B8FF3A
:10465000102409E0002C0ADB0A220023FBF7EDFD01
:10466000059B30321A55641E02460A43F2D11122CC
:10467000641C059B121B1C190F9B012B03D00123EB
:1046800008430ED10AE0084304D011200E90002008
:104690000F9084E70E98151A6D1E0BE00E9882425B
:1046A00002DD00236D1C03E0824201DA00236D1E4F
:1046B000002BEED004980F998260C16030C08AE769
:1046C00001FCFFFF104D0000000024400000F03FFF
:1046D000300000000000F0430000E03FFFB597B05D
:1046E0000646002518E2252877D100242746FD49F3
:1046F000049400E00443761C32780120203A904074
:104700000842F7D130782A280ED0022230780146AC
:104710003039092916D804990A23594330394018E9
:104720001443761C0490F1E7189802C8049118907D
:10473000002904DA01204003044348420490022087
:104740000443761C30782E2814D10420044370785A
:10475000761C2A2809D11898761C80C8189009E080
:104760000A214F43303FC719761C30780146303953
:104770000929F5D930786C2810D006DC4C281AD0DD
:1047800068280ED06A2817D104E0742813D07A283C
:1047900012D110E00120400504430CE0012109057D
:1047A00001E0032109050C437178814203D1012006
:1047B00000052418761C761C3078119066280BD0E2
:1047C00013DC58287DD009DC00287BD04528F6D0A2
:1047D0004628F4D047281AD1A5E118E0632835D03F
:1047E000642870D0652812D19DE170286CD008DC57
:1047F0006728F1D069287BD06E280DD06F2806D1AC
:10480000BAE073282ED0752871D0782859D01A9A1A
:10481000199990476D1C7EE16002400F022809D073
:1048200003280DD00428189801680DD00D60001DD4
:10483000189070E11898EA1701680D604A60F6E771
:10484000189801680D80F2E70D70F0E718986A4635
:1048500001781172001D18900020507202A800907B
:10486000012005E0189802C8189000200091C0436C
:1048700061070DD5002101E00199491C0191B94260
:1048800012DA8142F8DB009A515C0029F4D10BE086
:10489000002101E00199491C01918142FADB019A52
:1048A0000099895C0029F5D1019904981A9B471A4F
:1048B00021463846199A00F097FA0199401945188F
:1048C0000BE04FE02CE113E04EE0009800990078F7
:1048D000491C00911A9A199990470198401E01901D
:1048E000401CF2D1214638461A9B199A10E137E054
:1048F0000A200021009001916002410F022907D097
:10490000189A01CA1892C2179446032908D00AE0DF
:104910001898C01DC108C90005C91891944607E040
:1049200000B2C2179446042902D140B2C1178C4686
:1049300000226146944506DA0A4600214042914130
:104940008C462D2102E0210504D52B216A461173E6
:10495000012103E0E10701D02021F7E7029155E0B2
:104960000A200AE0102008E0102000900021042016
:1049700004430191082703E00820002101910090E1
:104980006002410F022907D0189A01CA189200222A
:104990009446032908D008E01898C01DC108C90032
:1049A00005C91891944603E080B2042900D1C0B231
:1049B00000210291210729D51199702906D0009A6A
:1049C0001021019B4A401A4305D00EE040216A465F
:1049D0001173012108E06146014306D030216A4687
:1049E00011731199517302210291009A0821019BC0
:1049F0004A401A430AD16146014301D1610705D5F6
:104A000030216A46117301217F1E029111995829A4
:104A100004D035A10E910DA90D910DE037A1F9E754
:104A20006146019B009AFBF708FC0E9B8C469B5C41
:104A30000D9A521E0D92137061460143F0D10D98EC
:104A400005A9081A20300190600703D50120000451
:104A5000844300E001270198874201DD381A00E015
:104A60000020019900904118029809180498401AF2
:104A70000490E00306D421461A9B199A049800F08A
:104A8000B3F94519002706E003A81A9AC05D1999E1
:104A900090476D1C7F1C02988742F5DBE0030CD524
:104AA00021461A9B199A049800F09EF9451904E0D2
:104AB0001A9A3020199990476D1C0099481E009051
:104AC0000029F5DC08E00D980D990078491C0D913E
:104AD0001A9A199990476D1C0199481E0190002956
:104AE000F1DC63E1092801003031323334353637E7
:104AF000383961626364656600000000303132332A
:104B000034353637383941424344454600000000C9
:104B100000F05AF94519761C3078002800D0E2E5FB
:104B200028461BB0F0BD600700D406271898C01DAA
:104B3000C108C90048680A680831C30FDB0718912B
:104B4000190001D09CA108E0210501D59BA104E03A
:104B5000E10701D09AA100E09AA1430011985B08F7
:104B6000109165280CD006DC452809D046281DD0B8
:104B7000472841D141E0662818D067283CD13CE065
:104B80000021112F01DB112000E0781C0191009021
:104B900008A911A8FFF7F6FC139905910021119AB5
:104BA00015927F1C12980197009150E00120C007D8
:104BB00003900120019008A9009711A8FFF7E2FCDB
:104BC000139A149905920022119B00921298159342
:104BD000059A0192002901D0104602E0791C401884
:104BE0000190381A01D5019804E04042401E00901F
:104BF000781C0190C01B029043E0012F00DA0127CE
:104C00000021112F01DD112000E0384601910090B4
:104C100008A911A8FFF7B6FC13990591119A002174
:104C2000129815920091019721070CD40599B94269
:104C300001DB019900E00191012904DD159A491E6B
:104C4000515C302906D0B84201DA011D05DA012194
:104C5000029115E00199491EEDE7002805DC009955
:104C6000411800910199091A03E0019A411C9142EF
:104C700000DD01910099401A401C02900120C007FC
:104C80000390200706D402990198814202DB00209C
:104C9000C043029000206946C87707AF01210398FE
:104CA0000337C907884224D0022011902B2012908C
:104CB000039800280CDA404203902D20129007E060
:104CC0000A210398FBF72EFA30317F1E03903970CA
:104CD0001199481E11900029F2DC03980028EFD1A9
:104CE000791E129808703078202108404530BF1E88
:104CF000387006A8C01BC01D0390109800780028CB
:104D000000D00120019941180298C0170918039892
:104D100009180498401A401E0490E00306D4214666
:104D20001A9B199A049800F05FF8451910980078BA
:104D3000002803D01A9A199990476D1CE00324D5D6
:104D400021461A9B199A049800F04EF845191CE068
:104D50000098002807DB00990598884203DD159824
:104D6000405C199901E0199930201A9A90470098EF
:104D70006D1C401C00900298401E0290002804D137
:104D80001A9A2E20199990476D1C0199481E01907E
:104D90000029DDDC05E038781A9A7F1C19999047C4
:104DA0006D1C0399481E03900029F4DC21461A9BD0
:104DB000199A0498ACE600002D0000002B000000BA
:104DC0002000000000000000F8B5044600251E4643
:104DD0001746880404D405E039462020B0476D1CEE
:104DE000641EF9D52846F8BDFFB50446002581B0FC
:104DF0001E46C80301D5302700E02027880404D5CB
:104E000005E038460399B0476D1C641EF9D5284665
:104E100005B0F0BD4A68002A06D00A68531C0B6032
:104E200010704868401E4860704700003020002124
:104E3000064A9161042111610549087009787D22B3
:104E4000D2005143034A11807047000000E000E0A7
:104E5000000000200200002001460D4A12884A434B
:104E6000521E0C4B5A6100229A6101221A6100BF46
:104E7000084A1069C207D20F002A04D00122120486
:104E80000240002AF4D00022024B1A619A61704756
:104E90000200002000E000E001460D4A12784A437B
:104EA000521E0C4B5A6100229A6101221A6100BF06
:104EB000084A1069C207D20F002A04D00122120446
:104EC0000240002AF4D00022024B1A619A61704716
:104ED0000000002000E000E010B50446002C05D0E2
:104EE000012149030448FCF7D5FD04E001214903F1
:104EF0000148FCF7CDFD10BD0004004810B5044684
:104F0000002C05D00121C9030448FCF7C3FD04E0CF
:104F10000121C9030148FCF7BBFD10BD0004004896
:104F200010B50446002C05D0012109030448FCF704
:104F3000AFFD04E0012109030148FCF7ABFD10BD02
:104F40000004004810B50446002C05D00121890357
:104F50000448FCF79FFD04E0012189030148FCF7A8
:104F600097FD10BD0004004800214180C180818070
:104F70007047028000234380C38083808160704734
:104F8000024653881088401E834201DD012070478D
:104F900093881088401E834205D193889068C1543D
:104FA0000020908005E093889068C1549088401C50
:104FB00090805088401C50800020E8E770B504467F
:104FC0000D46E1B20548FFF701FA00BF8021034812
:104FD000FFF776F90028F9D0204670BD003801406F
:104FE0000FB4F0B58FB00446012C07DB202C05DC94
:104FF0004F4E601E40013146471824E0212C07DB4C
:10500000402C05DC4B4E601E4001494947181AE010
:10501000412C07DB5F2C05DC474E601E40014449F4
:10502000471810E0602C08DB632C06DC434E20465A
:10503000603840013146471805E001200FB0F0BC50
:1050400008BC04B018472022394607A8FBF7A6F889
:105050006846808B3A4988420ED1012010A9888287
:10506000142218A96846FBF799F8384615A90EC905
:1050700000F06AF80020E1E70696012C2BDB5F2C9C
:1050800029DC00250BE069012E4A881820220699A8
:10509000FBF784F8069820300690681C85B2202D16
:1050A000F1DBFCF7C9FA3046FCF720FAFCF762FAAC
:1050B000611E4901234A8818202215A9FBF76EF8C2
:1050C0000121601E40011F4A11528A021D493046CB
:1050D000FCF73CFCB2E700250BE06901194A88188F
:1050E00020220699FBF75AF8069820300690681C93
:1050F00085B2042DF1DBFCF79FFA3046FCF7F6F998
:10510000FCF738FA2146603949010E4A88182022F6
:1051100015A9FBF743F80121204660384001094AF0
:105120001152802207493046FCF710FC86E7000048
:1051300000F0000800F4000800F8000800FC000877
:10514000FFFF0000280800200FB410B504462022FD
:1051500003A92046FCF7FAFB10BC08BC04B01847B2
:1051600007484078122807D005484078132803D014
:1051700003484078142801D1012070470020FCE743
:105180008C00002010B50446002C05D08021092099
:10519000C006FCF77FFC04E080210920C006FCF774
:1051A00077FC10BD10B50446002C05D01021092055
:1051B000C006FCF76FFC04E010210920C006FCF7D4
:1051C00067FC10BD10B50446002C05D02021092035
:1051D000C006FCF75DFC04E020210920C006FCF7B6
:1051E00059FC10BD10B50446002C05D04021092003
:1051F000C006FCF74FFC04E040210920C006FCF784
:1052000047FC10BD0020034908604860C860086181
:1052100048617047B401002070B504460D46E56052
:10522000A2601846DE0F36187610666000202060F7
:105230000A4841694069002805D108484461206155
:105240000020606170BD00E0496948690028FBD119
:105250004C612161606100BFF4E70000B4010020EF
:1052600010B50B4844690FE02068002808D1606839
:105270002060E068002806D0E168A068884702E066
:105280002068401E20606469002CEDD110BD000034
:10529000B401002008B50024002502F009FE00F04A
:1052A0009FF801210807FDF7CFFD0120FDF77EFDE6
:1052B00001284ED100F0E2F8002807D134A0FFF712
:1052C00007F9FDF70FFCFBF7BEFC50E0FFF7AEFD62
:1052D000FBF77AFAFEF7BCFAFEF7CDF9FEF7FAFA19
:1052E0003F208002FCF7D8FB0546FCF759FC04463A
:1052F000681C002807D1322C05D9254629463F20B5
:105300008002FFF7D3F83221694308466421FAF797
:1053100009FFA04211D25A21694308466421FAF7D5
:1053200001FFA04209D9FDF7DDFBFBF78CFC2A4603
:1053300021461DA0FFF7CCF819E00026FDF704FB7D
:1053400004E0701C86B20120FFF7A6FD642EF8DB96
:105350000DE0FDF7C7FBFBF776FC14201C494870F5
:105360003F208002FCF7AEF81AA0FFF7B1F80EE07C
:1053700000200090FCF7F4FB00900098B04205D0AC
:10538000009E684602F0CAFCFFF76AFF00BFEFE725
:105390000D0A2A2A2A6B65792077616B6575702A58
:1053A0002A2A0D0A000000000D0A2A2A2A636172C7
:1053B000642077616B6575702025646D562C61766D
:1053C00065726167653D2025642A2A2A0D0A00005E
:1053D0008C000020706F776572206F6E0D0A0000E0
:1053E0001CB50021684681710121C1710420009023
:1053F0000021684601710321417101218804FDF7F4
:1054000013FD69460148FCF7CFFA1CBD00040048B3
:1054100010B50A24C0215E20FDF767F805215D2044
:10542000FDF763F8FF212A20FDF75FF803215920DB
:10543000FDF75BF8F0215E20FDF757F815E00A2034
:10544000FFF72AFD0020FDF73FF80B4908800120F7
:10545000FDF73AF800020849098808430649088020
:10546000601E84B2002C00D103E000F007F8002891
:10547000E5D000BF012010BD0400002010B50421BC
:105480000148FCF7FBFA10BD0004004810B51821D4
:105490007848FAF79CFE63218020FDF726F800216A
:1054A0005E20FDF722F801212B20FDF71EF80121D7
:1054B0002C20FDF71AF805212D20FDF716F8002104
:1054C0002E20FDF712F801212F20FDF70EF8012103
:1054D0003020FDF70AF8FF213120FDF706F8022100
:1054E0003220FDF702F800213320FCF7FEFF0021F7
:1054F0003420FCF7FAFF00213520FCF7F6FF0F21DE
:105500003620FCF7F2FF0F213720FCF7EEFF0021D9
:105510003820FCF7EAFF00213920FCF7E6FF0121E3
:105520003A20FCF7E2FF01213B20FCF7DEFFFF21E0
:105530003C20FCF7DAFFFF213D20FCF7D6FF0021DD
:105540003E20FCF7D2FF00213F20FCF7CEFF0021D8
:105550004020FCF7CAFF05214120FCF7C6FF0321CC
:105560004220FCF7C2FF05214320FCF7BEFF0321C8
:105570004420FCF7BAFF05214520FCF7B6FF0321C4
:105580004620FCF7B2FF05214720FCF7AEFF0321C0
:105590004820FCF7AAFF05214920FCF7A6FF0321BC
:1055A0004A20FCF7A2FF05214B20FCF79EFF0321B8
:1055B0004C20FCF79AFF05214D20FCF796FF0321B4
:1055C0004E20FCF792FF05214F20FCF78EFF0321B0
:1055D0005020FCF78AFF05215120FCF786FF0321AC
:1055E0005220FCF782FF05215320FCF77EFF0321A8
:1055F0005420FCF77AFF05215520FCF776FF0321A4
:105600005620FCF772FF05215720FCF76EFF03219F
:105610005820FCF76AFF05215920FCF766FF00219E
:105620005A20FCF762FF00215B20FCF75EFF04219B
:105630005D20FCF75AFF80215C20FCF756FF8F218C
:105640007B20FCF752FFE4217D20FCF74EFF9421E4
:105650007E20FCF74AFFCD217F20FCF746FFCC21BE
:105660005E20FCF742FF152203490448FFF781FC46
:1056700010BD00009C010020600100207801002086
:1056800001463F2901D100207047481C0146FBE735
:1056900000B59BB0FCF764FA19900CA8FEF79AFECF
:1056A00018220CA912A8FAF779FDFC4840780128C5
:1056B0000ED0FB4919980968884209D3F748407809
:1056C000152805D0FFF74CFD002801D1FDF7F4F8AF
:1056D000F2484078152806D1F2491998096888429D
:1056E00001D9FDF7E9F810A8007A00280DD1EB48A0
:1056F0004078122809D0E9484078132805D0E748B7
:105700004078142801D01BB000BDE7491998401813
:10571000E349086010A8007A022806D1FEF796FB3C
:10572000014611900220FCF7A9FC10A8007A01287C
:1057300012D1DA48007A1190D84840788000DB49CD
:10574000085810900246DAA1DEA0119BFEF7C0FEB9
:10575000E3A0FEF7BDFE35E010A8007A022822D1B2
:1057600010A8807A0190CD4840788000CF49085831
:1057700000900246DBA1E0A0019BFEF7A9FEE848ED
:10578000FCF76EFA401CE74A0146019002A8FEF7BA
:10579000AFFEE348FCF764FA02AA01460190E2A0DA
:1057A000FEF796FE0EE010A8007A03280AD1BB4847
:1057B00040788000BD4908580246E2A11190E5A05A
:1057C000FEF786FEB5484078162801D302F0A0FA0D
:1057D00043007B449B885B009F449A1215001F0086
:1057E0003A00BE064108C909F80A5A0DAE02E80E91
:1057F0009A129A123E109A129A127E117F11EF118C
:105800008011B1112000D94800788007800F00284E
:1058100002D00320A1494870E6E3FDE710A8007A12
:10582000002814D0FCF764FAFCF758F9189001200E
:105830001899FCF743FDCE490120FCF795FAFBF7D8
:105840001FFACC490120FCF78FFAFCF747FAE3E78F
:1058500010A8007A012873D110A8807A812813D06B
:1058600008DC01280FD0022839D004280FD01028D6
:1058700067D1BEE082287CD0842863D0882879D084
:105880009028F5D1B6E000BFFDF716F877E10220C9
:1058900082490870084640688078002811D1FCF7DA
:1058A000C5F900280ADD09207C494870FDF7ECF8AD
:1058B000189004201899FCF701FD0FE0FDF705F999
:1058C0000CE09748FFF750FB082074494870FCF73C
:1058D000E7F8189001201899FCF7F0FC4FE101203F
:1058E0006E49087008464068807800281AD1FCF795
:1058F0009DF95F2813DA00209F490870FBF7D8FF55
:1059000066490872042048700846007A1190FCF736
:105910000DF9189004201899FCF7D0FC0FE0FDF762
:10592000C7F80CE07E48FFF71FFBFCF7B9F81890AA
:1059300008205A49487001201899FCF7BFFC1EE165
:105940001EE11BE1042055490870FCF70FF90028FF
:1059500014D001205149496888707148FFF704FB51
:1059600008204E494870FCF79BF8189001201899C0
:1059700001E006E072E0FCF7A1FC01E0FDF7A5F80C
:10598000FDE0032045490870FCF7F0F8002811DD20
:105990006348FFF7E9FA5F20FBF7C4FE3F4908724E
:1059A00008204870FCF77CF8189001201899FCF743
:1059B00085FC1DE0FCF7DAF8042802DBFDF778F837
:1059C00016E000206C4908705548FFF7CDFA5F20BB
:1059D000FBF7A8FE31490872052048700846007A96
:1059E0001190FCF7A3F8189004201899FCF766FCB6
:1059F000C5E000BF0120294908700846406880784A
:105A000000281BD1FCF712F95F2814DA4448FFF78D
:105A1000ABFA0020FBF74CFF2049087206204870C3
:105A20000846007A1190FCF781F818900120189927
:105A3000FCF744FC11E0FDF73BF80EE03848FFF7B7
:105A400093FAFCF72DF818900020144908720820EA
:105A5000487001201899FCF731FC90E005200F49AF
:105A60000870084640688078002809D1FCF700F9E2
:105A7000002802DDFAF7D0FF0FE0FDF726F80CE072
:105A80002748FFF771FA082004494870FCF708F826
:105A9000189001201899FCF711FC70E08C00002090
:105AA000A4000020A8000020C4090000B8000020C5
:105AB000425554544F4E5F4B45595F4556454E54E1
:105AC000000000002D653A2025732C20507265736C
:105AD000746174653A2025732C2069643D25640047
