:020000040800F2
:1000000008100020CD0000083D250008311E000822
:1000100000000000000000000000000000000000E0
:10002000000000000000000000000000E9360008A9
:10003000000000000000000031260008E53700083D
:10004000FD0000080000000019330008FD00000852
:10005000FD000008FD000008CD0D0008CF0D0008D0
:1000600000000000FD000008FD000008FD00000881
:10007000FD000008FD000008FD0000080000000071
:1000800065380008FD000008FD000008FD000008BC
:10009000FD000008FD000008FD000008FD0000084C
:1000A000FD000008FD000008FD000008FD0000083C
:1000B000FD000008FD0000080348854600F0EEF84A
:1000C0000048004735440008081000200C4880F321
:1000D00008880C480168090E0B4A914205D10B486B
:1000E0000B4901600B480C4901600C4880470C48E3
:1000F0000047FEE7FEE7FEE7FEE7FEE7FEE700005B
:1001000008100020040000001F000000181002402A
:10011000010000000000014000000000E937000875
:10012000B900000830B50B4601460020202201240A
:1001300009E00D46D5409D4205D31D469540491B1B
:100140002546954040191546521E002DF1DC30BD64
:1001500070B500242546002801DA01244042002918
:1001600001DA01254942FFF7DDFFAC4200D04042F1
:10017000002C00D0494270BD0549064A086850432A
:10018000054A8018086040087047014908607047B8
:10019000400100206D4EC6413930000003460B433C
:1001A0009B0703D009E008C9121F08C0042AFAD22D
:1001B00003E00B780370401C491C521EF9D27047B3
:1001C000D2B201E00270401C491EFBD270470022EF
:1001D000F6E710B513460A4604461946FFF7F0FF46
:1001E000204610BD30B505462A460B4610781C78CF
:1001F000521C5B1C002801D0A042F7D0002C03D079
:10020000002802D06D1CEFE7284630BD10B5002253
:1002100000E0521C835C8C5CA34201D1002BF8D11E
:10022000D8B2E1B2401A10BD03460A780270401CF1
:10023000491C002AF9D118467047F0B51FB406468C
:10024000002082B005464024019100901BE00199F6
:1002500022460F46304600F043F8049A059B801A68
:10026000994110D310461946224600F029F8361A53
:100270008F410197224601200021009F00F020F8C5
:1002800038184D4100902046641E0028DFDC019B99
:1002900000982946324607B0F0BD0000064C012503
:1002A000064E05E0E36807CC2B430C3C984710341E
:1002B000B442F7D3FFF704FF246D0008446D000833
:1002C00010B5202A04DB0146203A9140002010BDE1
:1002D000914020239C1A0346E3401943904010BDEF
:1002E00010B5202A04DB0846203AD040002110BD7A
:1002F0000B46D340D0402024A21A9140084319460F
:1003000010BD70B58C180578401C6B075B0F01D1D0
:100310000378401C2A1106D10278401C03E00678BD
:100320000E70401C491C5B1EF9D12B0705D400231D
:10033000521E0DD40B70491CFAE70378401CCB1AEF
:10034000921C03E01D780D70491C5B1C521EF9D5F0
:10035000A142D8D3002070BD00B593B0324800F060
:10036000A7F80121480402F083F90121480202F0B4
:100370009FF90121084602F07BF904200090032137
:10038000684601710021C17169460920C00600F06C
:10039000C7FF264800F008FC23484030029024485C
:1003A00003900020049005200590002006908020F6
:1003B0000790400008908000099020200A900002D9
:1003C0000B9000200C9002A9184800F0B9FC012104
:1003D000164800F0DBFB0221134800F061F8012110
:1003E000114800F051F80DA800F0C7F800200D905A
:1003F000012108A8017600200F901190042012908E
:100400000DA9094800F09EF805220421064800F0D5
:100410001FF80121044800F0B8F80121024800F05B
:1004200009F813B000BD000000240140080002409C
:10043000E40B0020002905D0C2680123DB031A4326
:10044000C26004E0C2680123DB039A43C2607047C4
:1004500010B50B460021846A1C43846200BF0C4621
:1004600014432146416110BD01607047016170472E
:10047000002904D0826801231A43826003E0826865
:1004800002231A4382607047002904D0C268012306
:100490001A43C26003E0C26852085200C26070474B
:1004A000C26802239A43C260C2680A43C2607047AE
:1004B00010B504460548844207D10121401502F0D9
:1004C00007F90021601502F003F910BD0024014076
:1004D00030B501460020002200238C680125ED077D
:1004E0002C438C6000BF8C68E30FDB07521C0F2489
:1004F0002403A24201D0002BF5D18C68E40FE4075D
:10050000002C01D1086C00E0002030BD0146086CD1
:1005100080B2704730B50246002000230124240633
:100520000C40002C05D0946801252D06AC432346D1
:1005300000E013681C460C40002C01D0012000E0B4
:10054000002030BD10B50022C268084B1A400C795B
:1005500064030B6823438C682343CC6823430C69F2
:1005600023434C6923431A43C26010BD03D2FFFFEB
:10057000816804221143816070470021016001718C
:100580008160C160016141617047002905D0C26886
:1005900001239B031A43C26004E0C26801239B034A
:1005A0009A43C2607047000010B500F02FFC0A4962
:1005B000012001F091F800F00EF9502003F02EFD1B
:1005C00000F062FF04462146012001F02FFB00F0FD
:1005D000A5F901F019FE10BDFFBF000070B504467B
:1005E000632C02DD0020C04370BD602C04DB632C53
:1005F00002DC01200B498870601EC004050E601EDD
:10060000C606F60EA9000748001D40580121B1405A
:100610000843AA000349091D885001F07DFD01200F
:10062000E2E70000B80700201CB50121480402F0F1
:100630001FF8022000900320694608710920C006B7
:1006400000F06EFE1CBD000010B586B00024012134
:10065000480202F02DF80121480402F009F8FFF7E2
:10066000E3FF6846FFF789FF0020009069460871A4
:1006700002900390049005901348FFF719FF0121A1
:1006800089071148FFF7F2FE69460F48FFF75AFF46
:10069000052202210C48FFF7DBFE0B48FFF718FF8D
:1006A00001210948FFF7E4FE04E0601C84B2012048
:1006B00003F0D4FC01210448FFF72CFF002801D1EE
:1006C000642CF2DB06B010BD00240140F8B5002018
:1006D00000900027002600F077F80A2003F0BEFC07
:1006E0002448FFF745FF002426E02248FFF740FF9B
:1006F00006E00098401C80B20090642003F0AEFC3D
:1007000004211C48FFF706FF002802D10098642846
:10071000EFDB1848FFF7FAFE054610211548FFF7F2
:10072000A3FE1549694308461449FFF711FD86B237
:10073000B81987B2601C84B2052CD6DB93217943AB
:100740000846EB21FFF704FD0D49888108468189A1
:100750000CA003F0B1FA0A4880890849CE318842DA
:1007600002DA01F011FD01E001F0F8FC00F025F8DB
:10077000F8BD000000240140E40C0000FE0F000062
:10078000900000206261743D2025640D0A00000085
:100790001CB50121480401F06BFF082000900121E5
:1007A000684601710321417100218171C17169465F
:1007B0000920C00600F0B4FD1CBD10B508210920B9
:1007C000C00600F021FE10BD10B508210920C006AA
:1007D00000F01CFE10BD10B500F030F81E2003F034
:1007E0001DFC00F023F82D2003F018FC00F026F883
:1007F0001E2003F013FC00F019F82D2003F00EFC6E
:1008000000F01CF81E2003F009FC00F00FF82D206A
:1008100003F004FC00F012F81E2003F0FFFB00F0D0
:1008200005F82D2003F0FAFB10BD000010B50021E3
:10083000014803F047F810BD0044014010B5012104
:10084000014803F03FF810BD004401401CB50121F0
:10085000480401F00DFFFF2001300090022168469E
:100860000171032141710021C1716946044800F002
:1008700057FD02220821024800F09AFD1CBD00002D
:100880000004004810B5FFF7E1FF00F00DF800F09C
:1008900021F8022300220249024803F08DFD10BD19
:1008A00095180008A00700200EB50121480401F0AA
:1008B000FFFE064801902F2168460180002101813A
:1008C00041806946024803F081F80EBDA30600008E
:1008D0000044014000B585B06021684601800121D7
:1008E000418000218180822002900221684681811E
:1008F000002101826946084803F012F808210648E1
:1009000003F058F80121044802F0BCFF012102481D
:1009100002F0CAFF05B000BD0044014010B5FFF76A
:100920008DFF142003F07AFBFFF780FF0A2003F00D
:1009300075FBFFF783FF142003F070FBFFF776FFD2
:100940000A2003F06BFBFFF779FF142003F066FB2E
:10095000FFF76CFF0A2003F061FB10BD10B500210A
:10096000022000F0F5FE022300220249024803F0B3
:1009700023FD10BD7D090008B401002030B589B009
:10098000054600240121C9020920C00600F032FDFD
:10099000002845D14249088039E04248404A12883F
:1009A000815C022000F0D4FE0121C9020920C006AA
:1009B00000F020FD01280BD13948008840003A4959
:1009C000085A401C364909884900374A505205E008
:1009D0000020334909884900334A50523048008882
:1009E00040003149085A64280CDB00202C49098852
:1009F00049002D4A50522B4829490988405C8021E2
:100A00000843044326480088401C254908802448A0
:100A100000880528C1DD0021022000F099FE24E0B5
:100A200000201F4908801CE01D48008840001E4926
:100A3000085A02280ADB1A4800884000085A64282D
:100A400004DA184816490988405C04430020144918
:100A500009884900144A505211480088401C104926
:100A600008800F4800880528DEDB002C15D0012106
:100A7000684601734473052207A9FFF78FFB03A89B
:100A80000FC803F0F3F80A221421012000F0E2FE5F
:100A9000214606A003F010F900BF09B030BD0000E8
:100AA0001800002012000020CC0100204B65795670
:100AB000616C75653A2025580D0A0000F3B589B0C0
:100AC00006465F2500F00AFD0746002F01D10BB056
:100AD000F0BD00241AE0284600F090FA0546681C94
:100AE000002800D1F3E7E8B201A902F0DBFD684677
:100AF000C079B04208D102A902310A98FFF772FB0F
:100B0000002801D02846E2E7601CC4B2BC42E2DB08
:100B10000020DCE7F3B589B00646002500F060FD53
:100B20000746002F01D10BB0F0BD00241AE0284683
:100B300000F004FB0546681C002800D1F3E7E8B28A
:100B400001A902F0AFFD6846C079B04208D102A900
:100B500002310A98FFF746FB002801D02846E2E759
:100B6000601CC4B2BC42E2DB0020DCE701210907C3
:100B70000140002902D00349486001E00249486071
:100B8000704700000004024000000240002904D029
:100B9000026801231A43026003E00268014B1A4015
:100BA00002607047FEFF00000168554A1140016075
:100BB0000021016041608160C1605249884208D1D2
:100BC0005049083949680F2211434E4A083A51608A
:100BD00094E04C491431884208D14A49083949689F
:100BE000F0221143474A083A516087E045492831CD
:100BF000884209D14349083949680F22120211433A
:100C0000404A083A516079E03E493C31884209D176
:100C10003C49083949680F2212031143394A083AFE
:100C200051606BE037495031884209D13549083964
:100C300049680F2212041143324A083A51605DE0BC
:100C400030496431884209D12E49083949680F2258
:100C5000120511432B4A083A51604FE02949783177
:100C6000884209D12749083949680F2212061143E1
:100C7000244A083A516041E02349884208D1224978
:100C8000083949680F2211431F4A083A516035E07C
:100C90001D491431884208D11B4908394968F0229E
:100CA0001143194A083A516028E01749283188420F
:100CB00009D11549083949680F2212021143124A15
:100CC000083A51601AE010493C31884209D10E4976
:100CD000083949680F22120311430B4A083A516040
:100CE0000CE009495031884208D107490839496860
:100CF0000F2212041143044A083A51607047000061
:100D0000FEFF0000080002400804024001460020E7
:100D1000002201231B070B40002B02D0064B1A6850
:100D200001E0064B1A6813460B40002B01D001204E
:100D300000E0002070470000000402400000024074
:100D400010B5002202680D4B1A400C6A8B682343D1
:100D50000C6923434C6923438C692343CC692343A7
:100D60004C6A23438C6A23431A430260CB68436076
:100D70000B6883604B68C36010BD00000F80FFFFED
:100D800070B50446632C02DD0020C04370BD602CAA
:100D900004DB632C02DC01200B498870601EC00458
:100DA000050E601EC606F60EA9000748001D405835
:100DB0000121B1408843AA000349091D885001F070
:100DC000ABF90120E2E70000B80700207047704748
:100DD00001494861704700000004014010B500203F
:100DE0000349087001F0E6F9014802F07FFC10BDEC
:100DF0002C01002010B501200349087001F0F0F922
:100E0000014802F073FC10BD2C01002010B500F069
:100E1000CFF80F4800F026F80E4800F023F80E48EF
:100E200000F020F80D4800F01DF800F05FF80020F9
:100E30000B498870002406E00021A2000848001D2C
:100E40008150601CC4B2042CF6DB01F065F910BDC2
:100E500000F0000800F4000800F8000800FC00089A
:100E6000B807002030B5044604250B20000400F02C
:100E7000B1F80546042D17D10C480069022108433A
:100E80000A4908610846446100694021084307494E
:100E900008610B20000400F09DF805460348006936
:100EA0000221884301490861284630BD00200240E4
:100EB00004200D49C968C907C90F002901D00120C4
:100EC00010E00949C96810221140002901D0022010
:100ED00008E00549C96804221140002901D0032017
:100EE00000E0042070470000002002400348006931
:100EF000802108430149086170470000002002403A
:100F000070B504460D4604260B20000400F062F87C
:100F10000646042E11D10A480069012108430849F8
:100F2000086125800B20000400F054F806460448B0
:100F300000694008400002490861304670BD000069
:100F40000020024078B506460C460425002000909B
:100F50000B20000400F03EF80546042D24D1134870
:100F60000069012108431149086134800B20000405
:100F700000F030F80546042D10D1B01C0090200C74
:100F8000009908800B20000400F024F8054607486B
:100F90000069400840000549086105E00348006910
:100FA0004008400001490861284678BD0020024001
:100FB0000548006980210840002804D00348024900
:100FC000486003484860704700200240230167459D
:100FD000AB89EFCD10B503460424FFF769FF044643
:100FE00003E0FFF765FF04465B1E012C01D1002BD7
:100FF000F7D1002B00D10524204610BD30B50246A4
:10100000602A01DB632A01DD602101E0501CC1B2CE
:1010100014E0481EC004030E481EC406E40E9D00E2
:10102000094840590125A5402840002804D058010E
:101030000019401C40B230BD481CC1B26429E8DB35
:101040000020C043F7E70000BC07002030B502468F
:10105000632A01DC602A01DA632101E0501EC1B27B
:1010600014E0481EC004030E481EC406E40E9D0092
:10107000094840590125A5402840002804D05801BE
:101080000019401C40B230BD481EC1B26029E8DAE8
:101090000020C043F7E70000BC07002030B502463F
:1010A000602A01DB632A01DD602101E0501CC1B22E
:1010B00014E0481EC004030E481EC406E40E9D0042
:1010C000094840590125A5402840002804D158016D
:1010D0000019401C40B230BD481CC1B26429E8DB95
:1010E0000120C043F7E70000BC07002030B50246EE
:1010F000632A01DC602A01DA632101E0501EC1B2DB
:1011000014E0481EC004030E481EC406E40E9D00F1
:10111000094840590125A5402840002804D158011C
:101120000019401C40B230BD481EC1B26029E8DA47
:101130000120C043F7E70000BC07002030B502469D
:10114000642A01DA012A01DA012101E0501CC1B24E
:1011500014E0481EC004030E481EC406E40E9D00A1
:10116000094840590125A5402840002804D05801CD
:101170000019401C40B230BD481CC1B26429E8DBF4
:101180000020C043F7E70000BC07002030B502464E
:101190005F2A01DC012A01DA012101E0501CC1B201
:1011A00014E0481EC004030E481EC406E40E9D0051
:1011B000094840590125A5402840002804D058017D
:1011C0000019401C40B230BD481CC1B26029E8DBA8
:1011D0000020C043F7E70000BC07002030B50246FE
:1011E000602A01DA012A01DA5F2101E0501EC1B252
:1011F00014E0481EC004030E481EC406E40E9D0001
:10120000084840590125A5402840002804D058012D
:101210000019401C40B230BD481EC1B20029E8D1BF
:10122000481EF8E7BC07002030B502465F2A01DC03
:10123000012A01DA012101E0501CC1B214E0481E6C
:10124000C004030E481EC406E40E9D000948405920
:101250000125A5402840002804D158010019401C50
:1012600040B230BD481CC1B26029E8DB0120C04358
:10127000F7E70000BC07002030B50246602A01DA1B
:10128000012A01DA5F2101E0501EC1B214E0481EBC
:10129000C004030E481EC406E40E9D0008484059D1
:1012A0000125A5402840002804D158010019401C00
:1012B00040B230BD481EC1B20029E8D1881EF8E70F
:1012C000BC070020F7B50C4615460027002D01D1BC
:1012D0000120FEBDFFF76CFE002616E001E0781C41
:1012E00087B221680098FFF72DFE042801D00A2F4D
:1012F000F5DB0A2F03DBFFF7F9FD0120E9E7009892
:10130000001D0090241D701C86B2E81CC117890FB7
:1013100009188910B142E1DCFFF7E8FD0020D8E7A9
:10132000F0B50A4600210023002400BF3DE001255E
:101330008D402B4615681D402C469C4234D11579B2
:10134000012D02D01579022D16D185684F00032694
:10135000BE40B543856055794E00B540866835433B
:101360008560858801268E40B5438580858896797D
:101370008E40B6B23543858005684F000326BE40D7
:10138000B543056015794E00B540066835430560E4
:10139000C5684F000326BE40B543C560D5794E00F1
:1013A000B540C6683543C560491C1029BFD3F0BDA0
:1013B000F0B5002300244D07EE0E1546B5402B4630
:1013C000CD10AE0005462035AD594E07F70E0F265D
:1013D000BE40B543CE10B60007462037BD51CD10F4
:1013E000AE003D46AD591D432C46CD10AD003E46E6
:1013F0007451F0BD02460020138A0B40002B01D02F
:10140000012000E00020704701857047816170472E
:101410000349887A0102024A527B11430846704709
:101420003C0000200349887A0102024A527C1143A1
:10143000084670473C0000200349087C0102024A2C
:10144000127C1143084670473C0000200349887B0A
:101450000102024AD27B1143084670473C0000203B
:101460000349887C0102024AD27B11430846704737
:101470003C0000200349C87C0102024AD27B114390
:10148000084670473C0000200349C87C0102024A1C
:10149000127D1143084670473C00002070B5044699
:1014A000632C01DD002070BD0A212046FEF750FEAE
:1014B00006490D5C0A212046FEF74AFE0348405CBF
:1014C0002902084305462846EDE700003C000020BD
:1014D00001480068704700000C00002010B5002093
:1014E000602110E04A1E52099300084AD2584B1E50
:1014F000DC06E40E0123A3401A40002A01D0421C5E
:10150000D0B24A1CD1B26429ECDB10BDBC0700206C
:1015100070B50026002501211B48FEF7A9FF04E055
:10152000681C85B2012002F099FD18491648FEF7A3
:10153000F1FF002801D1642DF2DB1348FFF718F802
:10154000002504E0681C85B2012002F087FD02201E
:10155000FFF7DCFB002801D1642DF3DB0220FFF74D
:1015600005FB002405E060000949085A8619601C43
:1015700084B2052CF7DB0749714308460649FEF79C
:10158000D1FD0646304670BD002401400100000137
:10159000E40B0020E40C0000FB4F000010B500201D
:1015A000012110E04A1E52099300084AD2584B1EEE
:1015B000DC06E40E0123A3401A40002A01D0421C9D
:1015C000D0B24A1CD1B26029ECDB10BDBC070020B0
:1015D00001468868002800D170474888C0B2FBE700
:1015E00010B50020012110E04A1E52099300084A5C
:1015F000D2584B1EDC06E40E0123A3401A40002AF9
:1016000001D0421CD0B24A1CD1B26429ECDB10BD1F
:10161000BC07002070B505460E46022D01D1094CCD
:1016200005E0012D01D1084C01E0002070BD002E25
:1016300003D00120A168884702E00020A168884704
:101640000120F3E72C0000201C00002010B5012130
:1016500049030248FFF7DAFE10BD00000008004809
:1016600010B5012149030248FFF7CEFE10BD00006E
:1016700000080048F8B506460F46022E01D1144C6A
:1016800005E0012E01D1134C01E00020F8BD072533
:1016900019E00120A8403840002803D0012021682B
:1016A000884702E0002021688847012002F0D6FC2C
:1016B000002061688847012002F0D0FC01206168A9
:1016C0008847681E45B2002DE3DA0120DEE70000FE
:1016D0002C0000201C00002070B504460D46022C92
:1016E00003D1012C01D1002070BD00212046FFF75D
:1016F00091FFE9B22046FFF7BDFF2804010E204606
:10170000FFF7B8FF01212046FFF784FF0120EBE738
:1017100070B504460D46022C03D1012C01D10020E6
:1017200070BD00212046FFF775FFE9B22046FFF7A4
:10173000A1FF2804010E2046FFF79CFF0021204650
:10174000FFF798FF01212046FFF764FF0120E7E73C
:1017500070B505460E46022D01D10B4C05E0012D5A
:1017600001D10A4C01E0002070BD0020A16888472B
:1017700000F0B4FA31462846FFF77CFF0120A1684B
:1017800088470120F0E700002C0000201C0000200A
:101790001CB50446012040030090012168460171F8
:1017A0000321417100218171C1710121C80400F040
:1017B0005FFF69462048FFF7B3FDFFF747FF0220B0
:1017C0002040002819D00121880400F051FF0F208B
:1017D0000003009069461948FFF7A2FD0121490363
:1017E0001648FFF711FE0121C9031448FFF70CFE4C
:1017F000012109031148FFF707FEE007C00F002889
:101800000FD00121480400F033FFF020009069461A
:101810000920C006FFF784FD20210920C006FFF73C
:10182000F3FD07490120FFF757FF00210220FFF7D2
:101830008FFFFFF715FF1CBD00080048000400489B
:10184000FF3F000010B5FEF7FFFEFEF7A1FFFEF719
:101850003DFF10BD70B504460D46164600200C49EC
:1018600048700846C66085604460002C04D140780A
:101870000421084306494870FFF72AFE044908611D
:1018800008464078022108430149487070BD0000B5
:101890001001002070B505462B480078002851D172
:1018A000294840780221084000284BD0FFF710FE5D
:1018B000044625480069A04244D823484078C00720
:1018C000C00F002817D02048C06800191E490861C1
:1018D00008464078400840004870FEF7A7FF1A48C5
:1018E00040780421084000282CD117484068401E49
:1018F0001549486026E01448406800280CD1124879
:10190000407804210840002806D10F484078022181
:1019100048400D49487015E00B48806800190A4995
:101920000861084640780121084307494870FEF7DE
:1019300085FF0548407808210840002802D0012092
:101940000149487070BD000010010020F8B5044640
:101950000D4616461F461548844203D101201449FE
:10196000087609E01348844203D101201049087623
:1019700002E000200E49087600200D494870084614
:10198000C760866045608482002D04D140780421C0
:10199000084307494870FFF79BFD05490861084661
:1019A00040780221084302494870F8BDFF7F0000DB
:1019B00074000020FFBF000010B5002009494870E6
:1019C000C820C86088600120486007488882FFF707
:1019D0007FFD044908610846407802210843014917
:1019E000487010BD74000020FFBF000070B50546B0
:1019F0000C460020254908762B0002F06DF90910ED
:101A0000061D44324444443D440001201F494870AF
:101A100008468482818A0120FFF75EFE34E00020C0
:101A20001A49487008468482C08AC8820846818A5A
:101A30000120FFF751FE27E0002014494870642080
:101A4000C86088600220486008468482FFF740FD35
:101A50000E49086108464078022108430B49487046
:101A600012E0062009494870C820C860886000203C
:101A700048600846848207E004484078082108430B
:101A80000249487000E000BF00BF70BD7400002034
:101A900010B5002009494870C820C860886001203E
:101AA000486007488882FFF713FD0449086108462B
:101AB0004078022108430149487010BD740000209D
:101AC000FF7F000010B5022300220249024802F005
:101AD00073FC10BDDD1A0008F001002070B505464A
:101AE0005048007800287DD14E48407802210840B7
:101AF00000285ED0FFF7ECFC04464A480169A14289
:101B000057D84078C007C00F002828D04548C06883
:101B10000019444908610846407840084000487070
:101B20000846007E002804D03F490120FFF7D4FD7D
:101B300004E03C48C18A0120FFF7CEFD39484078D7
:101B400004210840002834D136484068401E3549F9
:101B500048600846406800282BD1087629E03148C3
:101B6000406800280CD12F48407804210840002804
:101B700006D12C484078022148402A49487018E094
:101B800028488068001927490861084640780121E3
:101B90000843244948700846818A0120FFF79CFDCC
:101BA0002048407808210840002802D001201D4923
:101BB00048701C48407810210840002830D0FFF7BA
:101BC00087FC044617480069A04229D81548407888
:101BD000C007C00F002813D01248407840084000CA
:101BE000104900E01CE04870084640781021484049
:101BF0000C4948700846C18A0120FFF76DFD0FE0CF
:101C000008488068001907490861084640780121A2
:101C10000843044948700846818A0120FFF75CFDAB
:101C200070BD000074000020FF3F000070B5054645
:101C30000C462B0002F050F80910061B412F4141C1
:101C4000413A410001201E49487008468482818A39
:101C50000220FFF75DFD31E0002019494870401E69
:101C600088820846818A0220FFF752FD26E0002084
:101C700013494870C820C86088604860084684825C
:101C8000FFF726FC0E490861084640780221084308
:101C90000B49487012E0062009494870C820C86006
:101CA0008860002048600846848207E00448407845
:101CB000082108430249487000E000BF00BF70BD22
:101CC0005400002010B5022300220249024802F00D
:101CD00073FB10BD6D1D0008D801002010B522480F
:101CE000407802210840002805D11F48407804218F
:101CF000084000281DD01C484078C007C00F0028AD
:101D00000BD01948017D0220FFF7B4FC1648808AE9
:101D100001120220FFF7AEFC25E00020002822D1AE
:101D2000FF210220FFF7A6FCFF210220FFF7A2FC03
:101D300019E00D484078C007C00F00280BD00A48B2
:101D4000017D0220FFF796FC0748808A01120220DD
:101D5000FFF790FC07E0FF210220FFF78BFCFF213B
:101D60000220FFF787FC10BD5400002070B5054627
:101D70002D480078002856D12B4840780221084091
:101D8000002850D0FFF7A4FB044627480069A04272
:101D900049D825484078C007C00F002819D02248EC
:101DA000C068001920490861084640784008400092
:101DB00048701E490220FFF7ABFC1B484078042105
:101DC000084000282FD118484068401E1649486036
:101DD00029E01548406800280CD1134840780421B8
:101DE0000840002806D110484078022148400E499A
:101DF000487018E00C48806800190B4908610846D3
:101E0000407801210843084948700846818A022029
:101E1000FFF77EFC0448407808210840002802D0E3
:101E200001200149487070BD54000020FFFF0000F0
:101E300000BFFEE738B5044601236A462146B420B8
:101E400000F0D4F8002802D06846007838BD00F0D1
:101E5000AFF80020FAE773B504460025012301AA74
:101E60002146B42000F000F90546002D01D100F014
:101E70009FF828467CBD000010B50446002C04D114
:101E800001210748FFF7C0FA03E001210448FFF7EA
:101E9000BDFA00F007F801210148FFF7B7FA10BDBD
:101EA0000004004810B5142002F0D8F802210848B8
:101EB000FFF7ACFA142002F0D1F801210448FFF733
:101EC00099FA044602210248FFF79EFA204610BD07
:101ED000000400481CB50121880400F0C9FB032060
:101EE0000090012168460171032141710121817136
:101EF0000021C17169460248FFF712FA1CBD0000BB
:101F00000004004870B50024002509E06006040EB6
:101F1000FFF7C8FF002801D0601CC4B2681CC5B21E
:101F2000082DF3DB204670BD70B50446002513E094
:101F300080202040C611002E04D101210D48FFF75A
:101F400063FA03E001210B48FFF760FA6006040E14
:101F5000FFF7A8FF681CC5B2082DE9DBFFF7A2FF59
:101F6000002803D000200449087002E00120024943
:101F7000087070BD000400481000002010B5012159
:101F80000A48FFF743FA02210848FFF73FFA1420F6
:101F900002F064F801210548FFF736FA142002F038
:101FA0005DF802210148FFF72FFA10BD0004004838
:101FB00010B502210C48FFF727FA01210A48FFF764
:101FC00023FA142002F04AF802210748FFF71EFA0C
:101FD000142002F043F801210348FFF717FA1420F8
:101FE00002F03CF810BD000000040048FFB581B0CD
:101FF000064614461F46FFF7C1FF3046FFF794FF21
:1020000018480078002801D105B0F0BD0298FFF70C
:102010008BFF14480078002800D1F5E7FFF7AEFFEA
:10202000711CC8B2FFF780FF0E480078002800D16D
:10203000EAE7002508E0FFF765FF20700020FFF7C2
:102040001BFF641C681CC5B2781EA842F3DCFFF7B6
:1020500059FF20700120FFF70FFFFFF7A9FF0120B4
:10206000D2E7000010000020FFB581B00E461446F4
:102070001F46FFF783FF0198FFF756FF10480078CF
:10208000002801D105B0F0BD3046FFF74DFF0C48E8
:102090000078002800D1F5E700250AE02078FFF756
:1020A00043FF07480078002800D1EBE7641C681C58
:1020B000C5B2BD42F2DBFFF77BFF0120E2E7000083
:1020C0001000002010B5142210491148FEF766F8E0
:1020D0000F4800880F49884206D00D480069FF214B
:1020E0000902084000280FD0002406E00021A200C9
:1020F0000748001D8150601CC4B2042CF6DB002090
:102100000349887000F008F810BD000000EC0008DA
:10211000B8070020FFFF000000B585B014220C496D
:102120006846FEF73BF8684600880A49884206D0B0
:10213000FEF73EFF0648FEF795FEFEF7D7FE0120AC
:102140000549088014220248FFF7BCF805B000BD1D
:1021500000EC0008FFFF0000B807002010B50020C9
:10216000064908700648C08A01214903084304490A
:10217000C88204490120FFF7AFFA10BD70000020AB
:1021800074000020FF3F000010B5012006490870D0
:102190000648C08A0121490388430449C88204498A
:1021A0000120FFF799FA10BD700000207400002094
:1021B000FF1F000010B50020064908700648C08ABD
:1021C0000121090308430449C88204490120FFF79B
:1021D00083FA10BD7100002074000020FF3F000052
:1021E00010B50120064908700648C08A012109037C
:1021F00088430449C88200210120FFF76DFA10BD11
:10220000710000207400002010B500240AE00120B5
:1022100001F024FF601C84B2FF20F530844201DD10
:10222000002010BD02F0CCF90028F0D002F092F9A5
:1022300000F0E6FC0121080700F02AFA012000F076
:10224000B7F9012000F054FA002000F051FA012003
:1022500000F0AAFB002404E0012001F0FFFE601C56
:1022600084B2412000F07CFB002801D1642CF3DB18
:1022700000F0B6FF0121080200F0CAF9012000F0C9
:10228000ABF900F0B3F90148CBE70000FFFF000015
:1022900010B5002406E0601C84B21A48844201DDB7
:1022A000002010BD02F08CF90028F4D000F0A8FC4A
:1022B0000121080700F0ECF9012000F079F9012074
:1022C00000F016FA002000F013FA012000F06CFB79
:1022D000002401E0601C84B2412000F041FB002892
:1022E00003D17D20C0008442F4DB00F079FF01219E
:1022F000080200F08DF9012000F06EF900F076F987
:102300000148CEE788130000FFFF000010B5002051
:1023100006490870FFF790F80446054801F006FFEB
:10232000032004494870204610BD0000B200002080
:10233000600100209000002010B50D200349487076
:10234000FFF78EF80446204610BD000090000020E4
:1023500010B50A2003494870FFF782F8044620466A
:1023600010BD00009000002010B50749097804292D
:1023700003D10D21054A117002E00A21034A1170B0
:10238000FFF76EF810BD000090000020B1000020A3
:1023900010B5FFF76FF8044621460120FFF746FC11
:1023A000FEF7BCFAFFF730FF10BD10B5FFF76CF871
:1023B000044621460120FFF739FCFEF7AFFAFFF78C
:1023C00023FF10BD70B504F0D3FB01F011FEFFF741
:1023D00079FEFEF757FA0320FFF7DAF90021012012
:1023E000FFF704FBFFF7FCF8002807D0FFF724F8FD
:1023F000044621460120FFF719FC08E0FFF744F8E6
:10240000044621460120FFF711FCFEF787FA01F090
:10241000C9FFFFF757FCFFF755FB00F01FFE01F067
:1024200013FBFFF757FD02F0D3F800F003F900F0BB
:10243000A7FBFEF793FA00F03DF8FFF703FAFEF76B
:1024400021FA00F04FF800210120FFF7CFFA032016
:1024500004494870FEF7F0FF054629460120FFF7C2
:10246000E5FB70BD9000002010B5032189020448EF
:10247000FEF7CCFF0121C9020148FEF7C5FF10BDE0
:102480000004004810B5032189020448FEF7BEFF8E
:10249000012189020148FEF7B7FF10BD0004004882
:1024A00010B5032189020248FEF7B0FF10BD0000FD
:1024B000000400481CB50121880400F0D9F803206D
:1024C00080020090012168460171032141710021C1
:1024D000817169460248FEF723FFFFF7E1FF1CBD4B
:1024E0000004004810B5124812490A780270497871
:1024F00041700078FF2803D00D484078FF280CD1A8
:1025000000200B490870487014200B494870FFF7F1
:1025100051FE074801F0EAF808E005480078002875
:1025200002D1FFF747FE01E0FFF75AFE10BD0000A1
:102530002C01002000E800089000002070470000F7
:1025400000218278002A27D0184A03231B02D218C0
:1025500003789B109B00D15802789207D30EFF227C
:102560009A400B469343194642789207120E03781D
:102570009B07DB0E9A4011430C4A03231B02D2181F
:1025800003789B109B00D1500278D306DB0E01220A
:102590009A40064B1A6007E00278D306DB0E012250
:1025A0009A40024B80331A607047000000E100E05F
:1025B000002807D007490968FF2201321143054A64
:1025C000116006E003490968FF2201329143014A84
:1025D0001160704700700040034909688200114390
:1025E000014A116070470000007000400648006812
:1025F0000221084304490860044800690421084393
:102600000249086130BF70470070004000ED00E0F3
:10261000002905D0054A52680243044B5A6004E081
:10262000024A52688243014B5A6070470070004072
:102630007047000010B50320084948700020487218
:102640008872022300220649064801F0B5FEFEF713
:102650003FFF054940180549086010BD9000002063
:10266000E947000808020020C4090000A800002073
:10267000002905D0054A52690243044B5A6104E01F
:10268000024A52698243014B5A617047001002406E
:10269000002905D0054AD2690243044BDA6104E0FF
:1026A000024AD2698243014BDA617047001002404E
:1026B000002905D0054A92690243044B9A6104E05F
:1026C000024A92698243014B9A61704700100240AE
:1026D000002905D0054AD2680243044BDA6004E0C1
:1026E000024AD2688243014BDA6070470010024010
:1026F000002807D00749096A012212041143054A3C
:10270000116206E00349096A012212049143014A59
:102710001162704700100240FEB5044600250026F5
:1027200000200290019000900027864840680C210C
:1027300008400546002D06D0042D07D0082D08D0EE
:102740000C2D2CD128E0804820602BE07E482060B2
:1027500028E07C4840680F218904084006467948F3
:1027600040680321C90308400290B00C861C0298FF
:10277000002803D17548374647430BE07148C06ACB
:102780000007000F401C01906F480199FDF7CAFC3B
:1027900070430746276005E06D48206002E06A4804
:1027A000206000BF00BF67484068F0210840054630
:1027B0002D096848405D009020680099C84060601D
:1027C0006048406807210902084005462D0A614813
:1027D000405D009061680098C140A1605948006B5D
:1027E000FF2101310840884202D05B48E0600DE0E3
:1027F00054484068012189030840884203D0A068FA
:102800004008E06002E0A0688008E0604D48006B8E
:1028100040210840402802D05048206102E00120B9
:10282000C00320614748006B10210840102802D0E7
:102830004548606101E0206860614248006B8007A4
:10284000800F002802D1A068A06119E03D48006B0C
:102850008007800F012802D12068A06110E039486C
:10286000006B8007800F022802D18003A06107E07F
:102870003448006B8007800F032801D13248A061E3
:102880003048006B032109040840002802D1A068E9
:10289000E06120E02B48006B03210904084001217E
:1028A0000904884202D12068E06114E02548006BE9
:1028B00003210904084001214904884202D1801003
:1028C000E06108E01F48006B0321090408408842CA
:1028D00001D11D48E0611B48006B032189040840B9
:1028E000002802D1A068206220E01648006B032176
:1028F0008904084001218904884202D120682062AD
:1029000014E01048006B0321890408400121C90428
:10291000884202D10011206208E00A48006B0321BE
:1029200089040840884201D1074820620548006BAD
:1029300080210840802802D00548606200E067627C
:10294000FEBD00000010024000127A0000093D00A8
:10295000006CDC022E010020809FD5001280000058
:1029600010B502460021002300205111002902D198
:102970000C4C23680BE0012902D10A4C236A06E0C3
:10298000022902D1074C636A01E0064C636BD10651
:10299000C90E01248C401C40002C01D0012000E015
:1029A000002010BD00100240002806D00649496AE8
:1029B00001221143044A516205E00349496A49086A
:1029C0004900014A5162704700100240002807D0B8
:1029D0000749096A0122D2031143054A116206E040
:1029E0000349096A0122D2039143014A11627047E7
:1029F000001002400249096A0143014A116270470E
:102A00000010024070B588B00546932168460172F7
:102A1000702141720021817300240BE0295D02AA1C
:102A2000A01C11546946887B295D4840694688731B
:102A3000601CC4B2042CF1DB03AA0332072102A8F4
:102A400000F018F80821084600F049F807A802AB82
:102A5000092202A900900C2000F050F90646002E31
:102A600004D16846007F182800D100E002263046D5
:102A700008B070BDF7B5074615460421052000F0E3
:102A80002EF80021012000F0DFF880210B2000F05B
:102A90008DFA002405E0395D092000F0D5F8601CAE
:102AA000C4B201988442F6DB0321012000F0CCF887
:102AB000FF2400BF052000F0ABF80646601EC4B23C
:102AC000002C03D0042030400028F3D0222000F056
:102AD0009FF82870212000F09BF86870FEBD70B54B
:102AE00005460C460026284600F092F80646304679
:102AF000A0430146284600F0A7F870BDF0B585B0A8
:102B000004460F46FF2214216846FDF759FB69462B
:102B1000262000F0A8F90546002D02D0022005B0BD
:102B2000F0BD69460E783002497808430646012018
:102B30008002864202D10020207008E0012040027D
:102B4000864202D10120207001E0FF2020706846FB
:102B500000F09CF80546002D01D00220DFE7684612
:102B6000FFF750FF0546002D01D00220D7E700F007
:102B700063F9042269463846FDF710FB0020CEE7D2
:102B800010B5C82001F06AFA00F09EF9012001F0AA
:102B900065FA00F0A1F9012001F060FA00F094F963
:102BA000012001F05BFA0F21012000F04DF8012017
:102BB00001F054FA3D21112000F046F81E212D208D
:102BC00000F042F800212C2000F03EF88D212A2050
:102BD00000F03AF83E212B2000F036F84021152075
:102BE00000F032F800F04CF8642300220249034858
:102BF00001F0E2FB10BD0000E92E0008F00B002000
:102C000010B500F03DF83021012000F0CFF910BDE3
:102C100070B5044640210B48FEF7F6FB012001F099
:102C20001DFA60007E21084004468034204600F0F2
:102C3000EBF900F0CBF9054640210248FEF7E6FB30
:102C4000284670BD0004004870B504460D4640217A
:102C50000A48FEF7D9FB012001F000FA60007E214E
:102C600008400446204600F0CFF9284600F0CCF991
:102C700040210248FEF7CAFB70BD00000004004876
:102C800010B503211420FFF72AFF10BDF0B587B05F
:102C90000546002708210846FFF721FF00210D20E7
:102CA000FFF7D2FF80210E20FFF719FF932168461E
:102CB00001712021417106A801AB022201A90090F7
:102CC0000C2000F01BF80646002E10D1002407E06F
:102CD00001A8005D285501A8005D4740601CC4B2F2
:102CE000042CF5DB01A8005DB84200D0022680214B
:102CF0000E2000F05BF9304607B0F0BDFFB583B0A1
:102D00000646022002900020019000900E2E04D171
:102D1000122001901020009005E00C2E03D17720A6
:102D2000019030200090802201981043014602203B
:102D3000FFF78AFF80210420FFF7D1FE0021012048
:102D4000FFF782FF80210A2000F030F9002506E01D
:102D50000498415D0920FFF777FF681C85B205984C
:102D60008542F5DB31460120FFF76EFF0C2E03D1C3
:102D700080210D2000F01AF97D252D0100BF0420CF
:102D8000FFF746FF0446681E85B2002D07D0E00716
:102D9000C00F002803D1009820400028EFD08021E8
:102DA0000D20FFF79CFE002D3BD00620FFF730FFE3
:102DB0001B210840002832D1029001982040C00712
:102DC000C00F002801D0012002900C2E29D10A202A
:102DD000FFF71EFF04460C20FFF71AFF47077F0F7F
:102DE000002F06D0601EC000C019C1B20C9801703F
:102DF00003E0E006010E0C980170002C00D10124C4
:102E0000122C00DD1224002506E00920FFF700FF48
:102E100006994855681C85B2A542F6DB01E0022000
:102E2000029080210C2000F0C1F800210120FFF762
:102E30000BFF029807B0F0BD00B587B0502168467F
:102E4000017100214171821D022101A8FFF712FECC
:102E500006A801AB042201A900900C20FFF74EFF49
:102E6000002007B000BD70B588B005460C460821AB
:102E70000846FFF734FE07210D20FFF7E5FE03218A
:102E8000142000F093F86846057207A802AB0122EF
:102E900002A900900C20FFF731FF0646002E0AD150
:102EA0006846007F102806D16846007A2070684680
:102EB000407A607000E00226304608B070BD10B560
:102EC00000F002F810BD000010B580210148FEF7A7
:102ED0009DFA10BD0004004810B580210148FEF79E
:102EE00093FA10BD0004004870B58CB0064600206F
:102EF0000B9028484078C01E030000F0EDFE0B0741
:102F0000464608090A460B46460C460000BF00BF6D
:102F100000BF00BF00BFFDF71FFAFEF7F9FA054634
:102F2000962D31D209A90BA8FFF7E8FD00282BD177
:102F30000290002108A8017203216846017305224E
:102F400009A90D30FDF72AF9052207A96846FDF702
:102F500025F903A80FC800F089FE1E225021012088
:102F6000FEF778FC0CA000F0A7FE002406E009A8FC
:102F7000015D0CA000F0A0FE601CC4B2042CF6DBC6
:102F800009A000F099FE00BF00BF00BF00BF0CB059
:102F900070BD000090000020636172644E756D3A50
:102FA000200D0A00255800000D0A000070B50546E6
:102FB0000C4600262846FFF72BFE064630462043E7
:102FC00001462846FFF740FE70BD000070B50024A2
:102FD000002513E008210B48FEF716FA6006040EE0
:102FE0000848008A10210840002801D0012004432D
:102FF00008210448FEF70AFA681CC5B2082DE9DB6F
:10300000204670BD0004004870B5044600251BE052
:1030100008211148FEF7F8F980202040002804D04C
:1030200020210D48FEF7F2F903E020210A48FEF7BF
:10303000EBF96006040E08210748FEF7E7F90120C6
:1030400001F00CF8681CC5B2082DE1DB2021024814
:10305000FEF7DAF970BD0000000400481CB501213C
:103060008804FFF705FB0121684601716820009084
:10307000002168468171C171032141716946174879
:10308000FEF74EF908211548FEF7BEF92021134836
:10309000FEF7BAF940211148FEF7B8F90121684658
:1030A000017180200090002168468171C171032167
:1030B000417169460948FEF733F9FFF70DFF00211A
:1030C000684601711020009068468171C17103212A
:1030D000417169460148FEF723F91CBD0004004810
:1030E00010B503211420FFF761FF10BD38B502466B
:1030F0000024009400230020CA24174D6C6253243E
:103100006C62002905D02C46A4681443AC600120F1
:103110001DE0114CA46894430F4DAC6000BF0E4CF1
:10312000E468150A2C402346009C641C0094012589
:10313000AD03009CAC4201D0002BF0D0064CE468FB
:10314000150A2C40002C01D1002000E00120FF24B2
:10315000014D6C6238BD00000028004030B50346C8
:103160000020CA24064D6C6253246C6214060C4382
:103170002046034C40346060FF246C6230BD000088
:1031800000280040014600BFF020084000110A233B
:10319000584302460807000F8018C0B27047014626
:1031A000002204E0501CC2B208460A38C1B20A2903
:1031B000F8DA1007000E08437047000010B5002130
:1031C000010980220A4392B2D243044BDB68802477
:1031D00023401A43014BDA6010BD00000028004074
:1031E00000B589B001204002FFF704FC0120FFF781
:1031F000EDFB00F0FBF90020069078200790FF20FF
:103200002D30089006A800F0EDF800216846C17244
:103210000172417281723121017500200490C8074A
:10322000039002AAC10D012000F008F90F2201212C
:103230000802FFF793FF0121080300F0A1F8012124
:103240000802FFF753FF00216846C1710171417107
:10325000817101A9012000F05DF909B000BD0000F5
:1032600008B50022009200200021124AD2684023B3
:103270001A40002A1BD1421E0E4BDA6000BF0D4AD5
:10328000D26840231A401146009A521C00921B0239
:10329000009A9A4201D00029F1D0064AD268402310
:1032A0001A40002A01D0012002E0002000E00120A5
:1032B00008BD0000002800400348C0688021884302
:1032C0000149C860704700000028004070B5014601
:1032D0000020002200230F4C246804252C402246A5
:1032E0000C4C403CA4680C408E0C0D46F540ED0B98
:1032F00015402C432346074C403CE4680D092C4004
:103300002246002B04D094B2002C01D0012000E012
:10331000002070BD4028004010B501208003FFF759
:10332000D5FF00280BD00DA000F0C6FC01208003C3
:10333000FFF744FF01204004FDF74AFD0CE00120A7
:103340000003FFF7C3FF002806D009A000F0B4FC7B
:1033500001200003FFF732FF10BD000077616B65AD
:10336000757050696E20697320776F726B0D0A005B
:10337000616C726D4120697320776F726B0D0A006A
:1033800010B5CA22164B5A6253225A62002911D034
:103390001A46926804240346A3431A43104B9A60CA
:1033A0000F4A40321268042303401A430C4B403347
:1033B0001A6010E00A4A926804240346A3439A4321
:1033C000074B9A60064A40321268042303409A432E
:1033D000034B40331A60FF22014B5A6210BD0000BC
:1033E0000028004030B504460025CA201249486232
:1033F00053204862FFF734FF002800D117E00E4841
:103400008068402188430C498860084680682168AC
:10341000084309498860A068086108460069A188D6
:103420000904084304490861FFF746FF0125FF200E
:1034300001494862284630BD00280040F8B50546DD
:1034400014460026002D0ED13148806840210840E6
:10345000002800D002E00020E07000BFA068002833
:1034600000D11BE01AE02A4880684021084000286B
:1034700004D02078FFF786FE064602E00020E070C8
:1034800000BFA068002804D1207BFFF77BFE064622
:1034900004E0207BFFF776FE064600BF002D12D029
:1034A00020780004617809020843A1780843E17894
:1034B00009040843217B09060843A16808436168A1
:1034C0000843064619E02078FFF769FE0704607894
:1034D000FFF765FE00020743A078FFF760FE074391
:1034E000E07800040743207BFFF759FE00060743FE
:1034F000A0680743606807433E46CA200449486203
:10350000532048620846C661FF204862F8BD0000AB
:1035100000280040F8B505460C4600260020009023
:10352000002D0AD12F48806840210840002800D093
:1035300002E00020E07000BF0EE02A4880684021D1
:103540000840002804D02078FFF71CFE064602E061
:103550000020E07000BF00BF002D0BD020780004D9
:10356000617809020843A1780843E1780904084317
:10357000064610E02078FFF712FE07046078FFF798
:103580000EFE00020743A078FFF709FE0743E0782C
:10359000000407433E46CA2012494862532048624D
:1035A000FFF75EFE002801D1009016E00E48304083
:1035B0000C490860FFF780FE0A4880682021084017
:1035C000002808D100F012F8002801D1009004E092
:1035D0000120009001E001200090FF200149486295
:1035E0000098F8BD002800407F7F7F0008B50022CA
:1035F000009200200021174A926820231A40002AD6
:1036000001D0012025E0CA22124B5A6253225A628D
:103610001A46D268A0239A430E4BDA6000BF0D4AC7
:10362000D26820231A401146009A521C00929B0235
:10363000009A9A4201D00029F1D0064AD26820238C
:103640001A40002A01D0012000E00020FF22014B97
:103650005A6208BD0028004070B500F019F8054610
:103660000120A84003218903884384B207480078D9
:10367000002805D00121490320468843044602E082
:10368000012040030443204670BD0000700000206C
:1036900070B5FCF771FD05460C21FCF759FDCCB265
:1036A000204670BD70B504460E46002C01D0642C37
:1036B00002DB0020C04370BD5F2C04DC601E4001B3
:1036C0000749451804E0204660384001054945187F
:1036D000202229463046FCF761FD2020EBE7000060
:1036E00000F0000800FC00087047000010B5044618
:1036F000FDF75EFC0448FDF7B5FB21880248FDF7A5
:10370000FFFBFDF7F3FB10BD00E800080CB500203F
:1037100001900090314800680121090408432F49B5
:10372000086000BF2D48006801214904084000904E
:103730000198401C01900098002804D1052109033C
:1037400001988842EED125480068012149040840CB
:10375000002802D00120009001E000200090009895
:10376000012839D111201E4908601C4840681B49B6
:103770004860084640684860084640687F21C903A1
:1037800088431649486008464068112109040843E7
:1037900012494860084600680121090608430F499C
:1037A000086000BF0D480068012149060840002854
:1037B000F8D00A48406880088000084948600846F8
:1037C0004068022108430549486000BF034840683B
:1037D0000C2108400828F9D10CBD0000001002405F
:1037E000002002407047000010B51B48006801210E
:1037F00008431949086008464068184908401649B6
:1038000048600846006816490840134908600846A1
:1038100000680121890488430F4908600846406810
:103820003F21090488430C4948600846C06A0009E2
:103830000001C8620846006BFF21543188430649E5
:1038400008630846406B40084000486300208860D9
:10385000FFF75CFF10BD0000001002400CB8FF082D
:10386000FFFFF6FE10B50121054800F03CF80028E6
:1038700005D00121024800F013F800F013F910BD43
:1038800000040040002904D0028880231A430280EB
:1038900003E00288014B1A40028070477FFF00005E
:1038A000CA43028270470000002904D00288012325
:1038B0001A43028003E00288014B1A4002807047DD
:1038C000FEFF0000002907D04422125A0123DB0327
:1038D0001A4344231A5205E04422125A53045B0C43
:1038E00044221352704730B50246002000230024C2
:1038F000158A0D402B4695890D402C46002B03D090
:10390000002C01D0012000E0002030BD002A03D0AF
:1039100083890B43838102E083898B4383817047D2
:1039200070B5002400220023058C1C4E3540058410
:10393000028C8388048B194D6F3D2C40B51E2C40A2
:103940000D882C43751E2A408D892A434D882A43B1
:10395000134DA84208D0134DA84205D0124DA842DD
:1039600002D0124DA84212D10C4DED1F2A40CD8934
:103970002A430A4DED1E2A408D882A43074DFF3DFC
:103980002B400B4D2B400D8A2B434D8A2B438380BC
:1039900004838D684563028470BD0000FEFF000053
:1039A000002C01400040014000440140004801401B
:1039B000FFFD00000A460021018B034B19400B4616
:1039C0001343194601837047F7FF00000022028865
:1039D000154B984206D001239B07984202D0134B07
:1039E000984203D1124B1A404B881A43114B98420C
:1039F00003D0114B1A400B891A4302804B68C362F3
:103A00000B880385084B984208D00C4B984205D090
:103A10000B4B984202D00B4B984201D18B7A038614
:103A20000123838270470000002C01400004004005
:103A30008FFF000000100040FFFC0000004001402C
:103A400000440140004801401FB501200290134985
:103A50006846818000218181C1808173012102201B
:103A6000FEF716FE01A90E48FFF7B0FF10216846C9
:103A700001700021417001218170FEF761FD01217B
:103A80000748FFF70DFF012211460548FFF73EFFEB
:103A900001210348FFF708FF1FBD00007FBB0000A6
:103AA0000004004002480068401C0149086070475B
:103AB0000C000020002904D0026801231A43026090
:103AC00003E002685208520002607047024600207C
:103AD000D3690B40002B01D0012000E0002070478B
:103AE000F0B58BB004460D46002700200A90002652
:103AF00020684008400020606668032109033046C2
:103B000088430646A8680643666026682D48064036
:103B1000E968686808432969084306432660A6687F
:103B20000321090230468843064668690643A660B9
:103B30006846FEF7F1FD2448844202D106980A90B7
:103B40000DE02248844202D107980A9007E02048FD
:103B5000844202D108980A9001E002980A902068F5
:103B60000121C903084000280CD029680A9A500096
:103B7000FCF7D8FA074629680A9A5000FCF7D2FAEF
:103B80000E4609E029680A98FCF7CCFA074629682E
:103B90000A98FCF7C7FA0E4628684008B04200D8D9
:103BA0007F1C20680121C9030840002806D038077F
:103BB000460F38460749084030430746A7810BB0F7
:103BC000F0BD0000F3E9FFFF003801400044004071
:103BD00000480040F0FF0000CA05D20D0285704782
:103BE00010B586B004461E4800681E490968884220
:103BF0000ED1002069460870142100A80130FCF79E
:103C0000E6FA152269462046FCF7C8FA06B010BD50
:103C10001348006815225043134A8118152268463C
:103C2000FCF7BCFA00210E480068152250430E4AEA
:103C300011540B490968152251430B4A8918481C35
:103C40001421FCF7C4FA0648006800F0C5FD0449D9
:103C50000860152269462046FCF7A0FA00BFD5E7A8
:103C6000080100200C010020600200200FB410B5F4
:103C70000E48006800F0B0FD0D490968884203D184
:103C800010BC08BC04B01847084909681522514304
:103C9000084A8818152202A9FCF780FA0348006830
:103CA00000F09AFD0149086000BFE9E70C0100201F
:103CB00008010020600200200FB410B503A9044BD6
:103CC000044A029800F026F810BC08BC04B018475B
:103CD000814100084401002030B47446641E2578F8
:103CE000641CAB4204D3635D5B00E31830BC18472F
:103CF0001D46F8E702E008C8121F08C1002AFAD1E1
:103D000070477047002001E001C1121F002AFBD15B
:103D100070470000FFB58FB00F460446002606E04E
:103D200025280AD0129A11999047641C761C207895
:103D30000028F5D1304613B0F0BD00250121A14A7D
:103D4000009500E00543641C23780846203B98401A
:103D50001042F7D120782E2815D104200543607831
:103D6000641C2A280AD101CF641C00900BE0009942
:103D70000A22514330394018641C009020780146D3
:103D800030390929F3D920786C280ED004DC4C286E
:103D900013D06A2812D104E074280ED07A280DD1ED
:103DA0000BE001204005054307E001210905627889
:103DB0000D43824201D16D18641C641C2078864634
:103DC00069284AD008DC0028B4D058286DD0632870
:103DD00010D0642808D140E070286BD0732812D02E
:103DE000752860D0782860D0129A70461199904753
:103DF000761CE5E03878694608720020487202A80F
:103E00000190012003E0386801900020C0433F1D6D
:103E100069070CD5002500E06D1C00998D420FDA72
:103E20008542F9DB0199495D0029F5D108E00025BB
:103E300000E06D1C8542FCDB0199495D0029F8D149
:103E4000761907E0019801990078491C0191129AAE
:103E5000119990476D1EF5D2B2E00A200290002120
:103E60006802400F039102280CD001CFC11784468D
:103E700000290DDA624608465242002181419446EB
:103E80002D2008E0FF1DFF08FF0003CF8446EFE769
:103E9000280504D52B206A46107401203CE0E80771
:103EA0003AD02020F7E70A2000E0102000210391FB
:103EB000029007E010200290002104200543082012
:103EC000039100906802400F022810D001CF00211A
:103ED000844600200D9028071FD5704670280CD00E
:103EE000029A1020039B42401A430CD015E0FF1D9C
:103EF000FF08FF0003CF8446EBE740206A461074BA
:103F000001200D900CE06046084306D030206A4640
:103F100010747046507402200D907046582804D0DA
:103F200029A001900DA80E900DE02CA0F9E76046A5
:103F3000039B029AFCF781F9019B84469B5C0E9AD5
:103F4000521E0E92137060460843F0D10E9805A9D8
:103F5000081A20300190680701D5009801E001207F
:103F600000900199884203DD01460198081A00E09B
:103F700000200025009006E004A8129A405D1199E7
:103F800090476D1C761C0D988542F5DB04E0129A73
:103F9000302011999047761C0099481E0090002906
:103FA000F5DC08E00E980E990078491C0E91129AE3
:103FB00011999047761C0199481E01900029F1DC67
:103FC000641CB4E609280100303132333435363709
:103FD0003839616263646566000000003031323355
:103FE00034353637383941424344454600000000F5
:103FF00030200021064A91610421116105490870B1
:1040000009787D22D2005143034A11807047000095
:1040100000E000E0020000200400002001460D4AFC
:1040200012884A430C4B5A6100229A6101221A619C
:1040300000BF094A1069C207D20F002A04D001222A
:1040400012040240002AF4D00022034B1A619A6144
:10405000704700000400002000E000E001460D4A27
:1040600012784A430C4B5A6100229A6101221A616C
:1040700000BF094A1069C207D20F002A04D00122EA
:1040800012040240002AF4D00022034B1A619A6104
:10409000704700000200002000E000E010B5044678
:1040A000002C05D0012149030448FDF7AFF904E0D5
:1040B000012149030148FDF7A7F910BD000400489C
:1040C00010B50446002C05D00121C9030448FDF7B2
:1040D0009DF904E00121C9030148FDF795F910BDE0
:1040E0000004004810B50446002C05D00121090346
:1040F0000448FDF789F904E0012109030148FDF7AF
:1041000085F910BD0004004810B50446002C05D008
:10411000012189030448FDF779F904E001218903AD
:104120000148FDF771F910BD0004004800214180ED
:10413000C18081807047028000234380C3808380D8
:1041400081607047024653881088401E834201DD1B
:104150000120704793881088401E834205D19388C0
:104160009068C1540020908005E093889068C15405
:104170009088401C90805088401C50800020E8E7C8
:1041800070B504460D46E1B20548FFF725FD00BFB6
:1041900080210348FFF79AFC0028F9D0204670BD23
:1041A000003801400FB4F0B58FB00446012C07DB96
:1041B000202C05DC4F4E601E40013146471824E09C
:1041C000212C07DB402C05DC4B4E601E4001494989
:1041D00047181AE0412C07DB5F2C05DC474E601EB8
:1041E00040014449471810E0602C08DB632C06DCD2
:1041F000434E2046603840013146471805E0012013
:104200000FB0F0BC08BC04B018472022394607A8FC
:10421000FBF7C4FF6846808B3A4988420ED10120E3
:1042200010A98882142218A96846FBF7B7FF384600
:1042300015A90EC900F06AF80020E1E70696012CE6
:104240002BDB5F2C29DC00250BE069012E4A881846
:1042500020220699FBF7A2FF069820300690681CE2
:1042600085B2202DF1DBFCF7A3FE3046FCF7FAFD0A
:10427000FCF73CFE611E4901234A8818202215A93B
:10428000FBF78CFF0121601E40011F4A11528A0278
:104290001D493046FDF716F8B2E700250BE069012D
:1042A000194A881820220699FBF778FF06982030D3
:1042B0000690681C85B2042DF1DBFCF779FE3046D0
:1042C000FCF7D0FDFCF712FE2146603949010E4A89
:1042D0008818202215A9FBF761FF012120466038CC
:1042E0004001094A1152802207493046FCF7EAFF93
:1042F00086E7000000F0000800F4000800F800085D
:1043000000FC0008FFFF0000CC0700200FB410B530
:104310000446202203A92046FCF7D4FF10BC08BCA9
:1043200004B0184710B50446002C05D080210920A0
:10433000C006FDF76BF804E080210920C006FDF7F8
:1043400063F810BD10B50446002C05D010210920DB
:10435000C006FDF75BF804E010210920C006FDF758
:1043600053F810BD10B50446002C05D020210920BB
:10437000C006FDF749F804E020210920C006FDF73A
:1043800045F810BD10B50446002C05D04021092089
:10439000C006FDF73BF804E040210920C006FDF708
:1043A00033F810BD0020034908604860C860086108
:1043B000486170479C01002070B504460D46E560D9
:1043C000A2601846DE0F3618761066600020206066
:1043D0000A4841694069002805D1084844612061C4
:1043E0000020606170BD00E0496948690028FBD188
:1043F0004C612161606100BFF4E700009C01002076
:1044000010B50B4844690FE02068002808D16068A7
:104410002060E068002806D0E168A068884702E0D4
:104420002068401E20606469002CEDD110BD0000A2
:104430009C010020002502F09BFB00F073F825A0F2
:10444000FFF73AFC00F0BCF8002805D125A0FFF7E3
:1044500033FCFDF7B7FF24E0FFF7CAFDFBF77CFF55
:10446000FEF7FCFDFEF72BFDFEF73AFEFDF750F8D8
:10447000054629461FA0FFF71FFC8C2D05D2FDF72E
:10448000A1FF1FA0FFF718FC0BE00024FDF700FFC1
:1044900004E0601C84B20120FFF7E0FD642CF8DB2F
:1044A00000BF15E00024FDF713F80446B4420ED017
:1044B00026461A484078152807D1194800888442B2
:1044C00005D902201549487001E0FFF799FF00BFA8
:1044D000E8E7000052657365742073797374656D45
:1044E000200D0A006B65792077616B6575700D0A88
:1044F00000000000766F6C3D25646D560D0A0000CB
:10450000636172642077616B6575702E2E2E2E2E7E
:104510002E2E2E2E2E2E0D0A0000000090000020C0
:10452000000000201CB50021684681710121C17185
:10453000042000900021684601710321417101218E
:104540008804FEF795F869460148FCF7E9FE1CBDB2
:104550000004004810B50A24C0215E20FDF77BFC52
:1045600005215D20FDF777FCFF212A20FDF773FC74
:10457000FF215920FDF76FFCF0215E20FDF76BFC59
:1045800015E00A20FFF76AFD0020FDF753FC0B49F8
:1045900008800120FDF74EFC000208490988084305
:1045A00006490880601E84B2002C00D103E000F0B0
:1045B00007F80028E5D000BF012010BD060000204C
:1045C00010B504210148FCF715FF10BD0004004898
:1045D00010B518217B48FBF7FAFD63218020FDF719
:1045E0003AFC00215E20FDF736FC01212B20FDF76F
:1045F00032FC01212C20FDF72EFC05212D20FDF79A
:104600002AFC00212E20FDF726FC01212F20FDF79A
:1046100022FC01213020FDF71EFCFF213120FDF797
:104620001AFC02213220FDF716FC00213320FDF791
:1046300012FC00213420FDF70EFC00213520FDF78F
:104640000AFC0F213620FDF706FC0F213720FDF76D
:1046500002FC00213820FDF7FEFB00213920FDF788
:10466000FAFB01213A20FDF7F6FB01213B20FDF783
:10467000F2FBFF213C20FDF7EEFBFF213D20FDF783
:10468000EAFB00213E20FDF7E6FB00213F20FDF77D
:10469000E2FB00214020FDF7DEFB05214120FDF774
:1046A000DAFB03214220FDF7D6FB05214320FDF76D
:1046B000D2FB03214420FDF7CEFB05214520FDF769
:1046C000CAFB03214620FDF7C6FB05214720FDF765
:1046D000C2FB03214820FDF7BEFB05214920FDF761
:1046E000BAFB03214A20FDF7B6FB05214B20FDF75D
:1046F000B2FB03214C20FDF7AEFB05214D20FDF759
:10470000AAFB03214E20FDF7A6FB05214F20FDF754
:10471000A2FB03215020FDF79EFB05215120FDF750
:104720009AFB03215220FDF796FB05215320FDF74C
:1047300092FB03215420FDF78EFB05215520FDF748
:104740008AFB03215620FDF786FB05215720FDF744
:1047500082FB03215820FDF77EFB05215920FDF740
:104760007AFB00215A20FDF776FB00215B20FDF744
:1047700072FB04215D20FDF76EFB80215C20FDF7BC
:104780006AFB8F217B20FDF766FBE4217D20FDF78E
:1047900062FB94217E20FDF75EFBCD217F20FDF79B
:1047A0005AFBCC215E20FDF756FB1522064907482F
:1047B000FFF7C1FC0223002205490648FFF7FCFD74
:1047C00010BD00008401002048010020600100208D
:1047D000DD6900086C01002001463F2901D100205D
:1047E0007047481C0146FBE700B599B0FCF770FE26
:1047F0001790F7484078012806D0F64917980968BD
:10480000884201D3FDF700FD0AA8FFF7E9F9182255
:104810000AA910A8FBF7C2FC10A8007800280DD147
:10482000EB484078122809D0E9484078132805D091
:10483000E7484078142801D019B000BDE649179820
:104840004018E449086010A80078022806D1FEF755
:1048500003FF01460F900220FDF7C8F8DC484078BE
:10486000162801D302F0A0F843007B449B885B002C
:104870009F449A1015001F0021006406F6078D0959
:104880007A0A4E0C6B02A70D9A109A10BE0E9A105F
:104890009A10BF0FC00F4010C10F02102000CF4868
:1048A00000788007800F002802D00320C849487094
:1048B000FDE3FDE7FCE710A80078012873D110A8FC
:1048C0004078812813D008DC01280FD0022839D085
:1048D00004280FD0102867D1BDE082287ED084281C
:1048E00063D088287BD09028F5D1B5E000BFFDF7D4
:1048F0008BFC06E10220B6490870084640688078C3
:10490000002811D1FCF74AFE00280ADD0920B04931
:104910004870FDF729FD169004201699FDF786F9D9
:104920000FE0FDF742FD0CE0AD48FFF7FFFB08206C
:10493000A7494870FCF76CFD169001201699FDF709
:1049400075F9DEE00120A2490870084640688078C9
:1049500000281AD1FCF722FE5F2813DA0020A149B3
:104960000870FCF761FC9A490872042048700846F8
:10497000007A0F90FCF792FD169004201699FDF72F
:1049800055F90FE0FDF704FD0CE09548FFF7CEFB6D
:10499000FCF73EFD169008208D49487001201699BD
:1049A000FDF744F9ADE0ADE0AAE0042088490870C5
:1049B000FCF794FD002813D00120854949688870D0
:1049C0008748FFF7B3FB082081494870FCF720FDBA
:1049D000169001201699FDF729F903E003E06FE036
:1049E000FDF7E3FC8DE0032079490870FCF776FDC4
:1049F000002811DD7A48FFF799FB5F20FCF74EFB9A
:104A00007349087208204870FCF702FD16900120D7
:104A10001699FDF70BF91DE0FCF760FD042802DB99
:104A2000FDF7B6FC16E000206E4908706C48FFF7F1
:104A30007DFB5F20FCF732FB65490872052048705A
:104A40000846007A0F90FCF729FD1690042016996D
:104A5000FDF7ECF855E000BF01215D4801704068AA
:104A6000807800281BD1FCF799FD5F2814DD5C4895
:104A7000FFF75CFB0020FCF7D7FB554908720620C6
:104A800048700846007A0F90FCF708FD1690012048
:104A90001699FDF7CBF812E0FDF77AFC0FE05048CD
:104AA000FFF744FBFCF7B4FC169000214848017264
:104AB00008204749487001201699FDF7B7F820E013
:104AC000052043490870084640688078002809D1CD
:104AD000FCF786FD002802DDFBF766FD0FE0FDF721
:104AE00064FC0CE03E48FFF721FB08203849487081
:104AF000FCF78EFC169001201699FDF797F800E060
:104B000000BF21E110A80078022860D10020189091
:104B10003348FCF75DFD0F900F98012810D110A8C5
:104B20004078A3280CD12A4800690078002802D1D7
:104B3000FCF760F901E0FCF751F92948FFF7F6FAB4
:104B400010A840782A280DD10F98012808DD0A22E4
:104B500078210120FCF77EFE2148FFF7E7FA01E00B
:104B6000FDF752FB0F98142803DA10A84078232889
:104B70002CD10F980A2866DB00211B4A0F9811548C
:104B800011460120FBF7C6FF1890189800282FD077
:104B90000F49189808720846007A0E90FCF77EFCC0
:104BA000169001201699FDF741F80A22642102208F
:104BB000FCF750FE0D490120FCF78EFD044800690A
:104BC0000078002869D112200149487065E065E04D
:104BD00090000020A8000020C4090000B4000020BC
:104BE00060010020B200002048010020FFBF00004B
:104BF000F9480068401CF849086008460068032826
:104C000016D9FCF723FC169001201699FDF70EF833
:104C1000FBF784FEFCF71AFDF04917984018F0499D
:104C200008601520EF4948700120EF49087034E012
:104C3000EE48FFF77BFA0A2264210120FCF70AFE06
:104C4000FCF726FF29E0E4480068401CE2490860C0
:104C500008460068032816D9FCF7F8FB16900120D7
:104C60001699FCF7E3FFFBF759FEFCF7EFFCDB4975
:104C700017984018DA4908601520DA494870012071
:104C8000D949087009E0D948FFF750FA0A2264218F
:104C90000120FCF7DFFDFCF7FBFE55E010A80078D3
:104CA000032851D110A901310220FBF733FF1890DE
:104CB0001898002821D00020C7490860C9491898D1
:104CC00008720846007A0F90FCF7E8FB1690012066
:104CD0001699FCF7ABFF0A2264210220FCF7BAFD0B
:104CE000C3490120FCF7F8FCBE48006900780028A1
:104CF0002AD11220BB49487026E0B7480068401C02
:104D0000B549086008460068032816D9FCF79EFBE1
:104D1000169001201699FCF789FFFBF7FFFDFCF7C1
:104D200095FCAE4917984018AD4908601520AD496B
:104D300048700120AC49087006E00A226421012075
:104D4000FCF788FDFCF7A4FEB2E5A648007804282D
:104D500006D15F200E9063200D90A6480F9005E0CD
:104D600000200E905F200D90A3480F9010A80078AF
:104D700001286ED10021A148017010A840780428B4
:104D800012D004DC012807D0022878D1EEE00828F0
:104D900076D01028F9D1E1E1FDF7B8FA169001209C
:104DA0001699FCF743FFFDE28E48007804286ED187
:104DB000934800780D2806D10E2191480170FCF728
:104DC00031FB169052E08E4800780E2821D1002049
:104DD000FCF73CF918901898401C00280CD0814929
:104DE000189808720F20864908701898C0B20C9065
:104DF000FCF754FB169039E0FCF746FB16904B226B
:104E0000D20011461420FCF725FD03207549487097
:104E10002CE07B4800780F281CD17248007A40B201
:104E20000C90FCF713F918901898401C002809D032
:104E30006C49189808721898C0B20C90FCF72EFBB9
:104E4000169013E00D206E490870FCF709FB1690D0
:104E50000CE0A8E20D206A4908704B22D2001146EE
:104E60001420FCF7F7FCFCF7FBFA16905D4840783D
:104E7000032807D101201699FCF7D8FE75E08FE2D0
:104E80008FE204E004201699FCF7D0FE6DE055484F
:104E90000078022869D15A4800780A2806D10B20E8
:104EA00057490870FCF7BEFA169051E05448007854
:104EB0000B2821D10020FCF791F918901898401C7C
:104EC00000280CD04749189808720C204C490870EB
:104ED0001898C0B20C90FCF7E1FA169038E0FCF795
:104EE000D3FA16904B22D20011461420FCF7B2FCE4
:104EF00003203C4948702BE0414800780C281BD126
:104F00003848007A40B20C90FCF768F9189018986D
:104F1000401C002809D03349189808721898C0B26C
:104F20000C90FCF7BBFA169012E00A203449087086
:104F3000FCF796FA16900BE00A20314908704B22D4
:104F4000D20011461420FCF785FCFCF789FA169074
:104F500024484078032804D101201699FCF766FE06
:104F600003E004201699FCF761FE1BE21D4800785F
:104F700004287CD1224800780D2821D10020FCF79C
:104F80003DF818901898401C00280CD01549189826
:104F900008720F201A4908701898C0B20C90FCF7DC
:104FA0007DFA16905AE0FCF76FFA16904B22D20069
:104FB00011461420FCF74EFC03200A4948704DE0CE
:104FC0000F4800780E281DD10D200D490870FCF700
:104FD00047FA169042E00000AC00002020BF02001B
:104FE000000000209000002010010020600100203F
:104FF000FFBF0000FD0F00088D110008B200002067
:10500000B1000020FA4800780F281BD1F948007A37
:1050100040B20C90FBF7F2FF18901898401C002843
:1050200009D0F449189808721898C0B20C90FCF78F
:1050300035FA169012E00E20ED490870FCF7F2F9EF
:1050400016900BE00D20EA4908704B22D200114661
:105050001420FCF7FFFBFCF703FA1690E5484078B4
:10506000032805D101201699FCF7E0FD75E004E066
:1050700004201699FCF7DAFD6FE0DE48007802287C
:105080006BD1DB4800780A2823D10020FCF7A6F872
:1050900018901898401C00280ED0D649189808720D
:1050A0000C20D34908701898C0B20C9000E0F6E3C9
:1050B000FCF7F4F9169043E0FCF7E6F916904B2262
:1050C000D20011461420FCF7C5FB0320C9494870E3
:1050D00036E0C74800780B2806D10A20C44908707A
:1050E000FCF7BEF916902BE0C14800780C281BD1C4
:1050F000C048007A40B20C90FCF770F818901898ED
:10510000401C002809D0BB49189808721898C0B2F2
:105110000C90FCF7C3F9169012E00B20B44908700C
:10512000FCF780F916900BE00A21B14801704B2280
:10513000D20011461420FCF78DFBFCF791F9169074
:10514000AC484078032804D101201699FCF76EFD85
:1051500003E004201699FCF769FD23E1A4480078D8
:105160000A2809D1A3494870FDF7F2F816900120EA
:105170001699FCF75BFD12E19D4800780B2802D1DF
:10518000FBF712FA0BE19A4800780C286DD1994888
:10519000017A0E9881424ADD9648017A0D98814243
:1051A00045DC9448007A401E40B20C900F99884725
:1051B0009049097A88421CD10A218D4801700A223F
:1051C00064210220FCF746FBFCF7F6FB8948007AD5
:1051D0000C90FBF7D5FDFCF7E1F9002801D1FDF7B4
:1051E000E4F8FCF73DF9169004201699FCF71EFD33
:1051F000D5E0002180480170322264210220FCF7B2
:1052000029FBC8231A4601217C48FCF79FFB00209C
:105210000F998847774908720846007A0C90FCF786
:105220003DF9169004201699FCF700FDB7E0002028
:1052300071490870322264210220FCF70BFBC8235D
:105240001A4601216D48FCF781FB00200F99884721
:10525000684908720846007A0C90FCF71FF916900E
:1052600004201699FCF7E2FC99E0614800780D28CB
:1052700007D1FDF761F8169001201699FCF7D6FCCE
:105280008DE05B4800780E2802D1FBF78DF986E0AF
:10529000574800780F2872D15648017A0E988142FB
:1052A0004EDD5448017A0D98814249DC5148007A1C
:1052B000401E40B20C900F9988474E49097A8842A7
:1052C00020D10D204A4908700A2264210220FCF7EF
:1052D000C1FAFCF771FB4748007A0C90FBF750FDD0
:1052E000FCF7FCF8002805D145498870FCF714FF4D
:1052F000FDF75BF8FCF7B4F8169004201699FCF75C
:1053000095FC4CE000203C490870322264210220C8
:10531000FCF7A0FAC8231A4601213848FCF716FB0F
:1053200000200F998847334908720846007A0C908C
:10533000FCF7B4F8169004201699FCF777FC2EE0E1
:1053400000202D490870322264210220FCF782FAE5
:10535000C8231A4601212948FCF7F8FA00200F99C2
:105360008847244908720846007A0C90FCF796F8A2
:10537000169004201699FCF759FC10E0FFE74B2229
:10538000D20011461420FCF765FA0A20184908706B
:10539000FCF766F8169004201699FCF747FC01E02C
:1053A00000BF00BFC9E010A80078022856D11048FD
:1053B00000780F2803D00E4800780C284ED110A892
:1053C000407830284BDB10A84078392847DC0A4861
:1053D0000078002816D108480078401CC1B2064861
:1053E000017010A840783038024908722CE00000A3
:1053F000B100002090000020B2000020FF7F0000DC
:10540000B8070020FE48007801280FD1FC4800783A
:10541000401CFB490870FB48007A0A21484310A948
:10542000497830394018F74908720DE00020F449F6
:105430000870322264210220FCF70CFAC8231A46B5
:105440000121F148FCF782FAEE48007A0C90FCF753
:1054500025F8169004201699FCF7E8FB6DE010A8DB
:10546000407823285ED10E99189888423CDD0D992A
:105470001898884238DCE348007A401E40B20C900D
:105480000F998847DF49097A88420FD1DF48FEF734
:105490004DFE0621DB484170007A0C90FBF7FEFFC1
:1054A000169001201699FCF7C1FB46E00020D44974
:1054B0000870322264210220FCF7CCF9C8231A4676
:1054C0000121D148FCF742FA00200F998847CD49C5
:1054D00008720846007A0C90FBF7E0FF1690042053
:1054E0001699FCF7A3FB28E00020C549087032227A
:1054F00064210220FCF7AEF9C8231A460121C248F4
:10550000FCF724FA00200F998847C1B2BD48017208
:10551000007A0C90FBF7C2FF169004201699FCF756
:1055200085FB0AE010A840782A2806D1FCF7EEFE99
:10553000169001201699FCF779FB05E410A8007875
:10554000012875D110A84078042812D004DC012865
:1055500007D002286DD138E008286BD0102868D118
:1055600069E0FCF7D3FE169001201699FCF75EFB6C
:10557000B7E0A448007A40B20F90FBF77DFE189088
:105580001898801C002812D1FCF708F85F2802DB6D
:10559000FCF7FEFE14E06020FBF76EFE99490872EE
:1055A0000846007A0F90FBF779FF169008E09549BE
:1055B000189808720846007A0F90FBF76FFF169054
:1055C00004201699FCF732FB8BE08E48007A5F28A6
:1055D00002DB00208B4908728A48007A40B20F90A3
:1055E000FBF722FE18901898801C002812D1FBF7B8
:1055F000D5FF5F2802D1FCF7CBFE14E00020FBF7BB
:1056000013FE804908720846007A0F90FBF746FFA8
:10561000169008E07B49189808720846007A0F90A7
:10562000FBF73CFF169004201699FCF7FFFA58E0B0
:1056300069E055E053E07348007A002837DD71488F
:10564000007A5F2833DC6F48007A401E40B20F902A
:10565000FBF7EAFD6B49097A884210D16B48FEF7E7
:1056600065FD0620674948700846007A0F90FBF7F1
:1056700015FF169001201699FCF7D8FA2EE00020AD
:105680005F4908700A2278210120FCF7E3F8002026
:10569000FBF7CAFD5B4908720846007A0F90FBF7DA
:1056A000FDFE169004201699FCF7C0FA16E00020C3
:1056B000534908700A2278210120FCF7CBF800201A
:1056C000FBF7B2FD4F4908720846007A0F90FBF7CE
:1056D000E5FE169004201699FCF7A8FA01E000E018
:1056E00000BF00BF4748407801280BD045484078AC
:1056F000032807D043484078062803D00420169991
:10570000FCF794FAABE010A8007802283CD110A86E
:105710004078302839DB10A84078392835DC384803
:10572000007800280AD136480078401C34490870B7
:1057300010A840783038334908721BE030480078B0
:1057400001280FD12E480078401C2D4908702D48A3
:10575000007A0A21484310A949783039401829496C
:10576000087207E00020264908700A2278210120EB
:10577000FCF770F82348007A0F90FBF78FFE169025
:1057800004201699FCF752FA69E010A84078232803
:105790005AD1189800283FDD18985F283CDC19483A
:1057A000007A401E40B20F90FBF73EFD1549097A82
:1057B000884210D11548FEF7B9FC062011494870FF
:1057C0000846007A0F90FBF769FE169001201699A3
:1057D000FCF72CFA43E00020094908700A227821DE
:1057E0000120FCF737F80020FBF71EFD0549087281
:1057F0000846007A0F90FBF751FE1690042007E050
:10580000B200002090000020FF7F00006001002017
:105810001699FCF70BFA22E00020FE4908700A22D4
:1058200078210120FCF716F80020FBF7FDFCFA496F
:1058300008720846007A0F90FBF730FE169004209D
:105840001699FCF7F3F90AE010A840782A2806D147
:10585000FCF75CFD169001201699FCF7E7F96CE661
:1058600010A8007801286ED110A84078812818D09F
:105870000CDC04281DD004DC012811D002286FD1D3
:1058800047E008286DD010286AD176E0822841D000
:1058900084280FD088286FD0902861D16EE0FDE376
:1058A00000BFFCF733FD169001201699FCF7BEF9F6
:1058B000BBE000BFD848007A602802DC6420D649EB
:1058C0000872D548007A40B20F90FBF70FFC189091
:1058D0001898801C002812D1FBF700FE042802DB78
:1058E000FCF756FD14E06420FBF700FCCA4908727F
:1058F0000846007A0F90FBF7D1FD169008E0C649E4
:10590000189808720846007A0F90FBF7C7FD1690AA
:105910008BE000BFC048007A632802DB5F20BE49ED
:105920000872BD48007A40B20F90FBF7B7FB1890A1
:105930001898801C002815D1FBF730FE042803D1ED
:10594000FCF726FD17E07EE05F20FBF7A7FBB249DE
:1059500008720846007A0F90FBF7A0FD16900AE047
:1059600062E05FE0AC49189808720846007A0F9030
:10597000FBF794FD169058E055E000BFA648007A6A
:105980005F2837DDA448007A632833DCA248007A18
:10599000401E40B20F90FBF781FB9F49097A884275
:1059A00010D19E48FEF7C2FB06209B49487008466E
:1059B000007A0F90FBF772FD169001201699FCF704
:1059C00035F92EE00020934908700A227821012041
:1059D000FBF740FF0020FBF761FB8F490872084688
:1059E000007A0F90FBF75AFD169004201699FCF7E9
:1059F0001DF916E00020874908700A22782101204D
:105A0000FBF728FF0020FBF749FB83490872084693
:105A1000007A0F90FBF742FD169004201699FCF7D0
:105A200005F902E000BF00E000BF00BF7A484078FF
:105A3000032807D078484078062803D00420169918
:105A4000FCF7F4F8A2E010A8007802283CD110A8D6
:105A50004078302839DB10A84078392835DC6D488B
:105A6000007800280AD16B480078401C694908700A
:105A700010A840783038684908721BE06548007803
:105A800001280FD163480078401C624908706248C1
:105A9000007A0A21484310A94978303940185E49F4
:105AA000087207E000205B4908700A227821012073
:105AB000FBF7D0FE5848007A0F90FBF7EFFC1690EA
:105AC00004201699FCF7B2F860E010A8407823286B
:105AD00051D118985F2836DD1898632833DC4E487A
