:020000040800F2
:1000000010100020CD0000084D270008391F0008FF
:1000100000000000000000000000000000000000E0
:10002000000000000000000000000000513900083E
:1000300000000000000000005D2800084D3A0008A4
:10004000FD0000080000000081350008FD000008E8
:10005000FD000008FD000008A10E0008A30E000826
:1000600000000000FD000008FD000008FD00000881
:10007000FD000008FD000008FD0000080000000071
:10008000CD3A0008FD000008FD000008FD00000852
:10009000FD000008FD000008FD000008FD0000084C
:1000A000FD000008FD000008FD000008FD0000083C
:1000B000FD000008FD0000080348854600F0EEF84A
:1000C00000480047E5460008101000200C4880F367
:1000D00008880C480168090E0B4A914205D10B486B
:1000E0000B4901600B480C4901600C4880470C48E3
:1000F0000047FEE7FEE7FEE7FEE7FEE7FEE700005B
:1001000010100020040000001F0000001810024022
:10011000010000000000014000000000513A00080A
:10012000B900000830B50B4601460020202201240A
:1001300009E00D46D5409D4205D31D469540491B1B
:100140002546954040191546521E002DF1DC30BD64
:1001500070B500242546002801DA01244042002918
:1001600001DA01254942FFF7DDFFAC4200D04042F1
:10017000002C00D0494270BD0549064A086850432A
:10018000054A8018086040087047014908607047B8
:10019000400100206D4EC6413930000003460B433C
:1001A0009B0703D009E008C9121F08C0042AFAD22D
:1001B00003E00B780370401C491C521EF9D27047B3
:1001C000D2B201E00270401C491EFBD270470022EF
:1001D000F6E710B513460A4604461946FFF7F0FF46
:1001E000204610BD30B505462A460B4610781C78CF
:1001F000521C5B1C002801D0A042F7D0002C03D079
:10020000002802D06D1CEFE7284630BD10B5002253
:1002100000E0521C835C8C5CA34201D1002BF8D11E
:10022000D8B2E1B2401A10BD03460A780270401CF1
:10023000491C002AF9D118467047F0B51FB406468C
:10024000002082B005464024019100901BE00199F6
:1002500022460F46304600F043F8049A059B801A68
:10026000994110D310461946224600F029F8361A53
:100270008F410197224601200021009F00F020F8C5
:1002800038184D4100902046641E0028DFDC019B99
:1002900000982946324607B0F0BD0000064C012503
:1002A000064E05E0E36807CC2B430C3C984710341E
:1002B000B442F7D3FFF704FFF46F0008147000088E
:1002C00010B5202A04DB0146203A9140002010BDE1
:1002D000914020239C1A0346E3401943904010BDEF
:1002E00010B5202A04DB0846203AD040002110BD7A
:1002F0000B46D340D0402024A21A9140084319460F
:1003000010BD70B58C180578401C6B075B0F01D1D0
:100310000378401C2A1106D10278401C03E00678BD
:100320000E70401C491C5B1EF9D12B0705D400231D
:10033000521E0DD40B70491CFAE70378401CCB1AEF
:10034000921C03E01D780D70491C5B1C521EF9D5F0
:10035000A142D8D3002070BD00B593B0324800F060
:10036000A7F80121480402F099FA0121480202F09D
:10037000B5FA0121084602F091FA04200090032109
:10038000684601710021C17169460920C00601F06B
:1003900045F8264800F072FC23484030029024487B
:1003A0000390002004900A200590002006908020F1
:1003B0000790400008908000099020200A900002D9
:1003C0000B9000200C9002A9184800F023FD012199
:1003D000164800F045FC0221134800F061F80121A5
:1003E000114800F051F80DA800F0C7F800200D905A
:1003F000012108A8017600200F901190042012908E
:100400000DA9094800F09EF802220421064800F0D8
:100410001FF80121044800F0B8F80121024800F05B
:1004200009F813B000BD000000240140080002409C
:10043000E40B0020002905D0C2680123DB031A4326
:10044000C26004E0C2680123DB039A43C2607047C4
:1004500010B50B460021846A1C43846200BF0C4621
:1004600014432146416110BD01607047016170472E
:10047000002904D0826801231A43826003E0826865
:1004800002231A4382607047002904D0C268012306
:100490001A43C26003E0C26852085200C26070474B
:1004A000C26802239A43C260C2680A43C2607047AE
:1004B00010B504460548844207D10121401502F0D9
:1004C0001DFA0021601502F019FA10BD0024014048
:1004D00030B501460020002200238C680125ED077D
:1004E0002C438C6000BF8C68E30FDB07521C0F2489
:1004F0002403A24201D0002BF5D18C68E40FE4075D
:10050000002C01D1086C00E0002030BD0146086CD1
:1005100080B2704730B50246002000230124240633
:100520000C40002C05D0946801252D06AC432346D1
:1005300000E013681C460C40002C01D0012000E0B4
:10054000002030BD10B50022C268084B1A400C795B
:1005500064030B6823438C682343CC6823430C69F2
:1005600023434C6923431A43C26010BD03D2FFFFEB
:10057000816804221143816070470021016001718C
:100580008160C160016141617047002905D0C26886
:1005900001239B031A43C26004E0C26801239B034A
:1005A0009A43C2607047000010B500F099FC0A49F8
:1005B000012001F013F900F02BF9502003F074FE34
:1005C00000F0E4FF04462146012001F0B1FB00F0F9
:1005D000F1F901F0ABFE10BDFFBF000070B504469D
:1005E000632C02DD0020C04370BD602C04DB632C53
:1005F00002DC01200B498870601EC004050E601EDD
:10060000C606F60EA9000748001D40580121B1405A
:100610000843AA000349091D885001F001FE01208A
:10062000E2E70000B80700201CB50121480402F0F1
:1006300035F9022000900320694608710920C006A0
:1006400000F0ECFE1CBD000010B586B000240121B6
:10065000480202F043F90121480402F01FF9FFF7B4
:10066000E3FF6846FFF789FF0020009069460871A4
:1006700002900390049005901348FFF719FF0121A1
:1006800089071148FFF7F2FE69460F48FFF75AFF46
:10069000052202210C48FFF7DBFE0B48FFF718FF8D
:1006A00001210948FFF7E4FE04E0601C84B2012048
:1006B00003F01AFE01210448FFF72CFF002801D1A6
:1006C000642CF2DB06B010BD00240140F8B5002018
:1006D00000900027002600F077F80A2003F004FEBF
:1006E0002448FFF745FF002426E02248FFF740FF9B
:1006F00006E00098401C80B20090642003F0F4FDF6
:1007000004211C48FFF706FF002802D10098642846
:10071000EFDB1848FFF7FAFE054610211548FFF7F2
:10072000A3FE1549694308461449FFF711FD86B237
:10073000B81987B2601C84B2052CD6DB93217943AB
:100740000846EB21FFF704FD0D49888108468189A1
:100750000CA003F0F7FB0A4880890849CE31884293
:1007600002DA01F0A3FD01E001F08AFD00F025F8B6
:10077000F8BD000000240140E40C0000FE0F000062
:100780008C0000206261743D2025640D0A00000089
:100790001CB50121480402F081F8082000900121D5
:1007A000684601710321417100218171C17169465F
:1007B0000920C00600F032FE1CBD10B5082109203A
:1007C000C00600F09FFE10BD10B508210920C0062C
:1007D00000F09AFE10BD10B55F20C00000F0B2F826
:1007E000FF20693000F0C2F80A22C821012001F080
:1007F000B3F810BD10B51920400100F0A3F8C820CF
:1008000000F0B4F80A22BE21012001F0A5F810BDC5
:1008100010B500F05DF81E2003F046FD00F050F822
:100820002D2003F041FD00F053F81E2003F03CFDA5
:1008300000F046F82D2003F037FD00F049F81E20A7
:1008400003F032FD00F03CF82D2003F02DFD00F008
:100850003FF81E2003F028FD00F032F82D2003F0B1
:1008600023FD00200149487010BD00001001002048
:1008700010B5FF20A53000F065F8C82000F076F82C
:1008800000F026F8092003F00FFD00F019F8092008
:1008900003F00AFD00F01CF8092003F005FD00F04C
:1008A0000FF8092003F000FD00F012F8092003F012
:1008B000FBFC00F005F8092003F0F6FC10BD000079
:1008C00010B50021014803F031F910BD004401408A
:1008D00010B50121014803F029F910BD0044014081
:1008E0001CB50121480401F0D9FFFF200130009020
:1008F000022168460171032141710021C1716946DD
:10090000044800F08BFD02220821024800F0CEFDD1
:100910001CBD00000004004810B5FFF7E1FFFF20F8
:10092000A53000F00FF8C82000F020F802230022C4
:100930000249034803F098FE10BD00009919000811
:10094000A00700203EB504460121480401F0C6FF7F
:1009500001942F2168460180002101814180694670
:10096000014803F067F93EBD0044014010B586B070
:1009700004466021684681800121C18000210181F7
:100980000394022101820021818201A9084803F019
:10099000FBF80821064803F041F90121044803F05F
:1009A000A5F80121024803F0B3F806B010BD00001D
:1009B0000044014010B5FFF78BFF142003F074FCD6
:1009C000FFF77EFF0A2003F06FFCFFF781FF142082
:1009D00003F06AFCFFF774FF0A2003F065FCFFF7E1
:1009E00077FF142003F060FCFFF76AFF0A2003F092
:1009F0005BFC00200149487010BD00001001002080
:100A000010B5FFF765FF322003F04EFCFFF758FFEB
:100A10001E2003F049FCFFF75BFF322003F044FC8B
:100A2000FFF74EFF1E2003F03FFC002001494870F5
:100A300010BD00001001002010B50021022000F0C0
:100A400009FF022300220249024803F00DFE10BDF7
:100A5000590A0008B401002030B589B005460024C9
:100A600003F0A6FD002801D009B030BD0121C90264
:100A70000920C00600F03CFD00283FD13D49088018
:100A800033E03D483B4A1288815C022000F0E2FEE0
:100A90000121C9020920C00600F02AFD01280BD15E
:100AA0003448008840003549085A401C31490988BB
:100AB0004900324A505205E000202E490988490079
:100AC0002E4A50522B48008840002C49085A64286E
:100AD00006D1294827490988405C802108430443FE
:100AE00024480088401C23490880224800880528A3
:100AF000C7DD0021022000F0ADFE24E000201D49EA
:100B000008801CE01B48008840001C49085A022845
:100B10000ADB184800884000085A642804DA16489E
:100B200014490988405C044300201249098849009F
:100B3000124A50520F480088401C0E4908800D4848
:100B400000880528DEDB002C12D0012168460173E5
:100B50004473052207A9FFF721FB03A80FC803F080
:100B6000B9F901F07FFB214605A003F0EBF900BFC6
:100B700000BF79E7140000200E000020CC01002007
:100B80004B657956616C75653A2025580D0A000051
:100B9000F3B589B006465F2500F022FD0746002F19
:100BA00001D10BB0F0BD00241AE0284600F0A4FAF1
:100BB0000546681C002800D1F3E7E8B201A902F05D
:100BC000A5FE6846C079B04208D102A902310A9850
:100BD000FFF708FB002801D02846E2E7601CC4B2FA
:100BE000BC42E2DB0020DCE7F3B589B00646002515
:100BF00000F078FD0746002F01D10BB0F0BD0024B6
:100C00001AE0284600F018FB0546681C002800D1B1
:100C1000F3E7E8B201A902F079FE6846C079B04274
:100C200008D102A902310A98FFF7DCFA002801D0A6
:100C30002846E2E7601CC4B2BC42E2DB0020DCE7ED
:100C4000012109070140002902D00349486001E061
:100C50000249486070470000000402400000024062
:100C6000002904D0026801231A43026003E00268ED
:100C7000014B1A4002607047FEFF00000168554AB0
:100C8000114001600021016041608160C1605249F2
:100C9000884208D15049083949680F2211434E4A09
:100CA000083A516094E04C491431884208D14A49CD
:100CB00008394968F0221143474A083A516087E0F1
:100CC00045492831884209D14349083949680F22EA
:100CD00012021143404A083A516079E03E493C31E2
:100CE000884209D13C49083949680F22120311434F
:100CF000394A083A51606BE037495031884209D18E
:100D00003549083949680F2212041143324A083A1A
:100D100051605DE030496431884209D12E4908397B
:100D200049680F22120511432B4A083A51604FE0DF
:100D300029497831884209D12749083949680F2261
:100D400012061143244A083A516041E0234988427F
:100D500008D12249083949680F2211431F4A083A2D
:100D6000516035E01D491431884208D11B490839CA
:100D70004968F0221143194A083A516028E017499E
:100D80002831884209D11549083949680F221202D1
:100D90001143124A083A51601AE010493C31884226
:100DA00009D10E49083949680F22120311430B4A31
:100DB000083A51600CE009495031884208D107498E
:100DC000083949680F2212041143044A083A516055
:100DD00070470000FEFF00000800024008040240C7
:100DE00001460020002201231B070B40002B02D0EC
:100DF000064B1A6801E0064B1A6813460B40002B9D
:100E000001D0012000E000207047000000040240F3
:100E10000000024010B5002202680D4B1A400C6A17
:100E20008B6823430C6923434C6923438C69234318
:100E3000CC6923434C6A23438C6A23431A430260E0
:100E4000CB6843600B6883604B68C36010BD0000D3
:100E50000F80FFFF70B50446632C02DD0020C04305
:100E600070BD602C04DB632C02DC01200B49887010
:100E7000601EC004050E601EC606F60EA9000748D7
:100E8000001D40580121B1408843AA000349091DB3
:100E9000885001F0C5F90120E2E70000B807002002
:100EA00070477047014948617047000000040140E5
:100EB00010B500200349087001F00EFA014802F055
:100EC00049FD10BD2C01002010B501200349087018
:100ED00001F018FA014802F03DFD10BD2C01002080
:100EE00010B500F0E3F80F4800F03AF80E4800F0B3
:100EF00037F80E4800F034F80D4800F031F800F0F3
:100F000073F800200B498870002406E00021A2003D
:100F10000848001D8150601CC4B2042CF6DB01F0AF
:100F20007FF910BD00F0000800F4000800F8000888
:100F300000FC0008B807002010B5044600F0B6F821
:100F4000342000F007F8204600F00AF800F04CF8D2
:100F500010BD00000149C860704700000020024039
:100F600030B5044604250B20000400F0B1F8054616
:100F7000042D17D10C480069022108430A49086171
:100F800008464461006940210843074908610B2075
:100F9000000400F09DF805460348006902218843DB
:100FA00001490861284630BD0020024004200D4957
:100FB000C968C907C90F002901D0012010E00949FB
:100FC000C96810221140002901D0022008E005491B
:100FD000C96804221140002901D0032000E0042048
:100FE0007047000000200240034800698021084348
:100FF00001490861704700000020024070B50446B6
:101000000D4604260B20000400F062F80646042E6C
:1010100011D10A4800690121084308490861258067
:101020000B20000400F054F806460448006940080C
:10103000400002490861304670BD000000200240B7
:1010400078B506460C460425002000900B200004CD
:1010500000F03EF80546042D24D113480069012113
:1010600008431149086134800B20000400F030F877
:101070000546042D10D1B01C0090200C009908806A
:101080000B20000400F024F80546074800694008DA
:1010900040000549086105E0034800694008400038
:1010A00001490861284678BD0020024005480069D2
:1010B00080210840002804D00348024948600348C2
:1010C000486070470020024023016745AB89EFCD9F
:1010D00010B503460424FFF769FF044603E0FFF759
:1010E00065FF04465B1E012C01D1002BF7D1002BBC
:1010F00000D10524204610BD30B50246602A01DB30
:10110000632A01DD602101E0501CC1B214E0481ED9
:10111000C004030E481EC406E40E9D000948405951
:101120000125A5402840002804D058010019401C82
:1011300040B230BD481CC1B26429E8DB0020C04386
:10114000F7E70000BC07002030B50246632A01DC47
:10115000602A01DA632101E0501EC1B214E0481E8A
:10116000C004030E481EC406E40E9D000948405901
:101170000125A5402840002804D058010019401C32
:1011800040B230BD481EC1B26029E8DA0020C04339
:10119000F7E70000BC07002030B50246602A01DBFB
:1011A000632A01DD602101E0501CC1B214E0481E39
:1011B000C004030E481EC406E40E9D0009484059B1
:1011C0000125A5402840002804D158010019401CE1
:1011D00040B230BD481CC1B26429E8DB0120C043E5
:1011E000F7E70000BC07002030B50246632A01DCA7
:1011F000602A01DA632101E0501EC1B214E0481EEA
:10120000C004030E481EC406E40E9D000948405960
:101210000125A5402840002804D158010019401C90
:1012200040B230BD481EC1B26029E8DA0120C04397
:10123000F7E70000BC07002030B50246642A01DA57
:10124000012A01DA012101E0501CC1B214E0481E5C
:10125000C004030E481EC406E40E9D000948405910
:101260000125A5402840002804D058010019401C41
:1012700040B230BD481CC1B26429E8DB0020C04345
:10128000F7E70000BC07002030B502465F2A01DC0A
:10129000012A01DA012101E0501CC1B214E0481E0C
:1012A000C004030E481EC406E40E9D0009484059C0
:1012B0000125A5402840002804D058010019401CF1
:1012C00040B230BD481CC1B26029E8DB0020C043F9
:1012D000F7E70000BC07002030B50246602A01DABB
:1012E000012A01DA5F2101E0501EC1B214E0481E5C
:1012F000C004030E481EC406E40E9D000848405971
:101300000125A5402840002804D058010019401CA0
:1013100040B230BD481EC1B20029E8D1481EF8E7EE
:10132000BC07002030B502465F2A01DC012A01DA41
:10133000012101E0501CC1B214E0481EC004030E9C
:10134000481EC406E40E9D00094840590125A540E9
:101350002840002804D158010019401C40B230BD7B
:10136000481CC1B26029E8DB0120C043F7E7000058
:10137000BC07002030B50246602A01DA012A01DAF2
:101380005F2101E0501EC1B214E0481EC004030EEC
:10139000481EC406E40E9D00084840590125A5409A
:1013A0002840002804D158010019401C40B230BD2B
:1013B000481EC1B20029E8D1881EF8E7BC0700200A
:1013C000F7B50C4615460027002D01D10120FEBDC2
:1013D000FFF76CFE002616E001E0781C87B221685A
:1013E0000098FFF72DFE042801D00A2FF5DB0A2F05
:1013F00003DBFFF7F9FD0120E9E70098001D0090ED
:10140000241D701C86B2E81CC117890F09188910A9
:10141000B142E1DCFFF7E8FD0020D8E7F0B50A466D
:1014200000210023002400BF3DE001258D402B4614
:1014300015681D402C469C4234D11579012D02D0EF
:101440001579022D16D185684F000326BE40B5439D
:10145000856055794E00B54086683543856085883E
:1014600001268E40B5438580858896798E40B6B238
:101470003543858005684F000326BE40B5430560AF
:1014800015794E00B540066835430560C5684F00C4
:101490000326BE40B543C560D5794E00B540C66849
:1014A0003543C560491C1029BFD3F0BDF0B50023FA
:1014B00000244D07EE0E1546B5402B46CD10AE006C
:1014C00005462035AD594E07F70E0F26BE40B543F1
:1014D000CE10B60007462037BD51CD10AE003D46B8
:1014E000AD591D432C46CD10AD003E467451F0BDA4
:1014F00002460020138A0B40002B01D0012000E09F
:101500000020704701857047816170470146086877
:10151000704700000349887A0102024A527B114356
:1015200008467047380000200349887A0102024AC1
:10153000527C114308467047380000200349087C5C
:101540000102024A127C114308467047380000200D
:101550000349887B0102024AD27B11430846704747
:10156000380000200349887C0102024AD27B1143E3
:1015700008467047380000200349C87C0102024A2F
:10158000D27B114308467047380000200349C87CCD
:101590000102024A127D11430846704738000020BC
:1015A00070B50446632C01DD002070BD0A21204681
:1015B000FEF7CEFD06490D5C0A212046FEF7C8FD68
:1015C0000348405C2902084305462846EDE7000031
:1015D0003800002001480068704700000800002023
:1015E00010B50020602110E04A1E52099300084AFD
:1015F000D2584B1EDC06E40E0123A3401A40002AF9
:1016000001D0421CD0B24A1CD1B26429ECDB10BD1F
:10161000BC07002070B50026002501211B48FEF7FD
:1016200027FF04E0681C85B2012002F05DFE184926
:101630001648FEF76FFF002801D1642DF2DB134836
:10164000FEF796FF002504E0681C85B2012002F039
:101650004BFE0220FFF7C4FB002801D1642DF3DB11
:101660000220FFF7EDFA002405E060000949085A5E
:101670008619601C84B20A2CF7DB074971430846BF
:101680000649FEF74FFD0646304670BD0024014076
:1016900001000001E40B0020E40C0000F69F0000B4
:1016A00010B50020012110E04A1E52099300084A9B
:1016B000D2584B1EDC06E40E0123A3401A40002A38
:1016C00001D0421CD0B24A1CD1B26029ECDB10BD63
:1016D000BC07002001468868002800D17047488870
:1016E000C0B2FBE710B50020012110E04A1E5209EC
:1016F0009300084AD2584B1EDC06E40E0123A34097
:101700001A40002A01D0421CD0B24A1CD1B264292E
:10171000ECDB10BDBC07002070B505460E46022D5F
:1017200001D1094C05E0012D01D1084C01E0002058
:1017300070BD002E03D00120A168884702E0002080
:10174000A16888470120F3E7280000201800002046
:1017500010B5012149030248FFF7D6FE10BD000075
:101760000008004810B5012149030248FFF7CAFEEE
:1017700010BD000000080048F8B506460F46022ECE
:1017800001D1144C05E0012E01D1134C01E00020E1
:10179000F8BD072519E00120A8403840002803D0F3
:1017A00001202168884702E0002021688847012045
:1017B00002F09AFD002061688847012002F094FD44
:1017C000012061688847681E45B2002DE3DA0120D8
:1017D000DEE70000280000201800002070B5044655
:1017E0000D46022C03D1012C01D1002070BD002137
:1017F0002046FFF791FFE9B22046FFF7BDFF28041E
:10180000010E2046FFF7B8FF01212046FFF784FFB5
:101810000120EBE770B504460D46022C03D1012CE4
:1018200001D1002070BD00212046FFF775FFE9B20D
:101830002046FFF7A1FF2804010E2046FFF79CFF7A
:1018400000212046FFF798FF01212046FFF764FFA3
:101850000120E7E770B505460E46022D01D10B4C7D
:1018600005E0012D01D10A4C01E0002070BD0020EF
:10187000A168884700F0B6FA31462846FFF77CFF9A
:101880000120A16888470120F0E70000280000201F
:10189000180000201CB504460120400300900121DF
:1018A000684601710321417100218171C1710121DB
:1018B000C80400F0F3FF69462048FFF7AFFDFFF7CB
:1018C00047FF02202040002819D00121880400F0A1
:1018D000E5FF0F200003009069461948FFF79EFDC1
:1018E000012149031648FFF70DFE0121C9031448E1
:1018F000FFF708FE012109031148FFF703FEE00787
:10190000C00F00280FD00121480400F0C7FFF020CD
:10191000009069460920C006FFF780FD20210920BC
:10192000C006FFF7EFFD07490120FFF757FF002131
:101930000220FFF78FFFFFF715FF1CBD00080048CE
:1019400000040048FF3F000010B5FEF77DFEFEF7E3
:101950001FFFFEF7BBFE10BD70B504460D461646D0
:1019600000200C4948700846C66085604460002C21
:1019700004D140780421084306494870FFF72AFE45
:1019800040000449086108464078022108430149A3
:10199000487070BD1001002070B505462B480078D6
:1019A000002851D1294840780221084000284BD016
:1019B000FFF710FE440025480069A04244D82348A0
:1019C0004078C007C00F002817D02048C068001911
:1019D0001E49086108464078400840004870FEF7FC
:1019E0006FFF1A4840780421084000282CD117487E
:1019F0004068401E1549486026E0144840680028A9
:101A00000CD11248407804210840002806D10F4824
:101A10004078022148400D49487015E00B48806825
:101A200000190A490861084640780121084307491E
:101A30004870FEF74DFF054840780821084000280F
:101A400002D001200149487070BD00001001002043
:101A5000F8B504460D4616461F461548844203D184
:101A600001201449087609E01348844203D101207B
:101A70001049087602E000200E49087600200D4942
:101A800048700846C760866045608482002D04D196
:101A900040780421084307494870FFF79BFD05493A
:101AA0000861084640780221084302494870F8BDA1
:101AB000FF7F000070000020FFBF000010B5002075
:101AC00009494870C820C8608860012048600748FC
:101AD0008882FFF77FFD04490861084640780221AB
:101AE00008430149487010BD70000020FFBF00008E
:101AF00070B505460C460020254908762B0002F0FB
:101B000031FA0910061D44324444443D440001208A
:101B10001F49487008468482818A0120FFF75EFED3
:101B200034E000201A49487008468482C08AC8827E
:101B30000846818A0120FFF751FE27E00020144962
:101B400048706420C860886002204860084684822B
:101B5000FFF740FD0E49086108464078022108431E
:101B60000B49487012E0062009494870C820C86037
:101B70008860002048600846848207E00448407876
:101B8000082108430249487000E000BF00BF70BD53
:101B90007000002010B5002009494870C820C860B6
:101BA00088600120486007488882FFF713FD0449D8
:101BB000086108464078022108430149487010BD79
:101BC00070000020FF7F000010B532230022024980
:101BD000024802F049FD10BDE11B0008F0010020A1
:101BE00070B505465048007800287DD14E484078B1
:101BF0000221084000285ED0FFF7ECFC04464A486A
:101C00000169A14257D84078C007C00F002828D0EA
:101C10004548C068001944490861084640784008B2
:101C2000400048700846007E002804D03F4901204B
:101C3000FFF7D4FD04E03C48C18A0120FFF7CEFD48
:101C40003948407804210840002834D1364840689B
:101C5000401E354948600846406800282BD1087668
:101C600029E03148406800280CD12F4840780421F1
:101C70000840002806D12C484078022148402A49D3
:101C8000487018E02848806800192749086108460C
:101C9000407801210843244948700846818A012080
:101CA000FFF79CFD2048407808210840002802D01A
:101CB00001201D4948701C48407810210840002828
:101CC00030D0FFF787FC044617480069A04229D8A6
:101CD00015484078C007C00F002813D0124840783C
:101CE00040084000104900E01CE048700846407879
:101CF000102148400C4948700846C18A0120FFF76E
:101D00006DFD0FE008488068001907490861084622
:101D1000407801210843044948700846818A01201F
:101D2000FFF75CFD70BD000070000020FF3F000069
:101D300070B505460C462B0002F014F90910061B7D
:101D400042304242423B420001201F49487008464F
:101D50008482818A0220FFF75DFD32E000201A496B
:101D60004870401E88820846818A0220FFF752FD93
:101D700027E00020144948709620C8608860C82079
:101D8000486008468482FFF725FC0F490861084631
:101D90004078022108430C49487012E006200A49A5
:101DA00048709620C8608860002048600846848299
:101DB00007E005484078082108430349487000E0DF
:101DC00000BF00BF70BD00005000002010B53223DE
:101DD00000220249024802F047FC10BD751E0008AF
:101DE000D801002010B52248407802210840002880
:101DF00005D11F4840780421084000281DD01C4808
:101E00004078C007C00F00280BD01948017D022080
:101E1000FFF7B2FC1648808A01120220FFF7ACFCE3
:101E200025E00020002822D1FF210220FFF7A4FC9A
:101E3000FF210220FFF7A0FC19E00D484078C00701
:101E4000C00F00280BD00A48017D0220FFF794FC48
:101E50000748808A01120220FFF78EFC07E0FF216D
:101E60000220FFF789FCFF210220FFF785FC10BD4F
:101E70005000002070B505462D480078002856D146
:101E80002B48407802210840002850D0FFF7A2FBE1
:101E9000044627480069A04249D825484078C00731
:101EA000C00F002819D02248C068001920490861D5
:101EB000084640784008400048701E490220FFF75D
:101EC000A9FC1B4840780421084000282FD118485D
:101ED0004068401E1649486029E0154840680028BF
:101EE0000CD11348407804210840002806D110483E
:101EF0004078022148400E49487018E00C4880683C
:101F000000190B4908610846407801210843084937
:101F100048700846818A0220FFF77CFC044840781C
:101F200008210840002802D001200149487070BDF6
:101F300050000020FFFF000000BFFEE738B5044658
:101F400001236A462146B42000F0D4F8002802D0CC
:101F50006846007838BD00F0AFF80020FAE773B5A6
:101F600004460025012301AA2146B42000F000F90F
:101F70000546002D01D100F09FF828467CBD0000E9
:101F800010B50446002C04D101210748FFF7BAFA26
:101F900003E001210448FFF7B7FA00F007F8012138
:101FA0000148FFF7B1FA10BD0004004810B50A203F
:101FB00002F09AF902210848FFF7A6FA0A2002F077
:101FC00093F901210448FFF793FA044602210248DD
:101FD000FFF798FA204610BD000400481CB5012107
:101FE000880400F05BFC0320009001216846017129
:101FF00003214171012181710021C17169460248AB
:10200000FFF70CFA1CBD00000004004870B5002466
:10201000002509E06006040EFFF7C8FF002801D084
:10202000601CC4B2681CC5B2082DF3DB204670BD2D
:1020300070B50446002513E080202040C611002E14
:1020400004D101210D48FFF75DFA03E001210B489F
:10205000FFF75AFA6006040EFFF7A8FF681CC5B226
:10206000082DE9DBFFF7A2FF002803D00020044978
:10207000087002E001200249087070BD00040048A9
:102080000C00002010B501210A48FFF73DFA02219B
:102090000848FFF739FA0A2002F026F9012105481D
:1020A000FFF730FA0A2002F01FF902210148FFF77A
:1020B00029FA10BD0004004810B502210C48FFF7B2
:1020C00021FA01210A48FFF71DFA0A2002F00CF953
:1020D00002210748FFF718FA0A2002F005F901214A
:1020E0000348FFF711FA0A2002F0FEF810BD0000C5
:1020F00000040048FFB581B0064614461F46FFF7AE
:10210000C1FF3046FFF794FF18480078002801D13E
:1021100005B0F0BD0298FFF78BFF14480078002847
:1021200000D1F5E7FFF7AEFF711CC8B2FFF780FFE3
:102130000E480078002800D1EAE7002508E0FFF704
:1021400065FF20700020FFF71BFF641C681CC5B2F0
:10215000781EA842F3DCFFF759FF20700120FFF73B
:102160000FFFFFF7A9FF0120D2E700000C000020BD
:10217000FFB581B00E4614461F46FFF783FF019856
:10218000FFF756FF10480078002801D105B0F0BDD8
:102190003046FFF74DFF0C480078002800D1F5E7E6
:1021A00000250AE02078FFF743FF07480078002861
:1021B00000D1EBE7641C681CC5B2BD42F2DBFFF73F
:1021C0007BFF0120E2E700000C00002010B5142284
:1021D00010491148FDF7E2FF0F4800880F49884277
:1021E00006D00D480069FF210902084000280FD0E1
:1021F000002406E00021A2000748001D8150601C59
:10220000C4B2042CF6DB00200349887000F008F803
:1022100010BD000000EC0008B8070020FFFF000020
:1022200000B585B014220C496846FDF7B7FF684633
:1022300000880A49884206D0FEF738FF0648FEF7B4
:102240008FFEFEF7D1FE01200549088014220248C6
:10225000FFF7B6F805B000BD00EC0008FFFF000076
:10226000B807002010B5FF20A530FEF76BFBC82093
:10227000FEF77CFB0A2223210120FFF76DFB10BD36
:1022800010B50020064908700648C08A012149039C
:1022900008430449C88204490120FFF79FFA10BD92
:1022A0006C00002070000020FF3F000010B50120EE
:1022B000064908700648C08A012149038843044939
:1022C000C88204490120FFF789FA10BD6C00002084
:1022D00070000020FF1F000010B5002006490870A4
:1022E0000648C08A0121090308430449C8820449F9
:1022F0000120FFF773FA10BD6D0000207000002070
:10230000FF3F000010B50120064908700648C08A4A
:102310000121090388430449C88200210120FFF7F5
:102320005DFA10BD6D0000207000002010B5002483
:102330000AE0012001F0D8FF601C84B2FF20F530D4
:10234000844201DD002010BD02F0CAFA0028F0D05E
:1023500002F090FA00F06AFD0121080700F0AEFAE1
:10236000012000F02DFA012000F0D8FA002000F042
:10237000D5FA012000F02EFC002404E0012001F039
:10238000B3FF601C84B2412000F000FC002801D1A2
:10239000642CF3DB01F058F80121080200F04EFA3A
:1023A000012000F021FA02F09BFA002801D000F091
:1023B00025FA0148C7E70000FFFF000010B5002420
:1023C00006E0601C84B21C48844201DD002010BD80
:1023D00002F086FA0028F4D000F028FD0121080759
:1023E00000F06CFA012000F0EBF9012000F096FA01
:1023F000002000F093FA012000F0ECFB002401E043
:10240000601C84B2412000F0C1FB002803D17D2074
:10241000C0008442F4DB01F017F80121080200F04B
:102420000DFA012000F0E0F902F05AFA002801D07C
:1024300000F0E4F90148CAE788130000FFFF00003C
:1024400010B5002006490870FFF778F804460548E3
:1024500001F0B2FF032004494870204610BD00007F
:10246000B2000020600100208C00002010B50D207B
:1024700003494870FFF776F80446204610BD000077
:102480008C00002010B50A2003494870FFF76AF855
:102490000446204610BD00008C00002010B5FFF758
:1024A00061F9FFF755F8044621460120FFF740FC8B
:1024B0000C490120FFF792F9FEF77CFA0A49012046
:1024C000FFF78CF9FFF744F9FFF784F80749401844
:1024D000074908601520074948700120064908701F
:1024E00010BD0000FF7F0000FF3F0000905F010073
:1024F000A80000208C0000201001002010B5074922
:102500000978042903D10D21054A117002E00A213E
:10251000034A1170FFF726F810BD00008C00002060
:10252000B100002010B5FFF727F80446214601202E
:10253000FFF7FEFBFEF73EFAFFF7F8FE10BD10B501
:10254000FFF724F8044621460120FFF7F1FBFEF7D0
:102550008FF9FFF7EBFE10BD70B502F07BF801F0CC
:102560008DFEFFF733FEFEF7D7F90320FFF792F950
:1025700000210120FFF7BCFAFFF7B4F8002807D0CC
:10258000FEF7DCFF044621460120FFF7D1FB08E0FF
:10259000FEF7FCFF044621460120FFF7C9FBFEF7CA
:1025A00067F9FFF71BFD02F0A3F9FFF70FFCFFF738
:1025B0000BFB00F087FE01F07BFB00F051F900F00F
:1025C000F5FBFEF739FA00F03BF8FFF7BDF900F034
:1025D0004FF800210120FFF78BFA032004494870CF
:1025E000FEF7ACFF054629460120FFF7A1FB70BDB1
:1025F0008C00002010B5032189020448FEF784FFF7
:102600000121C9020148FEF77DFF10BD000400480A
:1026100010B5032189020448FEF776FF01218902E3
:102620000148FEF76FFF10BD0004004810B50321FC
:1026300089020248FEF768FF10BD00000004004850
:102640001CB50121880400F029F9032080020090C4
:1026500001216846017103214171002181716946A0
:102660000248FEF7DBFEFFF7E1FF1CBD0004004857
:1026700010B5124812490A78027049784170007802
:10268000FF2803D00D484078FF280CD100200B49CB
:102690000870487014200B494870FFF71DFE07486A
:1026A00001F058F908E005480078002802D1FFF74A
:1026B00013FE01E0FFF726FE10BD00002C010020F4
:1026C00000E800088C00002010B5FF20F530FEF770
:1026D00039F9E620FEF74AF9FEF7FAF80F2001F083
:1026E000E3FDFEF7EDF8052001F0DEFDFF20A5304B
:1026F000FEF728F96420FEF739F9FEF7E9F80F2014
:1027000001F0D2FDFEF7DCF8032001F0CDFDFF2043
:102710006930FEF717F98220FEF728F9FEF7D8F89E
:102720000F2001F0C1FDFEF7CBF80A2001F0BCFD3F
:10273000FF20C330FEF706F98220FEF717F90020CC
:102740000149487010BD00001001002070470000D2
:1027500000218278002A27D0184A03231B02D218AE
:1027600003789B109B00D15802789207D30EFF226A
:102770009A400B469343194642789207120E03780B
:102780009B07DB0E9A4011430C4A03231B02D2180D
:1027900003789B109B00D1500278D306DB0E0122F8
:1027A0009A40064B1A6007E00278D306DB0E01223E
:1027B0009A40024B80331A607047000000E100E04D
:1027C000002807D007490968FF2201321143054A52
:1027D000116006E003490968FF2201329143014A72
:1027E000116070470070004003490968820011437E
:1027F000014A116070470000007000400648006800
:102800000221084304490860044800690421084380
:102810000249086130BF70470070004000ED00E0E1
:1028200001460020044A52680A40002A01D00120D3
:1028300000E000207047000000700040002905D033
:10284000054A52680243044B5A6004E0024A526847
:102850008243014B5A60704700700040704700008F
:1028600010B503200849487000204872887232234E
:1028700000220649064801F0F7FEFEF7ABFE0549C7
:1028800040180549086010BD8C000020F54A00087A
:1028900008020020C4090000A4000020002905D07F
:1028A000054A52690243044B5A6104E0024A5269E4
:1028B0008243014B5A61704700100240002905D045
:1028C000054AD2690243044BDA6104E0024AD26944
:1028D0008243014BDA61704700100240002905D0A5
:1028E000054A92690243044B9A6104E0024A9269E4
:1028F0008243014B9A61704700100240002905D0C5
:10290000054AD2680243044BDA6004E0024AD26806
:102910008243014BDA60704700100240002807D064
:102920000749096A012212041143054A116206E0AF
:102930000349096A012212049143014A1162704756
:1029400000100240FEB5044600250026002002903B
:10295000019000900027864840680C2108400546F9
:10296000002D06D0042D07D0082D08D00C2D2CD119
:1029700028E0804820602BE07E48206028E07C48EA
:1029800040680F21890408400646794840680321C1
:10299000C90308400290B00C861C0298002803D19D
:1029A0007548374647430BE07148C06A0007000F7F
:1029B000401C01906F480199FDF7B4FB7043074636
:1029C000276005E06D48206002E06A48206000BF93
:1029D00000BF67484068F021084005462D09684857
:1029E000405D009020680099C84060606048406881
:1029F00007210902084005462D0A6148405D009004
:102A000061680098C140A1605948006BFF21013105
:102A10000840884202D05B48E0600DE054484068BE
:102A2000012189030840884203D0A0684008E06083
:102A300002E0A0688008E0604D48006B402108403B
:102A4000402802D05048206102E00120C0032061EC
:102A50004748006B10210840102802D045486061AB
:102A600001E0206860614248006B8007800F002809
:102A700002D1A068A06119E03D48006B8007800F7B
:102A8000012802D12068A06110E03948006B80075E
:102A9000800F022802D18003A06107E03448006B58
:102AA0008007800F032801D13248A0613048006BB5
:102AB000032109040840002802D1A068E06120E059
:102AC0002B48006B032109040840012109048842B6
:102AD00002D12068E06114E02548006B032109045D
:102AE000084001214904884202D18010E06108E0D9
:102AF0001F48006B032109040840884201D11D488A
:102B0000E0611B48006B032189040840002802D1C2
:102B1000A068206220E01648006B03218904084069
:102B200001218904884202D12068206214E0104803
:102B3000006B0321890408400121C904884202D1A5
:102B40000011206208E00A48006B03218904084054
:102B5000884201D1074820620548006B8021084067
:102B6000802802D00548606200E06762FEBD000078
:102B70000010024000127A0000093D00006CDC02E7
:102B80002E010020809FD5001280000010B5024663
:102B90000021002300205111002902D10C4C236890
:102BA0000BE0012902D10A4C236A06E0022902D176
:102BB000074C636A01E0064C636BD106C90E012421
:102BC0008C401C40002C01D0012000E0002010BDF2
:102BD00000100240002806D00649496A012211432C
:102BE000044A516205E00349496A49084900014A1B
:102BF0005162704700100240002807D00749096A57
:102C00000122D2031143054A116206E00349096A11
:102C10000122D2039143014A116270470010024021
:102C20000249096A0143014A1162704700100240DB
:102C300070B588B0054693216846017270214172D3
:102C40000021817300240BE0295D02AAA01C11540D
:102C50006946887B295D484069468873601CC4B218
:102C6000042CF1DB03AA0332072102A800F018F8B4
:102C70000821084600F049F807A802AB092202A97A
:102C800000900C2000F050F90646002E04D1684652
:102C9000007F182800D100E00226304608B070BD41
:102CA000F7B5074615460421052000F02EF800214F
:102CB000012000F0DFF880210B2000F0ABFA0024A7
:102CC00005E0395D092000F0D5F8601CC4B2019818
:102CD0008442F6DB0321012000F0CCF8FF2400BF82
:102CE000052000F0ABF80646601EC4B2002C03D0ED
:102CF000042030400028F3D0222000F09FF82870F4
:102D0000212000F09BF86870FEBD70B505460C46AA
:102D10000026284600F092F806463046A0430146B9
:102D2000284600F0A7F870BDF0B585B004460F4600
:102D3000FF2214216846FDF743FA6946262000F079
:102D4000A8F90546002D02D0022005B0F0BD694665
:102D50000E783002497808430646012080028642F8
:102D600002D10020207008E001204002864202D1FA
:102D70000120207001E0FF202070684600F09CF8E0
:102D80000546002D01D00220DFE76846FFF750FF1F
:102D90000546002D01D00220D7E700F063F9042298
:102DA00069463846FDF7FAF90020CEE710B5C8208D
:102DB00001F09AFA00F09EF9012001F095FA00F076
:102DC000A1F9012001F090FA00F094F9012001F03E
:102DD0008BFA0F21012000F04DF8012001F084FA58
:102DE0003D21112000F046F81E212D2000F042F870
:102DF00000212C2000F03EF88D212A2000F03AF826
:102E00003E212B2000F036F84021152000F032F84A
:102E100000F04CF8C82300220249034801F024FCCA
:102E200010BD000015310008F80B002010B500F0AF
:102E30003DF83021012000F0EDF910BD70B50446D9
:102E400040210B48FEF75EFB012001F04DFA6000C7
:102E50007E21084004468034204600F009FA00F044
:102E6000E9F9054640210248FEF74EFB284670BDB1
:102E70000004004870B504460D4640210A48FEF79C
:102E800041FB012001F030FA60007E210840044639
:102E9000204600F0EDF9284600F0EAF9402102480A
:102EA000FEF732FB70BD00000004004810B503219E
:102EB0001420FFF72AFF10BDF0B587B005460027A4
:102EC00008210846FFF721FF00210D20FFF7D2FF60
:102ED00080210E20FFF719FF932168460171202100
:102EE000417106A801AB022201A900900C2000F05C
:102EF0001BF80646002E10D1002407E001A8005D53
:102F0000285501A8005D4740601CC4B2042CF5DBC5
:102F100001A8005DB84200D0022680210E2000F0FA
:102F200079F9304607B0F0BDFFB583B00646022000
:102F300002900020019000900E2E04D112200190EA
:102F40001020009005E00C2E03D177200190302056
:102F5000009080220198104301460220FFF78AFF6B
:102F600080210420FFF7D1FE00210120FFF782FF1E
:102F700080210A2000F04EF9002506E00498415D0A
:102F80000920FFF777FF681C85B205988542F5DBBD
:102F900031460120FFF76EFF0C2E03D180210D205A
:102FA00000F038F97D252D0100BF0420FFF746FF12
:102FB0000446681E85B2002D07D0E007C00F002828
:102FC00003D1009820400028EFD080210D20FFF78A
:102FD0009CFE002D3BD00620FFF730FF1B21084050
:102FE000002832D1029001982040C007C00F00286D
:102FF00001D0012002900C2E29D10A20FFF71EFFDC
:1030000004460C20FFF71AFF47077F0F002F06D05A
:10301000601EC000C019C1B20C98017003E0E00648
:10302000010E0C980170002C00D10124122C00DD3F
:103030001224002506E00920FFF700FF06994855F5
:10304000681C85B2A542F6DB01E0022002908021D7
:103050000C2000F0DFF800210120FFF70BFF0298A1
:1030600007B0F0BD00B587B050216846017100215E
:103070004171821D022101A8FFF712FE06A801ABD3
:10308000042201A900900C20FFF74EFF002007B09A
:1030900000BD70B588B005460C4608210846FFF70C
:1030A00034FE07210D20FFF7E5FE0321142000F078
:1030B000B1F86846057207A802AB012202A9009088
:1030C0000C20FFF731FF0646002E0AD16846007F2C
:1030D000102806D16846007A20706846407A6070F1
:1030E00000E00226304608B070BD10B500F002F8CE
:1030F00010BD000010B580210148FEF705FA10BD93
:103100000004004810B580210148FEF7FBF910BD0E
:1031100000040048F0B58DB0074600200C903448FC
:103120004078C01E030000F01DFF0B075F5F080919
:103130000A5F0B5F5F0C5F0000BF00BF00BF00BFF6
:1031400000BFFDF709F9FEF765FA06463F20800249
:10315000FEF7DCF905463221694308466421FCF795
:10316000E1FFB0423FD25A21694308466421FCF78F
:10317000D9FFB04237D9681C002834D01DA000F018
:10318000E1FE0AA90CA8FFF7CFFD00282BD1039080
:10319000002108A8017303216846017405220AA9C9
:1031A0001130FCF7FBFF052208A96846FCF7F6FF83
:1031B00004A80FC800F08EFE1E2250210120FEF749
:1031C000CBFB0FA000F0BEFE002406E00AA8015DC4
:1031D0000EA000F0B7FE601CC4B2042CF6DB0CA0FD
:1031E00000F0B0FE00BF00BF00BF00BF0DB0F0BDDB
:1031F0008C0000207363616E2E2E2E0D0A000000DD
:10320000636172644E756D3A200D0A002558000006
:103210000D0A000070B505460C4600262846FFF74B
:103220000DFE06463046204301462846FFF722FEA3
:1032300070BD000070B50024002513E008210B4884
:10324000FEF760F96006040E0848008A1021084065
:10325000002801D00120044308210448FEF754F956
:10326000681CC5B2082DE9DB204670BD000400488B
:1032700070B5044600251BE008211148FEF742F90D
:1032800080202040002804D020210D48FEF73CF982
:1032900003E020210A48FEF735F96006040E0821F4
:1032A0000748FEF731F9012001F01EF8681CC5B28D
:1032B000082DE1DB20210248FEF724F970BD000053
:1032C000000400481CB501218804FFF7E7FA01213A
:1032D0006846017168200090002168468171C171C3
:1032E0000321417169461748FEF798F808211548EF
:1032F000FEF708F920211348FEF704F94021114890
:10330000FEF702F90121684601718020009000213A
:1033100068468171C1710321417169460948FEF710
:103320007DF8FFF7EFFE0021684601711020009044
:1033300068468171C1710321417169460148FEF7F8
:103340006DF81CBD0004004810B503211420FFF7E0
:1033500061FF10BD38B50246002400940023002010
:10336000CA24174D6C6253246C62002905D02C4688
:10337000A4681443AC6001201DE0114CA468944380
:103380000F4DAC6000BF0E4CE468150A2C4023467C
:10339000009C641C00940125AD03009CAC4201D04C
:1033A000002BF0D0064CE468150A2C40002C01D10B
:1033B000002000E00120FF24014D6C6238BD0000B8
:1033C0000028004030B503460020CA24064D6C6238
:1033D00053246C6214060C432046034C4034606056
:1033E000FF246C6230BD000000280040014600BF91
:1033F000F020084000110A23584302460807000F36
:103400008018C0B270470146002204E0501CC2B2CE
:1034100008460A38C1B20A29F8DA1007000E084334
:103420007047000010B50021010980220A4392B2C2
:10343000D243044BDB68802423401A43014BDA60FB
:1034400010BD00000028004000B589B001204002F6
:10345000FFF7E6FB0120FFF7CFFB00F0FBF90020B0
:10346000069078200790FF202D30089006A800F0E5
:10347000EDF800216846C1720172417281723121FA
:10348000017500200490C807039002AAC10D012015
:1034900000F008F90F2201210802FFF793FF012134
:1034A000080300F0A1F801210802FFF753FF0021F3
:1034B0006846C17101714171817101A9012000F05B
:1034C0005DF909B000BD000008B50022009200209F
:1034D0000021124AD26840231A40002A1BD1421E02
:1034E0000E4BDA6000BF0D4AD26840231A401146E5
:1034F000009A521C00921B02009A9A4201D00029A5
:10350000F1D0064AD26840231A40002A01D0012097
:1035100002E0002000E0012008BD0000002800407B
:103520000348C068802188430149C8607047000093
:103530000028004070B501460020002200230F4CF7
:10354000246804252C4022460C4C403CA4680C40C6
:103550008E0C0D46F540ED0B15402C432346074CD1
:10356000403CE4680D092C402246002B04D094B264
:10357000002C01D0012000E0002070BD4028004058
:1035800010B501208003FFF7D5FF00280BD00DA058
:1035900000F0D8FC01208003FFF744FF0120400425
:1035A000FDF780FC0CE001200003FFF7C3FF0028BB
:1035B00006D009A000F0C6FC01200003FFF732FF8F
:1035C00010BD000077616B65757050696E2069737E
:1035D00020776F726B0D0A00616C726D4120697308
:1035E00020776F726B0D0A0010B5CA22164B5A6213
:1035F00053225A62002911D01A46926804240346C5
:10360000A3431A43104B9A600F4A403212680423B6
:1036100003401A430C4B40331A6010E00A4A926888
:1036200004240346A3439A43074B9A60064A403258
:103630001268042303409A43034B40331A60FF226D
:10364000014B5A6210BD00000028004030B504460E
:103650000025CA201249486253204862FFF734FF10
:10366000002800D117E00E488068402188430C49AB
:103670008860084680682168084309498860A06816
:10368000086108460069A1880904084304490861E3
:10369000FFF746FF0125FF2001494862284630BD5B
:1036A00000280040F8B5054614460026002D0ED12E
:1036B0003148806840210840002800D002E0002006
:1036C000E07000BFA068002800D11BE01AE02A4883
:1036D000806840210840002804D02078FFF786FE4B
:1036E000064602E00020E07000BFA068002804D178
:1036F000207BFFF77BFE064604E0207BFFF776FE8B
:10370000064600BF002D12D020780004617809021F
:103710000843A1780843E17809040843217B09069E
:103720000843A168084361680843064619E0207809
:10373000FFF769FE07046078FFF765FE00020743A4
:10374000A078FFF760FE0743E07800040743207B82
:10375000FFF759FE00060743A06807436068074368
:103760003E46CA2004494862532048620846C66162
:10377000FF204862F8BD000000280040F8B505466B
:103780000C46002600200090002D0AD12F488068AA
:1037900040210840002800D002E00020E07000BF77
:1037A0000EE02A48806840210840002804D0207894
:1037B000FFF71CFE064602E00020E07000BF00BFDD
:1037C000002D0BD020780004617809020843A1780D
:1037D0000843E17809040843064610E02078FFF723
:1037E00012FE07046078FFF70EFE00020743A07880
:1037F000FFF709FE0743E078000407433E46CA206E
:103800001249486253204862FFF75EFE002801D14A
:10381000009016E00E4830400C490860FFF780FE2B
:103820000A48806820210840002808D100F012F8DA
:10383000002801D1009004E00120009001E0012067
:103840000090FF20014948620098F8BD0028004020
:103850007F7F7F0008B50022009200200021174AD8
:10386000926820231A40002A01D0012025E0CA22B4
:10387000124B5A6253225A621A46D268A0239A43C4
:103880000E4BDA6000BF0D4AD26820231A40114661
:10389000009A521C00929B02009A9A4201D0002981
:1038A000F1D0064AD26820231A40002A01D0012014
:1038B00000E00020FF22014B5A6208BD00280040B2
:1038C00070B500F019F805460120A84003218903CE
:1038D000884384B207480078002805D001214903B5
:1038E00020468843044602E001204003044320466A
:1038F00070BD00006C00002070B5FCF73DFC054673
:103900000C21FCF725FCCCB2204670BD70B50446F6
:103910000E46002C01D0642C02DB0020C04370BD99
:103920005F2C04DC601E40010749451804E0204676
:103930006038400105494518202229463046FCF7E9
:103940002DFC2020EBE7000000F0000800FC000840
:103950007047000010B50446FDF7A8FB0448FDF7CA
:10396000FFFA21880248FDF749FBFDF73DFB10BD3A
:1039700000E800080CB50020019000903148006874
:103980000121090408432F49086000BF2D48006841
:1039900001214904084000900198401C01900098C2
:1039A000002804D10521090301988842EED1254859
:1039B0000068012149040840002802D0012000903D
:1039C00001E0002000900098012839D111201E4903
:1039D00008601C4840681B494860084640684860C9
:1039E000084640687F21C903884316494860084655
:1039F00040681121090408431249486008460068DC
:103A00000121090608430F49086000BF0D480068FE
:103A10000121490608400028F8D00A48406880087B
:103A2000800008494860084640680221084305496B
:103A3000486000BF034840680C2108400828F9D1BD
:103A40000CBD000000100240002002407047000042
:103A500010B51B4800680121084319490860084651
:103A600040681849084016494860084600681649E9
:103A7000084013490860084600680121890488430A
:103A80000F490860084640683F21090488430C49F3
:103A900048600846C06A00090001C8620846006B19
:103AA000FF2154318843064908630846406B4008AB
:103AB0004000486300208860FFF75CFF10BD0000F5
:103AC000001002400CB8FF08FFFFF6FE10B5012100
:103AD000054800F03CF8002805D00121024800F01C
:103AE00013F800F013F910BD00040040002904D0C1
:103AF000028880231A43028003E00288014B1A40A7
:103B0000028070477FFF0000CA43028270470000B6
:103B1000002904D0028801231A43028003E00288AE
:103B2000014B1A4002807047FEFF0000002907D0B9
:103B30004422125A0123DB031A4344231A5205E09C
:103B40004422125A53045B0C44221352704730B57E
:103B50000246002000230024158A0D402B4695893B
:103B60000D402C46002B03D0002C01D0012000E09A
:103B7000002030BD002A03D083890B43838102E0FB
:103B800083898B438381704770B500240022002312
:103B9000058C1C4E35400584028C8388048B194D9E
:103BA0006F3D2C40B51E2C400D882C43751E2A40BD
:103BB0008D892A434D882A43134DA84208D0134DBE
:103BC000A84205D0124DA84202D0124DA84212D1EF
:103BD0000C4DED1F2A40CD892A430A4DED1E2A4087
:103BE0008D882A43074DFF3D2B400B4D2B400D8AFE
:103BF0002B434D8A2B43838004838D684563028465
:103C000070BD0000FEFF0000002C0140004001409C
:103C10000044014000480140FFFD00000A46002129
:103C2000018B034B19400B46134319460183704720
:103C3000F7FF000000220288154B984206D00123AE
:103C40009B07984202D0134B984203D1124B1A4063
:103C50004B881A43114B984203D0114B1A400B89E1
:103C60001A4302804B68C3620B880385084B984255
:103C700008D00C4B984205D00B4B984202D00B4B0E
:103C8000984201D18B7A038601238382704700001A
:103C9000002C0140000400408FFF00000010004095
:103CA000FFFC00000040014000440140004801408A
:103CB0001FB501200290134968468180002181814F
:103CC000C180817301210220FEF7F8FD01A90E4891
:103CD000FFF7B0FF102168460170002141700121FB
:103CE0008170FEF735FD01210748FFF70DFF012226
:103CF00011460548FFF73EFF01210348FFF708FF83
:103D00001FBD00007FBB00000004004002480068A7
:103D1000401C01490860704708000020002904D0B9
:103D2000026801231A43026003E00268520852004D
:103D30000260704702460020D3690B40002B01D07F
:103D4000012000E000207047F0B58BB004460D461E
:103D5000002700200A9000262068400840002060CC
:103D6000666803210903304688430646A86806436F
:103D7000666026682D480640E96868680843296936
:103D8000084306432660A66803210902304688439B
:103D9000064668690643A6606846FEF7D3FD2448D8
:103DA000844202D106980A900DE02248844202D152
:103DB00007980A9007E02048844202D108980A90A8
:103DC00001E002980A9020680121C90308400028F8
:103DD0000CD029680A9A5000FCF7A4F90746296814
:103DE0000A9A5000FCF79EF90E4609E029680A98E5
:103DF000FCF798F9074629680A98FCF793F90E46EC
:103E000028684008B04200D87F1C20680121C903FF
:103E10000840002806D03807460F384607490840B2
:103E200030430746A7810BB0F0BD0000F3E9FFFF68
:103E3000003801400044004000480040F0FF00000E
:103E4000CA05D20D0285704710B586B004461E48DB
:103E500000681E49096888420ED100206946087032
:103E6000142100A80130FCF7B2F91522694620465A
:103E7000FCF794F906B010BD1348006815225043B2
:103E8000134A811815226846FCF788F900210E486C
:103E90000068152250430E4A11540B490968152237
:103EA00051430B4A8918481C1421FCF790F9064825
:103EB000006800F017FE0449086015226946204694
:103EC000FCF76CF900BFD5E7080100200C010020C9
:103ED000600200200FB410B50E48006800F002FE2A
:103EE0000D490968884203D110BC08BC04B01847CA
:103EF0000849096815225143084A8818152202A961
:103F0000FCF74CF90348006800F0ECFD014908603B
:103F100000BFE9E70C01002008010020600200203A
:103F200070B504460D46FDF7C1F829462046FDF759
:103F300087F80646FDF758F8042E01D0002070BD22
:103F40000120FCE70FB410B503A9044B044A029802
:103F500000F026F810BC08BC04B018470D44000857
:103F60004401002030B47446641E2578641CAB42C2
:103F700004D3635D5B00E31830BC18471D46F8E7C7
:103F800002E008C8121F08C1002AFAD17047704722
:103F9000002001E001C1121F002AFBD17047000080
:103FA000FFB58FB00F460446002606E025280AD04C
:103FB000129A11999047641C761C20780028F5D13C
:103FC000304613B0F0BD00250121A14A009500E064
:103FD0000543641C23780846203B98401042F7D1E3
:103FE00020782E2815D1042005436078641C2A28E7
:103FF0000AD101CF641C00900BE000990A225143C2
:1040000030394018641C0090207801463039092965
:10401000F3D920786C280ED004DC4C2813D06A2801
:1040200012D104E074280ED07A280DD10BE00120C3
:104030004005054307E00121090562780D438242EE
:1040400001D16D18641C641C2078864669284AD00A
:1040500008DC0028B4D058286DD0632810D064281C
:1040600008D140E070286BD0732812D0752860D03A
:10407000782860D0129A704611999047761CE5E036
:104080003878694608720020487202A80190012021
:1040900003E0386801900020C0433F1D69070CD53C
:1040A000002500E06D1C00998D420FDA8542F9DB96
:1040B0000199495D0029F5D108E0002500E06D1C5B
:1040C0008542FCDB0199495D0029F8D1761907E0AA
:1040D000019801990078491C0191129A1199904711
:1040E0006D1EF5D2B2E00A20029000216802400F56
:1040F000039102280CD001CFC117844600290DDAA4
:104100006246084652420021814194462D2008E033
:10411000FF1DFF08FF0003CF8446EFE7280504D505
:104120002B206A46107401203CE0E8073AD020209A
:10413000F7E70A2000E0102000210391029007E039
:1041400010200290002104200543082003910090D4
:104150006802400F022810D001CF002184460020C1
:104160000D9028071FD5704670280CD0029A102099
:10417000039B42401A430CD015E0FF1DFF08FF00CF
:1041800003CF8446EBE740206A46107401200D906F
:104190000CE06046084306D030206A461074704632
:1041A000507402200D907046582804D029A0019028
:1041B0000DA80E900DE02CA0F9E76046039B029A33
:1041C000FCF73BF8019B84469B5C0E9A521E0E92B4
:1041D000137060460843F0D10E9805A9081A2030E4
:1041E0000190680701D5009801E001200090019935
:1041F000884203DD01460198081A00E000200025EE
:10420000009006E004A8129A405D119990476D1C39
:10421000761C0D988542F5DB04E0129A3020119946
:104220009047761C0099481E00900029F5DC08E0B4
:104230000E980E990078491C0E91129A1199904788
:10424000761C0199481E01900029F1DC641CB4E63B
:10425000092801003031323334353637383961625C
:104260006364656600000000303132333435363720
:1042700038394142434445460000000030200021C7
:10428000064A9161042111610549087009787D226F
:10429000D2005143034A11807047000000E000E063
:1042A000000000200200002001460D4A12884A4307
:1042B000521E0C4B5A6100229A6101221A6100BF02
:1042C000084A1069C207D20F002A04D00122120442
:1042D0000240002AF4D00022024B1A619A61704712
:1042E0000200002000E000E001460D4A12784A4337
:1042F000521E0C4B5A6100229A6101221A6100BFC2
:10430000084A1069C207D20F002A04D00122120401
:104310000240002AF4D00022024B1A619A617047D1
:104320000000002000E000E010B50446002C05D09D
:10433000012149030448FDF7E7F804E0012149039E
:104340000148FDF7DFF810BD0004004810B5044631
:10435000002C05D00121C9030448FDF7D5F804E07D
:104360000121C9030148FDF7CDF810BD0004004844
:1043700010B50446002C05D0012109030448FDF7BF
:10438000C1F804E0012109030148FDF7BDF810BDA3
:104390000004004810B50446002C05D00121890313
:1043A0000448FDF7B1F804E0012189030148FDF755
:1043B000A9F810BD0004004800214180C18081801F
:1043C0007047028000234380C380838081607047F0
:1043D000024653881088401E834201DD0120704749
:1043E00093881088401E834205D193889068C154F9
:1043F0000020908005E093889068C1549088401C0C
:1044000090805088401C50800020E8E770B504463A
:104410000D46E1B20548FFF713FD00BF80210348B8
:10442000FFF788FC0028F9D0204670BD0038014015
:104430000FB4F0B58FB00446012C07DB202C05DC4F
:104440004F4E601E40013146471824E0212C07DB07
:10445000402C05DC4B4E601E4001494947181AE0CC
:10446000412C07DB5F2C05DC474E601E40014449B0
:10447000471810E0602C08DB632C06DC434E204616
:10448000603840013146471805E001200FB0F0BC0C
:1044900008BC04B018472022394607A8FBF77EFE67
:1044A0006846808B3A4988420ED1012010A9888243
:1044B000142218A96846FBF771FE384615A90EC9E3
:1044C00000F06AF80020E1E70696012C2BDB5F2C58
:1044D00029DC00250BE069012E4A88182022069964
:1044E000FBF75CFE069820300690681C85B2202DF4
:1044F000F1DBFCF7DBFD3046FCF732FDFCF774FD29
:10450000611E4901234A8818202215A9FBF746FE9F
:104510000121601E40011F4A11528A021D49304686
:10452000FCF74EFFB2E700250BE06901194A881835
:1045300020220699FBF732FE069820300690681C70
:1045400085B2042DF1DBFCF7B1FD3046FCF708FD28
:10455000FCF74AFD2146603949010E4A881820229D
:1045600015A9FBF71BFE0121204660384001094ACE
:104570001152802207493046FCF722FF86E70000EF
:1045800000F0000800F4000800F8000800FC000833
:10459000FFFF0000CC0700200FB410B50446202216
:1045A00003A92046FCF70CFF10BC08BC04B0184758
:1045B00007484078122807D005484078132803D0D0
:1045C00003484078142801D1012070470020FCE7FF
:1045D0008C00002010B50446002C05D08021092055
:1045E000C006FCF791FF04E080210920C006FCF71B
:1045F00089FF10BD10B50446002C05D010210920FC
:10460000C006FCF781FF04E010210920C006FCF77A
:1046100079FF10BD10B50446002C05D020210920DB
:10462000C006FCF76FFF04E020210920C006FCF75C
:104630006BFF10BD10B50446002C05D040210920A9
:10464000C006FCF761FF04E040210920C006FCF72A
:1046500059FF10BD0020034908604860C860086128
:10466000486170479C01002070B504460D46E56026
:10467000A2601846DE0F36187610666000202060B3
:104680000A4841694069002805D108484461206111
:104690000020606170BD00E0496948690028FBD1D5
:1046A0004C612161606100BFF4E700009C010020C3
:1046B00010B50B4844690FE02068002808D16068F5
:1046C0002060E068002806D0E168A068884702E022
:1046D0002068401E20606469002CEDD110BD0000F0
:1046E0009C01002008B50024002502F0A9FB00F081
:1046F000A9F801210807FEF7E1F80120FEF790F87C
:10470000012852D100F0ECF8002807D136A0FFF7BD
:1047100019FCFDF721FFFCF75EF854E0FFF7AEFD52
:10472000FBF71AFEFEF7CEFDFEF7DFFCFEF70CFEF0
:104730003F208002FCF7EAFE0546FCF76BFF0446CB
:10474000681C002807D1322C05D9254629463F2070
:104750008002FFF7E5FB2A46214627A0FFF7F2FB80
:104760003221694308466421FBF7DCFCA04210D2E9
:104770005A21694308466421FBF7D4FCA04208D9BA
:10478000FDF7EAFEFCF727F8214622A0FFF7DAFB47
:1047900019E00026FDF712FE04E0701C86B201202D
:1047A000FFF7A2FD642EF8DB0DE0FDF7D5FEFCF768
:1047B00012F814201F4948703F208002FCF7BCFB10
:1047C0001DA0FFF7BFFB0EE000200090FCF702FFEA
:1047D00000900098B04205D0009E684602F066FA4C
:1047E000FFF766FF00BFEFE76B65792077616B65C8
:1047F00075700D0A00000000766F6C3D25646D56E3
:104800002C2061766572616765203D2025646D56B8
:104810000D0A0000636172642077616B657570201A
:1048200025646D562E2E2E2E2E2E2E2E2E2E2E0D35
:104830000A0000008C000020706F776572206F6E98
:104840000D0A00001CB50021684681710121C1716B
:10485000042000900021684601710321417101216B
:104860008804FEF71BF869460148FCF7D7FD1CBD1C
:104870000004004810B50A24C0215E20FDF76FFB3C
:1048800005215D20FDF76BFBFF212A20FDF767FB6B
:1048900003215920FDF763FBF0215E20FDF75FFB4C
:1048A00015E00A20FFF720FD0020FDF747FB0B492C
:1048B00008800120FDF742FB0002084909880843EF
:1048C00006490880601E84B2002C00D103E000F08D
:1048D00007F80028E5D000BF012010BD040000202B
:1048E00010B504210148FCF703FE10BD0004004888
:1048F00010B518217848FBF76AFC63218020FDF78A
:104900002EFB00215E20FDF72AFB01212B20FDF765
:1049100026FB01212C20FDF722FB05212D20FDF790
:104920001EFB00212E20FDF71AFB01212F20FDF791
:1049300016FB01213020FDF712FBFF213120FDF78E
:104940000EFB02213220FDF70AFB00213320FDF788
:1049500006FB00213420FDF702FB00213520FDF786
:10496000FEFA0F213620FDF7FAFA0F213720FDF766
:10497000F6FA00213820FDF7F2FA00213920FDF780
:10498000EEFA01213A20FDF7EAFA01213B20FDF77A
:10499000E6FAFF213C20FDF7E2FAFF213D20FDF77A
:1049A000DEFA00213E20FDF7DAFA00213F20FDF774
:1049B000D6FA00214020FDF7D2FA05214120FDF76B
:1049C000CEFA03214220FDF7CAFA05214320FDF764
:1049D000C6FA03214420FDF7C2FA05214520FDF760
:1049E000BEFA03214620FDF7BAFA05214720FDF75C
:1049F000B6FA03214820FDF7B2FA05214920FDF758
:104A0000AEFA03214A20FDF7AAFA05214B20FDF753
:104A1000A6FA03214C20FDF7A2FA05214D20FDF74F
:104A20009EFA03214E20FDF79AFA05214F20FDF74B
:104A300096FA03215020FDF792FA05215120FDF747
:104A40008EFA03215220FDF78AFA05215320FDF743
:104A500086FA03215420FDF782FA05215520FDF73F
:104A60007EFA03215620FDF77AFA05215720FDF73B
:104A700076FA03215820FDF772FA05215920FDF737
:104A80006EFA00215A20FDF76AFA00215B20FDF73B
:104A900066FA04215D20FDF762FA80215C20FDF7B3
:104AA0005EFA8F217B20FDF75AFAE4217D20FDF785
:104AB00056FA94217E20FDF752FACD217F20FDF792
:104AC0004EFACC215E20FDF74AFA1522034904482C
:104AD000FFF777FC10BD0000840100204801002092
:104AE0006001002001463F2901D100207047481C89
:104AF0000146FBE700B599B0FCF76CFD17900AA8DA
:104B0000FFF7A2F918220AA910A8FBF747FBFE48F5
:104B1000407801280ED0FD4917980968884209D3CA
:104B2000F9484078152805D0FFF742FD002801D14B
:104B3000FDF7FCFBF4484078152806D1F449179896
:104B40000968884201D9FDF7F1FB10A80078002818
:104B50000DD1ED484078122809D0EB484078132851
:104B600005D0E9484078142801D019B000BDE949C2
:104B700017984018E549086010A80078022806D167
:104B8000FEF79EFE01460F900220FCF7B1FFDE48C3
:104B90004078162801D302F07DF843007B449B88BF
:104BA0005B009F44771015001F003A003A06B407D7
:104BB00044092F0AE90B3F02560D771077107B0E40
:104BC000771077108B0F8C0FFC0F8D0FBE0F20000E
:104BD000D14800788007800F002802D00320CA49FE
:104BE0004870EEE3FDE710A80078002814D0FCF729
:104BF000B9FDFCF7ADFC169001201699FDF798F869
:104C0000C6490120FCF7EAFDFBF702FEC44901207A
:104C1000FCF7E4FDFCF79CFDE3E710A80078012811
:104C200073D110A84078812813D008DC01280FD058
:104C3000022839D004280FD0102867D1BDE082287F
:104C40007ED0842863D088287BD09028F5D1B5E029
:104C500000BFFDF76BFB06E10220AB490870084678
:104C600040688078002811D1FCF71AFD00280ADD81
:104C70000920A5494870FDF741FC169004201699BB
:104C8000FDF756F80FE0FDF75AFC0CE0A548FFF7DA
:104C900093FB08209C494870FCF73CFC16900120CF
:104CA0001699FDF745F8DEE001209749087008469F
:104CB0004068807800281AD1FCF7F2FC5F2813DAEC
:104CC000002099490870FCF72DFB8F4908720420D9
:104CD00048700846007A0F90FCF762FC169004209A
:104CE0001699FDF725F80FE0FDF71CFC0CE08D4848
:104CF000FFF762FBFCF70EFC169008208249487013
:104D000001201699FDF714F8ADE0ADE0AAE004200B
:104D10007D490870FCF764FC002813D001207A4913
:104D2000496888707F48FFF747FB0820764948703C
:104D3000FCF7F0FB169001201699FCF7F9FF03E051
:104D400003E06FE0FDF7FBFB8DE003206E49087088
:104D5000FCF746FC002811DD7248FFF72DFB5F20B1
:104D6000FCF71AFA6849087208204870FCF7D2FB71
:104D7000169001201699FCF7DBFF1DE0FCF730FCD4
:104D8000042802DBFDF7CEFB16E000206649087020
:104D90006448FFF711FB5F20FCF7FEF95A490872DF
:104DA000052048700846007A0F90FCF7F9FB169032
:104DB00004201699FCF7BCFF55E000BF01205249C2
:104DC000087008464068807800281BD1FCF768FC12
:104DD0005F2814DA5348FFF7EFFA0020FCF7A2FA35
:104DE00049490872062048700846007A0F90FCF77F
:104DF000D7FB169001201699FCF79AFF11E0FDF7FA
:104E000091FB0EE04748FFF7D7FAFCF783FB1690BB
:104E100000203D4908720820487001201699FCF7CF
:104E200087FF20E0052038490870084640688078F0
:104E3000002809D1FCF756FC002802DDFBF7B4FB83
:104E40000FE0FDF77CFB0CE03648FFF7B5FA0820D1
:104E50002D494870FCF75EFB169001201699FCF76F
:104E600067FF00E000BFDCE010A80078022870D1E6
:104E7000002018902B48FCF72DFC0F900F9801286C
:104E800010D110A84078A3280CD11F4800690078E1
:104E9000002802D1FCF718F801E0FCF709F82148D6
:104EA000FFF78AFA10A840782A2808D10F9801281D
:104EB00003DD1C48FFF780FA01E0FDF737FA0F9891
:104EC000142803DA10A8407823286FD10F980A28F5
:104ED00054DB0021154A0F98115411460120FBF7AD
:104EE00083FE18901898002834D007491898087243
:104EF0000846007A0E90FCF753FB16900120169995
:104F0000FCF716FF0A4915E08C000020A4000020E1
:104F1000A8000020C4090000B4000020FF7F0000AA
:104F2000FF3F000060010020B20000204801002087
:104F3000FFBF00000120FCF751FC0020F74948703A
:104F4000FDF7C2FB1220F6494870F648FFF734FA25
:104F50002CE02CE0F4480068401CF3490860084647
:104F60000068032802D3FDF799FA03E0FBF742FC3F
:104F7000FCF710FEEB48FFF71FFA17E0EA4800685D
:104F8000401CE949086008460168E8A0FEF7DAFF1E
:104F9000E5480068032802D3FDF780FA06E0E148FF
:104FA000FFF70AFAFBF726FCFCF7F4FD39E010A83E
:104FB0000078032835D110A901310220FBF714FE37
:104FC0001890189800281CD00020D7490860D449B0
:104FD000189808720846007A0F90FCF7E1FA1690CC
:104FE00001201699FCF7A4FED3490120FCF7F6FB3B
:104FF0000020CA494870FDF767FB1220C849487075
:105000000FE0C9480068401CC749086008460068AE
:10501000032802D3FDF742FA03E0FBF7EBFBFCF7B2
:10502000B9FDDEE5BE480078042806D15F200E9069
:1050300063200D90C1480F9005E000200E905F2086
:105040000D90BF480F9010A8007801287ED1002055
:10505000BC49087010A84078042812D004DC01284C
:1050600007D0022873D1EFE0082871D01028F9D1B9
:10507000E3E1FDF7E5F9169001201699FCF758FEDB
:1050800001E3A748007804286ED1AF4800780D28C6
:1050900006D10E20AC490870FCF746FA169051E094
:1050A000A94800780E2821D10020FCF74DF818906F
:1050B0001898401C00280CD09949189808720F20A5
:1050C000A14908701898C0B20C90FCF769FA1690C4
:1050D00038E0FCF75BFA16904B22D2001146142000
:1050E000FCF73AFC03208E4948702BE09648007884
:1050F0000F281BD18A48007A40B20C90FCF724F8A4
:1051000018901898401C002809D0854918980872F2
:105110001898C0B20C90FCF743FA169012E00D20DC
:1051200089490870FCF71EFA16900BE00D2086499D
:1051300008704B22D20011461420FCF70DFCFCF73E
:1051400011FA169076484078032802E09CE298E233
:1051500098E204D101201699FCF7EAFD73E00420DF
:105160001699FCF7E5FD6EE06D48007802286AD1DB
:10517000754800780A2806D10B2073490870FCF79F
:10518000D3F9169052E0704800780B2821D1002006
:10519000FCF7A2F818901898401C00280CD0604921
:1051A000189808720C20684908701898C0B20C90C2
:1051B000FCF7F6F9169039E0FCF7E8F916904B2267
:1051C000D20011461420FCF7C7FB03205449487055
:1051D0002CE05D4800780C281CD15148007A40B280
:1051E0000C90FCF779F818901898401C00280AD009
:1051F0001898C1B24A4801721898C0B20C90FCF7D6
:10520000CFF9169012E00A204F490870FCF7AAF96E
:1052100016900BE00A204C4908704B22D200114630
:105220001420FCF799FBFCF79DF916903C48407858
:10523000032804D101201699FCF77AFD03E004202D
:105240001699FCF775FD1EE23548007804287DD1DB
:105250003D4800780D2821D10020FBF74DFF189024
:105260001898401C00280CD02D49189808720F205F
:10527000354908701898C0B20C90FCF791F9169057
:1052800043E0FCF783F916904B22D200114614201C
:10529000FCF762FB03202249487036E02A48007878
:1052A0000E2806D10D2028490870FCF75BF91690EE
:1052B0002BE0254800780F281BD11948007A40B20E
:1052C0000C90FBF719FF18901898401C002809D083
:1052D0001349189808721898C0B20C90FCF760F93E
:1052E000169012E00E2018490870FCF71DF9169070
:1052F0000BE00D20144908704B22D20011461420F7
:10530000FCF72AFBFCF72EF9169005484078032895
:105310001DD101201699FCF70BFD8DE070000020D7
:105320008C00002060010020AC000020657272201B
:1053300025640D0A00000000FFBF0000F9100008FE
:1053400089120008B2000020B100002004E004200F
:105350001699FCF7EDFC6FE0FE48007802286BD14F
:10536000FD4800780A2821D10020FBF7B5FF1890EE
:105370001898401C00280CD0F649189808720C2088
:10538000F54908701898C0B20C90FCF709F916900E
:1053900045E0FCF7FBF816904B22D2001146142092
:1053A000FCF7DAFA0320EB49487038E0EA48007865
:1053B0000B2807D10A20E8490870FCF7D3F81690AB
:1053C0002DE029E2E44800780C281CD1E148007A5D
:1053D00040B20C90FBF780FF18901898401C0028F2
:1053E0000AD01898C1B2DB4801721898C0B20C906C
:1053F000FCF7D6F8169012E00B20D7490870FCF79E
:1054000093F816900BE00A20D34908704B22D20083
:1054100011461420FCF7A0FAFCF7A4F81690CD482A
:105420004078032804D101201699FCF781FC03E0A1
:1054300004201699FCF77CFC25E1C74800780A286F
:1054400009D1C4494870FDF71DF81690012016993E
:10545000FCF76EFC14E1C04800780B2802D1FBF782
:10546000A3F80DE1BC4800780C2865D1B948017A51
:105470000E9881424BDDB748017A0D98814246DC97
:10548000B448007A401E40B20C900F998847B14949
:10549000097A884226D10A20AF490870AF49012015
:1054A000FCF79CF9FBF7ACFAAD490120FCF796F943
:1054B0001E20FEF7F9FE00210120FCF78FF9A54818
:1054C000007A0C90FBF7C6FCFCF7EAF8002801D143
:1054D000FDF735F8FCF746F8169004201699FCF70E
:1054E00027FCCDE000209F490870FBF774F90020ED
:1054F0000F998847974908720846007A0C90FCF784
:105500004FF8169004201699FCF712FCB8E0002121
:1055100094480170FBF75FF900200F9988478D4987
:1055200008720846007A0C90FCF73AF816900420AE
:105530001699FCF7FDFBA3E0874800780D2807D1FA
:10554000FCF794FF169001201699FCF7F1FB97E009
:10555000814800780E2802D1FBF726F890E07E48BB
:1055600000780F287CD17B48017A0E98814258DD63
:105570007848017A0D98814253DC7648007A401EC3
:1055800040B20C900F9988477249097A88422AD113
:105590000D207149087071490120FCF71FF9FBF7D4
:1055A0002FFA6F490120FCF719F91E20FEF77CFE47
:1055B00000210120FCF712F96648007A0C90FBF7F5
:1055C00049FCFCF70DF8002805D167498870FCF705
:1055D00027FEFCF7B4FFFBF7C5FF169004201699D1
:1055E000FCF7A6FB4CE000205E49087032226421E3
:1055F0000220FCF7B1F9C8231A4601215B48FCF7E9
:1056000027FA00200F998847524908720846007A05
:105610000C90FBF7C5FF169004201699FCF788FB49
:105620002EE000204F490870322264210220FCF74E
:1056300093F9C8231A4601214C48FCF709FA0020C7
:105640000F998847434908720846007A0C90FBF787
:10565000A7FF169004201699FCF76AFB10E0FFE7FD
:105660004B22D20011461420FCF776F90A203A4961
:105670000870FBF777FF169004201699FCF758FB8B
:1056800001E000BF00BFC7E010A80078022841D1A8
:10569000314800780F2803D02F4800780C2839D1E2
:1056A00010A84078302836DB10A84078392832DC42
:1056B0002C48007800280AD12A480078401C294943
:1056C000087010A8407830382249087218E0254840
:1056D000007801280FD123480078401C2149087028
:1056E0001C48007A0A21484310A9497830394018EB
:1056F0001849087204E000201A490870FBF76BF89B
:105700001448007A0C90FBF74BFF16900420169972
:10571000FCF70EFB80E010A84078232871D10E9989
:10572000189888424EDD0D99189888424ADC09483D
:10573000007A401E40B20C900F9988470549097ABB
:10574000884221D10A48FEF737FE062001494870F9
:1057500008460FE08C000020B1000020FFBF0000D1
:10576000FF3F0000B2000020B8070020FF7F0000CC
:1057700060010020007A0C90FBF712FF16900120C8
:105780001699FCF7D5FA47E00020FE49087032224E
:1057900064210220FCF7E0F8C8231A460121FA48E8
:1057A000FCF756F900200F998847F8490872084617
:1057B000007A0C90FBF7F4FE169004201699FCF783
:1057C000B7FA29E00021EF4801703222642102205B
:1057D000FCF7C2F8C8231A460121EB48FCF738F958
:1057E00000200F998847C1B2E8480172007A0C90F6
:1057F000FBF7D6FE169004201699FCF799FA0BE0F9
:10580000FFE710A840782A2806D1FCF719FE169069
:1058100001201699FCF78CFAF3E310A80078012810
:1058200075D110A84078042812D004DC012807D0D4
:1058300002286DD138E008286BD0102868D169E0C3
:10584000FCF7FEFD169001201699FCF771FAB1E005
:10585000CE48007A40B20F90FBF78CFD1890189854
:10586000801C002812D1FBF71BFF5F2802DBFCF72E
:1058700059FE14E06020FBF77DFDC449087208461C
:10588000007A0F90FBF78CFE169008E0BF4918983D
:1058900008720846007A0F90FBF782FE16900420EB
:1058A0001699FCF745FA85E0B848007A5F2802DBD4
:1058B0000020B6490872B548007A40B20F90FBF755
:1058C00031FD18901898801C002812D1FBF7E8FED3
:1058D0005F2802DBFCF726FE14E00020FBF722FD28
:1058E000AA4908720846007A0F90FBF759FE1690F5
:1058F00008E0A649189808720846007A0F90FBF74E
:105900004FFE169004201699FCF712FA52E063E05D
:105910004FE04DE09D48007A002834DD9B48007A36
:105920005F2830DC9948007A401E40B20F90FBF7A8
:10593000F9FC9649097A884210D19548FEF73CFD5A
:105940000620924948700846007A0F90FBF728FE1F
:10595000169001201699FCF7EBF928E00020894900
:105960000870FAF738FF0020FBF7DCFC8749087263
:105970000846007A0F90FBF713FE16900420169944
:10598000FCF7D6F913E000207E490870FAF723FFF0
:105990000020FBF7C7FC7D4908720846007A0F908B
:1059A000FBF7FEFD169004201699FCF7C1F901E003
:1059B00000E000BF00BF7548407801280BD0734855
:1059C0004078032807D071484078062803D0042087
:1059D0001699FCF7ADF999E010A80078022839D1A2
:1059E00010A84078302836DB10A84078392832DCFF
:1059F0006448007800280AD162480078401C614958
:105A0000087010A8407830386049087218E05D4886
:105A1000007801280FD15B480078401C5949087074
:105A20005A48007A0A21484310A949783039401869
:105A30005649087204E0002052490870FAF7CBFE7C
:105A40005248007A0F90FBF7ABFD16900420169990
:105A5000FCF76EF95AE010A8407823284BD118982B
:105A6000002833DD18985F2830DC4848007A401E53
:105A700040B20F90FBF756FC4449097A884210D196
:105A80004348FEF799FC0620404948700846007AD2
:105A90000F90FBF785FD169001201699FCF748F949
:105AA00034E0002037490870FAF795FE0020FBF734
:105AB00039FC364908720846007A0F90FBF770FDF2
:105AC000169004201699FCF733F91FE000202D49A9
:105AD0000870FAF780FE0020FBF724FC2B490872BF
