:020000040800F2
:1000000000100020CD0000085D2400089D1D0008A0
:1000100000000000000000000000000000000000E0
:100020000000000000000000000000000936000889
:1000300000000000000000005125000805370008FE
:10004000FD0000080000000039320008FD00000833
:10005000FD000008FD000008050D0008070D000860
:1000600000000000FD000008FD000008FD00000881
:10007000FD000008FD000008FD0000080000000071
:1000800085370008FD000008FD000008FD0000089D
:10009000FD000008FD000008FD000008FD0000084C
:1000A000FD000008FD000008FD000008FD0000083C
:1000B000FD000008FD0000080348854600F0EEF84A
:1000C0000048004715430008001000200C4880F34A
:1000D00008880C480168090E0B4A914205D10B486B
:1000E0000B4901600B480C4901600C4880470C48E3
:1000F0000047FEE7FEE7FEE7FEE7FEE7FEE700005B
:1001000000100020040000001F0000001810024032
:100110000100000000000140000000000937000855
:10012000B900000830B50B4601460020202201240A
:1001300009E00D46D5409D4205D31D469540491B1B
:100140002546954040191546521E002DF1DC30BD64
:1001500070B500242546002801DA01244042002918
:1001600001DA01254942FFF7DDFFAC4200D04042F1
:10017000002C00D0494270BD0549064A086850432A
:10018000054A8018086040087047014908607047B8
:10019000380100206D4EC6413930000003460B4344
:1001A0009B0703D009E008C9121F08C0042AFAD22D
:1001B00003E00B780370401C491C521EF9D27047B3
:1001C000D2B201E00270401C491EFBD270470022EF
:1001D000F6E710B513460A4604461946FFF7F0FF46
:1001E000204610BD30B505462A460B4610781C78CF
:1001F000521C5B1C002801D0A042F7D0002C03D079
:10020000002802D06D1CEFE7284630BD10B5002253
:1002100000E0521C835C8C5CA34201D1002BF8D11E
:10022000D8B2E1B2401A10BD03460A780270401CF1
:10023000491C002AF9D118467047F0B51FB406468C
:10024000002082B005464024019100901BE00199F6
:1002500022460F46304600F043F8049A059B801A68
:10026000994110D310461946224600F029F8361A53
:100270008F410197224601200021009F00F020F8C5
:1002800038184D4100902046641E0028DFDC019B99
:1002900000982946324607B0F0BD0000064C012503
:1002A000064E05E0E36807CC2B430C3C984710341E
:1002B000B442F7D3FFF704FF4C6A00086C6A0008E9
:1002C00010B5202A04DB0146203A9140002010BDE1
:1002D000914020239C1A0346E3401943904010BDEF
:1002E00010B5202A04DB0846203AD040002110BD7A
:1002F0000B46D340D0402024A21A9140084319460F
:1003000010BD70B58C180578401C6B075B0F01D1D0
:100310000378401C2A1106D10278401C03E00678BD
:100320000E70401C491C5B1EF9D12B0705D400231D
:10033000521E0DD40B70491CFAE70378401CCB1AEF
:10034000921C03E01D780D70491C5B1C521EF9D5F0
:10035000A142D8D3002070BD00B593B0324800F060
:10036000A7F80121480402F013F90121480202F024
:100370002FF90121084602F00BF904200090032117
:10038000684601710021C17169460920C00600F06C
:10039000BDFF264800F0A4FB2348403002902448CB
:1003A00003900020049005200590002006908020F6
:1003B0000790400008908000099020200A900002D9
:1003C0000B9000200C9002A9184800F055FC012168
:1003D000164800F077FB0221134800F061F8012174
:1003E000114800F051F80DA800F0C7F800200D905A
:1003F000012108A8017600200F901190042012908E
:100400000DA9094800F09EF805220421064800F0D5
:100410001FF80121044800F0B8F80121024800F05B
:1004200009F813B000BD000000240140080002409C
:10043000DC0B0020002905D0C2680123DB031A432E
:10044000C26004E0C2680123DB039A43C2607047C4
:1004500010B50B460021846A1C43846200BF0C4621
:1004600014432146416110BD01607047016170472E
:10047000002904D0826801231A43826003E0826865
:1004800002231A4382607047002904D0C268012306
:100490001A43C26003E0C26852085200C26070474B
:1004A000C26802239A43C260C2680A43C2607047AE
:1004B00010B504460548844207D10121401502F0D9
:1004C00097F80021601502F093F810BD0024014058
:1004D00030B501460020002200238C680125ED077D
:1004E0002C438C6000BF8C68E30FDB07521C0F2489
:1004F0002403A24201D0002BF5D18C68E40FE4075D
:10050000002C01D1086C00E0002030BD0146086CD1
:1005100080B2704730B50246002000230124240633
:100520000C40002C05D0946801252D06AC432346D1
:1005300000E013681C460C40002C01D0012000E0B4
:10054000002030BD10B50022C268084B1A400C795B
:1005500064030B6823438C682343CC6823430C69F2
:1005600023434C6923431A43C26010BD03D2FFFFEB
:10057000816804221143816070470021016001718C
:100580008160C160016141617047002905D0C26886
:1005900001239B031A43C26004E0C26801239B034A
:1005A0009A43C2607047000070B50446632C02DDB8
:1005B0000020C04370BD602C04DB632C02DC0120F2
:1005C0000B498870601EC004050E601EC606F60E3C
:1005D000A9000748001D40580121B1400843AA0066
:1005E0000349091D885001F04DFD0120E2E700009C
:1005F000B00700201CB50121480401F0C9FF02200A
:1006000000900320694608710920C00600F07EFEB4
:100610001CBD000010B586B000240121480201F085
:10062000D7FF0121480401F0B3FFFFF7E3FF68465D
:10063000FFF7A3FF00200090694608710290039025
:10064000049005901348FFF733FF012189071148F3
:10065000FFF70CFF69460F48FFF774FF05220221E0
:100660000C48FFF7F5FE0B48FFF732FF0121094860
:10067000FFF7FEFE04E0601C84B2012003F05EFC84
:1006800001210448FFF746FF002801D1642CF2DB6A
:1006900006B010BD00240140F8B5002000900027EE
:1006A000002600F077F80A2003F048FC2448FFF702
:1006B0005FFF002426E02248FFF75AFF06E000987B
:1006C000401C80B20090642003F038FC04211C48D8
:1006D000FFF720FF002802D100986428EFDB1848BC
:1006E000FFF714FF054610211548FFF7BDFE154919
:1006F000694308461449FFF72BFD86B2B81987B243
:10070000601C84B2052CD6DB932179430846EB218B
:10071000FFF71EFD0D498881084681890CA003F072
:100720005BFA0A4880890849CE31884202DA01F032
:10073000E1FC01E001F0C8FC00F025F8F8BD000084
:1007400000240140E40C0000FE0F00008C0000209B
:100750006261743D2025640D0A0000001CB5012172
:10076000480401F015FF082000900121684601713E
:100770000321417100218171C17169460920C006C0
:1007800000F0C4FD1CBD10B508210920C00600F012
:1007900031FE10BD10B508210920C00600F02CFE66
:1007A00010BD000010B50021014803F01BF810BD7A
:1007B0000044014010B50121014803F013F810BDB9
:1007C000004401401CB50121480401F0E1FEFF2076
:1007D000013000900221684601710321417100211E
:1007E000C1716946044800F091FD022208210248C7
:1007F00000F0D4FD1CBD00000004004810B5FFF758
:10080000E1FF00F00DF800F021F804230022024976
:10081000024803F041FD10BD6D1800089807002044
:100820000EB50121480401F0D3FEFF207230019083
:100830002F216846018000210181418069460248DC
:1008400003F054F80EBD00000044014000B585B02F
:100850006021684601800121418000218180B9200A
:100860000290022168468181002101826946084880
:1008700002F0E6FF0821064803F02CF801210448A5
:1008800002F090FF0121024802F09EFF05B000BD7A
:100890000044014010B50021022000F045FF0A236A
:1008A00000220249024803F0F7FC10BDB508000819
:1008B000AC01002030B589B0054600240121C902F1
:1008C0000920C00600F08CFD002845D1424908806F
:1008D00039E04248404A1288815C022000F024FF3F
:1008E0000121C9020920C00600F07AFD01280BD1C0
:1008F0003948008840003A49085A401C364909885E
:100900004900374A505205E0002033490988490020
:10091000334A50523048008840003149085A3C2838
:100920000CDB00202C49098849002D4A50522B48E5
:1009300029490988405C80210843044326480088EF
:10094000401C25490880244800880528C1DD002175
:10095000022000F0E9FE24E000201F4908801CE08E
:100960001D48008840001E49085A02280ADB1A4820
:1009700000884000085A3C2804DA184816490988BB
:10098000405C04430020144909884900144A50522D
:1009900011480088401C104908800F48008805282D
:1009A000DEDB002C15D0012168460173447305225B
:1009B00007A9FFF7F3FB03A80FC803F0E7F80A2223
:1009C0000F21012000F032FF214606A003F004F9B8
:1009D00000BF09B030BD0000140000200E00002050
:1009E000C40100204B657956616C75653A20255825
:1009F0000D0A0000F3B589B006465F2500F05AFDE8
:100A00000746002F01D10BB0F0BD00241AE02846A4
:100A100000F0EAFA0546681C002800D1F3E7E8B2C6
:100A200001A902F0CFFD6846C079B04208D102A901
:100A300002310A98FFF7D6FB002801D02846E2E7EA
:100A4000601CC4B2BC42E2DB0020DCE7F3B589B035
:100A50000646002500F0B0FD0746002F01D10BB07F
:100A6000F0BD00241AE0284600F05EFB0546681C35
:100A7000002800D1F3E7E8B201A902F0A3FD68461F
:100A8000C079B04208D102A902310A98FFF7AAFB47
:100A9000002801D02846E2E7601CC4B2BC42E2DB79
:100AA0000020DCE7012109070140002902D00349A9
:100AB000486001E0024948607047000000040240BD
:100AC00000000240002904D0026801231A4302609A
:100AD00003E00268014B1A4002607047FEFF00000D
:100AE0000168554A11400160002101604160816048
:100AF000C1605249884208D15049083949680F22DB
:100B000011434E4A083A516094E04C4914318842EE
:100B100008D14A4908394968F0221143474A083A3E
:100B2000516087E045492831884209D14349083955
:100B300049680F2212021143404A083A516079E095
:100B40003E493C31884209D13C49083949680F2265
:100B500012031143394A083A51606BE0374950316A
:100B6000884209D13549083949680F2212041143D6
:100B7000324A083A51605DE030496431884209D117
:100B80002E49083949680F22120511432B4A083AA9
:100B900051604FE029497831884209D12749083905
:100BA00049680F2212061143244A083A516041E075
:100BB0002349884208D12249083949680F22114344
:100BC0001F4A083A516035E01D491431884208D166
:100BD0001B4908394968F0221143194A083A516003
:100BE00028E017492831884209D115490839496850
:100BF0000F2212021143124A083A51601AE01049BA
:100C00003C31884209D10E49083949680F22120344
:100C100011430B4A083A51600CE0094950318842AF
:100C200008D10749083949680F2212041143044AC0
:100C3000083A516070470000FEFF000008000240C3
:100C40000804024001460020002201231B070B403C
:100C5000002B02D0064B1A6801E0064B1A681346B7
:100C60000B40002B01D0012000E000207047000065
:100C7000000402400000024010B5002202680D4B43
:100C80001A400C6A8B6823430C6923434C69234345
:100C90008C692343CC6923434C6A23438C6A2343E6
:100CA0001A430260CB6843600B6883604B68C36083
:100CB00010BD00000F80FFFF70B50446632C02DDFD
:100CC0000020C04370BD602C04DB632C02DC0120DB
:100CD0000B498870601EC004050E601EC606F60E25
:100CE000A9000748001D40580121B1408843AA00CF
:100CF0000349091D885001F0C5F90120E2E7000011
:100D0000B0070020704770470149486170470000F4
:100D10000004014010B500200349087001F000FAFA
:100D2000014802F073FC10BD2401002010B5012021
:100D30000349087001F00AFA014802F067FC10BD8F
:100D40002401002010B500201149887000F026F918
:100D5000104800F07DF800F0BFF8602413E0601E3A
:100D6000400981000A48001D4058611ECA06D20E83
:100D7000012191408843611E49098A000449091DE7
:100D80008850601CC4B2642CE9DB01F07BF910BD13
:100D9000B007002000FC000810B500F0FFF8124872
:100DA00000F056F8114800F053F8114800F050F8E0
:100DB00000F092F8012411E0601E400981000D4806
:100DC0004058611ECA06D20E012191408843611E1F
:100DD00049098A0007498850601CC4B2602CEBDBCB
:100DE00001F050F910BD000000F0000800F4000808
:100DF00000F80008B407002010B500F0CFF80F4845
:100E000000F026F80E4800F023F80E4800F020F815
:100E10000D4800F01DF800F05FF800200B498870C5
:100E2000002406E00021A2000848001D8150601C3B
:100E3000C4B2042CF6DB01F025F910BD00F0000867
:100E400000F4000800F8000800FC0008B0070020CB
:100E500030B5044604250B20000400F0B1F8054627
:100E6000042D17D10C480069022108430A49086182
:100E700008464461006940210843074908610B2086
:100E8000000400F09DF805460348006902218843EC
:100E900001490861284630BD0020024004200D4968
:100EA000C968C907C90F002901D0012010E009490C
:100EB000C96810221140002901D0022008E005492C
:100EC000C96804221140002901D0032000E0042059
:100ED0007047000000200240034800698021084359
:100EE00001490861704700000020024070B50446C7
:100EF0000D4604260B20000400F062F80646042E7E
:100F000011D10A4800690121084308490861258078
:100F10000B20000400F054F806460448006940081D
:100F2000400002490861304670BD000000200240C8
:100F300078B506460C460425002000900B200004DE
:100F400000F03EF80546042D24D113480069012124
:100F500008431149086134800B20000400F030F888
:100F60000546042D10D1B01C0090200C009908807B
:100F70000B20000400F024F80546074800694008EB
:100F800040000549086105E0034800694008400049
:100F900001490861284678BD0020024005480069E3
:100FA00080210840002804D00348024948600348D3
:100FB000486070470020024023016745AB89EFCDB0
:100FC00010B503460424FFF769FF044603E0FFF76A
:100FD00065FF04465B1E012C01D1002BF7D1002BCD
:100FE00000D10524204610BD30B50246602A01DB41
:100FF000632A01DD602101E0501CC1B214E0481EEB
:10100000C004030E481EC406E40E9D000948405962
:101010000125A5402840002804D058010019401C93
:1010200040B230BD481CC1B26429E8DB0020C04397
:10103000F7E70000B407002030B50246632A01DC60
:10104000602A01DA632101E0501EC1B214E0481E9B
:10105000C004030E481EC406E40E9D000948405912
:101060000125A5402840002804D058010019401C43
:1010700040B230BD481EC1B26029E8DA0020C0434A
:10108000F7E70000B407002030B50246602A01DB14
:10109000632A01DD602101E0501CC1B214E0481E4A
:1010A000C004030E481EC406E40E9D0009484059C2
:1010B0000125A5402840002804D158010019401CF2
:1010C00040B230BD481CC1B26429E8DB0120C043F6
:1010D000F7E70000B407002030B50246632A01DCC0
:1010E000602A01DA632101E0501EC1B214E0481EFB
:1010F000C004030E481EC406E40E9D000948405972
:101100000125A5402840002804D158010019401CA1
:1011100040B230BD481EC1B26029E8DA0120C043A8
:10112000F7E70000B407002030B50246642A01DA70
:10113000012A01DA012101E0501CC1B214E0481E6D
:10114000C004030E481EC406E40E9D000948405921
:101150000125A5402840002804D058010019401C52
:1011600040B230BD481CC1B26429E8DB0020C04356
:10117000F7E70000B407002030B502465F2A01DC23
:10118000012A01DA012101E0501CC1B214E0481E1D
:10119000C004030E481EC406E40E9D0009484059D1
:1011A0000125A5402840002804D058010019401C02
:1011B00040B230BD481CC1B26029E8DB0020C0430A
:1011C000F7E70000B407002030B50246602A01DAD4
:1011D000012A01DA5F2101E0501EC1B214E0481E6D
:1011E000C004030E481EC406E40E9D000848405982
:1011F0000125A5402840002804D058010019401CB2
:1012000040B230BD481EC1B20029E8D1481EF8E7FF
:10121000B407002030B502465F2A01DC012A01DA5A
:10122000012101E0501CC1B214E0481EC004030EAD
:10123000481EC406E40E9D00094840590125A540FA
:101240002840002804D158010019401C40B230BD8C
:10125000481CC1B26029E8DB0120C043F7E7000069
:10126000B407002030B50246602A01DA012A01DA0B
:101270005F2101E0501EC1B214E0481EC004030EFD
:10128000481EC406E40E9D00084840590125A540AB
:101290002840002804D158010019401C40B230BD3C
:1012A000481EC1B20029E8D1881EF8E7B407002023
:1012B000F7B50C4615460027002D01D10120FEBDD3
:1012C000FFF76CFE002616E001E0781C87B221686B
:1012D0000098FFF72DFE042801D00A2FF5DB0A2F16
:1012E00003DBFFF7F9FD0120E9E70098001D0090FE
:1012F000241D701C86B2E81CC117890F09188910BB
:10130000B142E1DCFFF7E8FD0020D8E7F0B50A467E
:1013100000210023002400BF3DE001258D402B4625
:1013200015681D402C469C4234D11579012D02D000
:101330001579022D16D185684F000326BE40B543AE
:10134000856055794E00B54086683543856085884F
:1013500001268E40B5438580858896798E40B6B249
:101360003543858005684F000326BE40B5430560C0
:1013700015794E00B540066835430560C5684F00D5
:101380000326BE40B543C560D5794E00B540C6685A
:101390003543C560491C1029BFD3F0BDF0B500230B
:1013A00000244D07EE0E1546B5402B46CD10AE007D
:1013B00005462035AD594E07F70E0F26BE40B54302
:1013C000CE10B60007462037BD51CD10AE003D46C9
:1013D000AD591D432C46CD10AD003E467451F0BDB5
:1013E00002460020138A0B40002B01D0012000E0B0
:1013F0000020704701857047816170470349887AF2
:101400000102024A527B114308467047380000200F
:101410000349887A0102024A527C11430846704708
:10142000380000200349087C0102024A127C114363
:1014300008467047380000200349887C0102024AB0
:10144000D27B114308467047380000200349C87C0E
:101450000102024AD27B114308467047380000203F
:101460000349C87C0102024A127D114308467047B5
:101470003800002070B50446632C01DD002070BDEB
:101480000A212046FEF764FE06490D5C0A2120462B
:10149000FEF75EFE0348405C2902084305462846E5
:1014A000EDE70000380000200148006870470000A8
:1014B0000800002010B50020602110E04A1E5209EB
:1014C0009300084AD2584B1EDC06E40E0123A340C9
:1014D0001A40002A01D0421CD0B24A1CD1B2642961
:1014E000ECDB10BDB407002070B5002600250121FB
:1014F0001B48FEF7BDFF04E0681C85B2012002F026
:101500001DFD18491648FFF705F8002801D1642D84
:10151000F2DB1348FFF72CF8002504E0681C85B2C5
:10152000012002F00BFD0220FFF78CFB002801D107
:10153000642DF3DB0220FFF7B5FA002405E060001C
:101540000949085A8619601C84B2052CF7DB074943
:10155000714308460649FEF7E5FD0646304670BD74
:101560000024014001000001DC0B0020E40C00001D
:10157000FB4F000010B50020012110E04A1E520967
:101580009300084AD2584B1EDC06E40E0123A34008
:101590001A40002A01D0421CD0B24A1CD1B26029A4
:1015A000ECDB10BDB407002001468868002800D19C
:1015B00070474888C0B2FBE710B50020012110E059
:1015C0004A1E52099300084AD2584B1EDC06E40E0C
:1015D0000123A3401A40002A01D0421CD0B24A1C69
:1015E000D1B26429ECDB10BDB407002070B505460C
:1015F0000E46022D01D1094C05E0012D01D1084C08
:1016000001E0002070BD002E03D00120A1688847B2
:1016100002E00020A16888470120F3E728000020AD
:101620001800002010B5012149030248FFF7E4FE2D
:1016300010BD00000008004810B501214903024810
:10164000FFF7D8FE10BD000000080048F8B50646B8
:101650000F46022E01D1144C05E0012E01D1134C8E
:1016600001E00020F8BD072519E00120A84038401E
:10167000002803D001202168884702E0002021686B
:101680008847012002F05AFC002061688847012049
:1016900002F054FC012061688847681E45B2002DA5
:1016A000E3DA0120DEE70000280000201800002017
:1016B00070B504460D46022C03D1012C01D1002047
:1016C00070BD00212046FFF791FFE9B22046FFF7E9
:1016D000BDFF2804010E2046FFF7B8FF0121204678
:1016E000FFF784FF0120EBE770B504460D46022C9E
:1016F00003D1012C01D1002070BD00212046FFF74D
:1017000075FFE9B22046FFF7A1FF2804010E20462D
:10171000FFF79CFF00212046FFF798FF012120469C
:10172000FFF764FF0120E7E770B505460E46022D7E
:1017300001D10B4C05E0012D01D10A4C01E0002044
:1017400070BD0020A168884700F07EFA3146284627
:10175000FFF77CFF0120A16888470120F0E7000027
:1017600028000020180000201CB50446012040037A
:1017700000900121684601710321417100218171AE
:10178000C1710121C80400F003FF69462048FFF73A
:10179000BDFDFFF747FF02202040002819D001219E
:1017A000880400F0F5FE0F200003009069461948F8
:1017B000FFF7ACFD012149031648FFF71BFE01218D
:1017C000C9031448FFF716FE012109031148FFF76A
:1017D00011FEE007C00F00280FD00121480400F0DF
:1017E000D7FEF020009069460920C006FFF78EFD65
:1017F00020210920C006FFF7FDFD07490120FFF762
:1018000057FF00210220FFF78FFFFFF715FF1CBDD8
:101810000008004800040048FF3F000010B5FEF734
:10182000F9FEFEF79BFFFEF737FF10BD70B50446CB
:101830000D46164600200C4948700846C660856073
:101840004460002C04D140780421084306494870C4
:10185000FFF72AFE04490861084640780221084340
:101860000149487070BD00000801002070B50546B0
:101870002B480078002851D129484078022108409F
:1018800000284BD0FFF710FE044625480069A0420F
:1018900044D823484078C007C00F002817D02048FC
:1018A000C06800191E490861084640784008400099
:1018B0004870FEF777FF1A48407804210840002856
:1018C0002CD117484068401E1549486026E014484E
:1018D000406800280CD112484078042108400028B4
:1018E00006D10F484078022148400D49487015E064
:1018F0000B48806800190A490861084640780121B0
:10190000084307494870FEF755FF0548407808210D
:101910000840002802D001200149487070BD000035
:1019200008010020F8B504460D4616461F46154826
:10193000844203D101201449087609E01348844207
:1019400003D101201049087602E000200E490876F4
:1019500000200D4948700846C76086604560848253
:10196000002D04D140780421084307494870FFF74F
:101970009BFD054908610846407802210843024959
:101980004870F8BDFF7F000070000020FFBF00001E
:1019900070B505460C462B0002F02EF90910061D05
:1019A00044324444443D44000120204948700846E4
:1019B0008482818A0120FFF77BFE34E000201B49EE
:1019C000487008468482C08AC8820846818A0120FD
:1019D000FFF76EFE27E0002014494870C820C86059
:1019E00088600220486008468482FFF75DFD0F4949
:1019F000086108464078022108430C49487012E00B
:101A000006200A494870C820C860886000204860E5
:101A10000846848207E005484078082108430349C6
:101A2000487000E000BF00BF70BD000070000020E3
:101A300010B5022300220249024802F02DFC10BD1D
:101A4000491A0008E801002070B5054650480078A2
:101A500000287DD14E4840780221084000285ED001
:101A6000FFF722FD04464A480169A14257D8407851
:101A7000C007C00F002828D04548C0680019444955
:101A80000861084640784008400048700846007EDB
:101A9000002804D03F490120FFF70AFE04E03C483B
:101AA000C18A0120FFF704FE39484078042108402C
:101AB000002834D136484068401E35494860084601
:101AC000406800282BD1087629E03148406800287A
:101AD0000CD12F48407804210840002806D12C481A
:101AE0004078022148402A49487018E02848806818
:101AF0000019274908610846407801210843244914
:101B000048700846818A0120FFF7D2FD20484078BE
:101B100008210840002802D001201D4948701C48B7
:101B2000407810210840002830D0FFF7BDFC044663
:101B300017480069A04229D815484078C007C00F4F
:101B4000002813D01248407840084000104900E0B7
:101B50001CE0487008464078102148400C49487005
:101B60000846C18A0120FFF7A3FD0FE008488068FE
:101B700000190749086108464078012108430449D3
:101B800048700846818A0120FFF792FD70BD000071
:101B900070000020FF3F000070B505460C462B008A
:101BA00002F02AF80910061B412F4141413A410039
:101BB00001201E49487008468482818A0220FFF76E
:101BC00093FD31E0002019494870401E8882084684
:101BD000818A0220FFF788FD26E000201349487023
:101BE000C820C8608860486008468482FFF75CFCB3
:101BF0000E49086108464078022108430B494870A5
:101C000012E0062009494870C820C860886000209A
:101C100048600846848207E0044840780821084369
:101C20000249487000E000BF00BF70BD50000020B6
:101C300010B5022300220249024802F02DFB10BD1C
:101C4000D91C0008D001002010B52248407802219C
:101C50000840002805D11F4840780421084000288A
:101C60001DD01C484078C007C00F00280BD0194871
:101C7000017D0220FFF7EAFC1648808A011202204B
:101C8000FFF7E4FC25E00020002822D1FF210220FC
:101C9000FFF7DCFCFF210220FFF7D8FC19E00D481C
:101CA0004078C007C00F00280BD00A48017D0220F1
:101CB000FFF7CCFC0748808A01120220FFF7C6FC20
:101CC00007E0FF210220FFF7C1FCFF210220FFF700
:101CD000BDFC10BD5000002070B505462D480078B1
:101CE000002856D12B48407802210840002850D0C7
:101CF000FFF7DAFB044627480069A04249D8254887
:101D00004078C007C00F002819D02248C0680019C9
:101D100020490861084640784008400048701E4944
:101D20000220FFF7E1FC1B4840780421084000280E
:101D30002FD118484068401E1649486029E01548D0
:101D4000406800280CD1134840780421084000283E
:101D500006D110484078022148400E49487018E0EA
:101D60000C48806800190B49086108464078012139
:101D70000843084948700846818A0220FFF7B4FCEE
:101D80000448407808210840002802D00120014979
:101D9000487070BD50000020FFFF000000BFFEE74C
:101DA00038B5044601236A462146B42000F0D4F831
:101DB000002802D06846007838BD00F0AFF8002057
:101DC000FAE773B504460025012301AA2146B42091
:101DD00000F000F90546002D01D100F09FF82846DB
:101DE0007CBD000010B50446002C04D10121074839
:101DF000FFF700FB03E001210448FFF7FDFA00F0C4
:101E000007F801210148FFF7F7FA10BD0004004868
:101E100010B5142002F092F802210848FFF7ECFAFE
:101E2000142002F08BF801210448FFF7D9FA044688
:101E300002210248FFF7DEFA204610BD00040048E8
:101E40001CB50121880400F0A3FB032000900121B0
:101E50006846017103214171012181710021C17125
:101E600069460248FFF752FA1CBD00000004004812
:101E700070B50024002509E06006040EFFF7C8FFD6
:101E8000002801D0601CC4B2681CC5B2082DF3DB69
:101E9000204670BD70B50446002513E08020204028
:101EA000C611002E04D101210D48FFF7A3FA03E06B
:101EB00001210B48FFF7A0FA6006040EFFF7A8FF08
:101EC000681CC5B2082DE9DBFFF7A2FF002803D08C
:101ED00000200449087002E001200249087070BD2A
:101EE000000400480C00002010B501210A48FFF74B
:101EF00083FA02210848FFF77FFA142002F01EF847
:101F000001210548FFF776FA142002F017F80221A4
:101F10000148FFF76FFA10BD0004004810B5022118
:101F20000C48FFF767FA01210A48FFF763FA14200B
:101F300002F004F802210748FFF75EFA142001F0CE
:101F4000FDFF01210348FFF757FA142001F0F6FFC7
:101F500010BD000000040048FFB581B006461446DD
:101F60001F46FFF7C1FF3046FFF794FF184800787F
:101F7000002801D105B0F0BD0298FFF78BFF14488F
:101F80000078002800D1F5E7FFF7AEFF711CC8B25A
:101F9000FFF780FF0E480078002800D1EAE700250F
:101FA00008E0FFF765FF20700020FFF71BFF641CAF
:101FB000681CC5B2781EA842F3DCFFF759FF2070F9
:101FC0000120FFF70FFFFFF7A9FF0120D2E7000074
:101FD0000C000020FFB581B00E4614461F46FFF7E7
:101FE00083FF0198FFF756FF10480078002801D1C1
:101FF00005B0F0BD3046FFF74DFF0C4800780028D3
:1020000000D1F5E700250AE02078FFF743FF0748F5
:102010000078002800D1EBE7641C681CC5B2BD4203
:10202000F2DBFFF77BFF0120E2E700000C0000205D
:1020300010B5142210491148FEF7B0F80F48008877
:102040000F49884206D00D480069FF210902084067
:1020500000280FD0002406E00021A2000748001D40
:102060008150601CC4B2042CF6DB00200349887048
:1020700000F008F810BD000000EC0008B0070020D8
:10208000FFFF000000B585B014220C496846FEF73A
:1020900085F8684600880A49884206D0FEF77EFF28
:1020A0000648FEF7D5FEFEF717FF01200549088018
:1020B00014220248FFF7FCF805B000BD00EC000850
:1020C000FFFF0000B007002010B50020064908708F
:1020D0000648C08A0121490308430449C8820449CB
:1020E0000120FFF7E5FA10BD6C0000207000002011
:1020F000FF3F000010B50120064908700648C08A5D
:102100000121490388430449C88204490120FFF79B
:10211000CFFA10BD6C00002070000020FF1F0000EF
:1021200010B50020064908700648C08A012109033D
:1021300008430449C88204490120FFF7B9FA10BDD9
:102140006D00002070000020FF3F000010B501204E
:10215000064908700648C08A0121090388430449DA
:10216000C88200210120FFF7A3FA10BD6D000020F6
:102170007000002010B5002402F080F9002800D182
:1021800010BD02F045F900F0CBFC0121080700F07A
:102190000FFA012000F09CF9012000F039FA00202C
:1021A00000F036FA012000F08FFB04E0012001F07E
:1021B000C5FE601C84B2412000F062FB002801D102
:1021C000642CF3DB00F09CFF0121080200F0B0F961
:1021D000012000F091F900F099F90148D0E70000E2
:1021E000FFFF000010B5002402F05EF9002800D1C6
:1021F00010BD00F095FC0121080700F0D9F901207D
:1022000000F066F9012000F003FA002000F000FA67
:10221000012000F059FB04E0012001F08FFE601C5A
:1022200084B2412000F02CFB002801D1642CF3DBA8
:1022300000F066FF0121080200F07AF9012000F0A9
:102240005BF900F063F90148D2E70000FFFF0000EE
:1022500010B5FFF7B1F9002803D0FFF7E3F8044603
:102260000DE0FFF7FDF80446322264210220FFF75B
:10227000DDFAC8231A4601210548FFF753FB05483C
:1022800001F0C4FE032004494870204610BD000040
:10229000FF7F0000580100208C00002010B50D20A9
:1022A00003494870FFF7C8F80446204610BD0000F7
:1022B0008C00002010B50A2003494870FFF7BCF8D5
:1022C0000446204610BD00008C00002010B50749D0
:1022D0000978042903D10D21054A117002E00A2171
:1022E000034A1170FFF7A8F810BD00008C00002011
:1022F000AC00002070B504F0CFFA01F009FEFFF742
:1023000097FE0320FFF730FAFFF756F9002803D0B5
:10231000FFF788F8044602E0FFF7A2F80446002120
:102320000120FFF735FB21460120FFF735FC01F0C6
:10233000A9FFFFF77DFCFFF77BFB00F01FFE01F01C
:1023400013FBFFF77DFD02F0B7F800F003F900F092
:10235000A7FBFEF79FFA00F03DF8FFF75FFAFEF7E4
:102360004DFA00F04FF800210120FFF711FB032088
:1023700004494870FFF756F8054629460420FFF740
:102380000BFC70BD8C00002010B5032189020448AD
:10239000FFF732F80121C9020148FFF72BF810BD01
:1023A0000004004810B5032189020448FFF724F80F
:1023B000012189020148FFF71DF810BD0004004803
:1023C00010B5032189020248FFF716F810BD00007E
:1023D000000400481CB50121880400F0D9F803204E
:1023E00080020090012168460171032141710021A2
:1023F000817169460248FEF789FFFFF7E1FF1CBDC6
:102400000004004810B5124812490A780270497851
:1024100041700078FF2803D00D484078FF280CD188
:1024200000200B490870487014200B494870FFF7D2
:1024300077FE074801F0EAF808E005480078002830
:1024400002D1FFF76DFE01E0FFF780FE10BD000036
:102450002401002000E800088C00002070470000E4
:1024600000218278002A27D0184A03231B02D218A1
:1024700003789B109B00D15802789207D30EFF225D
:102480009A400B469343194642789207120E0378FE
:102490009B07DB0E9A4011430C4A03231B02D21800
:1024A00003789B109B00D1500278D306DB0E0122EB
:1024B0009A40064B1A6007E00278D306DB0E012231
:1024C0009A40024B80331A607047000000E100E040
:1024D000002807D007490968FF2201321143054A45
:1024E000116006E003490968FF2201329143014A65
:1024F0001160704700700040034909688200114371
:10250000014A1160704700000070004006480068F2
:102510000221084304490860044800690421084373
:102520000249086130BF70470070004000ED00E0D4
:10253000002905D0054A52680243044B5A6004E062
:10254000024A52688243014B5A6070470070004053
:102550007047000010B503200849487000204872F9
:102560008872042300220649064801F095FEFEF712
:102570009BFF054940180549086010BD8C000020EC
:10258000D146000800020020C4090000A400002079
:10259000002905D0054A52690243044B5A6104E000
:1025A000024A52698243014B5A617047001002404F
:1025B000002905D0054AD2690243044BDA6104E0E0
:1025C000024AD2698243014BDA617047001002402F
:1025D000002905D0054A92690243044B9A6104E040
:1025E000024A92698243014B9A617047001002408F
:1025F000002905D0054AD2680243044BDA6004E0A2
:10260000024AD2688243014BDA60704700100240F0
:10261000002807D00749096A012212041143054A1C
:10262000116206E00349096A012212049143014A3A
:102630001162704700100240FEB5044600250026D6
:1026400000200290019000900027864840680C21ED
:1026500008400546002D06D0042D07D0082D08D0CF
:102660000C2D2CD128E0804820602BE07E48206093
:1026700028E07C4840680F218904084006467948D4
:1026800040680321C90308400290B00C861C0298E0
:10269000002803D17548374647430BE07148C06AAC
:1026A0000007000F401C01906F480199FDF73AFDAB
:1026B00070430746276005E06D48206002E06A48E5
:1026C000206000BF00BF67484068F0210840054611
:1026D0002D096848405D009020680099C8406060FE
:1026E0006048406807210902084005462D0A6148F4
:1026F000405D009061680098C140A1605948006B3E
:10270000FF2101310840884202D05B48E0600DE0C3
:1027100054484068012189030840884203D0A068DA
:102720004008E06002E0A0688008E0604D48006B6F
:1027300040210840402802D05048206102E001209A
:10274000C00320614748006B10210840102802D0C8
:102750004548606101E0206860614248006B800785
:10276000800F002802D1A068A06119E03D48006BED
:102770008007800F012802D12068A06110E039484D
:10278000006B8007800F022802D18003A06107E060
:102790003448006B8007800F032801D13248A061C4
:1027A0003048006B032109040840002802D1A068CA
:1027B000E06120E02B48006B03210904084001215F
:1027C0000904884202D12068E06114E02548006BCA
:1027D00003210904084001214904884202D18010E4
:1027E000E06108E01F48006B0321090408408842AB
:1027F00001D11D48E0611B48006B0321890408409A
:10280000002802D1A068206220E01648006B032156
:102810008904084001218904884202D1206820628D
:1028200014E01048006B0321890408400121C90409
:10283000884202D10011206208E00A48006B03219F
:1028400089040840884201D1074820620548006B8E
:1028500080210840802802D00548606200E067625D
:10286000FEBD00000010024000127A0000093D0089
:10287000006CDC0226010020809FD5001280000041
:1028800010B502460021002300205111002902D179
:102890000C4C23680BE0012902D10A4C236A06E0A4
:1028A000022902D1074C636A01E0064C636BD10632
:1028B000C90E01248C401C40002C01D0012000E0F6
:1028C000002010BD00100240002806D00649496AC9
:1028D00001221143044A516205E00349496A49084B
:1028E0004900014A5162704700100240002807D099
:1028F0000749096A0122D2031143054A116206E021
:102900000349096A0122D2039143014A11627047C7
:10291000001002400249096A0143014A11627047EE
:102920000010024070B588B00546932168460172D8
:10293000702141720021817300240BE0295D02AAFD
:10294000A01C11546946887B295D484069468873FC
:10295000601CC4B2042CF1DB03AA0332072102A8D5
:1029600000F018F80821084600F049F807A802AB63
:10297000092202A900900C2000F050F90646002E12
:1029800004D16846007F182800D100E002263046B6
:1029900008B070BDF7B5074615460421052000F0C4
:1029A0002EF80021012000F0DFF880210B2000F03C
:1029B0008DFA002405E0395D092000F0D5F8601C8F
:1029C000C4B201988442F6DB0321012000F0CCF868
:1029D000FF2400BF052000F0ABF80646601EC4B21D
:1029E000002C03D0042030400028F3D0222000F037
:1029F0009FF82870212000F09BF86870FEBD70B52C
:102A000005460C460026284600F092F80646304659
:102A1000A0430146284600F0A7F870BDF0B585B088
:102A200004460F46FF2214216846FDF7C9FB69469C
:102A3000262000F0A8F90546002D02D0022005B09E
:102A4000F0BD69460E7830024978084306460120F9
:102A50008002864202D10020207008E0012040025E
:102A6000864202D10120207001E0FF2020706846DC
:102A700000F09CF80546002D01D00220DFE76846F3
:102A8000FFF750FF0546002D01D00220D7E700F0E8
:102A900063F9042269463846FDF780FB0020CEE743
:102AA00010B5C82001F04AFA00F09EF9012001F0AB
:102AB00045FA00F0A1F9012001F040FA00F094F984
:102AC000012001F03BFA0F21012000F04DF8012018
:102AD00001F034FA3D21112000F046F81E212D208E
:102AE00000F042F800212C2000F03EF88D212A2031
:102AF00000F03AF83E212B2000F036F84021152056
:102B000000F032F800F04CF8642300220249034838
:102B100001F0C2FB10BD0000092E0008E80B0020E8
:102B200010B500F03DF83021012000F0CFF910BDC4
:102B300070B5044640210B48FEF75CFC012001F013
:102B4000FDF960007E21084004468034204600F0F4
:102B5000EBF900F0CBF9054640210248FEF74CFCAA
:102B6000284670BD0004004870B504460D4640215B
:102B70000A48FEF73FFC012001F0E0F960007E21E9
:102B800008400446204600F0CFF9284600F0CCF972
:102B900040210248FEF730FC70BD000000040048F0
:102BA00010B503211420FFF72AFF10BDF0B587B040
:102BB0000546002708210846FFF721FF00210D20C8
:102BC000FFF7D2FF80210E20FFF719FF93216846FF
:102BD00001712021417106A801AB022201A90090D8
:102BE0000C2000F01BF80646002E10D1002407E050
:102BF00001A8005D285501A8005D4740601CC4B2D3
:102C0000042CF5DB01A8005DB84200D0022680212B
:102C10000E2000F05BF9304607B0F0BDFFB583B081
:102C20000646022002900020019000900E2E04D152
:102C3000122001901020009005E00C2E03D1772087
:102C4000019030200090802201981043014602201C
:102C5000FFF78AFF80210420FFF7D1FE0021012029
:102C6000FFF782FF80210A2000F030F9002506E0FE
:102C70000498415D0920FFF777FF681C85B205982D
:102C80008542F5DB31460120FFF76EFF0C2E03D1A4
:102C900080210D2000F01AF97D252D0100BF0420B0
:102CA000FFF746FF0446681E85B2002D07D0E007F7
:102CB000C00F002803D1009820400028EFD08021C9
:102CC0000D20FFF79CFE002D3BD00620FFF730FFC4
:102CD0001B210840002832D1029001982040C007F3
:102CE000C00F002801D0012002900C2E29D10A200B
:102CF000FFF71EFF04460C20FFF71AFF47077F0F60
:102D0000002F06D0601EC000C019C1B20C9801701F
:102D100003E0E006010E0C980170002C00D10124A4
:102D2000122C00DD1224002506E00920FFF700FF29
:102D300006994855681C85B2A542F6DB01E00220E1
:102D4000029080210C2000F0C1F800210120FFF743
:102D50000BFF029807B0F0BD00B587B05021684660
:102D6000017100214171821D022101A8FFF712FEAD
:102D700006A801AB042201A900900C20FFF74EFF2A
:102D8000002007B000BD70B588B005460C4608218C
:102D90000846FFF734FE07210D20FFF7E5FE03216B
:102DA000142000F093F86846057207A802AB0122D0
:102DB00002A900900C20FFF731FF0646002E0AD131
:102DC0006846007F102806D16846007A2070684661
:102DD000407A607000E00226304608B070BD10B541
:102DE00000F002F810BD000010B580210148FEF788
:102DF00003FB10BD0004004810B580210148FEF718
:102E0000F9FA10BD0004004870B58CB006460020E9
:102E10000B9028484078C01E030000F0EDFE0B0721
:102E2000464608090A460B46460C460000BF00BF4E
:102E300000BF00BF00BFFDF78FFAFEF755FB054648
:102E4000962D31D209A90BA8FFF7E8FD00282BD158
:102E50000290002108A8017203216846017305222F
:102E600009A90D30FDF79AF9052207A96846FDF773
:102E700095F903A80FC800F089FE1E2250210120F9
:102E8000FEF7D4FC0CA000F0A7FE002406E009A881
:102E9000015D0CA000F0A0FE601CC4B2042CF6DBA7
:102EA00009A000F099FE00BF00BF00BF00BF0CB03A
:102EB00070BD00008C000020636172644E756D3A35
:102EC000200D0A00255800000D0A000070B50546C7
:102ED0000C4600262846FFF72BFE064630462043C8
:102EE00001462846FFF740FE70BD000070B5002483
:102EF000002513E008210B48FEF77CFA6006040E5B
:102F00000848008A10210840002801D0012004430D
:102F100008210448FEF770FA681CC5B2082DE9DBE9
:102F2000204670BD0004004870B5044600251BE033
:102F300008211148FEF75EFA80202040002804D0C6
:102F400020210D48FEF758FA03E020210A48FEF739
:102F500051FA6006040E08210748FEF74DFA0120D9
:102F600000F0ECFF681CC5B2082DE1DB202102480F
:102F7000FEF740FA70BD0000000400481CB50121B6
:102F80008804FFF705FB0121684601716820009065
:102F9000002168468171C17103214171694617485A
:102FA000FEF7B4F908211548FEF724FA202113484A
:102FB000FEF720FA40211148FEF71EFA012168466B
:102FC000017180200090002168468171C171032148
:102FD000417169460948FEF799F9FFF70DFF002195
:102FE000684601711020009068468171C17103210B
:102FF000417169460148FEF789F91CBD000400488B
:1030000010B503211420FFF761FF10BD38B502464B
:103010000024009400230020CA24174D6C6253241E
:103020006C62002905D02C46A4681443AC600120D2
:103030001DE0114CA46894430F4DAC6000BF0E4CD2
:10304000E468150A2C402346009C641C009401256A
:10305000AD03009CAC4201D0002BF0D0064CE468DC
:10306000150A2C40002C01D1002000E00120FF2493
:10307000014D6C6238BD00000028004030B50346A9
:103080000020CA24064D6C6253246C6214060C4363
:103090002046034C40346060FF246C6230BD000069
:1030A00000280040014600BFF020084000110A231C
:1030B000584302460807000F8018C0B27047014607
:1030C000002204E0501CC2B208460A38C1B20A29E4
:1030D000F8DA1007000E08437047000010B5002111
:1030E000010980220A4392B2D243044BDB68802458
:1030F00023401A43014BDA6010BD00000028004055
:1031000000B589B001204002FFF704FC0120FFF761
:10311000EDFB00F0FBF90020069078200790FF20DF
:103120002D30089006A800F0EDF800216846C17225
:103130000172417281723121017500200490C8072B
:10314000039002AAC10D012000F008F90F2201210D
:103150000802FFF793FF0121080300F0A1F8012105
:103160000802FFF753FF00216846C17101714171E8
:10317000817101A9012000F05DF909B000BD0000D6
:1031800008B50022009200200021124AD268402394
:103190001A40002A1BD1421E0E4BDA6000BF0D4AB6
:1031A000D26840231A401146009A521C00921B021A
:1031B000009A9A4201D00029F1D0064AD2684023F1
:1031C0001A40002A01D0012002E0002000E0012086
:1031D00008BD0000002800400348C06880218843E3
:1031E0000149C860704700000028004070B50146E2
:1031F0000020002200230F4C246804252C40224686
:103200000C4C403CA4680C408E0C0D46F540ED0B78
:1032100015402C432346074C403CE4680D092C40E4
:103220002246002B04D094B2002C01D0012000E0F3
:10323000002070BD4028004010B501208003FFF73A
:10324000D5FF00280BD00DA000F0C6FC01208003A4
:10325000FFF744FF01204004FDF756FD0CE001207C
:103260000003FFF7C3FF002806D009A000F0B4FC5C
:1032700001200003FFF732FF10BD000077616B658E
:10328000757050696E20697320776F726B0D0A003C
:10329000616C726D4120697320776F726B0D0A004B
:1032A00010B5CA22164B5A6253225A62002911D015
:1032B0001A46926804240346A3431A43104B9A60AB
:1032C0000F4A40321268042303401A430C4B403328
:1032D0001A6010E00A4A926804240346A3439A4302
:1032E000074B9A60064A40321268042303409A430F
:1032F000034B40331A60FF22014B5A6210BD00009D
:103300000028004030B504460025CA201249486212
:1033100053204862FFF734FF002800D117E00E4821
:103320008068402188430C4988600846806821688D
:10333000084309498860A068086108460069A188B7
:103340000904084304490861FFF746FF0125FF20EF
:1033500001494862284630BD00280040F8B50546BE
:1033600014460026002D0ED13148806840210840C7
:10337000002800D002E00020E07000BFA068002814
:1033800000D11BE01AE02A4880684021084000284C
:1033900004D02078FFF786FE064602E00020E070A9
:1033A00000BFA068002804D1207BFFF77BFE064603
:1033B00004E0207BFFF776FE064600BF002D12D00A
:1033C00020780004617809020843A1780843E17875
:1033D00009040843217B09060843A1680843616882
:1033E0000843064619E02078FFF769FE0704607875
:1033F000FFF765FE00020743A078FFF760FE074372
:10340000E07800040743207BFFF759FE00060743DE
:10341000A0680743606807433E46CA2004494862E3
:10342000532048620846C661FF204862F8BD00008C
:1034300000280040F8B505460C4600260020009004
:10344000002D0AD12F48806840210840002800D074
:1034500002E00020E07000BF0EE02A4880684021B2
:103460000840002804D02078FFF71CFE064602E042
:103470000020E07000BF00BF002D0BD020780004BA
:10348000617809020843A1780843E17809040843F8
:10349000064610E02078FFF712FE07046078FFF779
:1034A0000EFE00020743A078FFF709FE0743E0780D
:1034B000000407433E46CA2012494862532048622E
:1034C000FFF75EFE002801D1009016E00E48304064
:1034D0000C490860FFF780FE0A48806820210840F8
:1034E000002808D100F012F8002801D1009004E073
:1034F0000120009001E001200090FF200149486276
:103500000098F8BD002800407F7F7F0008B50022AA
:10351000009200200021174A926820231A40002AB6
:1035200001D0012025E0CA22124B5A6253225A626E
:103530001A46D268A0239A430E4BDA6000BF0D4AA8
:10354000D26820231A401146009A521C00929B0216
:10355000009A9A4201D00029F1D0064AD26820236D
:103560001A40002A01D0012000E00020FF22014B78
:103570005A6208BD0028004070B500F019F80546F1
:103580000120A84003218903884384B207480078BA
:10359000002805D00121490320468843044602E063
:1035A000012040030443204670BD00006C00002051
:1035B00070B5FCF7E1FD05460C21FCF7C9FDCCB266
:1035C000204670BD70B504460E46002C01D0642C18
:1035D00002DB0020C04370BD5F2C04DC601E400194
:1035E0000749451804E02046603840010549451860
:1035F000202229463046FCF7D1FD2020EBE70000D1
:1036000000F0000800FC00087047000010B50446F8
:10361000FDF7C4FC0448FDF71BFC21880248FDF7B8
:1036200065FCFDF759FC10BD00E800080CB5002052
:1036300001900090314800680121090408432F4996
:10364000086000BF2D48006801214904084000902F
:103650000198401C01900098002804D1052109031D
:1036600001988842EED125480068012149040840AC
:10367000002802D00120009001E000200090009876
:10368000012839D111201E4908601C4840681B4997
:103690004860084640684860084640687F21C90382
:1036A00088431649486008464068112109040843C8
:1036B00012494860084600680121090608430F497D
:1036C000086000BF0D480068012149060840002835
:1036D000F8D00A48406880088000084948600846D9
:1036E0004068022108430549486000BF034840681C
:1036F0000C2108400828F9D10CBD00000010024040
:10370000002002407047000010B51B4800680121EE
:103710000843194908600846406818490840164996
:103720004860084600681649084013490860084682
:1037300000680121890488430F49086008464068F1
:103740003F21090488430C4948600846C06A0009C3
:103750000001C8620846006BFF21543188430649C6
:1037600008630846406B40084000486300208860BA
:10377000FFF75CFF10BD0000001002400CB8FF080E
:10378000FFFFF6FE10B50121054800F03CF80028C7
:1037900005D00121024800F013F800F013F910BD24
:1037A00000040040002904D0028880231A430280CC
:1037B00003E00288014B1A40028070477FFF00003F
:1037C000CA43028270470000002904D00288012306
:1037D0001A43028003E00288014B1A4002807047BE
:1037E000FEFF0000002907D04422125A0123DB0308
:1037F0001A4344231A5205E04422125A53045B0C24
:1038000044221352704730B50246002000230024A2
:10381000158A0D402B4695890D402C46002B03D070
:10382000002C01D0012000E0002030BD002A03D090
:1038300083890B43838102E083898B4383817047B3
:1038400070B5002400220023058C1C4E35400584F1
:10385000028C8388048B194D6F3D2C40B51E2C4083
:103860000D882C43751E2A408D892A434D882A4392
:10387000134DA84208D0134DA84205D0124DA842BE
:1038800002D0124DA84212D10C4DED1F2A40CD8915
:103890002A430A4DED1E2A408D882A43074DFF3DDD
:1038A0002B400B4D2B400D8A2B434D8A2B4383809D
:1038B00004838D684563028470BD0000FEFF000034
:1038C000002C0140004001400044014000480140FC
:1038D000FFFD00000A460021018B034B19400B46F7
:1038E0001343194601837047F7FF00000022028846
:1038F000154B984206D001239B07984202D0134BE8
:10390000984203D1124B1A404B881A43114B9842EC
:1039100003D0114B1A400B891A4302804B68C362D3
:103920000B880385084B984208D00C4B984205D071
:103930000B4B984202D00B4B984201D18B7A0386F5
:103940000123838270470000002C014000040040E6
:103950008FFF000000100040FFFC0000004001400D
:1039600000440140004801401FB501200290134966
:103970006846818000218181C180817301210220FC
:10398000FEF716FE01A90E48FFF7B0FF10216846AA
:1039900001700021417001218170FEF761FD01215C
:1039A0000748FFF70DFF012211460548FFF73EFFCC
:1039B00001210348FFF708FF1FBD00007FBB000087
:1039C0000004004002480068401C0149086070473C
:1039D00008000020002904D0026801231A43026075
:1039E00003E002685208520002607047024600205D
:1039F000D3690B40002B01D0012000E0002070476C
:103A0000F0B58BB004460D46002700200A90002632
:103A100020684008400020606668032109033046A2
:103A200088430646A8680643666026682D48064017
:103A3000E968686808432969084306432660A66860
:103A40000321090230468843064668690643A6609A
:103A50006846FEF7F1FD2448844202D106980A9098
:103A60000DE02248844202D107980A9007E02048DE
:103A7000844202D108980A9001E002980A902068D6
:103A80000121C903084000280CD029680A9A500077
:103A9000FCF748FB074629680A9A5000FCF742FBEE
:103AA0000E4609E029680A98FCF73CFB074629689E
:103AB0000A98FCF737FB0E4628684008B04200D849
:103AC0007F1C20680121C9030840002806D0380760
:103AD000460F38460749084030430746A7810BB0D8
:103AE000F0BD0000F3E9FFFF003801400044004052
:103AF00000480040F0FF0000CA05D20D0285704763
:103B000010B586B004461E4800681E490968884200
:103B10000ED1002069460870142100A80130FCF77E
:103B200056FB152269462046FCF738FB06B010BD4F
:103B30001348006815225043134A8118152268461D
:103B4000FCF72CFB00210E480068152250430E4A5A
:103B500011540B490968152251430B4A8918481C16
:103B60001421FCF734FB0648006800F0A9FD044965
:103B70000860152269462046FCF710FB00BFD5E718
:103B80000001002004010020580200200FB410B5ED
:103B90000E48006800F094FD0D490968884203D181
:103BA00010BC08BC04B018470849096815225143E5
:103BB000084A8818152202A9FCF7F0FA03480068A1
:103BC00000F07EFD0149086000BFE9E70401002024
:103BD00000010020580200200FB410B503A9044BC7
:103BE000044A029800F026F810BC08BC04B018473C
:103BF000614000083C01002030B47446641E257802
:103C0000641CAB4204D3635D5B00E31830BC18470F
:103C10001D46F8E702E008C8121F08C1002AFAD1C1
:103C200070477047002001E001C1121F002AFBD13C
:103C300070470000FFB58FB00F460446002606E02F
:103C400025280AD0129A11999047641C761C207876
:103C50000028F5D1304613B0F0BD00250121A14A5E
:103C6000009500E00543641C23780846203B9840FB
:103C70001042F7D120782E2815D104200543607812
:103C8000641C2A280AD101CF641C00900BE0009923
:103C90000A22514330394018641C009020780146B4
:103CA00030390929F3D920786C280ED004DC4C284F
:103CB00013D06A2812D104E074280ED07A280DD1CE
:103CC0000BE001204005054307E00121090562786A
:103CD0000D43824201D16D18641C641C2078864615
:103CE00069284AD008DC0028B4D058286DD0632851
:103CF00010D0642808D140E070286BD0732812D00F
:103D0000752860D0782860D0129A70461199904733
:103D1000761CE5E03878694608720020487202A8EF
:103D20000190012003E0386801900020C0433F1D4E
:103D300069070CD5002500E06D1C00998D420FDA53
:103D40008542F9DB0199495D0029F5D108E000259C
:103D500000E06D1C8542FCDB0199495D0029F8D12A
:103D6000761907E0019801990078491C0191129A8F
:103D7000119990476D1EF5D2B2E00A200290002101
:103D80006802400F039102280CD001CFC11784466E
:103D900000290DDA624608465242002181419446CC
:103DA0002D2008E0FF1DFF08FF0003CF8446EFE74A
:103DB000280504D52B206A46107401203CE0E80752
:103DC0003AD02020F7E70A2000E0102000210391DC
:103DD000029007E0102002900021042005430820F3
:103DE000039100906802400F022810D001CF0021FB
:103DF000844600200D9028071FD5704670280CD0EF
:103E0000029A1020039B42401A430CD015E0FF1D7C
:103E1000FF08FF0003CF8446EBE740206A4610749A
:103E200001200D900CE06046084306D030206A4621
:103E300010747046507402200D907046582804D0BB
:103E400029A001900DA80E900DE02CA0F9E7604686
:103E5000039B029AFCF7F1F9019B84469B5C0E9A46
:103E6000521E0E92137060460843F0D10E9805A9B9
:103E7000081A20300190680701D5009801E0012060
:103E800000900199884203DD01460198081A00E07C
:103E900000200025009006E004A8129A405D1199C8
:103EA00090476D1C761C0D988542F5DB04E0129A54
:103EB000302011999047761C0099481E00900029E7
:103EC000F5DC08E00E980E990078491C0E91129AC4
:103ED00011999047761C0199481E01900029F1DC48
:103EE000641CB4E6092801003031323334353637EA
:103EF0003839616263646566000000003031323336
:103F000034353637383941424344454600000000D5
:103F100030200021064A9161042111610549087091
:103F200009787D22D2005143034A11807047000076
:103F300000E000E0000000200200002001460D4AE1
:103F400012784A430C4B5A6100229A6101221A618D
:103F500000BF094A1069C207D20F002A04D001220B
:103F600012040240002AF4D00022034B1A619A6125
:103F7000704700000000002000E000E010B504469B
:103F8000002C05D0012149030448FDF735FA04E06F
:103F9000012149030148FDF72DFA10BD0004004836
:103FA00010B50446002C05D00121C9030448FDF7D3
:103FB00023FA04E00121C9030148FDF71BFA10BDF3
:103FC0000004004810B50446002C05D00121090367
:103FD0000448FDF70FFA04E0012109030148FDF749
:103FE0000BFA10BD0004004810B50446002C05D0A3
:103FF000012189030448FDF7FFF904E00121890349
:104000000148FDF7F7F910BD000400480021418088
:10401000C18081807047028000234380C3808380F9
:1040200081607047024653881088401E834201DD3C
:104030000120704793881088401E834205D19388E1
:104040009068C1540020908005E093889068C15426
:104050009088401C90805088401C50800020E8E7E9
:1040600070B504460D46E1B20548FFF745FD00BFB7
:1040700080210348FFF7BAFC0028F9D0204670BD24
:10408000003801400FB4F0B58FB00446012C07DBB7
:10409000202C05DC4F4E601E40013146471824E0BD
:1040A000212C07DB402C05DC4B4E601E40014949AA
:1040B00047181AE0412C07DB5F2C05DC474E601ED9
:1040C00040014449471810E0602C08DB632C06DCF3
:1040D000434E2046603840013146471805E0012034
:1040E0000FB0F0BC08BC04B018472022394607A81E
:1040F000FCF754F86846808B3A4988420ED101207B
:1041000010A98882142218A96846FCF747F8384697
:1041100015A90EC900F06AF80020E1E70696012C07
:104120002BDB5F2C29DC00250BE069012E4A881867
:1041300020220699FCF732F8069820300690681C79
:1041400085B2202DF1DBFCF729FF3046FCF780FE1D
:10415000FCF7C2FE611E4901234A8818202215A9D6
:10416000FCF71CF80121601E40011F4A11528A020F
:104170001D493046FDF79CF8B2E700250BE06901C8
:10418000194A881820220699FCF708F8069820306A
:104190000690681C85B2042DF1DBFCF7FFFE30466B
:1041A000FCF756FEFCF798FE2146603949010E4A9D
:1041B0008818202215A9FBF7F1FF0121204660385D
:1041C0004001094A1152802207493046FDF770F834
:1041D00086E7000000F0000800F4000800F800087E
:1041E00000FC0008FFFF0000C40700200FB410B55A
:1041F0000446202203A92046FDF75AF810BC08BC4B
:1042000004B0184710B50446002C05D080210920C1
:10421000C006FDF7F1F804E080210920C006FDF793
:10422000E9F810BD10B50446002C05D01021092076
:10423000C006FDF7E1F804E010210920C006FDF7F3
:10424000D9F810BD10B50446002C05D02021092056
:10425000C006FDF7CFF804E020210920C006FDF7D5
:10426000CBF810BD10B50446002C05D04021092024
:10427000C006FDF7C1F804E040210920C006FDF7A3
:10428000B9F810BD0020034908604860C8600861A3
:10429000486170479401002070B504460D46E56002
:1042A000A2601846DE0F3618761066600020206087
:1042B0000A4841694069002805D1084844612061E5
:1042C0000020606170BD00E0496948690028FBD1A9
:1042D0004C612161606100BFF4E70000940100209F
:1042E00010B50B4844690FE02068002808D16068C9
:1042F0002060E068002806D0E168A068884702E0F6
:104300002068401E20606469002CEDD110BD0000C3
:1043100094010020002400F063F81FA0FFF75CFC6C
:1043200000F0C2F8002805D11FA0FFF755FCFDF7EB
:10433000E1FF24E0FFF7ECFDFCF70EF8FEF71EFEB0
:10434000FEF74DFDFEF75CFEFDF7CEF80446214674
:1043500019A0FFF741FC962C05D2FDF7CBFF19A061
:10436000FFF73AFC0BE00025FDF73CFF04E0681C7A
:1043700085B20120FFF7E2FD642DF8DB00BF09E004
:104380000026FDF791F80646AE4202D03546FFF70B
:10439000A7FF00BFF4E700005265736574207379CE
:1043A0007374656D200D0A006B65792077616B650C
:1043B00075700D0A00000000766F6C3D25646D5627
:1043C0000D0A0000636172642077616B6575702E61
:1043D0002E2E2E2E2E2E2E2E2E2E0D0A00000000FA
:1043E0001CB50021684681710121C1710420009033
:1043F0000021684601710321417101218804FEF703
:10440000C7F869460148FCF781FF1CBD000400485D
:1044100010B50A24C0215E20FDF7D3FC05215D20E4
:10442000FDF7CFFCFF212A20FDF7CBFCFF2159200F
:10443000FDF7C7FCF0215E20FDF7C3FC15E00A2064
:10444000FFF77CFD0020FDF7ABFC0B490880012045
:10445000FDF7A6FC000208490988084306490880C0
:10446000601E84B2002C00D103E000F01DF800288B
:10447000E5D000BF012010BD0400002010B50124CC
:1044800004210848FCF7ACFF0446002C07D10421A6
:104490000448FCF7A5FFA04200D100E0012420461B
:1044A00010BD00000004004810B504210148FCF7CD
:1044B00097FF10BD0004004810B518217B48FBF79A
:1044C00086FE63218020FDF77CFC00215E20FDF745
:1044D00078FC01212B20FDF774FC01212C20FDF735
:1044E00070FC05212D20FDF76CFC00212E20FDF72E
:1044F00068FC01212F20FDF764FC01213020FDF72D
:1045000060FCFF213120FDF75CFC02213220FDF729
:1045100058FC00213320FDF754FC00213420FDF726
:1045200050FC00213520FDF74CFC0F213620FDF713
:1045300048FC0F213720FDF744FC00213820FDF70F
:1045400040FC00213920FDF73CFC01213A20FDF719
:1045500038FC01213B20FDF734FCFF213C20FDF716
:1045600030FCFF213D20FDF72CFC00213E20FDF713
:1045700028FC00213F20FDF724FC00214020FDF70E
:1045800020FC05214120FDF71CFC03214220FDF702
:1045900018FC05214320FDF714FC03214420FDF7FE
:1045A00010FC05214520FDF70CFC03214620FDF7FA
:1045B00008FC05214720FDF704FC03214820FDF7F6
:1045C00000FC05214920FDF7FCFB03214A20FDF7F3
:1045D000F8FB05214B20FDF7F4FB03214C20FDF7F0
:1045E000F0FB05214D20FDF7ECFB03214E20FDF7EC
:1045F000E8FB05214F20FDF7E4FB03215020FDF7E8
:10460000E0FB05215120FDF7DCFB03215220FDF7E3
:10461000D8FB05215320FDF7D4FB03215420FDF7DF
:10462000D0FB05215520FDF7CCFB03215620FDF7DB
:10463000C8FB05215720FDF7C4FB03215820FDF7D7
:10464000C0FB05215920FDF7BCFB00215A20FDF7D6
:10465000B8FB00215B20FDF7B4FB04215D20FDF7D2
:10466000B0FB80215C20FDF7ACFB8F217B20FDF7A8
:10467000A8FBE4217D20FDF7A4FB94217E20FDF71B
:10468000A0FBCD217F20FDF79CFBCC215E20FDF718
:1046900098FB152206490748FFF7BDFC04230022BA
:1046A00005490648FFF7F8FD10BD00007C01002019
:1046B0004001002058010020F96600086401002034
:1046C00001463F2901D100207047481C0146FBE705
:1046D00000B599B0FCF7E8FE1790F7484078152828
:1046E0000AD1F64917980968884203D90220F2498D
:1046F000487001E019B000BDEF484078012806D0AD
:10470000EE4917980968884201D3FDF733FD0AA8DE
:10471000FFF7F6F918220AA910A8FBF73FFD10A829
:10472000007800280CD1E4484078122808D0E248EC
:104730004078132804D0E0484078142800D0D9E706
:10474000DF4917984018DD49086010A80078022852
:1047500006D1FEF711FF01460F900220FDF718F970
:10476000D5484078152801D301F0A4FF43007B44CD
:104770009B885B009F449E0F1400150016002E06B8
:10478000F207BF098C0A050C2A02250D9E0F9E0F09
:10479000090E9E0F9E0FD30ED40E440FD50E060F9A
:1047A000F3E3FDE710A8007801287DD110A8407838
:1047B000812813D008DC01280FD0022841D004281A
:1047C00011D0102871D1B3E082286FD0842859D03D
:1047D00088286CD09028F5D1ABE000BFFDF7CAFC6B
:1047E000B848169004E1FCF7C5FE002817DD02204A
:1047F000B1490870084640688078002805D1092032
:104800004870FDF763FD16901AE0AF48FFF7FEFB16
:104810000820A9494870FCF7F1FD169010E0FCF75C
:104820001FFE1690322264210220FCF7FFFFC823EE
:104830001A460121A548FDF775F803209E494870E6
:10484000D6E001209C49087008464068807800281E
:104850000ED19F490870FCF7DDFC974908720420CF
:1048600048700846007A0F90FCF704FE169008E0A6
:104870009548FFF7CBFBFCF7C1FD169008208E4949
:104880004870B5E004208C490870FCF713FE00283E
:1048900012D001208849496888708B48FFF7B6FB21
:1048A00008208549487003E0ACE0A0E016E065E030
:1048B000FCF7A4FD169010E003207F494870FCF738
:1048C000CFFD1690322264210220FCF7AFFFC823EF
:1048D0001A4601217D48FDF725F889E00320764935
:1048E000087008464068807801280DD17648FFF7A7
:1048F0008DFB5F20FCF7C8FB6F49087208204870E9
:10490000FCF77CFD169012E00020714908706E489B
:10491000FFF77CFB5F20FCF7B7FB674908720520B7
:1049200048700846007A0F90FCF7A4FD16905FE0EF
:1049300000BF012060490870084640688078002860
:1049400010D16148FFF762FB0020FCF763FC5A4975
:104950000872062048700846007A0F90FCF78AFD1E
:1049600016900AE05848FFF751FBFCF747FD1690F8
:104970000020514908720820487039E0FCF71CFEFD
:10498000002822DD05204C490870084640688078E0
:10499000002810D1FCF730FA642211460420FCF7FD
:1049A00045FFC8231A4603214848FCF7BBFFFDF723
:1049B0004FFC16901AE04448FFF728FB08203E49B8
:1049C0004870FCF71BFD169010E0FCF749FD1690AF
:1049D000322264210220FCF729FFC8231A46012154
:1049E0003A48FCF79FFF03203349487000E000BFBE
:1049F00000BF31484078012803D004201699FDF704
:104A0000CBF8E2E010A80078022854D100201890DA
:104A10002D48FCF7C9FD0F900F98012810D110A860
:104A20004078A3280CD1244800690078002802D1DE
:104A3000FCF77CF901E0FCF76DF92348FFF7E6FA93
:104A40000F98142807DA10A840782A2803D010A855
:104A5000407823285FD10F980A284EDB00211D4A99
:104A60000F98115411460120FBF7F0FF1890189889
:104A7000002833D01049189808720846007A0E9022
:104A8000FCF7F8FC169001201699FDF785F81E2218
:104A900050210220FCF7CAFEC8231A4603210E4803
:104AA000FCF740FF044800690078002833D1122049
:104AB000014948702FE02FE08C000020A400002066
:104AC000C4090000FFFF000058010020FF7F000024
:104AD000AD00002040010020FFBF0000F648FFF7B6
:104AE00095FA322211460220FCF7A0FEC8231A468E
:104AF0000521F248FCF716FF0DE0EF48FFF786FAB4
:104B0000322211460220FCF791FEC8231A460521E5
:104B1000EA48FCF707FF58E010A80078032854D1B2
:104B200010A901310220FBF791FF18901898002876
:104B300023D00020E2490860E2491898087208462C
:104B4000007A0F90FCF796FC169001201699FDF75D
:104B500023F81E2250210220FCF768FEC8231A46C3
:104B60000321D948FCF7DEFED6480069007800280A
:104B70002BD11220D349487027E0D1480068401C4F
:104B8000CF49086008460068032813D9CF49179811
:104B90004018CF490860322211460320FCF746FE38
:104BA000C8231A460321C548FCF7BCFE1520C54999
:104BB00048700AE0322211460220FCF737FEC82373
:104BC0001A460521BD48FCF7ADFEE9E5BD48007871
:104BD000042806D15F200E9063200D90BD480F90F1
:104BE00005E000200E905F200D90BB480F9010A8AC
:104BF0000078012873D10020B849087010A84078C7
:104C0000042812D004DC012807D0022868D1E7E08C
:104C1000082877D01028F9D1D0E1FDF719FB1690BC
:104C200001201699FCF7B8FF10E3A6480078042885
:104C30006AD1AB4800780D2806D10E20A84908702B
:104C4000FCF7E6FB169058E0A54800780E2826D120
:104C50000020FCF7F1F918901898401C00280CD09F
:104C60009849189808720F219D4801701898C0B291
:104C70000C90FCF7FFFB16903FE0FCF7F1FB169061
:104C8000322264210220FCF7D1FDC8231A460121FB
:104C90008A48FCF747FE03208A4948702DE0904877
:104CA00000780F281DD18748007A40B20C90FCF79D
:104CB000C3F918901898401C002809D08149189809
:104CC00008721898C0B20C90FCF7D4FB169014E050
:104CD0000D2083490870FCF7AFFB16900DE0B6E29B
:104CE000B2E20D207E4908704B22D20011461420FA
:104CF000FCF79CFDFCF7A0FB169004201699FCF72E
:104D00004BFF6CE0A1E2FFE76E480078022866D115
:104D1000734800780A2806D10B2071490870FCF707
:104D200077FB169057E06E4800780B2826D10020BC
:104D3000FCF74AFA18901898401C00280CD06149DA
:104D4000189808720C21664801701898C0B20C902F
:104D5000FCF790FB16903EE0FCF782FB16903222A7
:104D600064210220FCF762FDC8231A460121534842
:104D7000FCF7D8FD0320534948702CE058480078D0
:104D80000C281CD14F48007A40B20C90FCF71CFA5A
:104D900018901898401C00280AD01898C1B24948A9
:104DA00001721898C0B20C90FCF764FB169012E0E8
:104DB0000A204B490870FCF73FFB16900BE00A20D5
:104DC000474908704B22D20011461420FCF72EFDF3
:104DD000FCF732FB169004201699FCF7DDFE35E255
:104DE0003848007804287DD13D4800780D2826D128
:104DF0000020FCF7F9F818901898401C00280CD0F7
:104E00003049189808720F20354908701898C0B2B8
:104E10000C90FCF72FFB169048E0FCF721FB169056
:104E2000322264210220FCF701FDC8231A46012129
:104E30002248FCF777FD03202249487036E02848D5
:104E400000780E2806D10D2025490870FCF7F4FAE9
:104E500016902BE0224800780F281BD11948007AC1
:104E600040B20C90FCF7C0F818901898401C00282D
:104E700009D01449189808721898C0B20C90FCF721
:104E8000F9FA169012E00E2015490870FCF7C0FAE6
:104E900016900BE00D20124908704B22D2001146EB
:104EA0001420FCF7C3FCFCF7C7FA169004201699EF
:104EB000FCF772FE81E015E058010020FF7F000042
:104EC000A80000208C000020FFBF000020BF0200CF
:104ED000A4000020E90F000879110008AD000020AF
:104EE000AC000020FE480078022866D1FD4800781A
:104EF0000A2826D10020FCF767F918901898401C62
:104F000000280CD0F649189808720C20F549087052
:104F10001898C0B20C90FCF7ADFA169049E0FCF777
:104F20009FFA1690322264210220FCF77FFCC823EE
:104F30001A460121EC48FCF7F5FC0320E8494870CB
:104F400037E0E84800780B2806D10A20E5490870C8
:104F5000FCF772FA16902CE0E24800780C281CD17D
:104F6000DF48007A40B20C90FCF72EF918901898A0
:104F7000401C00280AD0DA49189808721898C0B264
:104F80000C90FCF777FA169013E022E20B20D5493B
:104F90000870FCF73DFA16900BE00A20D149087022
:104FA0004B22D20011461420FCF740FCFCF744FAD7
:104FB000169004201699FCF7EFFD47E1C9480078E8
:104FC0000A2809D1C6494870FDF774F916900120E6
:104FD0001699FCF7E1FD36E1C24800780B2814D1A0
:104FE000642211460420FCF721FCC8231A46032141
:104FF000BD48FCF797FCFBF7CFFEFDF729F91690AB
:1050000004201699FCF7C8FD1DE1B64800780C286D
:105010006BD1B348017A0E98814248DDB048017ADD
:105020000D98814243DCAE48007A401E40B20C909D
:105030000F998847AA49097A88421AD10A20A949B2
:105040000870642211460220FCF7F0FBC8231A46C0
:1050500002210020FCF766FCA148007A0C90FBF7C7
:105060002BFEFCF7E9F9169004201699FCF794FD45
:10507000E9E000209D490870322264210220FCF7FB
:10508000D5FBC8231A4601219748FCF74BFC0020AA
:105090000F998847924908720846007A0C90FCF7ED
:1050A000E9F9169004201699FCF776FDCBE0002074
:1050B0008E490870322264210220FCF7B7FBC82316
:1050C0001A4601218848FCF72DFC00200F998847DB
:1050D000834908720846007A0C90FCF7CBF91690C9
:1050E00004201699FCF758FDADE07E4800780D28A5
:1050F00007D1FDF7D3F8169001201699FCF74CFD67
:10510000A1E0784800780E2814D1642211460420CA
:10511000FCF78CFBC8231A4603217348FCF702FCFA
:10512000FBF710FEFDF794F8169004201699FCF793
:1051300033FD88E06B4800780F2874D16848017A05
:105140000E98814250DD6648017A0D9881424BDC11
:105150006348007A401E40B20C900F99884760491E
:10516000097A884222D10D215E48017064221146DD
:105170000220FCF75BFBC8231A4602210020FCF743
:10518000D1FB5748007A0C90FBF796FDFCF792F99B
:10519000002803D156498870FCF774FFFCF74CF9DE
:1051A000169004201699FCF7F7FC4CE000214F48BC
:1051B0000170322264210220FCF738FBC8231A4612
:1051C00001214948FCF7AEFB00200F99884744496C
:1051D00008720846007A0C90FCF74CF916900420EF
:1051E0001699FCF7D9FC2EE00020404908703222C5
:1051F00064210220FCF71AFBC8231A4601213A4811
:10520000FCF790FB00200F99884735490872084643
:10521000007A0C90FCF72EF9169004201699FCF7F2
:10522000BBFC10E0FFE74B22D20011461420FCF734
:10523000FDFA0A202B490870FCF7FEF816900420AE
:105240001699FCF7A9FC01E000BF00BFC1E010A85F
:105250000078022855D1234800780F2803D0214830
:1052600000780C284DD110A8407830284ADB10A8CF
:105270004078392846DC1D48007800280AD11B48B0
:105280000078401C1949087010A84078303814493B
:10529000087221E01548007801280FD113480078E2
:1052A000401C124908700E48007A0A21484310A990
:1052B0004978303940180A4908720DE000210B483E
:1052C0000170322264210220FCF7B0FAC8231A468A
:1052D00001210548FCF726FB0148007A0C9009E003
:1052E0008C000020AC000020FF7F0000AD000020FB
:1052F000B0070020FCF7BEF8169004201699FCF7C2
:105300004BFC66E010A84078232803D010A8407812
:105310002A285ED10E99189888423DDD0D9918987B
:10532000884239DCFA48007A401E40B20C900F994E
:105330008847F749097A884210D1F648FEF766FE99
:105340000620F34948700846007A0C90FCF792F862
:10535000169001201699FCF71FFC3AE00020EE4958
:105360000870322264210220FCF760FAC8231A4632
:105370000121EA48FCF7D6FA00200F998847E44952
:1053800008720846007A0C90FCF774F81690042016
:105390001699FCF701FC1CE00020DF49087032225E
:1053A00064210220FCF742FAC8231A460121DB4897
:1053B000FCF7B8FA00200F998847D54908720846CB
:1053C000007A0C90FCF756F8169004201699FCF71A
:1053D000E3FBEFE310A80078012877D110A840780C
:1053E000042812D004DC012807D002286FD146E03F
:1053F00008286DD010286AD185E0FCF729FF1690A7
:1054000001201699FCF7C8FBDFE0C148007A40B2E2
:105410000F90FBF727FF18901898801C002820D1C8
:10542000FCF7A8F85F2810D1FCF710F8169064225A
:1054300011460220FCF7FAF9C8231A460321B7489F
:10544000FCF770FAFCF796FE14E06020FBF70AFF09
:10545000AF4908720846007A0F90FCF70BF81690D7
:1054600008E0AB49189808720846007A0F90FCF7DC
:1054700001F8169004201699FCF78EFBA5E0A448CD
:10548000007A5F2802DB0020A1490872A048007A58
:1054900040B20F90FBF7BEFE18901898801C0028B1
:1054A00023D1FCF767F85F2813D1FBF7CFFF1690E5
:1054B000642211460220FCF7B9F9C8231A460321D9
:1054C0009648FCF72FFAFCF755FE17E08FE07BE0DB
:1054D00079E00020FBF79EFE8D4908720846007AAD
:1054E0000F90FBF7C7FF169008E0894918980872DB
:1054F0000846007A0F90FBF7BDFF1690042016991E
:10550000FCF74AFB61E08248007A00283DDD8048D4
:10551000007A5F2839DC7E48007A401E40B20F9046
:10552000FBF778FE7A49097A884210D17948FEF76C
:105530006DFD0620764948700846007A0F90FBF70B
:1055400099FF169001201699FCF726FB3AE00020FF
:1055500071490870322264210220FCF767F9C823E0
:105560001A4601216D48FCF7DDF90020FBF752FED9
:10557000674908720846007A0F90FBF77BFF169088
:1055800004201699FCF708FB1CE000206249087013
:10559000322264210220FCF749F9C8231A4601216E
:1055A0005E48FCF7BFF90020FBF734FE584908724B
:1055B0000846007A0F90FBF75DFF169004201699BD
:1055C000FCF7EAFA01E000E000BF00BF5048407875
:1055D00001280BD04E484078032807D04C4840782B
:1055E000062803D004201699FCF7D6FAB5E010A8D7
:1055F0000078022842D110A8407830283FDB10A85C
:10560000407839283BDC4448007800280AD14248D9
:105610000078401C4049087010A8407830383C4958
:10562000087221E03C48007801280FD13A48007800
:10563000401C394908703648007A0A21484310A9AD
:10564000497830394018324908720DE0002032495B
:105650000870322264210220FCF7E8F8C8231A46B9
:1056600001212E48FCF75EF92948007A0F90FBF7DC
:1056700001FF169004201699FCF78EFA6DE010A831
:105680004078232803D010A840782A2865D118989C
:10569000002845DD18985F2842DC1D48007A401E2E
:1056A00040B20F90FBF7B6FD1949097A884210D134
:1056B0001848FEF7ABFC0620154948700846007AEA
:1056C0000F90FBF7D7FE169001201699FCF764FAAD
:1056D00043E0002010490870322264210220FCF7C8
:1056E000A5F8C8231A4601210C48FCF71BF9002035
:1056F000FBF790FD064908720846007A0F90FBF709
:10570000B9FE169004201699FCF746FA25E0000031
:105710008C00002058010020AD000020FF7F000019
:105720000020FA490870322264210220FCF77EF83A
:10573000C8231A460121F648FCF7F4F80020FBF7CD
:1057400069FDF44908720846007A0F90FBF792FE53
:10575000169004201699FCF71FFA3AE610A8007874
:1057600001287DD110A84078812817D00CDC0428AE
:105770001CD004DC012810D0022872D154E0082883
:1057800070D010286DD192E082284ED084280ED09F
:10579000882868D0902864D18AE000BFFCF758FDC3
:1057A000169001201699FCF7F7F9E4E000BFD948FC
:1057B000007A602802DC6420D6490872D548007A55
:1057C00040B20F90FBF788FC18901898801C0028B6
:1057D00020D1FBF76FFE042810D1FBF737FE16909F
:1057E000642211460220FCF721F8C8231A46022140
:1057F0000020FCF797F8FCF7BDFC14E06420FBF7F1
:105800006BFCC44908720846007A0F90FBF732FE21
:10581000169008E0BF49189808720846007A0F9061
:10582000FBF728FE1690A6E000BFBA48007A63286E
:1058300002DB5F20B7490872B648007A40B20F9089
:10584000FBF722FC18901898801C002825D1FBF744
:1058500091FE042815D1FBF7F9FD1690642203E0B0
:105860009BE087E084E084E011460220FBF7DEFF46
:10587000C8231A4602210020FCF754F8FCF77AFCF2
:1058800014E05F20FBF700FCA24908720846007A8A
:105890000F90FBF7EFFD169008E09E4918980872EC
:1058A0000846007A0F90FBF7E5FD169063E000BF15
:1058B0009848007A5F283DDD9648007A632839DCF5
:1058C0009448007A401E40B20F90FBF7DDFB9149EF
:1058D000097A884210D19048FEF798FB06208D493E
:1058E00048700846007A0F90FBF7C4FD169001201F
:1058F0001699FCF751F93AE00020844908703222E9
:1059000064210220FBF792FFC8231A460121804838
:10591000FCF708F80020FBF7B7FB7E490872084641
:10592000007A0F90FBF7A6FD169004201699FCF75D
:1059300033F91CE0002075490870322264210220EE
:10594000FBF774FFC8231A4601217148FBF7EAFFF1
:105950000020FBF799FB6F4908720846007A0F9008
:10596000FBF788FD169004201699FCF715F902E064
:1059700000BF00E000BF00BF6648407801280BD0A0
:1059800064484078032807D062484078062803D04E
:1059900004201699FCF700F9ACE010A80078022862
:1059A00042D110A8407830283FDB10A84078392831
:1059B0003BDC5648007800280AD154480078401C47
:1059C0005249087010A8407830385249087221E0D6
:1059D0004E48007801280FD14C480078401C4B49B4
:1059E00008704C48007A0A21484310A94978303998
:1059F0004018484908720DE00020444908703222DE
:105A000064210220FBF712FFC8231A4601214048F7
:105A1000FBF788FF3F48007A0F90FBF72BFD1690AD
:105A200004201699FCF7B8F864E010A84078232801
:105A300003D010A840782A285CD118985F283CDD54
:105A40001898632839DC3348007A401E40B20F9022
:105A5000FBF71AFB2F49097A884210D12E48FEF72E
:105A6000D5FA06202B4948700846007A0F90FBF7BC
:105A700001FD169001201699FCF78EF83AE00020FF
:105A800022490870322264210220FBF7CFFEC8238E
:105A90001A4601211E48FBF745FF0020FBF7F4FAE8
:105AA0001C4908720846007A0F90FBF7E3FC169039
:105AB00004201699FCF770F81CE0002013490870C8
:105AC000322264210220FBF7B1FEC8231A460121CD
:105AD0000F48FBF727FF0020FBF7D6FA0D490872A5
