:020000040800F2
:1000000038110020CD000008C1360008CD2A0008B4
:1000100000000000000000000000000000000000E0
:10002000000000000000000000000000CD4B0008B0
:10003000000000000000000049390008794C000869
:10004000FD000008000000001D470008FD0000083A
:10005000FD000008FD0000081F140008211400081E
:1000600000000000FD000008FD000008FD00000881
:10007000FD000008FD000008FD0000080000000071
:10008000194D0008FD000008FD000008F94C0008AB
:10009000FD000008FD000008FD000008FD0000084C
:1000A000FD000008FD000008FD000008D54F000815
:1000B000FD4F0008FD0000080348854600F0A2FA45
:1000C0000048004799660008381100200C4880F36A
:1000D00008880C480168090E0B4A914205D10B486B
:1000E0000B4901600B480C4901600C4880470C48E3
:1000F0000047FEE7FEE7FEE7FEE7FEE7FEE700005B
:1001000038110020040000001F00000018100240F9
:100110000100000000000140000000007D4C0008CC
:10012000B900000830B50B4601460020202201240A
:1001300009E00D46D5409D4205D31D469540491B1B
:100140002546954040191546521E002DF1DC30BD64
:1001500070B500242546002801DA01244042002918
:1001600001DA01254942FFF7DDFFAC4200D04042F1
:10017000002C00D0494270BD03460B439B0703D0BF
:1001800009E008C9121F08C0042AFAD203E00B785C
:100190000370401C491C521EF9D27047D2B201E0D4
:1001A0000270401C491EFBD270470022F6E710B5D2
:1001B00013460A4604461946FFF7F0FF204610BDD5
:1001C00030B505462A460B4610781C78521C5B1C3D
:1001D000002801D0A042F7D0002C03D0002802D084
:1001E0006D1CEFE7284630BD10B5002200E0521C20
:1001F000835C8C5CA34201D1002BF8D1D8B2E1B270
:10020000401A10BD03460A780270401C491C002A9F
:10021000F9D118467047F0B51FB40646002082B0E9
:1002200005464024019100901BE0019922460F46AB
:10023000304600F009FA049A059B801A994110D3C0
:1002400010461946224600F0EFF9361A8F41019701
:10025000224601200021009F00F0E6F938184D41A8
:1002600000902046641E0028DFDC019B0098294690
:10027000324607B0F0BD0000F0B5074608465840CA
:1002800087B0C00F049048000E4659004008490846
:10029000BC1A884105D2384631461E4617460B46E1
:1002A00002465800400810434CD0300D03904005E2
:1002B0005900400D490D0590401A0290402872DA0D
:1002C00018030121000B09050843019004980092CE
:1002D000002805D0019952420020884100920190E7
:1002E000029840210A1A0199009800F09DF90546EC
:1002F0000C466B4607CB00F0B8F9C0197141039A60
:100300000E0D0023D71756401A467A40164344D0A4
:10031000049A002A2DD0029A012A039A15DC1205AC
:10032000C01A914101263605001C7141D20F059E6D
:10033000D2070093019202962A46234600F0B5F9AF
:1003400007B0F0BD38463146FAE71605224A0F4697
:10035000B218C01AB74101210905001C4F4100180D
:100360007F41114618187941E20F10436D1964411D
:1003700013E0E2076D0815436408C2071443039AAB
:1003800001261205C01A91413605001C7141CE07A5
:10039000400830434908C01851412A46234600F01E
:1003A00077F9CDE7FFE7049801224000C117121A40
:1003B00000238B4104983146C417381AA141EEE757
:1003C00030B40124E407634030BC55E730B4012465
:1003D000E407614030BC4FE70000E0FFF0B51FB418
:1003E00088B00B990998002448400999C00F49002A
:1003F00049080991C0070B990090490049080B91E1
:1004000009990898A64608431CD00B990A980843F6
:1004100018D0099801244000420D4800410D099868
:1004200024050003000B204309900B980003000BE8
:1004300020430B9050181C4940180022019014468C
:10044000104605E0002001460DB0F0BD032801DA9A
:10045000034600E003239C46C11A0AAE0AE05F008F
:1004600008ADED5B4F00F75B7D430027AA187C4188
:10047000491C5B1E6145F2DD410004AB5A52210468
:10048000120C0A43240C401C0828DFDB0198029060
:100490000099704601910090059B049A079906986F
:1004A00000F003F9D0E700000DFCFFFFF0B50C46AB
:1004B0005C4085B0E40FE40703944C000026640818
:1004C00059009446490802460296224321D06246CA
:1004D0000A431ED06200570D4A000E032303550D38
:1004E000012402462C492405781B1B0B360B4018AF
:1004F00023432643614600901C46501AB44103D35F
:100500000098401C009002E0921800985B4100287F
:1005100003DA0020014605B0F0BD002001210905E5
:100520000746864611E064461D46141BB54106D3B6
:100530006546521BB341744607430C43A646CD079C
:1005400040084908284392185B4105460D43EAD10B
:100550001046184313D06046194650407140084376
:1005600006D06046101AB34106D20122002306E0ED
:1005700000220123DB0702E00122D243531000983E
:1005800074460105381C6141029C039D00196941B4
:1005900000F07EF8BFE70000FD0300004A000903F9
:1005A0000123090B1B0519430A4B10B5520D9A4242
:1005B00002DA0020014610BD064B34339A4203DCB8
:1005C0009A1A00F041F810BD034BD21800F02CF835
:1005D00010BD0000FF030000CDFBFFFF10B5002998
:1005E00004DB0124E40740428C412146002B04DB5C
:1005F0001C460123DB075242A341994200D190429D
:1006000010BD0000064C0125064E05E0E36807CC4E
:100610002B430C3C98471034B442F7D3FFF750FDFE
:100620000C9200082C92000810B5202A04DB014629
:10063000203A9140002010BD914020239C1A03468F
:10064000E3401943904010BD10B5202A04DB084652
:10065000203AD040002110BD0B46D340D04020248A
:10066000A21A91400843194610BD10B5202A06DB96
:10067000CB170846203A1041C1170B4306E00B4642
:100680001341D0402024A21A91400843194610BDBE
:1006900010B5002B08DA0024401C614192185B4120
:1006A0001A4301D14008400010BDF0B51FB482B01C
:1006B00005460C0003D0084604F0EAFE02E004F010
:1006C000E7FE20300246009021462846FFF7ACFFA7
:1006D000049B059A04460F4618431143084314D05F
:1006E000184610431BD0009840210A1A1846059955
:1006F000FFF7AAFF05460E46009A05990498FFF7F2
:1007000093FF084305D0012004E02046394607B096
:10071000F0BD0020C11705430E432C433743009919
:100720000E986305401A7905E40A00220C43FD0A7D
:100730000A3002D500200146E9E701051019694198
:100740000C9C0D9D00196941FFF7A2FFDFE770B512
:100750008C180578401C6B075B0F01D10378401C97
:100760002A1106D10278401C03E006780E70401C66
:10077000491C5B1EF9D12B0705D40023521E0DD452
:100780000B70491CFAE70378401CCB1A921C03E05B
:100790001D780D70491C5B1C521EF9D5A142D8D39F
:1007A000002070BD10B50B460021846A1C43846292
:1007B00000BF0C4614432146416110BD01607047E3
:1007C00001617047002904D0826801231A438260C6
:1007D00003E0826802231A438260704710B5044622
:1007E0000548844207D10121401503F021F9002179
:1007F000601503F01DF910BD0024014030B501461D
:100800000020002200238C680125ED072C438C601A
:1008100000BF8C68E30FDB07521C0F242403A242A5
:1008200001D0002BF5D18C68E40FE407002C01D136
:10083000086C00E0002030BD0146086C80B27047B3
:1008400030B5024600200023012424060C40002C71
:1008500005D0946801252D06AC43234600E01368BB
:100860001C460C40002C01D0012000E0002030BDCF
:1008700010B50022C268084B1A400C7964030B685B
:1008800023438C682343CC6823430C6923434C697E
:1008900023431A43C26010BD03D2FFFF81680422C4
:1008A0001143816070470021016001718160C16066
:1008B0000161416170470000F0B58BB00024002554
:1008C00000200A900027002625480078002827D01D
:1008D0000AA801F0C5FB5F2415E0E8B201A904F005
:1008E000BDF86846C07903280BD1701C86B26846F3
:1008F000817A01A8C0790002081887B2384600F052
:1009000093FC601C44B2642C0ADA284600F0A4FE72
:100910000546401C002803D06846008D8642DCDB7B
:1009200000F0B6FC01F012FA09900120099901F0DB
:10093000C9FF00F09FF90520C00105F047FA0949F9
:10094000012001F0B9FE01F029FA0990012009996E
:1009500001F0B8FF00F076FA02F002FC0BB0F0BD37
:1009600071010020FFBF000010B500F0E5FC01F0B0
:10097000EDF904462146012001F0A4FF0D4800785E
:10098000002801D000F0AEFC00F074F90520C00191
:1009900005F01CFA0849012001F08EFE01F0FEF975
:1009A00004462146012001F08DFF00F04BFA02F0D1
:1009B000D7FB10BD71010020FFBF0000F0B58BB068
:1009C0000024002500200A900027002625480078F2
:1009D000002827D00AA801F043FB00BF15E0E8B2C9
:1009E00001A904F03BF86846C07903280BD1701CBC
:1009F00086B26846817A01A8C0790002081887B2D9
:100A0000384600F011FC601C44B25F2C0ADC28461A
:100A100000F0EAFE0546401C002803D06846008D21
:100A20008642DCDB00F0B4FC01F090F90990012073
:100A3000099901F047FF00F01DF90520C00105F0FC
:100A4000C5F90949012001F037FE01F0A7F9099025
:100A50000120099901F036FF00F0F4F902F080FB63
:100A60000BB0F0BD71010020FFBF000070B504465F
:100A7000632C02DD0020C04370BD602C04DB632CBE
:100A800002DC01200B498870601EC004050E601E48
:100A9000C606F60EA9000748001D40580121B140C6
:100AA0000843AA000349091D885002F0C1F901203A
:100AB000E2E70000080900200FB410B586B0044634
:100AC00014220CA96846FFF757FB204609A90EC956
:100AD00005F072FC002807D12046FFF7C7FF06B0DB
:100AE00010BC08BC04B018470020C043F7E71CB591
:100AF0000121480402F06CFF0220009003206946A7
:100B000008710920C00601F067F81CBD10B586B059
:100B100000240121480202F07BFF0121480402F079
:100B200057FFFFF7E4FF6846FFF7BDFE0020009087
:100B30006946087102900390049005901348FFF7EE
:100B40004DFE012189071148FFF73AFE69460F481B
:100B5000FFF78EFE052202210C48FFF723FE0B480B
:100B6000FFF74CFE01210948FFF72CFE04E0601C52
:100B700084B2012005F04AF901210448FFF760FE24
:100B8000002801D1642CF2DB06B010BD0024014026
:100B900010B5FF20A53000F007F9C82000F01AF9C1
:100BA000002413E000F0C6F80A49012001F0CAFB56
:100BB0000A2005F00BF900F0B5F80749012001F013
:100BC000C1FB0A2005F002F9601CC4B20A2CE9DB63
:100BD00010BD0000FF7F0000FF3F00001CB5012199
:100BE000480402F0F5FE08200090012168460171DA
:100BF0000321417100218171C17169460920C0063C
:100C000000F0EAFF1CBD10B508210920C00601F064
:100C100057F810BD10B508210920C00601F052F8A0
:100C200010BD10B5FF20A53000F0BEF8C82000F0C0
:100C3000D1F800240BE000F07DF80A2005F0C6F89A
:100C400000F070F80A2005F0C1F8601CC4B20A2C4C
:100C5000F1DB10BD10B55F20C00000F0A5F8FF204B
:100C6000693000F0B7F80A22C821012001F020FC09
:100C700010BD000010B500F05DF8A02005F0A6F84A
:100C800000F050F8642005F0A1F800F053F8A0201F
:100C900005F09CF800F046F8642005F097F800F0A5
:100CA00049F8A02005F092F800F03CF8642005F027
:100CB0008DF800F03FF8A02005F088F800F032F839
:100CC000642005F083F800200149487010BD000041
:100CD0003C01002010B5FF20A53000F065F8C820C9
:100CE00000F078F800F026F8782005F06FF800F0B2
:100CF00019F8782005F06AF800F01CF8782005F063
:100D000065F800F00FF8782005F060F800F012F8B0
:100D1000782005F05BF800F005F8782005F056F82B
:100D200010BD000010B50021014804F025F810BDE9
:100D30000044014010B50121014804F01DF810BD28
:100D4000004401401CB50121480402F041FEFF208F
:100D50000130009002216846017103214171002198
:100D6000C1716946044800F037FF02220821024899
:100D700000F07AFF1CBD00000004004810B5FFF72A
:100D8000E1FFFF20A53000F00FF8C82000F022F8A6
:100D9000022300220249034805F040FC10BD000078
:100DA00005250008F00800203EB50446012148044E
:100DB00002F02EFE01942F2168460180FF210131AF
:100DC0000181002141806946014804F059F83EBD87
:100DD0000044014010B586B0044660216846818019
:100DE0000121C1800021018103940221018200219F
:100DF000818201A9084803F0EDFF0821064804F0AC
:100E000033F80121044803F097FF0121024803F061
:100E1000A5FF06B010BD00000044014010B5FF2042
:100E2000A530FFF7C1FFC820FFF7D4FFFFF782FF0F
:100E3000012004F0CBFFFFF775FF012004F0C6FF8F
:100E400010BD000010B5FFF775FFA02004F0BEFF35
:100E5000FFF768FF502004F0B9FFFFF76BFFA020F9
:100E600004F0B4FFFFF75EFF502004F0AFFFFFF780
:100E700061FFA02004F0AAFFFFF754FF502004F008
:100E8000A5FF00200149487010BD00003C01002072
:100E90001CB50121480402F09BFD0120C002009016
:100EA000002168460171C17169460920C00600F041
:100EB00093FE1CBD10B50021022001F07FFA022331
:100EC00000220249024805F0A9FB10BDD50E00081A
:100ED0004408002030B589B0054600245248007807
:100EE000012801D109B030BD0121C9020920C00685
:100EF00000F0DCFE002845D105F048FC002841D177
:100F00004A49088035E04A48484A1288815C0220F4
:100F100001F054FA0121C9020920C00600F0C6FE02
:100F200001280BD14148008840004249085A401C22
:100F30003E49098849003F4A505205E000203B499C
:100F4000098849003B4A50523848008840003949D6
:100F5000085AFF21F531884206D1354833490988BE
:100F6000405C80210843044330480088401C2F49DE
:100F700008802E4800880528C5DD0021022001F0E8
:100F80001DFA31E00020294908801EE0274800882A
:100F900040002849085A02280CDB244800884000F9
:100FA000085AFF21F531884204DA21481F4909888F
:100FB000405C044300201D49098849001D4A5052E5
:100FC0001A480088401C19490880184800880528DC
:100FD000DCDB19480078012806D1002417A004F0B2
:100FE00031FA002014490870002C1AD001216846FB
:100FF00001738473062207A9FFF7BEF803A80FC880
:1010000002F0C0FC05F098FA002805D1114840789C
:10101000162801D002F083F821460FA004F012FA3E
:1010200000BF00BF5EE70000C800002028000020CD
:10103000220000205C08002000000020427574742B
:101040006F6E5F43616E636C655F466C61673D30D8
:101050000D0A0000A00000204B657956616C756593
:101060003A2025580D0A000010B5054800680549CA
:101070000860052109020448FFF797F810BD000039
:101080000800002004000020B4010020FFB589B052
:1010900006460F46002501F0D9F808900898002868
:1010A00001D10DB0F0BD002421E0284600F074FB12
:1010B0000546681C002800D1F3E7E8B2694603F052
:1010C000CDFC6846C078B0420FD10C98012803D0FF
:1010D00068468088B84208D101A802300B99FFF712
:1010E0006FF8002801D02846DBE7601CC4B20898DE
:1010F0008442DADB0020D4E7FFB589B0129880077C
:10110000800F032803D10024244E254F14E01298A9
:10111000C007C00F002803D00024224E224F0BE04E
:10112000022112980840022803D15F241F4E204F4D
:1011300002E000200DB0F0BDB0470546002D00D103
:10114000F8E70020089024E02046B8470446601CD9
:10115000002800D1EEE7E0B2694603F07FFC684664
:10116000C1780998814210D10C98012804D06846B2
:1011700081880A98814208D101A902310B98FFF7B2
:101180001FF8002801D02046D4E70898401CC0B2C0
:1011900008900898A842D7DB0020CBE74D22000832
:1011A0009917000865210008E9170008F91E0008D2
:1011B00059160008F0B589B00446632C03DD002001
:1011C000C04309B0F0BD16480078002814D001A92A
:1011D000204603F043FC6846C07903280CD16846DA
:1011E000817A01A8C0790002081887B2384600F059
:1011F0001BF8002800D1E4E7601EC004050E601E45
:10120000C606F60EA900074841580120B0408143A8
:10121000AA000448815001F00BFE0120D1E7000034
:10122000710100200C0900207FB5044615A103C9F7
:101230000191009015480078012801D000F018F9BC
:101240002004010E68468170C47000200290039053
:101250000121684600F062FC7D22D200082102A82C
:1012600003F0AEFFC5B2082D0ADB6846007B0028FC
:1012700003D06846007B052802D1012004B070BD70
:101280000020FBE7F5040000000000F570010020DD
:1012900010B500201149887000F0B8F9104800F02E
:1012A0000FF900F051F9602413E0601E400981003D
:1012B0000A48001D4058611ECA06D20E0121914005
:1012C0008843611E49098A000449091D8850601C31
:1012D000C4B2642CE9DB01F0ABFD10BD08090020AD
:1012E00000FC00081FB511A103C90191009011482D
:1012F0000078012801D000F0BBF800200290039094
:101300000121684600F00AFC7D22D200082102A8D3
:1013100003F056FFC4B2082C06DB6846007B0028A9
:1013200002D1012004B010BD0020FBE7F50500004C
:10133000000000F57001002010B500F067F90F48BB
:1013400000F0BEF80E4800F0BBF80E4800F0B8F808
:101350000D4800F0B5F800F0F7F800200B49887050
:10136000002406E00021A2000848001D8150601CF6
:10137000C4B2042CF6DB01F05BFD10BD00F00008E8
:1013800000F4000800F8000800FC0008080900202C
:1013900010B500F03BF9124800F092F8114800F047
:1013A0008FF8114800F08CF800F0CEF8012411E01D
:1013B000601E400981000D484058611ECA06D20EC9
:1013C000012191408843611E49098A0007498850DC
:1013D000601CC4B2602CEBDB01F02AFD10BD0000E4
:1013E00000F0000800F4000800F800080C090020D4
:1013F00070B50446204600F0DBFC05462946012076
:1014000001F060FAFF202D3004F0E0FC204600F0EF
:10141000CFFC05462946002001F054FA70BD704704
:101420007047000001494861704700000004014016
:1014300010B5002003F078FB10BD000010B500F0DF
:10144000E5F8034800F03CF800F07EF810BD00001D
:1014500000E8000810B5044600F0D8F8342000F089
:1014600029F8204600F02CF800F06EF810BD0000BE
:101470001FB50C480078002812D00BA103C90191B8
:1014800000900121684600F049FB6422082102A86F
:1014900003F096FE03F08AFE01200549087000BFA4
:1014A0001FBD000071010020F5090000000009F5D2
:1014B000700100200149C860704700000020024010
:1014C00030B5044604250B20000400F0B1F80546B1
:1014D000042D17D10C480069022108430A4908610C
:1014E00008464461006940210843074908610B2010
:1014F000000400F09DF80546034800690221884376
:1015000001490861284630BD0020024004200D49F1
:10151000C968C907C90F002901D0012010E0094995
:10152000C96810221140002901D0022008E00549B5
:10153000C96804221140002901D0032000E00420E2
:1015400070470000002002400348006980210843E2
:1015500001490861704700000020024070B5044650
:101560000D4604260B20000400F062F80646042E07
:1015700011D10A4800690121084308490861258002
:101580000B20000400F054F80646044800694008A7
:10159000400002490861304670BD00000020024052
:1015A00078B506460C460425002000900B20000468
:1015B00000F03EF80546042D24D1134800690121AE
:1015C00008431149086134800B20000400F030F812
:1015D0000546042D10D1B01C0090200C0099088005
:1015E0000B20000400F024F8054607480069400875
:1015F00040000549086105E00348006940084000D3
:1016000001490861284678BD00200240054800696C
:1016100080210840002804D003480249486003485C
:10162000486070470020024023016745AB89EFCD39
:1016300010B503460424FFF769FF044603E0FFF7F3
:1016400065FF04465B1E012C01D1002BF7D1002B56
:1016500000D10524204610BD30B50246602A01DBCA
:10166000632A01DD602101E0501CC1B214E0481E74
:10167000C004030E481EC406E40E9D0009484059EC
:101680000125A5402840002804D058010019401C1D
:1016900040B230BD481CC1B26429E8DB0020C04321
:1016A000F7E700000C09002030B50246632A01DC90
:1016B000602A01DA632101E0501EC1B214E0481E25
:1016C000C004030E481EC406E40E9D00094840599C
:1016D0000125A5402840002804D058010019401CCD
:1016E00040B230BD481EC1B26029E8DA0020C043D4
:1016F000F7E700000C09002030B50246602A01DB44
:10170000632A01DD602101E0501CC1B214E0481ED3
:10171000C004030E481EC406E40E9D00094840594B
:101720000125A5402840002804D158010019401C7B
:1017300040B230BD481CC1B26429E8DB0120C0437F
:10174000F7E700000C09002030B50246632A01DCEF
:10175000602A01DA632101E0501EC1B214E0481E84
:10176000C004030E481EC406E40E9D0009484059FB
:101770000125A5402840002804D158010019401C2B
:1017800040B230BD481EC1B26029E8DA0120C04332
:10179000F7E700000C09002030B50246642A01DAA0
:1017A000012A01DA012101E0501CC1B214E0481EF7
:1017B000C004030E481EC406E40E9D0009484059AB
:1017C0000125A5402840002804D058010019401CDC
:1017D00040B230BD481CC1B26429E8DB0020C043E0
:1017E000F7E700000C09002030B502465F2A01DC53
:1017F000012A01DA012101E0501CC1B214E0481EA7
:10180000C004030E481EC406E40E9D00094840595A
:101810000125A5402840002804D058010019401C8B
:1018200040B230BD481CC1B26029E8DB0020C04393
:10183000F7E700000C09002030B50246602A01DA03
:10184000012A01DA5F2101E0501EC1B214E0481EF6
:10185000C004030E481EC406E40E9D00084840590B
:101860000125A5402840002804D058010019401C3B
:1018700040B230BD481EC1B20029E8D1481EF8E789
:101880000C09002030B502465F2A01DC012A01DA8A
:10189000012101E0501CC1B214E0481EC004030E37
:1018A000481EC406E40E9D00094840590125A54084
:1018B0002840002804D158010019401C40B230BD16
:1018C000481CC1B26029E8DB0120C043F7E70000F3
:1018D0000C09002030B50246602A01DA012A01DA3B
:1018E0005F2101E0501EC1B214E0481EC004030E87
:1018F000481EC406E40E9D00084840590125A54035
:101900002840002804D158010019401C40B230BDC5
:10191000481EC1B20029E8D1881EF8E70C09002052
:101920001CB50021684681710121C17140200090E1
:1019300068460171032141710121880502F048F8D0
:101940006946024800F048F91CBD00000014004838
:1019500010B54021014800F0B3F910BD0014004853
:1019600010B54021014800F0ADF910BD0014004849
:101970001CB50AA103C9019100900A48007801280A
:1019800001D0FFF775FD03F011FC02200549087036
:101990000021684600F0C2F81CBD0000F5010000FF
:1019A000010000F57001002010B590B0202102A8C0
:1019B000FEF7FBFB00F098FA044655480078012832
:1019C0007DD0082C7BDB042008A9087201220821A5
:1019D00002A803F0F5FB4F48007802285ED10120F1
:1019E0004C4908706846407A01280FD1012108A8A7
:1019F00081726846C17A0AA8C17006220EA968469B
:101A0000FEF7BAFB0AA80FC801F0BCFF6846407A8F
:101A1000032878D16846007B01280BD06846007BFC
:101A2000042807D06846007B842803D06846007BE2
:101A3000072810D1032108A881726846017B0AA8F3
:101A4000C17006220EA96846FEF796FB0AA80FC8C9
:101A500001F098FF57E06846007B002817D103216A
:101A600008A8817200210AA8C1706846C17A0AA834
:101A700001716846817A0AA8417106220EA968465A
:101A8000FEF77AFB0AA80FC801F07CFF3BE068462E
:101A9000007B082837D1FFF76BFF34E01D48007842
:101AA00006282DD101201B4908706846407A0C2871
:101AB00029D119480078012802D110B010BD24E0C6
:101AC0006846007B082802D101F05EFD1BE00C2176
:101AD00008A881726846017B0AA8C1706846C17A6D
:101AE0000AA801716846817A0AA8417106220EA9E6
:101AF0006846FEF741FB0AA80FC801F043FF02E069
:101B000001200449087003F051FB00BFD5E7000035
:101B10000200002070010020C8000020FEB505462C
:101B20000E46082229466846FEF726FB00270124B8
:101B300004E06846005D4740601CC4B2062CF8DB38
:101B40006846877103F032FB32460821684603F08D
:101B50006DFBFEBDF7B50C4615460027002D01D1E3
:101B60000120FEBDFFF752FD002616E001E0781CC3
:101B700087B221680098FFF713FD042801D00A2FCF
:101B8000F5DB0A2F03DBFFF7DFFC0120E9E7009814
:101B9000001D0090241D701C86B2E81CC117890F1F
:101BA00009188910B142E1DCFFF7CEFC0020D8E72C
:101BB0001CB50121C80401F00BFF01208003009037
:101BC0000021684601710121C1716946014800F098
:101BD00003F81CBD00080048F0B50A4600210023A8
:101BE000002400BF3DE001258D402B4615681D40B7
:101BF0002C469C4234D11579012D02D01579022D45
:101C000016D185684F000326BE40B54385605579DF
:101C10004E00B540866835438560858801268E4034
:101C2000B5438580858896798E40B6B235438580E8
:101C300005684F000326BE40B543056015794E0088
:101C4000B540066835430560C5684F000326BE40B1
:101C5000B543C560D5794E00B540C6683543C5600B
:101C6000491C1029BFD3F0BDF0B5002300244D0757
:101C7000EE0E1546B5402B46CD10AE00054620357C
:101C8000AD594E07F70E0F26BE40B543CE10B60035
:101C900007462037BD51CD10AE003D46AD591D431E
:101CA0002C46CD10AD003E467451F0BD02460020DA
:101CB000138A0B40002B01D0012000E00020704768
:101CC000018570478161704770B50446632C02DD61
:101CD0000020C04370BD0A212046FEF739FA0649AC
:101CE0000D5C0A212046FEF733FA0348405C2902C6
:101CF000084305B22846EDE74C0000200349887AE6
:101D00000102024A527B1143084670474C000020F2
:101D10000349887A0102024A527C114308467047FF
:101D20004C0000200349087C0102024A127C114346
:101D3000084670474C0000200349487C0102024AD3
:101D4000927C1143084670474C0000200349087BF1
:101D50000102024A527C1143084670474C000020A1
:101D60000349887B0102024AD27B1143084670472F
:101D70004C0000200349887C0102024AD27B1143B7
:101D8000084670474C0000200349C87B0102024A04
:101D9000127D1143084670474C0000200349C87C5F
:101DA0000102024A127D1143084670474C00002090
:101DB00070B50446632C01DD002070BD21460CA0E7
:101DC00003F040FB0A212046FEF7C2F90B490D5CE7
:101DD0000A212046FEF7BCF90848405C2902084366
:101DE0000546294606A003F02DFB2846E5E700003E
:101DF00069643D2025640D0A000000004C000020AD
:101E0000636F6465203D25580D0A000010B586B04B
:101E100004461E4800681E49096888420ED1002009
:101E200069460870142100A80230FEF7BEF9162298
:101E300069462046FEF7A0F906B010BD13480068B9
:101E400016225043134A811816226846FEF794F969
:101E500000210E480068162250430E4A11540B49C7
:101E60000968162251430B4A8918881C1421FEF771
:101E70009CF90648006804F08BFD044908601622AE
:101E800069462046FEF778F900BFD5E70400002038
:101E900008000020B40100200146302905DB392963
:101EA00003DC08463038C2B206E02A2901D10A22F2
:101EB00002E0232900D10B220120904003239B0341
:101EC000984380B270470246118808467047000068
:101ED00001480068704700001400002001480068B5
:101EE000704700001800002010B5024800F0A6F965
:101EF00010BD00008801002010B50020602110E016
:101F00004A1E52099300084AD2584B1EDC06E40EC2
:101F10000123A3401A40002A01D0421CD0B24A1C1F
:101F2000D1B26429ECDB10BD0C090020F8B500200B
:101F30000090002700BFFEF76DFE012003F046FF72
:101F40002048FEF7ABFC00252BE01E48FEF7A6FC60
:101F500006E00098401C80B20090012003F056FF7C
:101F600004211848FEF76CFC002804D17D21C9002B
:101F700000988842EDDB1348FEF75EFC0646102110
:101F80001048FEF71BFC1049714308460F49FEF745
:101F9000DFF80446381987B2022003F017FF681CE7
:101FA00085B2032DD1DB9321794308468D21FEF7BD
:101FB000CFF884B200210348FEF704FCFEF723FEAD
:101FC0002046F8BD00240140E40C0000FE0F000094
:101FD000F1B58AB0002509A800F042F86846808C67
:101FE000002801D10BB0F0BDFFF786FF0446002C9E
:101FF00000D1F7E7002620E05F20FFF72DFB054624
:10200000681C002801D05F2D01DC0020EAE7E8B25F
:1020100001A902F023FD6846C07903280BD1684668
:10202000817A01A8C0790002081887B20A9887420D
:1020300001D12846D6E7701C86B2A642DCDB002020
:10204000D0E770B505460024284600F03DF8044668
:10205000002C03D12846FFF7BBFF0446204670BD85
:102060007FB5044615A103C9019100901548007879
:10207000012801D0FFF7FCF903F098F80020029046
:10208000039001216846FFF749FD7D22D200082117
:1020900002A803F095F885B2082D0DDB6846007B99
:1020A000002809D16846807A01026846C07A08187B
:1020B0002080002004B070BD0120FBE7F50900007E
:1020C000000009F570010020F1B58AB0002609A8CA
:1020D000FFF7C6FF6846808C002801D10BB0F0BD29
:1020E00000F040F80446002C00D1F7E700251DE081
:1020F0003046FFF779FB0646701C002800D1EDE75B
:10210000F0B201A902F0AAFC6846C07903280BD1FD
:102110006846817A01A8C0790002081887B20A9837
:10212000874201D13046D9E7681C85B2A542DFDB82
:102130000020D3E710B5012189030248FFF7B6FD5F
:1021400010BD00000008004810B5FF210131092032
:10215000C006FFF7ABFD10BD0148008870470000C6
:1021600000E8000810B50020012110E04A1E5209C5
:102170009300084AD2584B1EDC06E40E0123A3400C
:102180001A40002A01D0421CD0B24A1CD1B26029A8
:10219000ECDB10BD0C09002010B5012001F04AFB5A
:1021A000012828D1000302F093FA012801D1042468
:1021B00025E004F0EBFA00280CD10121C902092026
:1021C000C006FFF773FD002804D000240DA003F023
:1021D00039F914E00121C9020920C006FFF766FDA4
:1021E00000280CD104F0D2FA002808D1012409A05B
:1021F00003F028F903E003240AA003F023F92046A2
:1022000010BD0000746F7563685F77616B657570F2
:102210000D0A0000627574746F6E5F77616B65758F
:10222000700D0A0073797374656D5F726573657400
:102230005F77616B6575700D0A0000000146886864
:10224000002800D170474888C0B2FBE710B50020D5
:10225000012110E04A1E52099300084AD2584B1E31
:10226000DC06E40E0123A3401A40002A01D0421CE0
:10227000D0B24A1CD1B26429ECDB10BD0C0900209D
:1022800070B505460E46022D01D1094C05E0012D21
:1022900001D1084C01E0002070BD002E03D00120C8
:1022A000A168884702E00020A16888470120F3E781
:1022B0003C0000202C00002010B5012149030248F9
:1022C000FFF700FD10BD00000008004810B5012117
:1022D00049030248FFF7F4FC10BD00000008004865
:1022E000F8B506460F46022E01D1144C05E0012E2A
:1022F00001D1134C01E00020F8BD072519E00120B1
:10230000A8403840002803D001202168884702E017
:102310000020216888470A2003F078FD00206168CA
:1023200088470A2003F072FD012061688847681E13
:1023300045B2002DE3DA0120DEE700003C0000207A
:102340002C00002070B504460D46022C03D1012C50
:1023500001D1002070BD00212046FFF791FFE9B2B6
:102360002046FFF7BDFF2804010E2046FFF7B8FF07
:1023700001212046FFF784FF0120EBE770B50446FA
:102380000D46022C03D1012C01D1002070BD00218B
:102390002046FFF775FFE9B22046FFF7A1FF2804AA
:1023A000010E2046FFF79CFF00212046FFF798FF13
:1023B00001212046FFF764FF0120E7E770B50546DD
:1023C0000E46022D01D10B4C05E0012D01D10A4C26
:1023D00001E0002070BD0020A168884700F0CCFA21
:1023E00031462846FFF77CFF0120A168884701207D
:1023F000F0E700003C0000202C0000201CB5044643
:102400000121684601710321417100218171C1716F
:102410000121C80401F0DCFA02F024FFFFF74CFFB1
:1024200002202040002819D00121880401F0D0FAB0
:102430000F200003009069461848FFF7CDFB0121EB
:1024400049031648FFF73CFC0121C9031348FFF775
:1024500037FC012109031148FFF732FCE007C00FE8
:1024600000280FD00121480401F0B2FAF0200090BA
:1024700069460920C006FFF7AFFB20210920C006EE
:10248000FFF71EFC06490120FFF75CFF0021022038
:10249000FFF794FFFFF71AFF1CBD0000000400487F
:1024A000FF3F000010B5FEF731FBFEF797FB10BDB4
:1024B00070B504460D46164600200C494870084683
:1024C000C66085604460002C04D140780421084334
:1024D00006494870FFF7FCFC4000044908610846C3
:1024E0004078022108430149487070BD3C0100203A
:1024F000002003494870C860886048607047000049
:102500003C01002070B505462B480078002851D1C9
:10251000294840780221084000284BD0FFF7D8FC1A
:10252000440025480069A04244D823484078C007A9
:10253000C00F002817D02048C06800191E49086144
:1025400008464078400840004870FEF7EBFB1A4808
:1025500040780421084000282CD117484068401ECC
:102560001549486026E01448406800280CD11248FC
:10257000407804210840002806D10F484078022105
:1025800048400D49487015E00B48806800190A4919
:102590000861084640780121084307494870FEF762
:1025A000C9FB0548407808210840002802D00120D6
:1025B0000149487070BD00003C010020F8B5044698
:1025C0000D4616461F461548844203D10120144982
:1025D000087609E01348844203D1012010490876A7
:1025E00002E000200E49087600200D494870084698
:1025F000C760866045608482002D04D14078042144
:10260000084307494870FFF763FC0549086108461D
:1026100040780221084302494870F8BDFF7F00005E
:1026200084000020FFBF000010B500200949487059
:10263000C820C86088600120486007488882FFF78A
:1026400047FC0449086108464078022108430149D3
:10265000487010BD84000020FFBF000010B5144971
:10266000002000F029F8322003F0B0FB11490120CE
:1026700000F022F8642003F0A9FB0D49002000F0CF
:102680001BF8642003F0A2FB0A49012000F014F8B3
:10269000642003F09BFB0649002000F00DF8642045
:1026A00003F094FB0021012000F006F810BD0000AB
:1026B000FF3F0000FF7F000070B505460C4600207C
:1026C000254908762B0002F0FAFE0910061D443257
:1026D0004444443D440001201F4948700846848218
:1026E000818A0120FFF72EFE34E000201A4948704D
:1026F00008468482C08AC8820846818A0120FFF782
:1027000021FE27E0002014494870C820C860886076
:102710000220486008468482FFF7DAFB0E49086110
:1027200008464078022108430B49487012E0062011
:1027300009494870C820C860886000204860084681
:10274000848207E004484078082108430249487021
:1027500000E000BF00BF70BD8400002010B5022360
:1027600000220249024803F059FF10BD75270008F6
:102770008008002070B505465048007800287DD1BB
:102780004E4840780221084000285ED0FFF7A0FBA9
:1027900004464A480169A14257D84078C007C00F93
:1027A000002828D04548C0680019444908610846F7
:1027B00040784008400048700846007E002804D059
:1027C0003F490120FFF7BEFD04E03C48C18A0120DB
:1027D000FFF7B8FD3948407804210840002834D17B
:1027E00036484068401E3549486008464068002821
:1027F0002BD1087629E03148406800280CD12F48B9
:10280000407804210840002806D12C484078022155
:1028100048402A49487018E028488068001927492C
:102820000861084640780121084324494870084659
:10283000818A0120FFF786FD204840780821084062
:10284000002802D001201D4948701C484078102102
:102850000840002830D0FFF73BFB044617480069CA
:10286000A04229D815484078C007C00F002813D0CF
:102870001248407840084000104900E01CE04870D1
:1028800008464078102148400C4948700846C18AE3
:102890000120FFF757FD0FE008488068001907493D
:1028A00008610846407801210843044948700846F9
:1028B000818A0120FFF746FD70BD000084000020E2
:1028C000FF3F000070B505460C462B0002F0F7FDF7
:1028D0000910061B43304343433C430001201F497A
:1028E000487008468482818A0220FFF747FD33E062
:1028F00000201A494870401E88820846818A0220BA
:10290000FFF73CFD28E00020144948709620C8607D
:102910008860C820486008468482FFF7D9FA0F49CA
:10292000086108464078022108430C49487013E0CA
:1029300006200A494870FF202D30C86088600020BA
:1029400048600846848207E004484078082108432C
:102950000249487000E000BF00BF70BD6400002065
:1029600010B5322300220249024803F057FE10BD81
:10297000092A00086808002010B522484078022182
:102980000840002805D11F4840780421084000284D
:102990001DD01C484078C007C00F00280BD0194834
:1029A000017D0220FFF79CFC1648808A011202205C
:1029B000FFF796FC25E00020002822D1FF2102200D
:1029C000FFF78EFCFF210220FFF78AFC19E00D487B
:1029D0004078C007C00F00280BD00A48017D0220B4
:1029E000FFF77EFC0748808A01120220FFF778FC7F
:1029F00007E0FF210220FFF773FCFF210220FFF711
:102A00006FFC10BD6400002070B505462D480078AD
:102A1000002856D12B48407802210840002850D089
:102A2000FFF756FA044627480069A04249D82548CE
:102A30004078C007C00F002819D02248C06800198C
:102A400020490861084640784008400048701E4907
:102A50000220FFF793FC1B4840780421084000281F
:102A60002FD118484068401E1649486029E0154893
:102A7000406800280CD11348407804210840002801
:102A800006D110484078022148400E49487018E0AD
:102A90000C48806800190B490861084640780121FC
:102AA0000843084948700846818A0220FFF766FCFF
:102AB0000448407808210840002802D0012001493C
:102AC000487070BD64000020FFFF000000BFFEE7FB
:102AD00038B5044601236A462146B42000F0D4F8F4
:102AE000002802D06846007838BD00F0AFF800201A
:102AF000FAE773B504460025012301AA2146B42054
:102B000000F000F90546002D01D100F09FF828469D
:102B10007CBD000010B50446002C04D101210748FB
:102B2000FFF7CEF803E001210448FFF7CBF800F0EF
:102B300007F801210148FFF7C5F810BD000400485F
:102B400010B50A2003F062F902210848FFF7BAF82D
:102B50000A2003F05BF901210448FFF7A7F80446B7
:102B600002210248FFF7ACF8204610BD00040048DF
:102B70001CB50121880400F02BFF032000900121E7
:102B80006846017103214171012181710021C171E8
:102B900069460248FFF720F81CBD00000004004809
:102BA00070B50024002509E06006040EFFF7C8FF99
:102BB000002801D0601CC4B2681CC5B2082DF3DB2C
:102BC000204670BD70B50446002513E080202040EB
:102BD000C611002E04D101210D48FFF771F803E062
:102BE00001210B48FFF76EF86006040EFFF7A8FFFF
:102BF000681CC5B2082DE9DBFFF7A2FF002803D04F
:102C000000200449087002E001200249087070BDEC
:102C1000000400482000002010B501210A48FFF7F9
:102C200051F802210848FFF74DF80A2003F0EEF8AA
:102C300001210548FFF744F80A2003F0E7F80221D4
:102C40000148FFF73DF810BD0004004810B502210F
:102C50000C48FFF735F801210A48FFF731F80A2040
:102C600003F0D4F802210748FFF72CF80A2003F0FC
:102C7000CDF801210348FFF725F80A2003F0C6F834
:102C800010BD000000040048FFB581B006461446A0
:102C90001F46FFF7C1FF3046FFF794FF1848007842
:102CA000002801D105B0F0BD0298FFF78BFF144852
:102CB0000078002800D1F5E7FFF7AEFF711CC8B21D
:102CC000FFF780FF0E480078002800D1EAE70025D2
:102CD00008E0FFF765FF20700020FFF71BFF641C72
:102CE000681CC5B2781EA842F3DCFFF759FF2070BC
:102CF0000120FFF70FFFFFF7A9FF0120D2E7000037
:102D000020000020FFB581B00E4614461F46FFF795
:102D100083FF0198FFF756FF10480078002801D183
:102D200005B0F0BD3046FFF74DFF0C480078002895
:102D300000D1F5E700250AE02078FFF743FF0748B8
:102D40000078002800D1EBE7641C681CC5B2BD42C6
:102D5000F2DBFFF77BFF0120E2E70000200000200C
:102D60000148024908607047CCCC000000300040A8
:102D70000148024908607047AAAA000000300040DC
:102D800001494860704700000030004001498860F8
:102D900070470000003000400149086070470000A3
:102DA0000030004010B50748FFF7F6FF0520FFF799
:102DB000E7FF0548FFF7EAFFFFF7DAFFFFF7D0FF6D
:102DC00010BD000055550000E204000010B51422AB
:102DD00013491448FDF7D0F9124800881249884277
:102DE00006D010480069FF2109020840002815D0CC
:102DF000002406E00021A2000A48001D8150601C4A
:102E0000C4B2042CF6DB00200649887000F010F8EC
:102E100006480078002801D0FEF764FA10BD0000D3
:102E200000EC000808090020FFFF000071010020ED
:102E300000B585B014220C496846FDF79DF9684637
:102E400000880A49884206D0FEF7E0FB0648FEF7F4
:102E500037FBFEF779FB0120054908801422024860
:102E6000FEF778FE05B000BD00EC0008FFFF000093
:102E700008090020F8B50446FFF77AFF042C0CD1AE
:102E80000025A00201F09CFB00F0DAF901E0681CCB
:102E900085B286488542FADBF8BD032C0AD1FEF7DD
:102EA00087FEFFF747F9002804D101208049087008
:102EB00003F014F803F0A8FB02F072FFFDF75EFFC9
:102EC0000320FFF79BFAFFF7EDFAFEF729FDFEF767
:102ED00047FDFFF77BFF052C2DD0FFF727F80546B0
:102EE0007448854210D874490120FFF7E5FBFDF7CF
:102EF0004FFEFF202D3002F069FF70490020FFF7E0
:102F0000DBFB00F02DF90FE04B20800185420BD850
:102F1000FEF712FF064631460120FFF7D3FCFDF70E
:102F200037FE01206649087000210120FFF7C4FB2D
:102F3000FDF774FF00BF022C03D0012C01D0002C40
:102F40003AD1FFF709F95F49884216D116205E4948
:102F500048705E490020FFF7B5FC5D490120FFF78E
:102F6000F1F900205B49487000F068FBFEF7B0FF04
:102F7000594940185949086045E0FFF767F90028AA
:102F800008D0FEF7CFFE0090694609880120FFF7C0
:102F900099FC09E0FEF702FF0090694609880120CC
:102FA000FFF790FCFDF796FE00F0E0F90546294694
:102FB0000120FFF787FC26E0032C21D1FFF746F91B
:102FC000002808D0FEF7AEFE00906946098801206F
:102FD000FFF778FC09E0FEF7E1FE009069460988FA
:102FE0000120FFF76FFCFDF775FE1420364948708D
:102FF000FEF798FE054629460120FFF763FC02E034
:1030000000203149487001F02BFA00F073FF002CCA
:1030100004D1684601F048F903F0C2FCFFF7A8FDAF
:1030200003F0BCFBFFF79CFCFFF798FB012C02D1DF
:1030300001202B490870FDF73DFF01F05FFF00F014
:10304000E5FA00F083FC032C12D15D2000F042FE73
:10305000002804D000F010FD22A002F0F3F9FFF7E1
:103060007BF81849884201D1FEF7E8F9FFF79AFE8C
:10307000022C05D0012C03D0002C01D0032C08D148
:103080001C48FEF720FF1149884202D01948FEF77C
:10309000E1F9FFF761F80B49884205D1FEF718FF07
:1030A0000D4940180D49086000BFF5E6881300007F
:1030B00010000020F8110000FF7F0000FF3F00001B
:1030C0000100002088550000A0000020FFFF000044
:1030D000FFBF000084000020B80B0000B8000020F3
:1030E00000000020697764672072657365740D0ABB
:1030F0000000000000E400081CB50121480400F0B5
:1031000067FCFF2001300090002168460171012119
:10311000C17169460920C006FEF75EFD1CBD10B5F1
:10312000FF207330FDF740FE6420FDF753FE0A22B6
:1031300028210120FFF7BCF910BD10B5FF20733026
:10314000FDF732FE6420FDF745FEFDF7F3FD282074
:1031500002F03CFEFDF7E6FD282002F037FE10BD30
:1031600010B500240CE0012002F050FE641C7D200C
:10317000C000844204D92BA002F064F9002010BDE5
:1031800003F004FB0028EED003F0C6FAFEF7E0FBE4
:10319000012000F01FFB012000F05AFC002000F08D
:1031A00057FC012000F0BAFD002403E0012002F0EA
:1031B0002DFE641C412000F08DFD002801D1642CFF
:1031C000F4D301F00FFA0121080200F041FB0120C5
:1031D00000F014FB72B6002403E0012002F016FE9A
:1031E000641C0121C9020920C006FEF75FFD00280A
:1031F00006D103F0CBFA002802D10F488442ECD369
:1032000003F0C4FA002809D10121C9020920C0062F
:10321000FEF74CFD002801D00848B0E700F0F8FAAE
:103220000648ACE76D707231323120697320686FE7
:103230006C640D0A0000000040420F00FFFF000018
:1032400070B5002506E0681C85B23648854201DD70
:10325000002070BD03F09AFA0028F4D0FEF774FF46
:10326000002825D13048FEF72EFE04462F4988421B
:1032700000D10024641C21462DA002F0E3F8062CA6
:103280000BD101202F49087000F01EF9641CA1B277
:10329000254802F0A7F80120DBE7072C07D22146DA
:1032A00029A002F0CFF8A1B21F4802F09BF80BE072
:1032B0001D48FEF708FE1D49884205D027A002F0F0
:1032C000C1F81948FEF7C6F8FEF742FB012000F0EE
:1032D00081FA012000F0BCFB002000F0B9FB0120C6
:1032E00000F01CFD002501E0681C85B2412000F0C3
:1032F000F1FC002803D17D20C0008542F4DB01F001
:1033000071F90121080200F0A3FA012000F076FA19
:1033100072B603F03BFA002801D000F079FA0348B6
:1033200097E700008813000000E40008FFFF00009A
:1033300074696D65436F756E7431203D2025640D91
:103340000A000000C70000207772697465202564B8
:1033500020746F20666C6173680D0A006C6F636B7C
:103360002072656C656173650D0A000010B509482F
:103370000078002801D000F007F900200649087005
:10338000064802F0BFFF032005494870FEF7CAFC5B
:1033900010BD000071010020C500002008080020B9
:1033A000A000002010B507480078002801D000F0E8
:1033B000EBF8054802F0A6FF082004494870FEF724
:1033C0009DFC10BD7101002008080020A000002015
:1033D00010B507480078002801D000F0D5F80D207E
:1033E00004494870FEF7C6FC0446204610BD0000A4
:1033F00071010020A000002010B5074800780028C7
:1034000001D000F0C1F80A2004494870FEF7B2FC70
:103410000446204610BD000071010020A0000020DD
:1034200010B5012016490870FEF750FFFEF798FC12
:10343000044621460120FFF745FA12490120FEF714
:1034400081FFFDF7FFFC10490020FFF73BFA0F4911
:103450000020FFF731F9FEF72FFFFEF739FD0C4989
:1034600040180C49086015200B49487001200B4991
:103470000870002002490870FDF7F6FD10BD00003D
:10348000C8000020FF7F0000FFFF0000FF3F00009A
:10349000905F0100BC000020A00000203C01002043
:1034A00010B506480078002801D0FEF761FA0448FC
:1034B00002F028FF06200349487010BD710100206A
:1034C00008080020A000002010B505242046FFF7C2
:1034D000D1FCFEF7FDFC0949401809490860C822E3
:1034E00011460020FEF7E4FFC8231A4600210548D4
:1034F000FFF764F804A001F0A5FF10BD88130000D9
:10350000B8000020FF7F00002E2E2E2E2E2E2E2EF5
:103510002E2E0D0A0000000010B507490978042975
:1035200003D10D21054A117002E00A21034A1170EE
:10353000FEF720FC10BD0000A0000020C400002009
:1035400010B504463420FDF7B5FF2046FDF7B8FF5F
:1035500010BD10B5FEF718FC044621460120FFF708
:10356000B1F9FDF76FFCFFF7FBFD10BD10B5FEF7DD
:1035700015FC044621460120FFF7A4F9FDF7AAFB3C
:10358000FFF7EEFD10BD00001CB50AA103C90191B3
:1035900000900A480078012801D0FDF769FF01F08A
:1035A00005FE06200549087000216846FEF7B6FAB8
:1035B0001CBD0000F50C000000000CF5700100209F
:1035C00010B5032189020448FEF77CFB0121C902E2
:1035D0000148FEF775FB10BD0004004810B503213B
:1035E00089020448FEF76EFB012189020148FEF7BB
:1035F00067FB10BD0004004810B503218902024892
:10360000FEF760FB10BD0000000400481CB501215E
:10361000880400F0DDF90320800200900121684653
:103620000171032141710021817169460248FEF751
:10363000D3FAFFF7E1FF1CBD0004004810B5FF20DE
:10364000F530FDF7B1FBE620FDF7C4FBFDF772FB9B
:10365000782002F0BBFBFDF765FB282002F0B6FBEB
:10366000FF20A530FDF7A0FB6420FDF7B3FBFDF7BD
:1036700061FB782002F0AAFBFDF754FB182002F052
:10368000A5FBFF206930FDF78FFB8220FDF7A2FB31
:10369000FDF750FB782002F099FBFDF743FB50202B
:1036A00002F094FBFF20C330FDF77EFB8220FDF784
:1036B00091FB00200149487010BD00003C01002032
:1036C0007047000000218278002A27D0184A03237F
:1036D0001B02D21803789B109B00D15802789207E6
:1036E000D30EFF229A400B46934319464278920725
:1036F000120E03789B07DB0E9A4011430C4A0323FA
:103700001B02D21803789B109B00D1500278D3067D
:10371000DB0E01229A40064B1A6007E00278D306BE
:10372000DB0E01229A40024B80331A607047000082
:1037300000E100E010B5FEF7DBFE5F20C000FDF702
:1037400033FBFF206930FDF745FBFDF7F3FA0B492A
:103750000120FEF7B1FFC82002F038FBFDF7E2FAC6
:1037600006490020FEF7A8FFC82002F02FFBFEF755
:10377000BFFE00210120FEF79FFF10BDFF7F00006C
:1037800010B5FF207D30FDF70FFB8220FDF722FBF7
:10379000FDF7D0FA282002F019FBFDF7C3FA5020FC
:1037A00002F014FBFDF7C6FA282002F00FFBFDF72C
:1037B000B9FA502002F00AFBFF20A530FDF7F4FA19
:1037C000C820FDF707FB00200149487010BD00002C
:1037D0003C010020002807D007490968FF22013278
:1037E0001143054A116006E003490968FF220132CE
:1037F0009143014A11607047007000400349096815
:1038000082001143014A11607047000000700040BF
:10381000064800680221084304490860044800691A
:10382000042108430249086130BF7047007000401E
:1038300000ED00E001460020044A52680A40002AD8
:1038400001D0012000E0002070470000007000401F
:10385000002905D0054A52680243044B5A6004E02F
:10386000024A52688243014B5A6070470070004020
:103870000FB430B585B014220BA96846FCF77CFC68
:103880002A49087A08A90EC9FDF716F9FFF7D6FEEE
:10389000FEF7CAFE2548007A602812DB2348007A2A
:1038A00064280EDAFEF728FB042802DBFFF751FE3E
:1038B00015E005201D4948700020FDF71DFF044656
:1038C0000DE0FEF74FFC5F2802DBFFF742FE06E04B
:1038D0000420164948700020FDF7D4FF044600205C
:1038E00013490870601C002802D1FDF7CBFF044685
:1038F000601C002806D00D490C72087AFEF758FAB1
:1039000005460AE0642009490872FEF73DFA0546BB
:10391000FFF710FF07A001F095FD29460420FEF7F0
:10392000D1FF05B030BC08BC04B01847A00000208F
:10393000C500002073797374656D206572723F3F16
:103940003F3F0D0A000000007047000010B5002046
:10395000074948728872022300220649064802F08D
:103960005DFEFEF7B5FA054940180549086010BD2F
:10397000A0000020A169000898080020581B000042
:10398000B80000200FB410B50E48006803F000F82E
:103990000D490968884203D110BC08BC04B018471F
:1039A0000849096816225143084A8818162202A9B4
:1039B000FCF7E2FB0348006802F0EAFF01490860F7
:1039C00000BFE9E70800002004000020B401002047
:1039D000002905D0054A52690243044B5A6104E0AC
:1039E000024A52698243014B5A61704700100240FB
:1039F000002905D0054AD2690243044BDA6104E08C
:103A0000024AD2698243014BDA61704700100240DA
:103A1000002905D0054A92690243044B9A6104E0EB
:103A2000024A92698243014B9A617047001002403A
:103A3000002905D0054AD2680243044BDA6004E04D
:103A4000024AD2688243014BDA607047001002409C
:103A5000002807D00749096A012212041143054AC8
:103A6000116206E00349096A012212049143014AE6
:103A700011627047001002400348406A01210906A4
:103A8000084301494862704700100240FEB50446F1
:103A90000025002600200290019000900027864813
:103AA00040680C2108400546002D06D0042D07D0A3
:103AB000082D08D00C2D2CD128E0804820602BE068
:103AC0007E48206028E07C4840680F218904084037
:103AD0000646794840680321C90308400290B00CAB
:103AE000861C0298002803D17548374647430BE0EF
:103AF0007148C06A0007000F401C01906F4801998F
:103B0000FCF710FB70430746276005E06D48206016
:103B100002E06A48206000BF00BF67484068F021AB
:103B2000084005462D096848405D009020680099CE
:103B3000C8406060604840680721090208400546A7
:103B40002D0A6148405D009061680098C140A16005
:103B50005948006BFF2101310840884202D05B4880
:103B6000E0600DE054484068012189030840884224
:103B700003D0A0684008E06002E0A0688008E06030
:103B80004D48006B40210840402802D05048206139
:103B900002E00120C00320614748006B102108406B
:103BA000102802D04548606101E020686061424809
:103BB000006B8007800F002802D1A068A06119E087
:103BC0003D48006B8007800F012802D12068A0616A
:103BD00010E03948006B8007800F022802D1800373
:103BE000A06107E03448006B8007800F032801D1F3
:103BF0003248A0613048006B0321090408400028C6
:103C000002D1A068E06120E02B48006B0321090489
:103C1000084001210904884202D12068E06114E0D3
:103C20002548006B0321090408400121490488420A
:103C300002D18010E06108E01F48006B03210904F5
:103C40000840884201D11D48E0611B48006B0321F8
:103C500089040840002802D1A068206220E01648AC
:103C6000006B03218904084001218904884202D1A4
:103C70002068206214E01048006B0321890408408A
:103C80000121C904884202D10011206208E00A48DB
:103C9000006B032189040840884201D10748206253
:103CA0000548006B80210840802802D005486062EA
:103CB00000E06762FEBD00000010024000127A00C2
:103CC00000093D00006CDC0272010020809FD500DD
:103CD0001280000010B5024600210023002051117F
:103CE000002902D10C4C23680BE0012902D10A4CB7
:103CF000236A06E0022902D1074C636A01E0064C00
:103D0000636BD106C90E01248C401C40002C01D0ED
:103D1000012000E0002010BD00100240002806D065
:103D20000649496A01221143044A516205E00349E8
:103D3000496A49084900014A51627047001002402F
:103D4000002807D00749096A0122D2031143054A16
:103D5000116206E00349096A0122D2039143014A34
:103D600011627047001002400249096A0143014A8A
:103D7000116270470010024070B588B0054693216B
:103D800068460172702141720021817300240BE0AA
:103D9000295D02AAA01C11546946887B295D484010
:103DA00069468873601CC4B2042CF1DB03AA033299
:103DB000072102A800F018F80821084600F049F889
:103DC00007A802AB092202A900900C2000F044F9D8
:103DD0000646002E04D16846007F182800D100E076
:103DE0000226304608B070BDF7B5074615460421D7
:103DF000052000F02EF80021012000F0D3F88021EA
:103E00000B2000F0D5FA002405E0395D092000F010
:103E1000C9F8601CC4B201988442F6DB032101207A
:103E200000F0C0F8FF2400BF052000F09FF8064610
:103E3000601EC4B2002C03D0042030400028F3D010
:103E4000222000F093F82870212000F08FF868708D
:103E5000FEBD70B505460C460026284600F086F8E3
:103E600006463046A0430146284600F09BF870BD48
:103E7000F0B585B004460F46FF2214216846FCF7D2
:103E80008DF96946262000F09CF90546002D02D0E8
:103E9000022005B0F0BD69460E783002497808432B
:103EA000064601208002864202D10020207008E0F0
:103EB00001204002864202D10120207001E0FF2053
:103EC0002070684600F090F80546002D01D00220D1
:103ED000DFE76846FFF750FF0546002D01D00220BE
:103EE000D7E700F057F9042269463846FCF744F951
:103EF0000020CEE710B500F095F9012001F086FF13
:103F000000F0CAF9012001F081FF00F08BF90120D7
:103F100001F07CFF0F21012000F044F8012001F0A6
:103F200075FF3D21112000F03DF81E212D2000F0ED
:103F300039F800212C2000F035F88D212A2000F0DE
:103F400031F83E212B2000F02DF84021152000F003
:103F500029F800F043F8142300220249024802F035
:103F60005DFB10BDA94200081C0D002070B5044681
:103F700040210B48FDF7A4FE062001F047FF60003A
:103F80007E21084004468034204600F03FFA00F0CD
:103F90001FFA054640210248FDF794FE284670BDF1
:103FA0000004004870B504460D4640210A48FDF75C
:103FB00087FE062001F02AFF60007E2108400446AB
:103FC000204600F023FA284600F020FA402102485B
:103FD000FDF778FE70BD00000004004810B5032115
:103FE0001420FFF736FF10BDF0B587B00546002757
:103FF00008210846FFF72DFF00210D20FFF7D2FF13
:1040000080210E20FFF725FF9321684601712021B2
:10401000417106A801AB022201A900900C2000F01A
:104020001BF80646002E10D1002407E001A8005D11
:10403000285501A8005D4740601CC4B2042CF5DB84
:1040400001A8005DB84200D0022680210E2000F0B9
:10405000AFF9304607B0F0BDFFB583B00646022089
:1040600002900020019000900E2E04D112200190A9
:104070001020009005E00C2E03D177200190302015
:10408000009080220198104301460220FFF78AFF2A
:1040900080210420FFF7DDFE00210120FFF782FFD1
:1040A00080210A2000F084F9002506E00498415D93
:1040B0000920FFF777FF681C85B205988542F5DB7C
:1040C00031460120FFF76EFF0C2E03D180210D2019
:1040D00000F06EF97D252D0100BF0420FFF746FF9B
:1040E0000446681E85B2002D07D0E007C00F0028E7
:1040F00003D1009820400028EFD080210D20FFF749
:10410000A8FE002D3BD00620FFF730FF1B21084002
:10411000002832D1029001982040C007C00F00282B
:1041200001D0012002900C2E29D10A20FFF71EFF9A
:1041300004460C20FFF71AFF47077F0F002F06D019
:10414000601EC000C019C1B20C98017003E0E00607
:10415000010E0C980170002C00D10124122C00DDFE
:104160001224002506E00920FFF700FF06994855B4
:10417000681C85B2A542F6DB01E002200290802196
:104180000C2000F015F900210120FFF70BFF029829
:1041900007B0F0BD00B587B050216846017100211D
:1041A0004171821D022101A8FFF71EFE06A801AB86
:1041B000042201A900900C20FFF74EFF002007B059
:1041C00000BD70B588B005460C4608210846FFF7CB
:1041D00040FE07210D20FFF7E5FE0321142000F02B
:1041E000E7F86846057207A802AB012202A9009011
:1041F0000C20FFF731FF0646002E0AD16846007FEB
:10420000102806D16846007A20706846407A6070AF
:1042100000E00226304608B070BD10B500F002F88C
:1042200010BD000010B580210148FDF74BFD10BD09
:104230000004004810B5FFF7F5FF642001F0C6FD4B
:1042400000F02AF8642001F0C1FDFFF7EBFF6420C5
:1042500001F0BCFD0F210120FFF7A4FE642001F056
:10426000B5FD3D211120FFF79DFE1E212D20FFF7FA
:1042700099FE00212C20FFF795FE8D212A20FFF7C3
:1042800091FE3E212B20FFF78DFE40211520FFF7E8
:1042900089FEFFF7A3FE10BD10B580210148FDF790
:1042A0000FFD10BD0004004810B58CB0044600207E
:1042B0000B9039480078012801D10CB010BD374867
:1042C0004078C01E030001F0FAF80B086262073163
:1042D00009620A62620B620000BF00BF00BF00BF3C
:1042E00009A90BA8FFF7C4FD00281ED1029008A958
:1042F000087202A909A8FBF777FF002814D028A0AC
:1043000001F0A0F8032069460873052209A903A853
:104310000230FBF731FF062207A96846FBF72CFFA6
:1043200003A80FC8FFF72EFB00BF31E01F4800783D
:10433000032800D02CE01D480078032826D109A9C5
:104340000BA8FFF795FD002820D1029008A908725C
:1043500002A909A8FBF748FF002816D003206946E8
:104360000873052209A903A80230FBF705FF0622FE
:1043700007A96846FBF700FF03A80FC8FFF702FB79
:104380001E2250210120FEF793F800BF00E000BF7D
:1043900000BF00BF91E70000C8000020A00000207F
:1043A0007363616E206F6B0D0A000000B908002076
:1043B00070B505460C4600262846FFF7D7FD064691
:1043C0003046204301462846FFF7ECFD70BD000053
:1043D00070B50024002513E008210B48FDF770FCA0
:1043E0006006040E0848008A10210840002801D009
:1043F0000120044308210448FDF764FC681CC5B291
:10440000082DE9DB204670BD0004004870B5044665
:1044100000251BE008211148FDF752FC80202040B8
:10442000002804D020210D48FDF74CFC03E020219A
:104430000A48FDF745FC6006040E08210748FDF711
:1044400041FC062001F0E2FC681CC5B2082DE1DB4E
:1044500020210248FDF734FC70BD00000004004834
:104460001CB501218804FFF7B3FA012168460171E8
:1044700068200090002168468171C171032141715B
:1044800069461748FDF7A8FB08211548FDF718FCF9
:1044900020211348FDF714FC40211148FDF712FCC0
:1044A00001216846017180200090002168468171D9
:1044B000C1710321417169460948FDF78DFBFFF782
:1044C000EBFE002168460171102000906846817162
:1044D000C1710321417169460148FDF77DFB1CBD97
:1044E0000004004810B503211420FFF761FF10BD40
:1044F00038B502460024009400230020CA24174D3A
:104500006C6253246C62002905D02C46A4681443C5
:10451000AC6001201DE0114CA46894430F4DAC60C9
:1045200000BF0E4CE468150A2C402346009C641C16
:1045300000940125AD03009CAC4201D0002BF0D0CB
:10454000064CE468150A2C40002C01D1002000E044
:104550000120FF24014D6C6238BD0000002800409E
:1045600030B503460020CA24064D6C6253246C62A9
:1045700014060C432046034C40346060FF246C62F8
:1045800030BD000000280040014600BFF020084078
:1045900000110A23584302460807000F8018C0B2D2
:1045A00070470146002204E0501CC2B208460A3897
:1045B000C1B20A29F8DA1007000E0843704700005C
:1045C00010B50021010980220A4392B2D243044B64
:1045D000DB68802423401A43014BDA6010BD0000E1
:1045E0000028004000B589B001204002FFF7BCFB65
:1045F0000120FFF7A5FB00F0FBF9002006907F20CB
:104600000790FF202C30089006A800F0EDF800215C
:104610006846C172017241728172312101750020B8
:104620000490C807039002AAC10D012000F008F908
:104630000F2201210802FFF793FF0121080300F078
:10464000A1F801210802FFF753FF00216846C1715C
:1046500001714171817101A9012000F05DF909B07A
:1046600000BD000008B50022009200200021124A7F
:10467000D26840231A40002A1BD1421E0E4BDA603A
:1046800000BF0D4AD26840231A401146009A521CBE
:1046900000921B02009A9A4201D00029F1D0064AEA
:1046A000D26840231A40002A01D0012002E00020F5
:1046B00000E0012008BD0000002800400348C06859
:1046C000802188430149C8607047000000280040ED
:1046D00070B501460020002200230F4C24680425F9
:1046E0002C4022460C4C403CA4680C408E0C0D46DD
:1046F000F540ED0B15402C432346074C403CE46845
:104700000D092C402246002B04D094B2002C01D07D
:10471000012000E0002070BD4028004010B50120BD
:104720008003FFF7D5FF00280BD00DA000F08AFE14
:1047300001208003FFF744FF01204004FCF772FED4
:104740000CE001200003FFF7C3FF002806D009A0FA
:1047500000F078FE01200003FFF732FF10BD0000DB
:1047600077616B65757050696E20697320776F7221
:104770006B0D0A00616C726D4120697320776F7256
:104780006B0D0A0010B5CA22164B5A6253225A62A8
:10479000002911D01A46926804240346A3431A4301
:1047A000104B9A600F4A40321268042303401A43A8
:1047B0000C4B40331A6010E00A4A92680424034606
:1047C000A3439A43074B9A60064A40321268042377
:1047D00003409A43034B40331A60FF22014B5A6255
:1047E00010BD00000028004030B504460025CA2056
:1047F0001249486253204862FFF734FF002800D175
:1048000017E00E488068402188430C4988600846BC
:1048100080682168084309498860A06808610846E3
:104820000069A1880904084304490861FFF746FFAD
:104830000125FF2001494862284630BD002800407C
:10484000F8B5054614460026002D0ED13148806883
:1048500040210840002800D002E00020E07000BFA6
:10486000A068002800D11BE01AE02A488068402197
:104870000840002804D02078FFF786FE064602E0B4
:104880000020E07000BFA068002804D1207BFFF763
:104890007BFE064604E0207BFFF776FE064600BF5F
:1048A000002D12D020780004617809020843A17815
:1048B0000843E17809040843217B09060843A168FD
:1048C000084361680843064619E02078FFF769FE4F
:1048D00007046078FFF765FE00020743A078FFF742
:1048E00060FE0743E07800040743207BFFF759FE92
:1048F00000060743A0680743606807433E46CA2096
:1049000004494862532048620846C661FF20486255
:10491000F8BD000000280040F8B505460C4600260A
:1049200000200090002D0AD12F48806840210840C7
:10493000002800D002E00020E07000BF0EE02A480E
:10494000806840210840002804D02078FFF71CFE32
:10495000064602E00020E07000BF00BF002D0BD033
:1049600020780004617809020843A1780843E178BF
:1049700009040843064610E02078FFF712FE0704FA
:104980006078FFF70EFE00020743A078FFF709FEEC
:104990000743E078000407433E46CA2012494862B4
:1049A00053204862FFF75EFE002801D1009016E018
:1049B0000E4830400C490860FFF780FE0A488068C6
:1049C00020210840002808D100F012F8002801D169
:1049D000009004E00120009001E001200090FF2001
:1049E000014948620098F8BD002800407F7F7F00A1
:1049F00008B50022009200200021174A9268202367
:104A00001A40002A01D0012025E0CA22124B5A6226
:104A100053225A621A46D268A0239A430E4BDA6098
:104A200000BF0D4AD26820231A401146009A521C3A
:104A300000929B02009A9A4201D00029F1D0064AC6
:104A4000D26820231A40002A01D0012000E0002073
:104A5000FF22014B5A6208BD0028004070B5044691
:104A60000E46002C01D0642C02DB0020C04370BD38
:104A70005F2C04DC601E40010749451804E0204615
:104A80006038400105494518202229463046FBF789
:104A900073FB2020EBE7000000F0000800FC00089A
:104AA00010B504460EA000F0CDFC002C01D0032C64
:104AB00004D10F480068401C0D4908600C4800688C
:104AC000032802D3FEF7ACFC05E0032C01D0FEF76F
:104AD0004DFCFEF72FFE074801F014FC10BD00004E
:104AE000636F6D70617265206661696C0D0A00000C
:104AF000C00000200808002070B505460C46002DB7
:104B000006D005A000F09EFC284600F00DF802E05B
:104B10002046FFF7C5FF70BD636F6D706172652041
:104B20006F6B0D0A0000000070B504460E48047259
:104B30000146087AFDF73CF9054629460120FDF7B4
:104B4000C1FE0A490120FDF7FDFB0020084948701D
:104B5000FEF774FD122004494870064801F0D2FBAC
:104B6000FCF786FC70BD0000A0000020FFBF000025
:104B7000840000200808002010B5FF207D30FCF7DD
:104B800013F98220FCF726F9FCF7D4F8782001F01D
:104B90001DF9FCF7C7F8282001F018F9FCF7CAF84E
:104BA000782001F013F9FCF7BDF8282001F00EF988
:104BB000FF20A530FCF7F8F8C820FCF70BF900201F
:104BC0000149487010BD00003C0100207047000002
:104BD0000CB500200190009011201D4908601D486F
:104BE00040681C494860084640684860084640687C
:104BF0007F21C9038843174948600846406805215A
:104C0000C9040843134948600846006801210906A1
:104C100008431049086000BF0E480068012149069A
:104C200008400028F8D00B484068800880000949F7
:104C3000486008464068022108430649486000BFB2
:104C4000044840680C2108400828F9D10CBD000038
:104C5000002002400010024010B50446002C01D094
:104C6000012C04D103488470FEF7E2F800E010BD87
:104C700000BFFCE7080900207047000010B51B4882
:104C8000006801210843194908600846406818492E
:104C9000084016494860084600681649084013490C
:104CA0000860084600680121890488430F490860AC
:104CB000084640683F21090488430C49486008467B
:104CC000C06A00090001C8620846006BFF21543128
:104CD0008843064908630846406B40084000486323
:104CE00000208860FFF774FF10BD00000010024034
:104CF0000CB8FF08FFFFF6FE10B50121054800F0D3
:104D00004CF8002805D00121024800F023F800F0FB
:104D100021F910BD0020004010B50121054800F028
:104D20003CF8002805D00121024800F013F800F0FB
:104D30003DF910BD00040040002904D00288802302
:104D40001A43028003E00288014B1A400280704738
:104D50007FFF0000CA43028270470000002904D090
:104D6000028801231A43028003E00288014B1A40A3
:104D700002807047FEFF0000002907D04422125A2B
:104D80000123DB031A4344231A5205E04422125A3A
:104D900053045B0C44221352704730B50246002086
:104DA00000230024158A0D402B4695890D402C4682
:104DB000002B03D0002C01D0012000E0002030BDEA
:104DC000002A03D083890B43838102E083898B43CC
:104DD0008381704770B5002400220023058C1C4E8F
:104DE00035400584028C8388048B194D6F3D2C401F
:104DF000B51E2C400D882C43751E2A408D892A43F0
:104E00004D882A43134DA84208D0134DA84205D01F
:104E1000124DA84202D0124DA84212D10C4DED1FE6
:104E20002A40CD892A430A4DED1E2A408D882A4307
:104E3000074DFF3D2B400B4D2B400D8A2B434D8AD8
:104E40002B43838004838D684563028470BD00001A
:104E5000FEFF0000002C01400040014000440140E2
:104E600000480140FFFD00000A460021018B034B72
:104E700019400B461343194601837047F7FF0000A2
:104E800000220288154B984206D001239B079842C6
:104E900002D0134B984203D1124B1A404B881A434D
:104EA000114B984203D0114B1A400B891A430280D0
:104EB0004B68C3620B880385084B984208D00C4BA3
:104EC000984205D00B4B984202D00B4B984201D12F
:104ED0008B7A03860123838270470000002C0140F7
:104EE000000400408FFF000000100040FFFC0000A5
:104EF0000040014000440140004801401FB5C72068
:104F000002902F216846818000218181C1808173B8
:104F100001210802FEF76CFD01A90D48FFF7B0FF63
:104F20001321684601700221417001218170FEF752
:104F3000C9FB01210648FFF70DFF01221146044875
:104F4000FFF73EFF01210248FFF708FF1FBD0000E9
:104F50000020004010B512480068401C104908604D
:104F600010480068401C0F4908600D4803F014FF0A
:104F700005210C480068FBF7D5F8002904D10A4840
:104F80000068401C08490860FF212D310648006870
:104F9000FBF7C8F8002901D1FDF7EAFE10BD0000BB
:104FA000180000201C0000201400002010B5084844
:104FB0000068401C06490860FF21F531044800687C
:104FC000FBF7B0F8002901D1FDF7D2FE10BD0000BB
:104FD0001400002010B50749074800F039F80028F0
:104FE00006D0054800F0D8F8C4B2204604F01AF8FC
:104FF00010BD0000050105000038014010B507494B
:10500000074800F025F8002806D0054800F0C4F84D
:10501000C4B2204604F006F810BD000005010500EA
:1050200000440040002904D0026801231A430260B2
:1050300003E00268520852000260704702460020F6
:10504000D3690B40002B01D0012000E00020704705
:1050500070B502460B4600240021002500201E04E6
:10506000350ED9B201268E403146012D02D1166887
:10507000314006E0022D02D15668314001E09668C9
:1050800031401C0C0126A6403446D6693440002924
:1050900003D0002C01D0012000E0002070BD0000F2
:1050A000F0B58BB004460D46002700200A9000267C
:1050B00020684008400020606668032109033046EC
:1050C00088430646A8680643666026682D48064061
:1050D000E968686808432969084306432660A668AA
:1050E0000321090230468843064668690643A660E4
:1050F0006846FEF7CBFC2448844202D106980A9009
:105100000DE02248844202D107980A9007E0204827
:10511000844202D108980A9001E002980A9020681F
:105120000121C903084000280CD029680A9A5000C0
:10513000FAF7F8FF074629680A9A5000FAF7F2FFD3
:105140000E4609E029680A98FAF7ECFF0746296835
:105150000A98FAF7E7FF0E4628684008B04200D8E0
:105160007F1C20680121C9030840002806D03807A9
:10517000460F38460749084030430746A7810BB021
:10518000F0BD0000F3E9FFFF00380140004400409B
:1051900000480040F0FF00000146888CC005C00DAB
:1051A0007047CA05D20D02857047000010B572B66F
:1051B000024801F0A7F862B610BD00008801002087
:1051C000F7B584B004460F4600250698039024E006
:1051D000002002901CE013E072B601A9124801F011
:1051E000BBF8064662B6012E00D10AE06846007997
:1051F0002070641C6D1CBD4202D3284607B0F0BD70
:10520000EAE700BF012000F001FE0298401C029076
:105210007D21C90002988842DDD30398411E039185
:105220000028D5D12846E9E78801002070B504465A
:105230000D461646094806700BE02178641C0848A4
:10524000FFF7AFFF00BF40210548FFF7F7FE00283A
:10525000F9D028466D1E0028EFD170BD0200002055
:10526000004400401CB50120400300900121684625
:1052700001710321417100218171C1710121C804B3
:10528000FEF7A6FB69460248FCF7A6FC1CBD000021
:105290000008004870B5FEF7D1F9FDF7C5F93F48A1
:1052A000007802280DD1FCF75DFF002806D0092008
:1052B0003A494870FEF730F9044659E0FEF756F9CE
:1052C00056E036480078042806D109203349487052
:1052D000FEF722F904464BE030480078012815D14A
:1052E000FCF740FF5F280EDA00202D490870FCF71C
:1052F000C9FA2A490872087AFCF75AFD04460420C4
:105300002649487034E0FEF724F931E0234800785C
:10531000032815D1FCF7F0FD04280EDA00202049FF
:105320000870FCF7E9F91D490872087AFCF740FD9E
:1053300004460520194948701AE0FEF70AF917E0FB
:1053400016480078052802D1FBF70EFB10E0134841
:10535000007806280CD1172010494870FCF776FF1A
:105360000546FCF725FD044621460120FDF7AAFA73
:105370000C4800F0C7FF09484078032808D00748C8
:105380004078172804D021460420FDF79BFA03E05B
:1053900021460120FDF796FA70BD0000A000002014
:1053A000C50000200808002070B504460A2C01DB67
:1053B0000F2C00DD70BD084800F0A4FF0748047002
:1053C000092007494870FCF7D5FC0546294604200A
:1053D000FDF778FA00BFEDE708080020C4000020C0
:1053E000A000002070B505460E46FCF70FF92846D0
:1053F000FCF769FD0949884202D02846FEF7A0F86B
:1054000031462846FCF7AAF80446FCF79DF8042C20
:1054100001D0002070BD0120FCE70000FFFF00006C
:1054200010B5FCF7F3F80548FCF74AF804490348BF
:10543000FCF794F8FCF788F810BD000000E80008BD
:10544000885500000FB410B503A9044B044A029814
:1054500000F0FEF810BC08BC04B0184795630008C3
:10546000840100200FB41CB50A46521E0192009020
:1054700007A9064B6A46069800F0EAF8009A002150
:1054800011701CBC08BC04B018470000895D0008FE
:105490002021020C01D010211046020A01D0104632
:1054A0000839020901D01046091F820801D01046B0
:1054B000891E420801D0881E7047081A704730B410
:1054C0007446641E2578641CAB4204D3635D5B00A4
:1054D000E31830BC18471D46F8E702E008C8121F61
:1054E00008C1002AFAD170477047002001E001C1CD
:1054F000121F002AFBD17047F0B51FB484B0079883
:105500000699020D014314D04A484B4910184843EC
:1055100005140F9801280E981CD0281A401C00244E
:10552000464E4749009401910290002814DA474200
:1055300027E00F98012443A3012808D000210498F4
:105540000F9A84600360C260416009B0F0BD0E989C
:10555000C143F4E74042E2E7074612E0F80707D00C
:105560002246334601990098FAF738FF01910090DE
:105570002246334610461946FAF730FF04460E46D7
:105580007F10002FEAD10298019B0028009A07990A
:10559000069802DAFAF722FF01E0FAF787FF0446DD
:1055A0000E460022284BFBF719F803D80020C04311
:1055B000014607E00022254B20463146FAF75CFE03
:1055C000FAF7ECFF102409E0002C0ADB0A22002382
:1055D000FAF721FE059B30321A55641E02460A4333
:1055E000F2D11122641C059B121B1C190F9B012B6D
:1055F00003D0012308430ED10AE0084304D0112050
:105600000E9000200F9084E70E98151A6D1E0BE087
:105610000E98824202DD00236D1C03E0824201DA13
:1056200000236D1E002BEED004980F998260C1609C
:1056300030C08AE701FCFFFF104D0000000024404D
:105640000000F03F300000000000F0430000E03FA9
:10565000FFB597B00646002518E2252877D100242B
:105660002746FD49049400E00443761C327801206B
:10567000203A90400842F7D130782A280ED00222F2
:10568000307801463039092916D804990A2359433C
:10569000303940181443761C0490F1E7189802C87A
:1056A00004911890002904DA012040030443484281
:1056B000049002200443761C30782E2814D1042054
:1056C00004437078761C2A2809D11898761C80C863
:1056D000189009E00A214F43303FC719761C3078F3
:1056E000014630390929F5D930786C2810D006DC0C
:1056F0004C281AD068280ED06A2817D104E07428E4
:1057000013D07A2812D110E00120400504430CE0A8
:105710000121090501E0032109050C43717881424B
:1057200003D1012000052418761C761C30781190D6
:1057300066280BD013DC58287DD009DC00287BD0EC
:105740004528F6D04628F4D047281AD1A5E118E01C
:10575000632835D0642870D0652812D19DE1702867
:105760006CD008DC6728F1D069287BD06E280DD07A
:105770006F2806D1BAE073282ED0752871D078280A
:1057800059D01A9A199990476D1C7EE16002400F1A
:10579000022809D003280DD00428189801680DD0DC
:1057A0000D60001D189070E11898EA1701680D60EF
:1057B0004A60F6E7189801680D80F2E70D70F0E78F
:1057C00018986A4601781172001D189000205072D6
:1057D00002A80090012005E0189802C81890002047
:1057E0000091C04361070DD5002101E00199491CDA
:1057F0000191B94212DA8142F8DB009A515C00292A
:10580000F4D10BE0002101E00199491C0191814292
:10581000FADB019A0099895C0029F5D10199049875
:105820001A9B471A21463846199A00F097FA0199AF
:10583000401945180BE04FE02CE113E04EE00098D2
:1058400000990078491C00911A9A1999904701987B
:10585000401E0190401CF2D1214638461A9B199AED
:1058600010E137E00A200021009001916002410F11
:10587000022907D0189A01CA1892C2179446032920
:1058800008D00AE01898C01DC108C90005C91891C0
:10589000944607E000B2C2179446042902D140B2F0
:1058A000C1178C4600226146944506DA0A4600215B
:1058B000404291418C462D2102E0210504D52B2147
:1058C0006A461173012103E0E10701D02021F7E7C7
:1058D000029155E00A200AE0102008E01020009014
:1058E0000021042004430191082703E0082000213F
:1058F000019100906002410F022907D0189A01CA55
:10590000189200229446032908D008E01898C01D78
:10591000C108C90005C91891944603E080B2042962
:1059200000D1C0B200210291210729D51199702917
:1059300006D0009A1021019B4A401A4305D00EE080
:1059400040216A461173012108E06146014306D0F7
:1059500030216A4611731199517302210291009A04
:105960000821019B4A401A430AD16146014301D1F3
:10597000610705D530216A46117301217F1E02910E
:105980001199582904D035A10E910DA90D910DE062
:1059900037A1F9E76146019B009AFAF73CFC0E9BA0
:1059A0008C469B5C0D9A521E0D921370614601430A
:1059B000F0D10D9805A9081A20300190600703D591
:1059C00001200004844300E001270198874201DDA3
:1059D000381A00E000200199009041180298091837
:1059E0000498401A0490E00306D421461A9B199AA1
:1059F000049800F0B3F94519002706E003A81A9AA5
:105A0000C05D199990476D1C7F1C02988742F5DB99
:105A1000E0030CD521461A9B199A049800F09EF9D0
:105A2000451904E01A9A3020199990476D1C009985
:105A3000481E00900029F5DC08E00D980D990078CB
:105A4000491C0D911A9A199990476D1C0199481E8D
:105A500001900029F1DC63E1092801003031323383
:105A6000343536373839616263646566000000009A
:105A70003031323334353637383941424344454684
:105A80000000000000F05AF94519761C3078002813
:105A900000D0E2E528461BB0F0BD600700D4062721
:105AA0001898C01DC108C90048680A680831C30FAA
:105AB000DB071891190001D09CA108E0210501D550
:105AC0009BA104E0E10701D09AA100E09AA1430064
:105AD00011985B08109165280CD006DC452809D088
